{
  "contractName": "Comment",
  "abi": [
    {
      "constant": true,
      "inputs": [
        {
          "name": "",
          "type": "uint256"
        },
        {
          "name": "",
          "type": "uint256"
        }
      ],
      "name": "ObjectComments",
      "outputs": [
        {
          "name": "createAt",
          "type": "uint256"
        },
        {
          "name": "sender",
          "type": "address"
        },
        {
          "name": "rating",
          "type": "uint256"
        },
        {
          "name": "comment",
          "type": "string"
        }
      ],
      "payable": false,
      "stateMutability": "view",
      "type": "function"
    },
    {
      "constant": true,
      "inputs": [
        {
          "name": "",
          "type": "uint256"
        },
        {
          "name": "",
          "type": "uint256"
        }
      ],
      "name": "ArticleComments",
      "outputs": [
        {
          "name": "createAt",
          "type": "uint256"
        },
        {
          "name": "sender",
          "type": "address"
        },
        {
          "name": "rating",
          "type": "uint256"
        },
        {
          "name": "comment",
          "type": "string"
        }
      ],
      "payable": false,
      "stateMutability": "view",
      "type": "function"
    },
    {
      "constant": false,
      "inputs": [
        {
          "name": "ArticleId",
          "type": "uint256"
        },
        {
          "name": "rating",
          "type": "uint256"
        },
        {
          "name": "comment",
          "type": "string"
        }
      ],
      "name": "addArticleComment",
      "outputs": [
        {
          "name": "success",
          "type": "bool"
        }
      ],
      "payable": false,
      "stateMutability": "nonpayable",
      "type": "function"
    },
    {
      "constant": false,
      "inputs": [
        {
          "name": "ObjectId",
          "type": "uint256"
        },
        {
          "name": "rating",
          "type": "uint256"
        },
        {
          "name": "comment",
          "type": "string"
        }
      ],
      "name": "addObjectComment",
      "outputs": [
        {
          "name": "success",
          "type": "bool"
        }
      ],
      "payable": false,
      "stateMutability": "nonpayable",
      "type": "function"
    },
    {
      "constant": true,
      "inputs": [
        {
          "name": "ArticleId",
          "type": "uint256"
        }
      ],
      "name": "getArticleCommentsLength",
      "outputs": [
        {
          "name": "",
          "type": "uint256"
        }
      ],
      "payable": false,
      "stateMutability": "view",
      "type": "function"
    },
    {
      "constant": true,
      "inputs": [
        {
          "name": "ObjectId",
          "type": "uint256"
        }
      ],
      "name": "getObjectCommentsLength",
      "outputs": [
        {
          "name": "",
          "type": "uint256"
        }
      ],
      "payable": false,
      "stateMutability": "view",
      "type": "function"
    },
    {
      "constant": true,
      "inputs": [
        {
          "name": "ArticleId",
          "type": "uint256"
        },
        {
          "name": "id",
          "type": "uint256"
        }
      ],
      "name": "getArticleComment",
      "outputs": [
        {
          "name": "",
          "type": "uint256"
        },
        {
          "name": "",
          "type": "address"
        },
        {
          "name": "",
          "type": "uint256"
        },
        {
          "name": "",
          "type": "string"
        }
      ],
      "payable": false,
      "stateMutability": "view",
      "type": "function"
    },
    {
      "constant": true,
      "inputs": [
        {
          "name": "ObjectId",
          "type": "uint256"
        },
        {
          "name": "id",
          "type": "uint256"
        }
      ],
      "name": "getObjectComment",
      "outputs": [
        {
          "name": "",
          "type": "uint256"
        },
        {
          "name": "",
          "type": "address"
        },
        {
          "name": "",
          "type": "uint256"
        },
        {
          "name": "",
          "type": "string"
        }
      ],
      "payable": false,
      "stateMutability": "view",
      "type": "function"
    }
  ],
  "bytecode": "0x6060604052341561000f57600080fd5b610f968061001e6000396000f30060606040526004361061008e576000357c0100000000000000000000000000000000000000000000000000000000900463ffffffff168063336902ee1461009357806353106528146100c957806363933fd81461010257806371818c281461013b578063760497391461017457806381d97fad146101aa578063cd7d35d3146101e0578063dc2ad8f214610216575b600080fd5b341561009e57600080fd5b6100b360046100ae903690610c11565b61024f565b6040516100c09190610d73565b60405180910390f35b34156100d457600080fd5b6100e960046100e4903690610bcc565b610355565b6040516100f99493929190610df5565b60405180910390f35b341561010d57600080fd5b610122600461011d903690610bcc565b6103c0565b6040516101329493929190610df5565b60405180910390f35b341561014657600080fd5b61015b6004610156903690610bcc565b61042b565b60405161016b9493929190610da9565b60405180910390f35b341561017f57600080fd5b610194600461018f903690610c11565b61059c565b6040516101a19190610d73565b60405180910390f35b34156101b557600080fd5b6101ca60046101c5903690610b9a565b6106a1565b6040516101d79190610d8e565b60405180910390f35b34156101eb57600080fd5b61020060046101fb903690610b9a565b6106c0565b60405161020d9190610d8e565b60405180910390f35b341561022157600080fd5b6102366004610231903690610bcc565b6106e0565b6040516102469493929190610da9565b60405180910390f35b6000610259610850565b6080604051908101604052804281526020013373ffffffffffffffffffffffffffffffffffffffff1681526020018581526020018481525090506001600086815260200190815260200160002080548060010182816102b89190610895565b916000526020600020906004020160008390919091506000820151816000015560208201518160010160006101000a81548173ffffffffffffffffffffffffffffffffffffffff021916908373ffffffffffffffffffffffffffffffffffffffff1602179055506040820151816002015560608201518160030190805190602001906103459291906108c7565b5050505060019150509392505050565b60016020528160005260406000208181548110151561037057fe5b9060005260206000209060040201600091509150508060000154908060010160009054906101000a900473ffffffffffffffffffffffffffffffffffffffff169080600201549080600301905084565b6000602052816000526040600020818154811015156103db57fe5b9060005260206000209060040201600091509150508060000154908060010160009054906101000a900473ffffffffffffffffffffffffffffffffffffffff169080600201549080600301905084565b6000806000610438610947565b6000600160008881526020019081526020016000209050808681548110151561045d57fe5b906000526020600020906004020160000154818781548110151561047d57fe5b906000526020600020906004020160010160009054906101000a900473ffffffffffffffffffffffffffffffffffffffff1682888154811015156104bd57fe5b90600052602060002090600402016002015483898154811015156104dd57fe5b9060005260206000209060040201600301808054600181600116156101000203166002900480601f0160208091040260200160405190810160405280929190818152602001828054600181600116156101000203166002900480156105835780601f1061055857610100808354040283529160200191610583565b820191906000526020600020905b81548152906001019060200180831161056657829003601f168201915b5050505050905094509450945094505092959194509250565b60006105a661095b565b6080604051908101604052804281526020013373ffffffffffffffffffffffffffffffffffffffff168152602001858152602001848152509050600080868152602001908152602001600020805480600101828161060491906109a0565b916000526020600020906004020160008390919091506000820151816000015560208201518160010160006101000a81548173ffffffffffffffffffffffffffffffffffffffff021916908373ffffffffffffffffffffffffffffffffffffffff1602179055506040820151816002015560608201518160030190805190602001906106919291906108c7565b5050505060019150509392505050565b6000806000838152602001908152602001600020805490509050919050565b600060016000838152602001908152602001600020805490509050919050565b60008060006106ed610947565b60008060008881526020019081526020016000209050808681548110151561071157fe5b906000526020600020906004020160000154818781548110151561073157fe5b906000526020600020906004020160010160009054906101000a900473ffffffffffffffffffffffffffffffffffffffff16828881548110151561077157fe5b906000526020600020906004020160020154838981548110151561079157fe5b9060005260206000209060040201600301808054600181600116156101000203166002900480601f0160208091040260200160405190810160405280929190818152602001828054600181600116156101000203166002900480156108375780601f1061080c57610100808354040283529160200191610837565b820191906000526020600020905b81548152906001019060200180831161081a57829003601f168201915b5050505050905094509450945094505092959194509250565b60806040519081016040528060008152602001600073ffffffffffffffffffffffffffffffffffffffff1681526020016000815260200161088f6109d2565b81525090565b8154818355818115116108c2576004028160040283600052602060002091820191016108c191906109e6565b5b505050565b828054600181600116156101000203166002900490600052602060002090601f016020900481019282601f1061090857805160ff1916838001178555610936565b82800160010185558215610936579182015b8281111561093557825182559160200191906001019061091a565b5b5090506109439190610a4c565b5090565b602060405190810160405280600081525090565b60806040519081016040528060008152602001600073ffffffffffffffffffffffffffffffffffffffff1681526020016000815260200161099a6109d2565b81525090565b8154818355818115116109cd576004028160040283600052602060002091820191016109cc9190610a71565b5b505050565b602060405190810160405280600081525090565b610a4991905b80821115610a45576000808201600090556001820160006101000a81549073ffffffffffffffffffffffffffffffffffffffff02191690556002820160009055600382016000610a3c9190610ad7565b506004016109ec565b5090565b90565b610a6e91905b80821115610a6a576000816000905550600101610a52565b5090565b90565b610ad491905b80821115610ad0576000808201600090556001820160006101000a81549073ffffffffffffffffffffffffffffffffffffffff02191690556002820160009055600382016000610ac79190610ad7565b50600401610a77565b5090565b90565b50805460018160011615610100020316600290046000825580601f10610afd5750610b1c565b601f016020900490600052602060002090810190610b1b9190610a4c565b5b50565b600082601f83011260008114610b3457610b39565b600080fd5b508135610b4d610b4882610e77565b610e41565b91508082526020830160208301858383011160018114610b6c57610b71565b600080fd5b50610b7d838284610f09565b50505092915050565b6000610b928235610eff565b905092915050565b600060208284031260018114610baf57610bb4565b600080fd5b506000610bc384828501610b86565b91505092915050565b60008060408385031260018114610be257610be7565b600080fd5b506000610bf685828601610b86565b9250506020610c0785828601610b86565b9150509250929050565b600080600060608486031260018114610c2957610c2e565b600080fd5b506000610c3d86828701610b86565b9350506020610c4e86828701610b86565b925050604084013567ffffffffffffffff811160018114610c6e57610c73565b600080fd5b50610c8086828701610b1f565b9150509250925092565b610c9381610ec9565b82525050565b610ca281610ee9565b82525050565b6000610cb382610ebe565b808452610cc7816020860160208601610f18565b610cd081610f4b565b602085010191505092915050565b600081546001811660008114610cfb5760018114610d1b57610d5c565b607f600283041680865260ff198316602087015260408601935050610d5c565b60028204808652602086019550610d3185610eac565b60005b82811015610d5357815481890152600182019150602081019050610d34565b80880195505050505b505092915050565b610d6d81610ef5565b82525050565b6000602082019050610d886000830184610c99565b92915050565b6000602082019050610da36000830184610d64565b92915050565b6000608082019050610dbe6000830187610d64565b610dcb6020830186610c8a565b610dd86040830185610d64565b8181036060830152610dea8184610ca8565b905095945050505050565b6000608082019050610e0a6000830187610d64565b610e176020830186610c8a565b610e246040830185610d64565b8181036060830152610e368184610cde565b905095945050505050565b6000604051905081810181811067ffffffffffffffff82111760018114610e6757610e6c565b600080fd5b508060405250919050565b600067ffffffffffffffff821160018114610e9157610e96565b600080fd5b50601f19601f8301169050602081019050919050565b60008160005260206000209050919050565b600081519050919050565b600073ffffffffffffffffffffffffffffffffffffffff82169050919050565b60008115159050919050565b6000819050919050565b6000819050919050565b82818337600083830152505050565b60005b83811015610f36578082015181840152602081019050610f1b565b83811115610f45576000848401525b50505050565b6000601f19601f83011690509190505600a265627a7a723058201df9051556b6f0e3a5ad6554b88b64546906a6935f6c2863af1ef0f091b4a6b56c6578706572696d656e74616cf50037",
  "source": "pragma solidity ^0.4.19;\npragma experimental ABIEncoderV2;\ncontract Comment {\n    struct ArticleComment {\n        uint createAt;\n        address sender;\n        uint rating;\n        string comment;\n    }\n    struct ObjectComment {\n        uint createAt;\n        address sender;\n        uint rating;\n        string comment;\n    }\n    mapping(uint => ArticleComment[]) public ArticleComments;\n    mapping(uint => ObjectComment[]) public ObjectComments;\n\n    function addArticleComment(uint ArticleId, uint rating, string comment) public returns (bool success) {\n        ArticleComment memory articleComment = ArticleComment({\n            createAt: now,\n            sender: msg.sender,\n            rating: rating,\n            comment: comment\n            });\n        ArticleComments[ArticleId].push(articleComment);\n        return true;\n    }\n\n    function addObjectComment(uint ObjectId, uint rating, string comment) public returns (bool success) {\n        ObjectComment memory objectComment = ObjectComment({\n            createAt: now,\n            sender: msg.sender,\n            rating: rating,\n            comment: comment\n            });\n        ObjectComments[ObjectId].push(objectComment);\n        return true;\n    }\n\n    function getArticleCommentsLength(uint ArticleId) public constant returns (uint) {\n        return ArticleComments[ArticleId].length;\n    }\n\n    function getObjectCommentsLength(uint ObjectId) public constant returns (uint) {\n        return ObjectComments[ObjectId].length;\n    }\n\n    function getArticleComment(uint ArticleId, uint id) public constant returns (uint, address, uint, string){\n        ArticleComment[] articleComments = ArticleComments[ArticleId];\n        return (articleComments[id].createAt, articleComments[id].sender, articleComments[id].rating, articleComments[id].comment);\n    }\n\n    function getObjectComment(uint ObjectId, uint id) public constant returns (uint, address, uint, string){\n        ObjectComment[] objectComments = ObjectComments[ObjectId];\n        return (objectComments[id].createAt, objectComments[id].sender, objectComments[id].rating, objectComments[id].comment);\n    }\n\n}",
  "sourcePath": "/Users/steveniiv/Test/Market-DApp/contracts/Comment.sol",
  "compiler": {
    "name": "solc",
    "version": "0.4.19+commit.c4cbbb05.Emscripten.clang"
  },
  "schemaVersion": "3.0.19",
  "updatedAt": "2020-03-05T16:54:44.792Z",
  "networkType": "ethereum",
  "devdoc": {
    "methods": {}
  },
  "userdoc": {
    "methods": {}
  }
}