{
  "contractName": "MarketPlace",
  "abi": [
    {
      "constant": true,
      "inputs": [
        {
          "name": "",
          "type": "uint256"
        }
      ],
      "name": "articles",
      "outputs": [
        {
          "name": "id",
          "type": "uint256"
        },
        {
          "name": "seller",
          "type": "address"
        },
        {
          "name": "photo",
          "type": "string"
        },
        {
          "name": "name",
          "type": "string"
        },
        {
          "name": "description",
          "type": "string"
        },
        {
          "name": "price",
          "type": "uint256"
        },
        {
          "name": "number",
          "type": "uint256"
        },
        {
          "name": "categories",
          "type": "uint256"
        },
        {
          "name": "isDelete",
          "type": "bool"
        },
        {
          "name": "createAt",
          "type": "uint256"
        }
      ],
      "payable": false,
      "stateMutability": "view",
      "type": "function"
    },
    {
      "anonymous": false,
      "inputs": [
        {
          "indexed": true,
          "name": "_id",
          "type": "uint256"
        },
        {
          "indexed": true,
          "name": "_seller",
          "type": "address"
        },
        {
          "indexed": false,
          "name": "_photo",
          "type": "string"
        },
        {
          "indexed": false,
          "name": "_name",
          "type": "string"
        },
        {
          "indexed": false,
          "name": "_price",
          "type": "uint256"
        },
        {
          "indexed": false,
          "name": "_number",
          "type": "uint256"
        },
        {
          "indexed": false,
          "name": "_categories",
          "type": "uint256"
        }
      ],
      "name": "sellArticleEvent",
      "type": "event"
    },
    {
      "anonymous": false,
      "inputs": [
        {
          "indexed": true,
          "name": "_id",
          "type": "uint256"
        },
        {
          "indexed": true,
          "name": "_seller",
          "type": "address"
        },
        {
          "indexed": true,
          "name": "_buyer",
          "type": "address"
        },
        {
          "indexed": false,
          "name": "_photo",
          "type": "string"
        },
        {
          "indexed": false,
          "name": "_name",
          "type": "string"
        },
        {
          "indexed": false,
          "name": "_price",
          "type": "uint256"
        },
        {
          "indexed": false,
          "name": "_number",
          "type": "uint256"
        },
        {
          "indexed": false,
          "name": "_createAt",
          "type": "uint256"
        }
      ],
      "name": "buyArticleEvent",
      "type": "event"
    },
    {
      "anonymous": false,
      "inputs": [
        {
          "indexed": true,
          "name": "_id",
          "type": "uint256"
        }
      ],
      "name": "deleteArticleEvent",
      "type": "event"
    },
    {
      "anonymous": false,
      "inputs": [
        {
          "indexed": true,
          "name": "_id",
          "type": "uint256"
        },
        {
          "indexed": false,
          "name": "_name",
          "type": "string"
        },
        {
          "indexed": false,
          "name": "_price",
          "type": "uint256"
        },
        {
          "indexed": false,
          "name": "_categories",
          "type": "uint256"
        }
      ],
      "name": "modifyArticleEvent",
      "type": "event"
    },
    {
      "constant": false,
      "inputs": [
        {
          "name": "_photo",
          "type": "string"
        },
        {
          "name": "_name",
          "type": "string"
        },
        {
          "name": "_description",
          "type": "string"
        },
        {
          "name": "_price",
          "type": "uint256"
        },
        {
          "name": "_number",
          "type": "uint256"
        },
        {
          "name": "_categories",
          "type": "uint256"
        }
      ],
      "name": "sellArticle",
      "outputs": [],
      "payable": false,
      "stateMutability": "nonpayable",
      "type": "function"
    },
    {
      "constant": true,
      "inputs": [],
      "name": "getNumberOfArticles",
      "outputs": [
        {
          "name": "",
          "type": "uint256"
        }
      ],
      "payable": false,
      "stateMutability": "view",
      "type": "function"
    },
    {
      "constant": false,
      "inputs": [
        {
          "name": "_id",
          "type": "uint256"
        },
        {
          "name": "number",
          "type": "uint256"
        }
      ],
      "name": "buyArticle",
      "outputs": [],
      "payable": true,
      "stateMutability": "payable",
      "type": "function"
    },
    {
      "constant": false,
      "inputs": [
        {
          "name": "_id",
          "type": "uint256"
        },
        {
          "name": "_name",
          "type": "string"
        },
        {
          "name": "_description",
          "type": "string"
        },
        {
          "name": "_price",
          "type": "uint256"
        },
        {
          "name": "_number",
          "type": "uint256"
        },
        {
          "name": "_categories",
          "type": "uint256"
        }
      ],
      "name": "modifyArticle",
      "outputs": [],
      "payable": false,
      "stateMutability": "nonpayable",
      "type": "function"
    },
    {
      "constant": false,
      "inputs": [
        {
          "name": "_id",
          "type": "uint256"
        }
      ],
      "name": "deleteArticle",
      "outputs": [],
      "payable": false,
      "stateMutability": "nonpayable",
      "type": "function"
    },
    {
      "constant": false,
      "inputs": [],
      "name": "kill",
      "outputs": [],
      "payable": false,
      "stateMutability": "nonpayable",
      "type": "function"
    },
    {
      "constant": false,
      "inputs": [],
      "name": "Owned",
      "outputs": [],
      "payable": false,
      "stateMutability": "nonpayable",
      "type": "function"
    },
    {
      "constant": true,
      "inputs": [
        {
          "name": "name",
          "type": "string"
        }
      ],
      "name": "findByNames",
      "outputs": [
        {
          "name": "",
          "type": "uint256[]"
        }
      ],
      "payable": false,
      "stateMutability": "view",
      "type": "function"
    },
    {
      "constant": true,
      "inputs": [
        {
          "name": "categories",
          "type": "uint256"
        }
      ],
      "name": "findByType",
      "outputs": [
        {
          "name": "",
          "type": "uint256[]"
        }
      ],
      "payable": false,
      "stateMutability": "view",
      "type": "function"
    },
    {
      "constant": true,
      "inputs": [
        {
          "name": "user",
          "type": "address"
        }
      ],
      "name": "getUserSold",
      "outputs": [
        {
          "name": "",
          "type": "uint256[]"
        }
      ],
      "payable": false,
      "stateMutability": "view",
      "type": "function"
    },
    {
      "constant": true,
      "inputs": [
        {
          "name": "user",
          "type": "address"
        }
      ],
      "name": "getUserBought",
      "outputs": [
        {
          "name": "",
          "type": "uint256[]"
        }
      ],
      "payable": false,
      "stateMutability": "view",
      "type": "function"
    },
    {
      "constant": true,
      "inputs": [
        {
          "name": "user",
          "type": "address"
        }
      ],
      "name": "getUserBoughtTime",
      "outputs": [
        {
          "name": "",
          "type": "uint256[]"
        }
      ],
      "payable": false,
      "stateMutability": "view",
      "type": "function"
    },
    {
      "constant": true,
      "inputs": [
        {
          "name": "articleId",
          "type": "uint256"
        },
        {
          "name": "user",
          "type": "address"
        }
      ],
      "name": "isBuyer",
      "outputs": [
        {
          "name": "",
          "type": "bool"
        }
      ],
      "payable": false,
      "stateMutability": "view",
      "type": "function"
    }
  ],
  "bytecode": "0x6060604052341561000f57600080fd5b6119c78061001e6000396000f3006060604052600436106100d0576000357c0100000000000000000000000000000000000000000000000000000000900463ffffffff16806341c0e1b5146100d55780634324dacd146100ea578063498de8b314610178578063613088481461019b578063658ad627146102135780636aa5c352146102d75780636cab7bb2146102f857806380f0b74a146103f657806384f1377a146104a857806389da85d314610536578063b303dcbd1461055f578063c0efbfbb14610574578063cada70b014610602578063edcfafe61461065c575b600080fd5b34156100e057600080fd5b6100e8610888565b005b34156100f557600080fd5b610121600480803573ffffffffffffffffffffffffffffffffffffffff1690602001909190505061091f565b6040518080602001828103825283818151815260200191508051906020019060200280838360005b83811015610164578082015181840152602081019050610149565b505050509050019250505060405180910390f35b341561018357600080fd5b61019960048080359060200190919050506109be565b005b34156101a657600080fd5b6101bc6004808035906020019091905050610a8c565b6040518080602001828103825283818151815260200191508051906020019060200280838360005b838110156101ff5780820151818401526020810190506101e4565b505050509050019250505060405180910390f35b341561021e57600080fd5b6102d5600480803590602001909190803590602001908201803590602001908080601f0160208091040260200160405190810160405280939291908181526020018383808284378201915050505050509190803590602001908201803590602001908080601f01602080910402602001604051908101604052809392919081815260200183838082843782019150505050505091908035906020019091908035906020019091908035906020019091905050610b00565b005b6102f66004808035906020019091908035906020019091905050610ccc565b005b341561030357600080fd5b6103f4600480803590602001908201803590602001908080601f0160208091040260200160405190810160405280939291908181526020018383808284378201915050505050509190803590602001908201803590602001908080601f0160208091040260200160405190810160405280939291908181526020018383808284378201915050505050509190803590602001908201803590602001908080601f01602080910402602001604051908101604052809392919081815260200183838082843782019150505050505091908035906020019091908035906020019091908035906020019091905050611089565b005b341561040157600080fd5b610451600480803590602001908201803590602001908080601f0160208091040260200160405190810160405280939291908181526020018383808284378201915050505050509190505061148a565b6040518080602001828103825283818151815260200191508051906020019060200280838360005b83811015610494578082015181840152602081019050610479565b505050509050019250505060405180910390f35b34156104b357600080fd5b6104df600480803573ffffffffffffffffffffffffffffffffffffffff16906020019091905050611556565b6040518080602001828103825283818151815260200191508051906020019060200280838360005b83811015610522578082015181840152602081019050610507565b505050509050019250505060405180910390f35b341561054157600080fd5b6105496115f5565b6040518082815260200191505060405180910390f35b341561056a57600080fd5b6105726115ff565b005b341561057f57600080fd5b6105ab600480803573ffffffffffffffffffffffffffffffffffffffff16906020019091905050611642565b6040518080602001828103825283818151815260200191508051906020019060200280838360005b838110156105ee5780820151818401526020810190506105d3565b505050509050019250505060405180910390f35b341561060d57600080fd5b610642600480803590602001909190803573ffffffffffffffffffffffffffffffffffffffff169060200190919050506116e1565b604051808215151515815260200191505060405180910390f35b341561066757600080fd5b61067d60048080359060200190919050506117b8565b604051808b81526020018a73ffffffffffffffffffffffffffffffffffffffff1673ffffffffffffffffffffffffffffffffffffffff1681526020018060200180602001806020018981526020018881526020018781526020018615151515815260200185815260200184810384528c8181546001816001161561010002031660029004815260200191508054600181600116156101000203166002900480156107685780601f1061073d57610100808354040283529160200191610768565b820191906000526020600020905b81548152906001019060200180831161074b57829003601f168201915b505084810383528b8181546001816001161561010002031660029004815260200191508054600181600116156101000203166002900480156107eb5780601f106107c0576101008083540402835291602001916107eb565b820191906000526020600020905b8154815290600101906020018083116107ce57829003601f168201915b505084810382528a81815460018160011615610100020316600290048152602001915080546001816001161561010002031660029004801561086e5780601f106108435761010080835404028352916020019161086e565b820191906000526020600020905b81548152906001019060200180831161085157829003601f168201915b50509d505050505050505050505050505060405180910390f35b600560009054906101000a900473ffffffffffffffffffffffffffffffffffffffff1673ffffffffffffffffffffffffffffffffffffffff163373ffffffffffffffffffffffffffffffffffffffff161415156108e457600080fd5b600560009054906101000a900473ffffffffffffffffffffffffffffffffffffffff1673ffffffffffffffffffffffffffffffffffffffff16ff5b610927611836565b6000808373ffffffffffffffffffffffffffffffffffffffff1673ffffffffffffffffffffffffffffffffffffffff1681526020019081526020016000206000018054806020026020016040519081016040528092919081815260200182805480156109b257602002820191906000526020600020905b81548152602001906001019080831161099e575b50505050509050919050565b3373ffffffffffffffffffffffffffffffffffffffff166001600083815260200190815260200160002060010160009054906101000a900473ffffffffffffffffffffffffffffffffffffffff1673ffffffffffffffffffffffffffffffffffffffff16141515610a2e57600080fd5b600180600083815260200190815260200160002060080160006101000a81548160ff021916908315150217905550807faf38f05d077fffb6d6e9c77a19db117d523104769b7b25b37fc25e6d4f26ec6c60405160405180910390a250565b610a94611836565b60036000838152602001908152602001600020600001805480602002602001604051908101604052809291908181526020018280548015610af457602002820191906000526020600020905b815481526020019060010190808311610ae0575b50505050509050919050565b3373ffffffffffffffffffffffffffffffffffffffff166001600088815260200190815260200160002060010160009054906101000a900473ffffffffffffffffffffffffffffffffffffffff1673ffffffffffffffffffffffffffffffffffffffff16141515610b7057600080fd5b84600160008881526020019081526020016000206003019080519060200190610b9a92919061184a565b5082600160008881526020019081526020016000206005018190555081600160008881526020019081526020016000206006018190555080600160008881526020019081526020016000206007018190555083600160008881526020019081526020016000206004019080519060200190610c1692919061184a565b50857f6e36463b3af0c6d443d63ee38f0afe6b1fd42ec8e04b9a32b4dfbc920f4557588685846040518080602001848152602001838152602001828103825285818151815260200191508051906020019080838360005b83811015610c88578082015181840152602081019050610c6d565b50505050905090810190601f168015610cb55780820380516001836020036101000a031916815260200191505b5094505050505060405180910390a2505050505050565b600080600454111515610cde57600080fd5b600083118015610cf057506004548311155b1515610cfb57600080fd5b6001600084815260200190815260200160002090503373ffffffffffffffffffffffffffffffffffffffff168160010160009054906101000a900473ffffffffffffffffffffffffffffffffffffffff1673ffffffffffffffffffffffffffffffffffffffff1614151515610d6f57600080fd5b81816006015410151515610d8257600080fd5b8060010160009054906101000a900473ffffffffffffffffffffffffffffffffffffffff1673ffffffffffffffffffffffffffffffffffffffff166108fc349081150290604051600060405180830381858888f193505050501515610de657600080fd5b8181600601600082825403925050819055506000803373ffffffffffffffffffffffffffffffffffffffff1673ffffffffffffffffffffffffffffffffffffffff1681526020019081526020016000206001018054806001018281610e4b91906118ca565b916000526020600020900160008360000154909190915055506000803373ffffffffffffffffffffffffffffffffffffffff1673ffffffffffffffffffffffffffffffffffffffff1681526020019081526020016000206002018054806001018281610eb791906118ca565b9160005260206000209001600042909190915055503373ffffffffffffffffffffffffffffffffffffffff168160010160009054906101000a900473ffffffffffffffffffffffffffffffffffffffff1673ffffffffffffffffffffffffffffffffffffffff16847fad46b24bc2ae50c09c2e13f6ac064244dca525dfa5d780022e7e32b8bfbd0100846002018560030186600501548842604051808060200180602001868152602001858152602001848152602001838103835288818154600181600116156101000203166002900481526020019150805460018160011615610100020316600290048015610fee5780601f10610fc357610100808354040283529160200191610fee565b820191906000526020600020905b815481529060010190602001808311610fd157829003601f168201915b50508381038252878181546001816001161561010002031660029004815260200191508054600181600116156101000203166002900480156110715780601f1061104657610100808354040283529160200191611071565b820191906000526020600020905b81548152906001019060200180831161105457829003601f168201915b505097505050505050505060405180910390a4505050565b6004600081548092919060010191905055506002856040518082805190602001908083835b6020831015156110d357805182526020820191506020810190506020830392506110ae565b6001836020036101000a0380198251168184511680821785525050505050509050019150509081526020016040518091039020600001805480600101828161111b91906118ca565b916000526020600020900160006004549091909150555060036000828152602001908152602001600020600001805480600101828161115a91906118ca565b91600052602060002090016000600454909190915055506101406040519081016040528060045481526020013373ffffffffffffffffffffffffffffffffffffffff168152602001878152602001868152602001858152602001848152602001838152602001828152602001600015158152602001428152506001600060045481526020019081526020016000206000820151816000015560208201518160010160006101000a81548173ffffffffffffffffffffffffffffffffffffffff021916908373ffffffffffffffffffffffffffffffffffffffff16021790555060408201518160020190805190602001906112559291906118f6565b5060608201518160030190805190602001906112729291906118f6565b50608082015181600401908051906020019061128f9291906118f6565b5060a0820151816005015560c0820151816006015560e082015181600701556101008201518160080160006101000a81548160ff02191690831515021790555061012082015181600901559050506000803373ffffffffffffffffffffffffffffffffffffffff1673ffffffffffffffffffffffffffffffffffffffff168152602001908152602001600020600001805480600101828161133091906118ca565b91600052602060002090016000600454909190915055503373ffffffffffffffffffffffffffffffffffffffff166004547fc21b061f376a1239b20c2998404b4e705fd4b06068af4954adae010ef3dd6bde8888878787604051808060200180602001868152602001858152602001848152602001838103835288818151815260200191508051906020019080838360005b838110156113dd5780820151818401526020810190506113c2565b50505050905090810190601f16801561140a5780820380516001836020036101000a031916815260200191505b50838103825287818151815260200191508051906020019080838360005b83811015611443578082015181840152602081019050611428565b50505050905090810190601f1680156114705780820380516001836020036101000a031916815260200191505b5097505050505050505060405180910390a3505050505050565b611492611836565b6002826040518082805190602001908083835b6020831015156114ca57805182526020820191506020810190506020830392506114a5565b6001836020036101000a038019825116818451168082178552505050505050905001915050908152602001604051809103902060000180548060200260200160405190810160405280929190818152602001828054801561154a57602002820191906000526020600020905b815481526020019060010190808311611536575b50505050509050919050565b61155e611836565b6000808373ffffffffffffffffffffffffffffffffffffffff1673ffffffffffffffffffffffffffffffffffffffff1681526020019081526020016000206002018054806020026020016040519081016040528092919081815260200182805480156115e957602002820191906000526020600020905b8154815260200190600101908083116115d5575b50505050509050919050565b6000600454905090565b33600560006101000a81548173ffffffffffffffffffffffffffffffffffffffff021916908373ffffffffffffffffffffffffffffffffffffffff160217905550565b61164a611836565b6000808373ffffffffffffffffffffffffffffffffffffffff1673ffffffffffffffffffffffffffffffffffffffff1681526020019081526020016000206001018054806020026020016040519081016040528092919081815260200182805480156116d557602002820191906000526020600020905b8154815260200190600101908083116116c1575b50505050509050919050565b600080600090505b6000808473ffffffffffffffffffffffffffffffffffffffff1673ffffffffffffffffffffffffffffffffffffffff168152602001908152602001600020600101805490508110156117ac57836000808573ffffffffffffffffffffffffffffffffffffffff1673ffffffffffffffffffffffffffffffffffffffff1681526020019081526020016000206001018281548110151561178457fe5b906000526020600020900154141561179f57600191506117b1565b80806001019150506116e9565b600091505b5092915050565b60016020528060005260406000206000915090508060000154908060010160009054906101000a900473ffffffffffffffffffffffffffffffffffffffff16908060020190806003019080600401908060050154908060060154908060070154908060080160009054906101000a900460ff1690806009015490508a565b602060405190810160405280600081525090565b828054600181600116156101000203166002900490600052602060002090601f016020900481019282601f1061188b57805160ff19168380011785556118b9565b828001600101855582156118b9579182015b828111156118b857825182559160200191906001019061189d565b5b5090506118c69190611976565b5090565b8154818355818115116118f1578183600052602060002091820191016118f09190611976565b5b505050565b828054600181600116156101000203166002900490600052602060002090601f016020900481019282601f1061193757805160ff1916838001178555611965565b82800160010185558215611965579182015b82811115611964578251825591602001919060010190611949565b5b5090506119729190611976565b5090565b61199891905b8082111561199457600081600090555060010161197c565b5090565b905600a165627a7a723058209c5cadecebcbe4317786febd4e1af3561722c59f35736cd4a293c31dbf34828b0029",
  "source": "pragma solidity ^0.4.19;\n\ncontract MarketPlace {\n\n  struct user{\n    uint[] article_sold;\n    uint[] article_buyed;\n    uint[] article_buyedTime;\n  }\n\n  struct Article {\n    uint id;//0\n    address seller;//1\n    string photo;//2\n    string name;//3\n    string description;//4\n    uint price;//5\n    uint number;//6\n    uint categories;//7\n    bool isDelete;//8\n    uint createAt;//9\n  }\n\n  struct NameKey {\n    uint[] keys;\n  }\n  struct TypeKey {\n    uint[] keys;\n  }\n\n  mapping(address => user) private users;\n  mapping(uint => Article) public articles;\n  mapping(string => NameKey) private nameToKeys;\n  mapping(uint => TypeKey) private typeToKeys;\n  uint articleCounter;\n\n\n  address owner;\n  //Events\n  event sellArticleEvent(\n    uint indexed _id,\n    address indexed _seller,\n    string _photo,\n    string _name,\n    uint _price,\n    uint _number,\n    uint _categories\n  );\n\n  event buyArticleEvent(\n    uint indexed _id,\n    address indexed _seller,\n    address indexed _buyer,\n    string _photo,\n    string _name,\n    uint _price,\n    uint _number,\n    uint _createAt\n  );\n\n  event deleteArticleEvent(\n    uint indexed _id\n  );\n\n  event modifyArticleEvent(\n    uint indexed _id,\n    string _name,\n    uint _price,\n    uint _categories\n  );\n\n  //modifiers\n  modifier onlyOwner() {\n    require(msg.sender == owner);\n    _;\n  }\n\n  modifier objectInRange(uint objID) {\n    if (objID >= articleCounter)\n      throw;\n    _;\n  }\n\n  //sell an article\n  function sellArticle(string _photo, string _name, string _description, uint _price, uint _number, uint _categories) public {\n    articleCounter++;\n    nameToKeys[_name].keys.push(articleCounter);\n    typeToKeys[_categories].keys.push(articleCounter);\n    articles[articleCounter] = Article(\n      articleCounter,\n      msg.sender,\n      _photo,\n      _name,\n      _description,\n      _price,\n      _number,\n      _categories,\n      false,\n      now\n    );\n    users[msg.sender].article_sold.push(articleCounter);\n    sellArticleEvent(articleCounter, msg.sender, _photo, _name, _price, _number, _categories);\n  }\n\n  function getNumberOfArticles() public constant returns (uint) {\n    return articleCounter;\n  }\n\n  // buy an article\n  function buyArticle(uint _id, uint number) payable public {\n    require(articleCounter > 0);\n    require(_id > 0 && _id <= articleCounter);\n\n    Article storage article = articles[_id];\n\n    require(article.seller != msg.sender);\n    require(article.number >= number);\n    article.seller.transfer(msg.value);\n    article.number-=number;\n    users[msg.sender].article_buyed.push(article.id);\n    users[msg.sender].article_buyedTime.push(now);\n\n    buyArticleEvent(_id, article.seller, msg.sender, article.photo, article.name, article.price, number, now);\n  }\n\n  function modifyArticle(uint _id, string _name, string _description, uint _price, uint _number, uint _categories) public {\n    require(articles[_id].seller == msg.sender);\n    articles[_id].name = _name;\n    articles[_id].price = _price;\n    articles[_id].number = _number;\n    articles[_id].categories = _categories;\n    articles[_id].description = _description;\n    modifyArticleEvent(_id,_name,_price,_categories);\n  }\n\n  function deleteArticle(uint _id){\n    require(articles[_id].seller == msg.sender);\n    articles[_id].isDelete = true;\n    deleteArticleEvent(_id);\n  }\n\n  function kill() onlyOwner {\n    selfdestruct(owner);\n  }\n\n  function Owned(){\n    owner = msg.sender;\n  }\n\n  function findByNames(string name) constant returns (uint[]){\n    return nameToKeys[name].keys;\n  }\n\n  function findByType(uint categories) constant returns (uint[]){\n    return typeToKeys[categories].keys;\n  }\n\n  function getUserSold(address user) constant returns (uint[]){\n    return users[user].article_sold;\n  }\n\n  function getUserBought(address user) constant returns (uint[]){\n    return users[user].article_buyed;\n  }\n\n  function getUserBoughtTime(address user) constant returns (uint[]){\n    return users[user].article_buyedTime;\n  }\n\n  function isBuyer(uint articleId, address user) constant returns (bool){\n    for(uint i=0;i<users[user].article_buyed.length;i++){\n      if(users[user].article_buyed[i] == articleId){\n        return true;\n      }\n    }\n    return false;\n  }\n}\n",
  "sourcePath": "/Users/steveniiv/Test/Market-DApp/contracts/MarketPlace.sol",
  "compiler": {
    "name": "solc",
    "version": "0.4.19+commit.c4cbbb05.Emscripten.clang"
  },
  "schemaVersion": "3.0.19",
  "updatedAt": "2020-03-19T14:29:14.397Z",
  "networkType": "ethereum",
  "devdoc": {
    "methods": {}
  },
  "userdoc": {
    "methods": {}
  }
}