{
  "contractName": "MarketPlace",
  "abi": [
    {
      "constant": true,
      "inputs": [
        {
          "name": "",
          "type": "uint256"
        }
      ],
      "name": "articles",
      "outputs": [
        {
          "name": "id",
          "type": "uint256"
        },
        {
          "name": "seller",
          "type": "address"
        },
        {
          "name": "photo",
          "type": "string"
        },
        {
          "name": "name",
          "type": "string"
        },
        {
          "name": "description",
          "type": "string"
        },
        {
          "name": "price",
          "type": "uint256"
        },
        {
          "name": "number",
          "type": "uint256"
        },
        {
          "name": "categories",
          "type": "uint256"
        },
        {
          "name": "isDelete",
          "type": "bool"
        }
      ],
      "payable": false,
      "stateMutability": "view",
      "type": "function"
    },
    {
      "anonymous": false,
      "inputs": [
        {
          "indexed": true,
          "name": "_id",
          "type": "uint256"
        },
        {
          "indexed": true,
          "name": "_seller",
          "type": "address"
        },
        {
          "indexed": false,
          "name": "_photo",
          "type": "string"
        },
        {
          "indexed": false,
          "name": "_name",
          "type": "string"
        },
        {
          "indexed": false,
          "name": "_price",
          "type": "uint256"
        },
        {
          "indexed": false,
          "name": "_number",
          "type": "uint256"
        },
        {
          "indexed": false,
          "name": "_categories",
          "type": "uint256"
        }
      ],
      "name": "sellArticleEvent",
      "type": "event"
    },
    {
      "anonymous": false,
      "inputs": [
        {
          "indexed": true,
          "name": "_id",
          "type": "uint256"
        },
        {
          "indexed": true,
          "name": "_seller",
          "type": "address"
        },
        {
          "indexed": true,
          "name": "_buyer",
          "type": "address"
        },
        {
          "indexed": false,
          "name": "_photo",
          "type": "string"
        },
        {
          "indexed": false,
          "name": "_name",
          "type": "string"
        },
        {
          "indexed": false,
          "name": "_price",
          "type": "uint256"
        },
        {
          "indexed": false,
          "name": "_number",
          "type": "uint256"
        },
        {
          "indexed": false,
          "name": "_createAt",
          "type": "uint256"
        }
      ],
      "name": "buyArticleEvent",
      "type": "event"
    },
    {
      "constant": false,
      "inputs": [
        {
          "name": "_photo",
          "type": "string"
        },
        {
          "name": "_name",
          "type": "string"
        },
        {
          "name": "_description",
          "type": "string"
        },
        {
          "name": "_price",
          "type": "uint256"
        },
        {
          "name": "_number",
          "type": "uint256"
        },
        {
          "name": "_categories",
          "type": "uint256"
        }
      ],
      "name": "sellArticle",
      "outputs": [],
      "payable": false,
      "stateMutability": "nonpayable",
      "type": "function"
    },
    {
      "constant": true,
      "inputs": [],
      "name": "getNumberOfArticles",
      "outputs": [
        {
          "name": "",
          "type": "uint256"
        }
      ],
      "payable": false,
      "stateMutability": "view",
      "type": "function"
    },
    {
      "constant": false,
      "inputs": [
        {
          "name": "_id",
          "type": "uint256"
        },
        {
          "name": "number",
          "type": "uint256"
        }
      ],
      "name": "buyArticle",
      "outputs": [],
      "payable": true,
      "stateMutability": "payable",
      "type": "function"
    },
    {
      "constant": false,
      "inputs": [
        {
          "name": "_id",
          "type": "uint256"
        },
        {
          "name": "_name",
          "type": "string"
        },
        {
          "name": "_description",
          "type": "string"
        },
        {
          "name": "_price",
          "type": "uint256"
        },
        {
          "name": "_number",
          "type": "uint256"
        },
        {
          "name": "_categories",
          "type": "uint256"
        }
      ],
      "name": "modifyArticle",
      "outputs": [],
      "payable": false,
      "stateMutability": "nonpayable",
      "type": "function"
    },
    {
      "constant": false,
      "inputs": [
        {
          "name": "_id",
          "type": "uint256"
        }
      ],
      "name": "deleteArticle",
      "outputs": [],
      "payable": false,
      "stateMutability": "nonpayable",
      "type": "function"
    },
    {
      "constant": false,
      "inputs": [],
      "name": "kill",
      "outputs": [],
      "payable": false,
      "stateMutability": "nonpayable",
      "type": "function"
    },
    {
      "constant": false,
      "inputs": [],
      "name": "Owned",
      "outputs": [],
      "payable": false,
      "stateMutability": "nonpayable",
      "type": "function"
    },
    {
      "constant": true,
      "inputs": [
        {
          "name": "name",
          "type": "string"
        }
      ],
      "name": "findByNames",
      "outputs": [
        {
          "name": "",
          "type": "uint256[]"
        }
      ],
      "payable": false,
      "stateMutability": "view",
      "type": "function"
    },
    {
      "constant": true,
      "inputs": [
        {
          "name": "categories",
          "type": "uint256"
        }
      ],
      "name": "findByType",
      "outputs": [
        {
          "name": "",
          "type": "uint256[]"
        }
      ],
      "payable": false,
      "stateMutability": "view",
      "type": "function"
    },
    {
      "constant": true,
      "inputs": [
        {
          "name": "user",
          "type": "address"
        }
      ],
      "name": "getUserSold",
      "outputs": [
        {
          "name": "",
          "type": "uint256[]"
        }
      ],
      "payable": false,
      "stateMutability": "view",
      "type": "function"
    },
    {
      "constant": true,
      "inputs": [
        {
          "name": "user",
          "type": "address"
        }
      ],
      "name": "getUserBought",
      "outputs": [
        {
          "name": "",
          "type": "uint256[]"
        }
      ],
      "payable": false,
      "stateMutability": "view",
      "type": "function"
    }
  ],
  "bytecode": "0x6060604052341561000f57600080fd5b6115f38061001e6000396000f3006060604052600436106100ba576000357c0100000000000000000000000000000000000000000000000000000000900463ffffffff16806341c0e1b5146100bf5780634324dacd146100d4578063498de8b3146101625780636130884814610185578063658ad627146101fd5780636aa5c352146102c15780636cab7bb2146102e257806380f0b74a146103e057806389da85d314610492578063b303dcbd146104bb578063c0efbfbb146104d0578063edcfafe61461055e575b600080fd5b34156100ca57600080fd5b6100d2610783565b005b34156100df57600080fd5b61010b600480803573ffffffffffffffffffffffffffffffffffffffff1690602001909190505061081a565b6040518080602001828103825283818151815260200191508051906020019060200280838360005b8381101561014e578082015181840152602081019050610133565b505050509050019250505060405180910390f35b341561016d57600080fd5b61018360048080359060200190919050506108b9565b005b341561019057600080fd5b6101a6600480803590602001909190505061095a565b6040518080602001828103825283818151815260200191508051906020019060200280838360005b838110156101e95780820151818401526020810190506101ce565b505050509050019250505060405180910390f35b341561020857600080fd5b6102bf600480803590602001909190803590602001908201803590602001908080601f0160208091040260200160405190810160405280939291908181526020018383808284378201915050505050509190803590602001908201803590602001908080601f016020809104026020016040519081016040528093929190818152602001838380828437820191505050505050919080359060200190919080359060200190919080359060200190919050506109ce565b005b6102e06004808035906020019091908035906020019091905050610aed565b005b34156102ed57600080fd5b6103de600480803590602001908201803590602001908080601f0160208091040260200160405190810160405280939291908181526020018383808284378201915050505050509190803590602001908201803590602001908080601f0160208091040260200160405190810160405280939291908181526020018383808284378201915050505050509190803590602001908201803590602001908080601f01602080910402602001604051908101604052809392919081815260200183838082843782019150505050505091908035906020019091908035906020019091908035906020019091905050610e42565b005b34156103eb57600080fd5b61043b600480803590602001908201803590602001908080601f01602080910402602001604051908101604052809392919081815260200183838082843782019150505050505091905050611232565b6040518080602001828103825283818151815260200191508051906020019060200280838360005b8381101561047e578082015181840152602081019050610463565b505050509050019250505060405180910390f35b341561049d57600080fd5b6104a56112fe565b6040518082815260200191505060405180910390f35b34156104c657600080fd5b6104ce611308565b005b34156104db57600080fd5b610507600480803573ffffffffffffffffffffffffffffffffffffffff1690602001909190505061134b565b6040518080602001828103825283818151815260200191508051906020019060200280838360005b8381101561054a57808201518184015260208101905061052f565b505050509050019250505060405180910390f35b341561056957600080fd5b61057f60048080359060200190919050506113ea565b604051808a81526020018973ffffffffffffffffffffffffffffffffffffffff1673ffffffffffffffffffffffffffffffffffffffff1681526020018060200180602001806020018881526020018781526020018681526020018515151515815260200184810384528b8181546001816001161561010002031660029004815260200191508054600181600116156101000203166002900480156106645780601f1061063957610100808354040283529160200191610664565b820191906000526020600020905b81548152906001019060200180831161064757829003601f168201915b505084810383528a8181546001816001161561010002031660029004815260200191508054600181600116156101000203166002900480156106e75780601f106106bc576101008083540402835291602001916106e7565b820191906000526020600020905b8154815290600101906020018083116106ca57829003601f168201915b505084810382528981815460018160011615610100020316600290048152602001915080546001816001161561010002031660029004801561076a5780601f1061073f5761010080835404028352916020019161076a565b820191906000526020600020905b81548152906001019060200180831161074d57829003601f168201915b50509c5050505050505050505050505060405180910390f35b600560009054906101000a900473ffffffffffffffffffffffffffffffffffffffff1673ffffffffffffffffffffffffffffffffffffffff163373ffffffffffffffffffffffffffffffffffffffff161415156107df57600080fd5b600560009054906101000a900473ffffffffffffffffffffffffffffffffffffffff1673ffffffffffffffffffffffffffffffffffffffff16ff5b610822611462565b6000808373ffffffffffffffffffffffffffffffffffffffff1673ffffffffffffffffffffffffffffffffffffffff1681526020019081526020016000206000018054806020026020016040519081016040528092919081815260200182805480156108ad57602002820191906000526020600020905b815481526020019060010190808311610899575b50505050509050919050565b3373ffffffffffffffffffffffffffffffffffffffff166001600083815260200190815260200160002060010160009054906101000a900473ffffffffffffffffffffffffffffffffffffffff1673ffffffffffffffffffffffffffffffffffffffff1614151561092957600080fd5b600180600083815260200190815260200160002060080160006101000a81548160ff02191690831515021790555050565b610962611462565b600360008381526020019081526020016000206000018054806020026020016040519081016040528092919081815260200182805480156109c257602002820191906000526020600020905b8154815260200190600101908083116109ae575b50505050509050919050565b3373ffffffffffffffffffffffffffffffffffffffff166001600088815260200190815260200160002060010160009054906101000a900473ffffffffffffffffffffffffffffffffffffffff1673ffffffffffffffffffffffffffffffffffffffff16141515610a3e57600080fd5b84600160008881526020019081526020016000206003019080519060200190610a68929190611476565b5082600160008881526020019081526020016000206005018190555081600160008881526020019081526020016000206006018190555080600160008881526020019081526020016000206007018190555083600160008881526020019081526020016000206004019080519060200190610ae4929190611476565b50505050505050565b600080600454111515610aff57600080fd5b600083118015610b1157506004548311155b1515610b1c57600080fd5b6001600084815260200190815260200160002090503373ffffffffffffffffffffffffffffffffffffffff168160010160009054906101000a900473ffffffffffffffffffffffffffffffffffffffff1673ffffffffffffffffffffffffffffffffffffffff1614151515610b9057600080fd5b81816006015410151515610ba357600080fd5b8060010160009054906101000a900473ffffffffffffffffffffffffffffffffffffffff1673ffffffffffffffffffffffffffffffffffffffff166108fc349081150290604051600060405180830381858888f193505050501515610c0757600080fd5b8181600601600082825403925050819055506000803373ffffffffffffffffffffffffffffffffffffffff1673ffffffffffffffffffffffffffffffffffffffff1681526020019081526020016000206001018054806001018281610c6c91906114f6565b916000526020600020900160008360000154909190915055503373ffffffffffffffffffffffffffffffffffffffff168160010160009054906101000a900473ffffffffffffffffffffffffffffffffffffffff1673ffffffffffffffffffffffffffffffffffffffff16847fad46b24bc2ae50c09c2e13f6ac064244dca525dfa5d780022e7e32b8bfbd0100846002018560030186600501548842604051808060200180602001868152602001858152602001848152602001838103835288818154600181600116156101000203166002900481526020019150805460018160011615610100020316600290048015610da75780601f10610d7c57610100808354040283529160200191610da7565b820191906000526020600020905b815481529060010190602001808311610d8a57829003601f168201915b5050838103825287818154600181600116156101000203166002900481526020019150805460018160011615610100020316600290048015610e2a5780601f10610dff57610100808354040283529160200191610e2a565b820191906000526020600020905b815481529060010190602001808311610e0d57829003601f168201915b505097505050505050505060405180910390a4505050565b6004600081548092919060010191905055506002856040518082805190602001908083835b602083101515610e8c5780518252602082019150602081019050602083039250610e67565b6001836020036101000a03801982511681845116808217855250505050505090500191505090815260200160405180910390206000018054806001018281610ed491906114f6565b9160005260206000209001600060045490919091505550600360008281526020019081526020016000206000018054806001018281610f1391906114f6565b91600052602060002090016000600454909190915055506101206040519081016040528060045481526020013373ffffffffffffffffffffffffffffffffffffffff168152602001878152602001868152602001858152602001848152602001838152602001828152602001600015158152506001600060045481526020019081526020016000206000820151816000015560208201518160010160006101000a81548173ffffffffffffffffffffffffffffffffffffffff021916908373ffffffffffffffffffffffffffffffffffffffff1602179055506040820151816002019080519060200190611008929190611522565b506060820151816003019080519060200190611025929190611522565b506080820151816004019080519060200190611042929190611522565b5060a0820151816005015560c0820151816006015560e082015181600701556101008201518160080160006101000a81548160ff0219169083151502179055509050506000803373ffffffffffffffffffffffffffffffffffffffff1673ffffffffffffffffffffffffffffffffffffffff16815260200190815260200160002060000180548060010182816110d891906114f6565b91600052602060002090016000600454909190915055503373ffffffffffffffffffffffffffffffffffffffff166004547fc21b061f376a1239b20c2998404b4e705fd4b06068af4954adae010ef3dd6bde8888878787604051808060200180602001868152602001858152602001848152602001838103835288818151815260200191508051906020019080838360005b8381101561118557808201518184015260208101905061116a565b50505050905090810190601f1680156111b25780820380516001836020036101000a031916815260200191505b50838103825287818151815260200191508051906020019080838360005b838110156111eb5780820151818401526020810190506111d0565b50505050905090810190601f1680156112185780820380516001836020036101000a031916815260200191505b5097505050505050505060405180910390a3505050505050565b61123a611462565b6002826040518082805190602001908083835b602083101515611272578051825260208201915060208101905060208303925061124d565b6001836020036101000a03801982511681845116808217855250505050505090500191505090815260200160405180910390206000018054806020026020016040519081016040528092919081815260200182805480156112f257602002820191906000526020600020905b8154815260200190600101908083116112de575b50505050509050919050565b6000600454905090565b33600560006101000a81548173ffffffffffffffffffffffffffffffffffffffff021916908373ffffffffffffffffffffffffffffffffffffffff160217905550565b611353611462565b6000808373ffffffffffffffffffffffffffffffffffffffff1673ffffffffffffffffffffffffffffffffffffffff1681526020019081526020016000206001018054806020026020016040519081016040528092919081815260200182805480156113de57602002820191906000526020600020905b8154815260200190600101908083116113ca575b50505050509050919050565b60016020528060005260406000206000915090508060000154908060010160009054906101000a900473ffffffffffffffffffffffffffffffffffffffff16908060020190806003019080600401908060050154908060060154908060070154908060080160009054906101000a900460ff16905089565b602060405190810160405280600081525090565b828054600181600116156101000203166002900490600052602060002090601f016020900481019282601f106114b757805160ff19168380011785556114e5565b828001600101855582156114e5579182015b828111156114e45782518255916020019190600101906114c9565b5b5090506114f291906115a2565b5090565b81548183558181151161151d5781836000526020600020918201910161151c91906115a2565b5b505050565b828054600181600116156101000203166002900490600052602060002090601f016020900481019282601f1061156357805160ff1916838001178555611591565b82800160010185558215611591579182015b82811115611590578251825591602001919060010190611575565b5b50905061159e91906115a2565b5090565b6115c491905b808211156115c05760008160009055506001016115a8565b5090565b905600a165627a7a72305820b0b5c0531b4dd593ca73a8df8ee85f48ab9fd284c77eca8528114ff03fb49bb00029",
  "source": "pragma solidity ^0.4.19;\n\ncontract MarketPlace {\n\n  struct user{\n    uint[] article_sold;\n    uint[] article_buyed;\n  }\n\n\n  // Custom types\n  struct Article {\n    uint id;//0\n    address seller;//1\n    string photo;//2\n    string name;//3\n    string description;//4\n    uint price;//5\n    uint number;//6\n    uint categories;//7\n    bool isDelete;//8\n  }\n\n  struct NameKey {\n    uint[] keys;\n  }\n  struct TypeKey {\n    uint[] keys;\n  }\n  // State variables\n  mapping(address => user) private users;\n  mapping(uint => Article) public articles;\n  mapping(string => NameKey) private nameToKeys;\n  mapping(uint => TypeKey) private typeToKeys;\n  uint articleCounter;\n\n\n  address owner;\n  //Events\n  event sellArticleEvent(\n    uint indexed _id,\n    address indexed _seller,\n    string _photo,\n    string _name,\n    uint _price,\n    uint _number,\n    uint _categories\n  );\n\n  event buyArticleEvent(\n    uint indexed _id,\n    address indexed _seller,\n    address indexed _buyer,\n    string _photo,\n    string _name,\n    uint _price,\n    uint _number,\n    uint _createAt\n  );\n\n  //modifiers\n  modifier onlyOwner() {\n    require(msg.sender == owner);\n    _;\n  }\n\n  modifier objectInRange(uint objID) {\n    if (objID >= articleCounter)\n      throw;\n    _;\n  }\n\n  //sell an article\n  function sellArticle(string _photo, string _name, string _description, uint _price, uint _number, uint _categories) public {\n    // a new article\n    articleCounter++;\n    nameToKeys[_name].keys.push(articleCounter);\n    typeToKeys[_categories].keys.push(articleCounter);\n    //store this article\n    articles[articleCounter] = Article(\n      articleCounter,\n      msg.sender,\n      _photo,\n      _name,\n      _description,\n      _price,\n      _number,\n      _categories,\n      false\n    );\n    users[msg.sender].article_sold.push(articleCounter);\n    // trigger the event\n    sellArticleEvent(articleCounter, msg.sender, _photo, _name, _price, _number, _categories);\n  }\n\n  // fetch the number of articles in the contract\n  function getNumberOfArticles() public constant returns (uint) {\n    return articleCounter;\n  }\n\n  // buy an article\n  function buyArticle(uint _id, uint number) payable public {\n    // we check whether there is at least one article\n    require(articleCounter > 0);\n\n    // we check whether the article exists\n    require(_id > 0 && _id <= articleCounter);\n\n    // we retrieve the article\n    Article storage article = articles[_id];\n\n    // we don't allow the seller to buy his/her own article\n    require(article.seller != msg.sender);\n\n    require(article.number >= number);\n\n    // the buyer can buy the article\n    article.seller.transfer(msg.value);\n\n    article.number-=number;\n\n    users[msg.sender].article_buyed.push(article.id);\n    // trigger the event\n    buyArticleEvent(_id, article.seller, msg.sender, article.photo, article.name, article.price, number, now);\n  }\n\n  function modifyArticle(uint _id, string _name, string _description, uint _price, uint _number, uint _categories) public {\n    require(articles[_id].seller == msg.sender);\n    articles[_id].name = _name;\n    articles[_id].price = _price;\n    articles[_id].number = _number;\n    articles[_id].categories = _categories;\n    articles[_id].description = _description;\n  }\n\n  function deleteArticle(uint _id){\n    require(articles[_id].seller == msg.sender);\n    articles[_id].isDelete = true;\n  }\n\n  //kill the smart contract\n  function kill() onlyOwner {\n    selfdestruct(owner);\n  }\n\n  // constructor\n  function Owned(){\n    owner = msg.sender;\n  }\n\n  function findByNames(string name) constant returns (uint[]){\n    return nameToKeys[name].keys;\n  }\n\n  function findByType(uint categories) constant returns (uint[]){\n    return typeToKeys[categories].keys;\n  }\n\n  function getUserSold(address user) constant returns (uint[]){\n    return users[user].article_sold;\n  }\n\n  function getUserBought(address user) constant returns (uint[]){\n    return users[user].article_buyed;\n  }\n}\n",
  "sourcePath": "/Users/steveniiv/Test/Market-DApp/contracts/MarketPlace.sol",
  "compiler": {
    "name": "solc",
    "version": "0.4.19+commit.c4cbbb05.Emscripten.clang"
  },
  "schemaVersion": "3.0.19",
  "updatedAt": "2020-03-05T16:54:44.786Z",
  "networkType": "ethereum",
  "devdoc": {
    "methods": {}
  },
  "userdoc": {
    "methods": {}
  }
}