{
  "contractName": "MarketPlace",
  "abi": [
    {
      "constant": true,
      "inputs": [
        {
          "name": "",
          "type": "uint256"
        }
      ],
      "name": "articles",
      "outputs": [
        {
          "name": "id",
          "type": "uint256"
        },
        {
          "name": "seller",
          "type": "address"
        },
        {
          "name": "buyer",
          "type": "address"
        },
        {
          "name": "photo",
          "type": "string"
        },
        {
          "name": "name",
          "type": "string"
        },
        {
          "name": "description",
          "type": "string"
        },
        {
          "name": "price",
          "type": "uint256"
        },
        {
          "name": "number",
          "type": "uint256"
        },
        {
          "name": "categories",
          "type": "uint256"
        }
      ],
      "payable": false,
      "stateMutability": "view",
      "type": "function"
    },
    {
      "anonymous": false,
      "inputs": [
        {
          "indexed": true,
          "name": "_id",
          "type": "uint256"
        },
        {
          "indexed": true,
          "name": "_seller",
          "type": "address"
        },
        {
          "indexed": false,
          "name": "_photo",
          "type": "string"
        },
        {
          "indexed": false,
          "name": "_name",
          "type": "string"
        },
        {
          "indexed": false,
          "name": "_price",
          "type": "uint256"
        },
        {
          "indexed": false,
          "name": "_number",
          "type": "uint256"
        },
        {
          "indexed": false,
          "name": "_categories",
          "type": "uint256"
        }
      ],
      "name": "sellArticleEvent",
      "type": "event"
    },
    {
      "anonymous": false,
      "inputs": [
        {
          "indexed": true,
          "name": "_id",
          "type": "uint256"
        },
        {
          "indexed": true,
          "name": "_seller",
          "type": "address"
        },
        {
          "indexed": true,
          "name": "_buyer",
          "type": "address"
        },
        {
          "indexed": false,
          "name": "_photo",
          "type": "string"
        },
        {
          "indexed": false,
          "name": "_name",
          "type": "string"
        },
        {
          "indexed": false,
          "name": "_price",
          "type": "uint256"
        },
        {
          "indexed": false,
          "name": "_createAt",
          "type": "uint256"
        }
      ],
      "name": "buyArticleEvent",
      "type": "event"
    },
    {
      "constant": false,
      "inputs": [
        {
          "name": "_photo",
          "type": "string"
        },
        {
          "name": "_name",
          "type": "string"
        },
        {
          "name": "_description",
          "type": "string"
        },
        {
          "name": "_price",
          "type": "uint256"
        },
        {
          "name": "_number",
          "type": "uint256"
        },
        {
          "name": "_categories",
          "type": "uint256"
        }
      ],
      "name": "sellArticle",
      "outputs": [],
      "payable": false,
      "stateMutability": "nonpayable",
      "type": "function"
    },
    {
      "constant": true,
      "inputs": [],
      "name": "getNumberOfArticles",
      "outputs": [
        {
          "name": "",
          "type": "uint256"
        }
      ],
      "payable": false,
      "stateMutability": "view",
      "type": "function"
    },
    {
      "constant": true,
      "inputs": [],
      "name": "getArticlesForSale",
      "outputs": [
        {
          "name": "",
          "type": "uint256[]"
        }
      ],
      "payable": false,
      "stateMutability": "view",
      "type": "function"
    },
    {
      "constant": false,
      "inputs": [
        {
          "name": "_id",
          "type": "uint256"
        }
      ],
      "name": "buyArticle",
      "outputs": [],
      "payable": true,
      "stateMutability": "payable",
      "type": "function"
    },
    {
      "constant": false,
      "inputs": [],
      "name": "kill",
      "outputs": [],
      "payable": false,
      "stateMutability": "nonpayable",
      "type": "function"
    },
    {
      "constant": false,
      "inputs": [],
      "name": "Owned",
      "outputs": [],
      "payable": false,
      "stateMutability": "nonpayable",
      "type": "function"
    },
    {
      "constant": true,
      "inputs": [
        {
          "name": "name",
          "type": "string"
        }
      ],
      "name": "findByNames",
      "outputs": [
        {
          "name": "",
          "type": "uint256[]"
        }
      ],
      "payable": false,
      "stateMutability": "view",
      "type": "function"
    },
    {
      "constant": true,
      "inputs": [
        {
          "name": "categories",
          "type": "uint256"
        }
      ],
      "name": "findByType",
      "outputs": [
        {
          "name": "",
          "type": "uint256[]"
        }
      ],
      "payable": false,
      "stateMutability": "view",
      "type": "function"
    }
  ],
  "bytecode": "0x6060604052341561000f57600080fd5b6112808061001e6000396000f300606060405260043610610099576000357c0100000000000000000000000000000000000000000000000000000000900463ffffffff1680631cc4baa81461009e57806341c0e1b5146100b657806361308848146100cb5780636cab7bb2146101435780637f6be3da1461024157806380f0b74a146102ab57806389da85d31461035d578063b303dcbd14610386578063edcfafe61461039b575b600080fd5b6100b460048080359060200190919050506105e8565b005b34156100c157600080fd5b6100c9610964565b005b34156100d657600080fd5b6100ec60048080359060200190919050506109fb565b6040518080602001828103825283818151815260200191508051906020019060200280838360005b8381101561012f578082015181840152602081019050610114565b505050509050019250505060405180910390f35b341561014e57600080fd5b61023f600480803590602001908201803590602001908080601f0160208091040260200160405190810160405280939291908181526020018383808284378201915050505050509190803590602001908201803590602001908080601f0160208091040260200160405190810160405280939291908181526020018383808284378201915050505050509190803590602001908201803590602001908080601f01602080910402602001604051908101604052809392919081815260200183838082843782019150505050505091908035906020019091908035906020019091908035906020019091905050610a6f565b005b341561024c57600080fd5b610254610e2f565b6040518080602001828103825283818151815260200191508051906020019060200280838360005b8381101561029757808201518184015260208101905061027c565b505050509050019250505060405180910390f35b34156102b657600080fd5b610306600480803590602001908201803590602001908080601f01602080910402602001604051908101604052809392919081815260200183838082843782019150505050505091905050610fcb565b6040518080602001828103825283818151815260200191508051906020019060200280838360005b8381101561034957808201518184015260208101905061032e565b505050509050019250505060405180910390f35b341561036857600080fd5b610370611097565b6040518082815260200191505060405180910390f35b341561039157600080fd5b6103996110a1565b005b34156103a657600080fd5b6103bc60048080359060200190919050506110e4565b604051808a81526020018973ffffffffffffffffffffffffffffffffffffffff1673ffffffffffffffffffffffffffffffffffffffff1681526020018873ffffffffffffffffffffffffffffffffffffffff1673ffffffffffffffffffffffffffffffffffffffff16815260200180602001806020018060200187815260200186815260200185815260200184810384528a8181546001816001161561010002031660029004815260200191508054600181600116156101000203166002900480156104c95780601f1061049e576101008083540402835291602001916104c9565b820191906000526020600020905b8154815290600101906020018083116104ac57829003601f168201915b505084810383528981815460018160011615610100020316600290048152602001915080546001816001161561010002031660029004801561054c5780601f106105215761010080835404028352916020019161054c565b820191906000526020600020905b81548152906001019060200180831161052f57829003601f168201915b50508481038252888181546001816001161561010002031660029004815260200191508054600181600116156101000203166002900480156105cf5780601f106105a4576101008083540402835291602001916105cf565b820191906000526020600020905b8154815290600101906020018083116105b257829003601f168201915b50509c5050505050505050505050505060405180910390f35b6000806003541115156105fa57600080fd5b60008211801561060c57506003548211155b151561061757600080fd5b600080838152602001908152602001600020905060008160020160009054906101000a900473ffffffffffffffffffffffffffffffffffffffff1673ffffffffffffffffffffffffffffffffffffffff1614151561067457600080fd5b3373ffffffffffffffffffffffffffffffffffffffff168160010160009054906101000a900473ffffffffffffffffffffffffffffffffffffffff1673ffffffffffffffffffffffffffffffffffffffff16141515156106d357600080fd5b3481600601541415156106e557600080fd5b338160020160006101000a81548173ffffffffffffffffffffffffffffffffffffffff021916908373ffffffffffffffffffffffffffffffffffffffff1602179055508060010160009054906101000a900473ffffffffffffffffffffffffffffffffffffffff1673ffffffffffffffffffffffffffffffffffffffff166108fc349081150290604051600060405180830381858888f19350505050151561078c57600080fd5b8060020160009054906101000a900473ffffffffffffffffffffffffffffffffffffffff1673ffffffffffffffffffffffffffffffffffffffff168160010160009054906101000a900473ffffffffffffffffffffffffffffffffffffffff1673ffffffffffffffffffffffffffffffffffffffff16837f3d17a6a17ede4fa02b7687c54c57830d55372fa18b5e8e2acf75cf7780a815e384600301856004018660060154426040518080602001806020018581526020018481526020018381038352878181546001816001161561010002031660029004815260200191508054600181600116156101000203166002900480156108cb5780601f106108a0576101008083540402835291602001916108cb565b820191906000526020600020905b8154815290600101906020018083116108ae57829003601f168201915b505083810382528681815460018160011615610100020316600290048152602001915080546001816001161561010002031660029004801561094e5780601f106109235761010080835404028352916020019161094e565b820191906000526020600020905b81548152906001019060200180831161093157829003601f168201915b5050965050505050505060405180910390a45050565b600460009054906101000a900473ffffffffffffffffffffffffffffffffffffffff1673ffffffffffffffffffffffffffffffffffffffff163373ffffffffffffffffffffffffffffffffffffffff161415156109c057600080fd5b600460009054906101000a900473ffffffffffffffffffffffffffffffffffffffff1673ffffffffffffffffffffffffffffffffffffffff16ff5b610a0361116f565b60026000838152602001908152602001600020600001805480602002602001604051908101604052809291908181526020018280548015610a6357602002820191906000526020600020905b815481526020019060010190808311610a4f575b50505050509050919050565b6003600081548092919060010191905055506001856040518082805190602001908083835b602083101515610ab95780518252602082019150602081019050602083039250610a94565b6001836020036101000a03801982511681845116808217855250505050505090500191505090815260200160405180910390206000018054806001018281610b019190611183565b9160005260206000209001600060035490919091505550600260008281526020019081526020016000206000018054806001018281610b409190611183565b91600052602060002090016000600354909190915055506101206040519081016040528060035481526020013373ffffffffffffffffffffffffffffffffffffffff168152602001600073ffffffffffffffffffffffffffffffffffffffff1681526020018781526020018681526020018581526020018481526020018381526020018281525060008060035481526020019081526020016000206000820151816000015560208201518160010160006101000a81548173ffffffffffffffffffffffffffffffffffffffff021916908373ffffffffffffffffffffffffffffffffffffffff16021790555060408201518160020160006101000a81548173ffffffffffffffffffffffffffffffffffffffff021916908373ffffffffffffffffffffffffffffffffffffffff1602179055506060820151816003019080519060200190610c8f9291906111af565b506080820151816004019080519060200190610cac9291906111af565b5060a0820151816005019080519060200190610cc99291906111af565b5060c0820151816006015560e0820151816007015561010082015181600801559050503373ffffffffffffffffffffffffffffffffffffffff166003547fc21b061f376a1239b20c2998404b4e705fd4b06068af4954adae010ef3dd6bde8888878787604051808060200180602001868152602001858152602001848152602001838103835288818151815260200191508051906020019080838360005b83811015610d82578082015181840152602081019050610d67565b50505050905090810190601f168015610daf5780820380516001836020036101000a031916815260200191505b50838103825287818151815260200191508051906020019080838360005b83811015610de8578082015181840152602081019050610dcd565b50505050905090810190601f168015610e155780820380516001836020036101000a031916815260200191505b5097505050505050505060405180910390a3505050505050565b610e3761116f565b610e3f61116f565b600080610e4a61116f565b6000806003541415610e7d576000604051805910610e655750595b90808252806020026020018201604052509550610fc3565b600354604051805910610e8d5750595b9080825280602002602001820160405250945060009350600192505b60035483111515610f5057600080600085815260200190815260200160002060020160009054906101000a900473ffffffffffffffffffffffffffffffffffffffff1673ffffffffffffffffffffffffffffffffffffffff161415610f4357600080848152602001908152602001600020600001548585815181101515610f2c57fe5b906020019060200201818152505083806001019450505b8280600101935050610ea9565b83604051805910610f5e5750595b90808252806020026020018201604052509150600090505b83811015610fbf578481815181101515610f8c57fe5b906020019060200201518282815181101515610fa457fe5b90602001906020020181815250508080600101915050610f76565b8195505b505050505090565b610fd361116f565b6001826040518082805190602001908083835b60208310151561100b5780518252602082019150602081019050602083039250610fe6565b6001836020036101000a038019825116818451168082178552505050505050905001915050908152602001604051809103902060000180548060200260200160405190810160405280929190818152602001828054801561108b57602002820191906000526020600020905b815481526020019060010190808311611077575b50505050509050919050565b6000600354905090565b33600460006101000a81548173ffffffffffffffffffffffffffffffffffffffff021916908373ffffffffffffffffffffffffffffffffffffffff160217905550565b60006020528060005260406000206000915090508060000154908060010160009054906101000a900473ffffffffffffffffffffffffffffffffffffffff16908060020160009054906101000a900473ffffffffffffffffffffffffffffffffffffffff16908060030190806004019080600501908060060154908060070154908060080154905089565b602060405190810160405280600081525090565b8154818355818115116111aa578183600052602060002091820191016111a9919061122f565b5b505050565b828054600181600116156101000203166002900490600052602060002090601f016020900481019282601f106111f057805160ff191683800117855561121e565b8280016001018555821561121e579182015b8281111561121d578251825591602001919060010190611202565b5b50905061122b919061122f565b5090565b61125191905b8082111561124d576000816000905550600101611235565b5090565b905600a165627a7a723058205ef295ac667a286fad2ac43d9b3ece693bfd3401274d7871d61bf56b39d324330029",
  "source": "pragma solidity ^0.4.19;\n\ncontract MarketPlace {\n\n  // Custom types\n  struct Article {\n    uint id;\n    address seller;\n    address buyer;\n    string photo;\n    string name;\n    string description;\n    uint price;\n    uint number;\n    uint categories;\n  }\n\n  struct NameKey {\n    uint[] keys;\n  }\n  struct TypeKey {\n    uint[] keys;\n  }\n  // State variables\n  mapping(uint => Article) public articles;\n  mapping(string => NameKey) private nameToKeys;\n  mapping(uint => TypeKey) private typeToKeys;\n  uint articleCounter;\n\n\n  address owner;\n  //Events\n  event sellArticleEvent(\n    uint indexed _id,\n    address indexed _seller,\n    string _photo,\n    string _name,\n    uint _price,\n    uint _number,\n    uint _categories\n  );\n\n  event buyArticleEvent(\n    uint indexed _id,\n    address indexed _seller,\n    address indexed _buyer,\n    string _photo,\n    string _name,\n    uint _price,\n    uint _createAt\n  );\n\n  //modifiers\n  modifier onlyOwner() {\n    require(msg.sender == owner);\n    _;\n  }\n\n  modifier objectInRange(uint objID) {\n    if (objID >= articleCounter)\n      throw;\n    _;\n  }\n\n  //sell an article\n  function sellArticle(string _photo, string _name, string _description, uint _price, uint _number, uint _categories) public {\n    // a new article\n    articleCounter++;\n    nameToKeys[_name].keys.push(articleCounter);\n    typeToKeys[_categories].keys.push(articleCounter);\n    //store this article\n    articles[articleCounter] = Article(\n      articleCounter,\n      msg.sender,\n      0x0,\n      _photo,\n      _name,\n      _description,\n      _price,\n      _number,\n      _categories\n    );\n\n    // trigger the event\n    sellArticleEvent(articleCounter, msg.sender, _photo, _name, _price, _number, _categories);\n  }\n\n  // fetch the number of articles in the contract\n  function getNumberOfArticles() public constant returns (uint) {\n    return articleCounter;\n  }\n\n  // fetch and returns all article IDs available for sale\n  function getArticlesForSale() public constant returns (uint[]) {\n    // we check whether there is at least one article\n    if(articleCounter == 0) {\n      return new uint[](0);\n    }\n\n    // prepare intermediary array\n    uint[] memory articleIds = new uint[](articleCounter);\n\n    uint numberOfArticlesForSale = 0;\n    // iterate over articles\n    for (uint i = 1; i <= articleCounter; i++) {\n      // keep only the ID of articles not sold yet\n      if (articles[i].buyer == 0x0) {\n        articleIds[numberOfArticlesForSale] = articles[i].id;\n        numberOfArticlesForSale++;\n      }\n    }\n\n    // copy the articleIds array into the smaller forSale array\n    uint[] memory forSale = new uint[](numberOfArticlesForSale);\n    for (uint j = 0; j < numberOfArticlesForSale; j++) {\n      forSale[j] = articleIds[j];\n    }\n    return (forSale);\n  }\n\n  // buy an article\n  function buyArticle(uint _id) payable public {\n    // we check whether there is at least one article\n    require(articleCounter > 0);\n\n    // we check whether the article exists\n    require(_id > 0 && _id <= articleCounter);\n\n    // we retrieve the article\n    Article storage article = articles[_id];\n\n    // we check whether the article has not already been sold\n    require(article.buyer == 0x0);\n\n    // we don't allow the seller to buy his/her own article\n    require(article.seller != msg.sender);\n\n    // we check whether the value sent corresponds to the article price\n    require(article.price == msg.value);\n\n    // keep buyer's information\n    article.buyer = msg.sender;\n\n    // the buyer can buy the article\n    article.seller.transfer(msg.value);\n\n    // trigger the event\n    buyArticleEvent(_id, article.seller, article.buyer, article.photo, article.name, article.price, now);\n  }\n\n  //kill the smart contract\n  function kill() onlyOwner {\n    selfdestruct(owner);\n  }\n\n  // constructor\n  function Owned(){\n    owner = msg.sender;\n  }\n\n  function findByNames(string name) constant returns (uint[]){\n    return nameToKeys[name].keys;\n  }\n\n  function findByType(uint categories) constant returns (uint[]){\n    return typeToKeys[categories].keys;\n  }\n}\n",
  "sourcePath": "/Users/steveniiv/Test/Market-DApp/contracts/MarketPlace.sol",
  "compiler": {
    "name": "solc",
    "version": "0.4.19+commit.c4cbbb05.Emscripten.clang"
  },
  "schemaVersion": "3.0.19",
  "updatedAt": "2020-02-29T04:11:47.083Z",
  "networkType": "ethereum",
  "devdoc": {
    "methods": {}
  },
  "userdoc": {
    "methods": {}
  }
}