{
  "contractName": "MarketPlace",
  "abi": [
    {
      "constant": true,
      "inputs": [
        {
          "name": "",
          "type": "uint256"
        }
      ],
      "name": "articles",
      "outputs": [
        {
          "name": "id",
          "type": "uint256"
        },
        {
          "name": "seller",
          "type": "address"
        },
        {
          "name": "photo",
          "type": "string"
        },
        {
          "name": "name",
          "type": "string"
        },
        {
          "name": "description",
          "type": "string"
        },
        {
          "name": "price",
          "type": "uint256"
        },
        {
          "name": "number",
          "type": "uint256"
        },
        {
          "name": "categories",
          "type": "uint256"
        }
      ],
      "payable": false,
      "stateMutability": "view",
      "type": "function"
    },
    {
      "anonymous": false,
      "inputs": [
        {
          "indexed": true,
          "name": "_id",
          "type": "uint256"
        },
        {
          "indexed": true,
          "name": "_seller",
          "type": "address"
        },
        {
          "indexed": false,
          "name": "_photo",
          "type": "string"
        },
        {
          "indexed": false,
          "name": "_name",
          "type": "string"
        },
        {
          "indexed": false,
          "name": "_price",
          "type": "uint256"
        },
        {
          "indexed": false,
          "name": "_number",
          "type": "uint256"
        },
        {
          "indexed": false,
          "name": "_categories",
          "type": "uint256"
        }
      ],
      "name": "sellArticleEvent",
      "type": "event"
    },
    {
      "anonymous": false,
      "inputs": [
        {
          "indexed": true,
          "name": "_id",
          "type": "uint256"
        },
        {
          "indexed": true,
          "name": "_seller",
          "type": "address"
        },
        {
          "indexed": true,
          "name": "_buyer",
          "type": "address"
        },
        {
          "indexed": false,
          "name": "_photo",
          "type": "string"
        },
        {
          "indexed": false,
          "name": "_name",
          "type": "string"
        },
        {
          "indexed": false,
          "name": "_price",
          "type": "uint256"
        },
        {
          "indexed": false,
          "name": "_createAt",
          "type": "uint256"
        }
      ],
      "name": "buyArticleEvent",
      "type": "event"
    },
    {
      "constant": false,
      "inputs": [
        {
          "name": "_photo",
          "type": "string"
        },
        {
          "name": "_name",
          "type": "string"
        },
        {
          "name": "_description",
          "type": "string"
        },
        {
          "name": "_price",
          "type": "uint256"
        },
        {
          "name": "_number",
          "type": "uint256"
        },
        {
          "name": "_categories",
          "type": "uint256"
        }
      ],
      "name": "sellArticle",
      "outputs": [],
      "payable": false,
      "stateMutability": "nonpayable",
      "type": "function"
    },
    {
      "constant": true,
      "inputs": [],
      "name": "getNumberOfArticles",
      "outputs": [
        {
          "name": "",
          "type": "uint256"
        }
      ],
      "payable": false,
      "stateMutability": "view",
      "type": "function"
    },
    {
      "constant": false,
      "inputs": [
        {
          "name": "_id",
          "type": "uint256"
        }
      ],
      "name": "buyArticle",
      "outputs": [],
      "payable": true,
      "stateMutability": "payable",
      "type": "function"
    },
    {
      "constant": false,
      "inputs": [],
      "name": "kill",
      "outputs": [],
      "payable": false,
      "stateMutability": "nonpayable",
      "type": "function"
    },
    {
      "constant": false,
      "inputs": [],
      "name": "Owned",
      "outputs": [],
      "payable": false,
      "stateMutability": "nonpayable",
      "type": "function"
    },
    {
      "constant": true,
      "inputs": [
        {
          "name": "name",
          "type": "string"
        }
      ],
      "name": "findByNames",
      "outputs": [
        {
          "name": "",
          "type": "uint256[]"
        }
      ],
      "payable": false,
      "stateMutability": "view",
      "type": "function"
    },
    {
      "constant": true,
      "inputs": [
        {
          "name": "categories",
          "type": "uint256"
        }
      ],
      "name": "findByType",
      "outputs": [
        {
          "name": "",
          "type": "uint256[]"
        }
      ],
      "payable": false,
      "stateMutability": "view",
      "type": "function"
    }
  ],
  "bytecode": "0x6060604052341561000f57600080fd5b610f298061001e6000396000f30060606040526004361061008e576000357c0100000000000000000000000000000000000000000000000000000000900463ffffffff1680631cc4baa81461009357806341c0e1b5146100ab57806361308848146100c05780636cab7bb21461013857806380f0b74a1461023657806389da85d3146102e8578063b303dcbd14610311578063edcfafe614610326575b600080fd5b6100a96004808035906020019091905050610540565b005b34156100b657600080fd5b6100be610834565b005b34156100cb57600080fd5b6100e160048080359060200190919050506108cb565b6040518080602001828103825283818151815260200191508051906020019060200280838360005b83811015610124578082015181840152602081019050610109565b505050509050019250505060405180910390f35b341561014357600080fd5b610234600480803590602001908201803590602001908080601f0160208091040260200160405190810160405280939291908181526020018383808284378201915050505050509190803590602001908201803590602001908080601f0160208091040260200160405190810160405280939291908181526020018383808284378201915050505050509190803590602001908201803590602001908080601f0160208091040260200160405190810160405280939291908181526020018383808284378201915050505050509190803590602001909190803590602001909190803590602001909190505061093f565b005b341561024157600080fd5b610291600480803590602001908201803590602001908080601f01602080910402602001604051908101604052809392919081815260200183838082843782019150505050505091905050610c9a565b6040518080602001828103825283818151815260200191508051906020019060200280838360005b838110156102d45780820151818401526020810190506102b9565b505050509050019250505060405180910390f35b34156102f357600080fd5b6102fb610d66565b6040518082815260200191505060405180910390f35b341561031c57600080fd5b610324610d70565b005b341561033157600080fd5b6103476004808035906020019091905050610db3565b604051808981526020018873ffffffffffffffffffffffffffffffffffffffff1673ffffffffffffffffffffffffffffffffffffffff16815260200180602001806020018060200187815260200186815260200185815260200184810384528a8181546001816001161561010002031660029004815260200191508054600181600116156101000203166002900480156104225780601f106103f757610100808354040283529160200191610422565b820191906000526020600020905b81548152906001019060200180831161040557829003601f168201915b50508481038352898181546001816001161561010002031660029004815260200191508054600181600116156101000203166002900480156104a55780601f1061047a576101008083540402835291602001916104a5565b820191906000526020600020905b81548152906001019060200180831161048857829003601f168201915b50508481038252888181546001816001161561010002031660029004815260200191508054600181600116156101000203166002900480156105285780601f106104fd57610100808354040283529160200191610528565b820191906000526020600020905b81548152906001019060200180831161050b57829003601f168201915b50509b50505050505050505050505060405180910390f35b60008060035411151561055257600080fd5b60008211801561056457506003548211155b151561056f57600080fd5b60008083815260200190815260200160002090503373ffffffffffffffffffffffffffffffffffffffff168160010160009054906101000a900473ffffffffffffffffffffffffffffffffffffffff1673ffffffffffffffffffffffffffffffffffffffff16141515156105e257600080fd5b3481600501541415156105f457600080fd5b6000816006015411151561060757600080fd5b8060010160009054906101000a900473ffffffffffffffffffffffffffffffffffffffff1673ffffffffffffffffffffffffffffffffffffffff166108fc349081150290604051600060405180830381858888f19350505050151561066b57600080fd5b8060060160008154809291906001900391905055503373ffffffffffffffffffffffffffffffffffffffff168160010160009054906101000a900473ffffffffffffffffffffffffffffffffffffffff1673ffffffffffffffffffffffffffffffffffffffff16837f3d17a6a17ede4fa02b7687c54c57830d55372fa18b5e8e2acf75cf7780a815e3846002018560030186600501544260405180806020018060200185815260200184815260200183810383528781815460018160011615610100020316600290048152602001915080546001816001161561010002031660029004801561079b5780601f106107705761010080835404028352916020019161079b565b820191906000526020600020905b81548152906001019060200180831161077e57829003601f168201915b505083810382528681815460018160011615610100020316600290048152602001915080546001816001161561010002031660029004801561081e5780601f106107f35761010080835404028352916020019161081e565b820191906000526020600020905b81548152906001019060200180831161080157829003601f168201915b5050965050505050505060405180910390a45050565b600460009054906101000a900473ffffffffffffffffffffffffffffffffffffffff1673ffffffffffffffffffffffffffffffffffffffff163373ffffffffffffffffffffffffffffffffffffffff1614151561089057600080fd5b600460009054906101000a900473ffffffffffffffffffffffffffffffffffffffff1673ffffffffffffffffffffffffffffffffffffffff16ff5b6108d3610e18565b6002600083815260200190815260200160002060000180548060200260200160405190810160405280929190818152602001828054801561093357602002820191906000526020600020905b81548152602001906001019080831161091f575b50505050509050919050565b6003600081548092919060010191905055506001856040518082805190602001908083835b6020831015156109895780518252602082019150602081019050602083039250610964565b6001836020036101000a038019825116818451168082178552505050505050905001915050908152602001604051809103902060000180548060010182816109d19190610e2c565b9160005260206000209001600060035490919091505550600260008281526020019081526020016000206000018054806001018281610a109190610e2c565b91600052602060002090016000600354909190915055506101006040519081016040528060035481526020013373ffffffffffffffffffffffffffffffffffffffff1681526020018781526020018681526020018581526020018481526020018381526020018281525060008060035481526020019081526020016000206000820151816000015560208201518160010160006101000a81548173ffffffffffffffffffffffffffffffffffffffff021916908373ffffffffffffffffffffffffffffffffffffffff1602179055506040820151816002019080519060200190610afb929190610e58565b506060820151816003019080519060200190610b18929190610e58565b506080820151816004019080519060200190610b35929190610e58565b5060a0820151816005015560c0820151816006015560e082015181600701559050503373ffffffffffffffffffffffffffffffffffffffff166003547fc21b061f376a1239b20c2998404b4e705fd4b06068af4954adae010ef3dd6bde8888878787604051808060200180602001868152602001858152602001848152602001838103835288818151815260200191508051906020019080838360005b83811015610bed578082015181840152602081019050610bd2565b50505050905090810190601f168015610c1a5780820380516001836020036101000a031916815260200191505b50838103825287818151815260200191508051906020019080838360005b83811015610c53578082015181840152602081019050610c38565b50505050905090810190601f168015610c805780820380516001836020036101000a031916815260200191505b5097505050505050505060405180910390a3505050505050565b610ca2610e18565b6001826040518082805190602001908083835b602083101515610cda5780518252602082019150602081019050602083039250610cb5565b6001836020036101000a0380198251168184511680821785525050505050509050019150509081526020016040518091039020600001805480602002602001604051908101604052809291908181526020018280548015610d5a57602002820191906000526020600020905b815481526020019060010190808311610d46575b50505050509050919050565b6000600354905090565b33600460006101000a81548173ffffffffffffffffffffffffffffffffffffffff021916908373ffffffffffffffffffffffffffffffffffffffff160217905550565b60006020528060005260406000206000915090508060000154908060010160009054906101000a900473ffffffffffffffffffffffffffffffffffffffff16908060020190806003019080600401908060050154908060060154908060070154905088565b602060405190810160405280600081525090565b815481835581811511610e5357818360005260206000209182019101610e529190610ed8565b5b505050565b828054600181600116156101000203166002900490600052602060002090601f016020900481019282601f10610e9957805160ff1916838001178555610ec7565b82800160010185558215610ec7579182015b82811115610ec6578251825591602001919060010190610eab565b5b509050610ed49190610ed8565b5090565b610efa91905b80821115610ef6576000816000905550600101610ede565b5090565b905600a165627a7a7230582062bde9b4bd2f696348033b53fe1a914f245aef0a573592109fc5c14e3922e9a30029",
  "source": "pragma solidity ^0.4.19;\n\ncontract MarketPlace {\n\n  // Custom types\n  struct Article {\n    uint id;//0\n    address seller;//1\n    string photo;//2\n    string name;//3\n    string description;//4\n    uint price;//5\n    uint number;//6\n    uint categories;//7\n  }\n\n  struct NameKey {\n    uint[] keys;\n  }\n  struct TypeKey {\n    uint[] keys;\n  }\n  // State variables\n  mapping(uint => Article) public articles;\n  mapping(string => NameKey) private nameToKeys;\n  mapping(uint => TypeKey) private typeToKeys;\n  uint articleCounter;\n\n\n  address owner;\n  //Events\n  event sellArticleEvent(\n    uint indexed _id,\n    address indexed _seller,\n    string _photo,\n    string _name,\n    uint _price,\n    uint _number,\n    uint _categories\n  );\n\n  event buyArticleEvent(\n    uint indexed _id,\n    address indexed _seller,\n    address indexed _buyer,\n    string _photo,\n    string _name,\n    uint _price,\n    uint _createAt\n  );\n\n  //modifiers\n  modifier onlyOwner() {\n    require(msg.sender == owner);\n    _;\n  }\n\n  modifier objectInRange(uint objID) {\n    if (objID >= articleCounter)\n      throw;\n    _;\n  }\n\n  //sell an article\n  function sellArticle(string _photo, string _name, string _description, uint _price, uint _number, uint _categories) public {\n    // a new article\n    articleCounter++;\n    nameToKeys[_name].keys.push(articleCounter);\n    typeToKeys[_categories].keys.push(articleCounter);\n    //store this article\n    articles[articleCounter] = Article(\n      articleCounter,\n      msg.sender,\n      _photo,\n      _name,\n      _description,\n      _price,\n      _number,\n      _categories\n    );\n\n    // trigger the event\n    sellArticleEvent(articleCounter, msg.sender, _photo, _name, _price, _number, _categories);\n  }\n\n  // fetch the number of articles in the contract\n  function getNumberOfArticles() public constant returns (uint) {\n    return articleCounter;\n  }\n\n//  // fetch and returns all article IDs available for sale\n//  function getArticlesForSale() public constant returns (uint[]) {\n//    // we check whether there is at least one article\n//    if(articleCounter == 0) {\n//      return new uint[](0);\n//    }\n//\n//    // prepare intermediary array\n//    uint[] memory articleIds = new uint[](articleCounter);\n//\n//    uint numberOfArticlesForSale = 0;\n//    // iterate over articles\n//    for (uint i = 1; i <= articleCounter; i++) {\n//      // keep only the ID of articles not sold yet\n//      if (articles[i].buyer == 0x0) {\n//        articleIds[numberOfArticlesForSale] = articles[i].id;\n//        numberOfArticlesForSale++;\n//      }\n//    }\n//\n//    // copy the articleIds array into the smaller forSale array\n//    uint[] memory forSale = new uint[](numberOfArticlesForSale);\n//    for (uint j = 0; j < numberOfArticlesForSale; j++) {\n//      forSale[j] = articleIds[j];\n//    }\n//    return (forSale);\n//  }\n\n  // buy an article\n  function buyArticle(uint _id) payable public {\n    // we check whether there is at least one article\n    require(articleCounter > 0);\n\n    // we check whether the article exists\n    require(_id > 0 && _id <= articleCounter);\n\n    // we retrieve the article\n    Article storage article = articles[_id];\n\n    // we don't allow the seller to buy his/her own article\n    require(article.seller != msg.sender);\n\n    // we check whether the value sent corresponds to the article price\n    require(article.price == msg.value);\n\n    require(article.number > 0);\n\n    // the buyer can buy the article\n    article.seller.transfer(msg.value);\n\n    article.number--;\n\n    // trigger the event\n    buyArticleEvent(_id, article.seller, msg.sender, article.photo, article.name, article.price, now);\n  }\n\n  //kill the smart contract\n  function kill() onlyOwner {\n    selfdestruct(owner);\n  }\n\n  // constructor\n  function Owned(){\n    owner = msg.sender;\n  }\n\n  function findByNames(string name) constant returns (uint[]){\n    return nameToKeys[name].keys;\n  }\n\n  function findByType(uint categories) constant returns (uint[]){\n    return typeToKeys[categories].keys;\n  }\n}\n",
  "sourcePath": "/Users/steveniiv/Test/Market-DApp/contracts/MarketPlace.sol",
  "compiler": {
    "name": "solc",
    "version": "0.4.19+commit.c4cbbb05.Emscripten.clang"
  },
  "schemaVersion": "3.0.19",
  "updatedAt": "2020-03-01T05:50:54.236Z",
  "devdoc": {
    "methods": {}
  },
  "userdoc": {
    "methods": {}
  }
}