{
  "contractName": "MarketPlace",
  "abi": [
    {
      "constant": true,
      "inputs": [
        {
          "name": "",
          "type": "uint256"
        }
      ],
      "name": "articles",
      "outputs": [
        {
          "name": "id",
          "type": "uint256"
        },
        {
          "name": "seller",
          "type": "address"
        },
        {
          "name": "photo",
          "type": "string"
        },
        {
          "name": "name",
          "type": "string"
        },
        {
          "name": "description",
          "type": "string"
        },
        {
          "name": "price",
          "type": "uint256"
        },
        {
          "name": "number",
          "type": "uint256"
        },
        {
          "name": "categories",
          "type": "uint256"
        }
      ],
      "payable": false,
      "stateMutability": "view",
      "type": "function"
    },
    {
      "anonymous": false,
      "inputs": [
        {
          "indexed": true,
          "name": "_id",
          "type": "uint256"
        },
        {
          "indexed": true,
          "name": "_seller",
          "type": "address"
        },
        {
          "indexed": false,
          "name": "_photo",
          "type": "string"
        },
        {
          "indexed": false,
          "name": "_name",
          "type": "string"
        },
        {
          "indexed": false,
          "name": "_price",
          "type": "uint256"
        },
        {
          "indexed": false,
          "name": "_number",
          "type": "uint256"
        },
        {
          "indexed": false,
          "name": "_categories",
          "type": "uint256"
        }
      ],
      "name": "sellArticleEvent",
      "type": "event"
    },
    {
      "anonymous": false,
      "inputs": [
        {
          "indexed": true,
          "name": "_id",
          "type": "uint256"
        },
        {
          "indexed": true,
          "name": "_seller",
          "type": "address"
        },
        {
          "indexed": true,
          "name": "_buyer",
          "type": "address"
        },
        {
          "indexed": false,
          "name": "_photo",
          "type": "string"
        },
        {
          "indexed": false,
          "name": "_name",
          "type": "string"
        },
        {
          "indexed": false,
          "name": "_price",
          "type": "uint256"
        },
        {
          "indexed": false,
          "name": "_number",
          "type": "uint256"
        },
        {
          "indexed": false,
          "name": "_createAt",
          "type": "uint256"
        }
      ],
      "name": "buyArticleEvent",
      "type": "event"
    },
    {
      "constant": false,
      "inputs": [
        {
          "name": "_photo",
          "type": "string"
        },
        {
          "name": "_name",
          "type": "string"
        },
        {
          "name": "_description",
          "type": "string"
        },
        {
          "name": "_price",
          "type": "uint256"
        },
        {
          "name": "_number",
          "type": "uint256"
        },
        {
          "name": "_categories",
          "type": "uint256"
        }
      ],
      "name": "sellArticle",
      "outputs": [],
      "payable": false,
      "stateMutability": "nonpayable",
      "type": "function"
    },
    {
      "constant": true,
      "inputs": [],
      "name": "getNumberOfArticles",
      "outputs": [
        {
          "name": "",
          "type": "uint256"
        }
      ],
      "payable": false,
      "stateMutability": "view",
      "type": "function"
    },
    {
      "constant": false,
      "inputs": [
        {
          "name": "_id",
          "type": "uint256"
        },
        {
          "name": "number",
          "type": "uint256"
        }
      ],
      "name": "buyArticle",
      "outputs": [],
      "payable": true,
      "stateMutability": "payable",
      "type": "function"
    },
    {
      "constant": false,
      "inputs": [
        {
          "name": "_id",
          "type": "uint256"
        },
        {
          "name": "_name",
          "type": "string"
        },
        {
          "name": "_description",
          "type": "string"
        },
        {
          "name": "_price",
          "type": "uint256"
        },
        {
          "name": "_number",
          "type": "uint256"
        },
        {
          "name": "_categories",
          "type": "uint256"
        }
      ],
      "name": "modifyArticle",
      "outputs": [],
      "payable": false,
      "stateMutability": "nonpayable",
      "type": "function"
    },
    {
      "constant": false,
      "inputs": [
        {
          "name": "_id",
          "type": "uint256"
        },
        {
          "name": "_number",
          "type": "uint256"
        }
      ],
      "name": "deleteArticle",
      "outputs": [],
      "payable": false,
      "stateMutability": "nonpayable",
      "type": "function"
    },
    {
      "constant": false,
      "inputs": [],
      "name": "kill",
      "outputs": [],
      "payable": false,
      "stateMutability": "nonpayable",
      "type": "function"
    },
    {
      "constant": false,
      "inputs": [],
      "name": "Owned",
      "outputs": [],
      "payable": false,
      "stateMutability": "nonpayable",
      "type": "function"
    },
    {
      "constant": true,
      "inputs": [
        {
          "name": "name",
          "type": "string"
        }
      ],
      "name": "findByNames",
      "outputs": [
        {
          "name": "",
          "type": "uint256[]"
        }
      ],
      "payable": false,
      "stateMutability": "view",
      "type": "function"
    },
    {
      "constant": true,
      "inputs": [
        {
          "name": "categories",
          "type": "uint256"
        }
      ],
      "name": "findByType",
      "outputs": [
        {
          "name": "",
          "type": "uint256[]"
        }
      ],
      "payable": false,
      "stateMutability": "view",
      "type": "function"
    },
    {
      "constant": true,
      "inputs": [
        {
          "name": "user",
          "type": "address"
        }
      ],
      "name": "getUserSold",
      "outputs": [
        {
          "name": "",
          "type": "uint256[]"
        }
      ],
      "payable": false,
      "stateMutability": "view",
      "type": "function"
    },
    {
      "constant": true,
      "inputs": [
        {
          "name": "user",
          "type": "address"
        }
      ],
      "name": "getUserBought",
      "outputs": [
        {
          "name": "",
          "type": "uint256[]"
        }
      ],
      "payable": false,
      "stateMutability": "view",
      "type": "function"
    }
  ],
  "bytecode": "0x6060604052341561000f57600080fd5b6114c28061001e6000396000f3006060604052600436106100ba576000357c0100000000000000000000000000000000000000000000000000000000900463ffffffff16806341c0e1b5146100bf5780634324dacd146100d45780634503327514610162578063613088481461018e578063658ad627146102065780636aa5c352146102ca5780636cab7bb2146102eb57806380f0b74a146103e957806389da85d31461049b578063b303dcbd146104c4578063c0efbfbb146104d9578063edcfafe614610567575b600080fd5b34156100ca57600080fd5b6100d2610781565b005b34156100df57600080fd5b61010b600480803573ffffffffffffffffffffffffffffffffffffffff16906020019091905050610818565b6040518080602001828103825283818151815260200191508051906020019060200280838360005b8381101561014e578082015181840152602081019050610133565b505050509050019250505060405180910390f35b341561016d57600080fd5b61018c60048080359060200190919080359060200190919050506108b7565b005b341561019957600080fd5b6101af60048080359060200190919050506108d6565b6040518080602001828103825283818151815260200191508051906020019060200280838360005b838110156101f25780820151818401526020810190506101d7565b505050509050019250505060405180910390f35b341561021157600080fd5b6102c8600480803590602001909190803590602001908201803590602001908080601f0160208091040260200160405190810160405280939291908181526020018383808284378201915050505050509190803590602001908201803590602001908080601f0160208091040260200160405190810160405280939291908181526020018383808284378201915050505050509190803590602001909190803590602001909190803590602001909190505061094a565b005b6102e960048080359060200190919080359060200190919050506109f9565b005b34156102f657600080fd5b6103e7600480803590602001908201803590602001908080601f0160208091040260200160405190810160405280939291908181526020018383808284378201915050505050509190803590602001908201803590602001908080601f0160208091040260200160405190810160405280939291908181526020018383808284378201915050505050509190803590602001908201803590602001908080601f01602080910402602001604051908101604052809392919081815260200183838082843782019150505050505091908035906020019091908035906020019091908035906020019091905050610d4e565b005b34156103f457600080fd5b610444600480803590602001908201803590602001908080601f01602080910402602001604051908101604052809392919081815260200183838082843782019150505050505091905050611114565b6040518080602001828103825283818151815260200191508051906020019060200280838360005b8381101561048757808201518184015260208101905061046c565b505050509050019250505060405180910390f35b34156104a657600080fd5b6104ae6111e0565b6040518082815260200191505060405180910390f35b34156104cf57600080fd5b6104d76111ea565b005b34156104e457600080fd5b610510600480803573ffffffffffffffffffffffffffffffffffffffff1690602001909190505061122d565b6040518080602001828103825283818151815260200191508051906020019060200280838360005b83811015610553578082015181840152602081019050610538565b505050509050019250505060405180910390f35b341561057257600080fd5b61058860048080359060200190919050506112cc565b604051808981526020018873ffffffffffffffffffffffffffffffffffffffff1673ffffffffffffffffffffffffffffffffffffffff16815260200180602001806020018060200187815260200186815260200185815260200184810384528a8181546001816001161561010002031660029004815260200191508054600181600116156101000203166002900480156106635780601f1061063857610100808354040283529160200191610663565b820191906000526020600020905b81548152906001019060200180831161064657829003601f168201915b50508481038352898181546001816001161561010002031660029004815260200191508054600181600116156101000203166002900480156106e65780601f106106bb576101008083540402835291602001916106e6565b820191906000526020600020905b8154815290600101906020018083116106c957829003601f168201915b50508481038252888181546001816001161561010002031660029004815260200191508054600181600116156101000203166002900480156107695780601f1061073e57610100808354040283529160200191610769565b820191906000526020600020905b81548152906001019060200180831161074c57829003601f168201915b50509b50505050505050505050505060405180910390f35b600560009054906101000a900473ffffffffffffffffffffffffffffffffffffffff1673ffffffffffffffffffffffffffffffffffffffff163373ffffffffffffffffffffffffffffffffffffffff161415156107dd57600080fd5b600560009054906101000a900473ffffffffffffffffffffffffffffffffffffffff1673ffffffffffffffffffffffffffffffffffffffff16ff5b610820611331565b6000808373ffffffffffffffffffffffffffffffffffffffff1673ffffffffffffffffffffffffffffffffffffffff1681526020019081526020016000206000018054806020026020016040519081016040528092919081815260200182805480156108ab57602002820191906000526020600020905b815481526020019060010190808311610897575b50505050509050919050565b8060016000848152602001908152602001600020600601819055505050565b6108de611331565b6003600083815260200190815260200160002060000180548060200260200160405190810160405280929190818152602001828054801561093e57602002820191906000526020600020905b81548152602001906001019080831161092a575b50505050509050919050565b84600160008881526020019081526020016000206003019080519060200190610974929190611345565b50826001600088815260200190815260200160002060050181905550816001600088815260200190815260200160002060060181905550806001600088815260200190815260200160002060070181905550836001600088815260200190815260200160002060040190805190602001906109f0929190611345565b50505050505050565b600080600454111515610a0b57600080fd5b600083118015610a1d57506004548311155b1515610a2857600080fd5b6001600084815260200190815260200160002090503373ffffffffffffffffffffffffffffffffffffffff168160010160009054906101000a900473ffffffffffffffffffffffffffffffffffffffff1673ffffffffffffffffffffffffffffffffffffffff1614151515610a9c57600080fd5b81816006015410151515610aaf57600080fd5b8060010160009054906101000a900473ffffffffffffffffffffffffffffffffffffffff1673ffffffffffffffffffffffffffffffffffffffff166108fc349081150290604051600060405180830381858888f193505050501515610b1357600080fd5b8181600601600082825403925050819055506000803373ffffffffffffffffffffffffffffffffffffffff1673ffffffffffffffffffffffffffffffffffffffff1681526020019081526020016000206001018054806001018281610b7891906113c5565b916000526020600020900160008360000154909190915055503373ffffffffffffffffffffffffffffffffffffffff168160010160009054906101000a900473ffffffffffffffffffffffffffffffffffffffff1673ffffffffffffffffffffffffffffffffffffffff16847fad46b24bc2ae50c09c2e13f6ac064244dca525dfa5d780022e7e32b8bfbd0100846002018560030186600501548842604051808060200180602001868152602001858152602001848152602001838103835288818154600181600116156101000203166002900481526020019150805460018160011615610100020316600290048015610cb35780601f10610c8857610100808354040283529160200191610cb3565b820191906000526020600020905b815481529060010190602001808311610c9657829003601f168201915b5050838103825287818154600181600116156101000203166002900481526020019150805460018160011615610100020316600290048015610d365780601f10610d0b57610100808354040283529160200191610d36565b820191906000526020600020905b815481529060010190602001808311610d1957829003601f168201915b505097505050505050505060405180910390a4505050565b6004600081548092919060010191905055506002856040518082805190602001908083835b602083101515610d985780518252602082019150602081019050602083039250610d73565b6001836020036101000a03801982511681845116808217855250505050505090500191505090815260200160405180910390206000018054806001018281610de091906113c5565b9160005260206000209001600060045490919091505550600360008281526020019081526020016000206000018054806001018281610e1f91906113c5565b91600052602060002090016000600454909190915055506101006040519081016040528060045481526020013373ffffffffffffffffffffffffffffffffffffffff168152602001878152602001868152602001858152602001848152602001838152602001828152506001600060045481526020019081526020016000206000820151816000015560208201518160010160006101000a81548173ffffffffffffffffffffffffffffffffffffffff021916908373ffffffffffffffffffffffffffffffffffffffff1602179055506040820151816002019080519060200190610f0b9291906113f1565b506060820151816003019080519060200190610f289291906113f1565b506080820151816004019080519060200190610f459291906113f1565b5060a0820151816005015560c0820151816006015560e082015181600701559050506000803373ffffffffffffffffffffffffffffffffffffffff1673ffffffffffffffffffffffffffffffffffffffff1681526020019081526020016000206000018054806001018281610fba91906113c5565b91600052602060002090016000600454909190915055503373ffffffffffffffffffffffffffffffffffffffff166004547fc21b061f376a1239b20c2998404b4e705fd4b06068af4954adae010ef3dd6bde8888878787604051808060200180602001868152602001858152602001848152602001838103835288818151815260200191508051906020019080838360005b8381101561106757808201518184015260208101905061104c565b50505050905090810190601f1680156110945780820380516001836020036101000a031916815260200191505b50838103825287818151815260200191508051906020019080838360005b838110156110cd5780820151818401526020810190506110b2565b50505050905090810190601f1680156110fa5780820380516001836020036101000a031916815260200191505b5097505050505050505060405180910390a3505050505050565b61111c611331565b6002826040518082805190602001908083835b602083101515611154578051825260208201915060208101905060208303925061112f565b6001836020036101000a03801982511681845116808217855250505050505090500191505090815260200160405180910390206000018054806020026020016040519081016040528092919081815260200182805480156111d457602002820191906000526020600020905b8154815260200190600101908083116111c0575b50505050509050919050565b6000600454905090565b33600560006101000a81548173ffffffffffffffffffffffffffffffffffffffff021916908373ffffffffffffffffffffffffffffffffffffffff160217905550565b611235611331565b6000808373ffffffffffffffffffffffffffffffffffffffff1673ffffffffffffffffffffffffffffffffffffffff1681526020019081526020016000206001018054806020026020016040519081016040528092919081815260200182805480156112c057602002820191906000526020600020905b8154815260200190600101908083116112ac575b50505050509050919050565b60016020528060005260406000206000915090508060000154908060010160009054906101000a900473ffffffffffffffffffffffffffffffffffffffff16908060020190806003019080600401908060050154908060060154908060070154905088565b602060405190810160405280600081525090565b828054600181600116156101000203166002900490600052602060002090601f016020900481019282601f1061138657805160ff19168380011785556113b4565b828001600101855582156113b4579182015b828111156113b3578251825591602001919060010190611398565b5b5090506113c19190611471565b5090565b8154818355818115116113ec578183600052602060002091820191016113eb9190611471565b5b505050565b828054600181600116156101000203166002900490600052602060002090601f016020900481019282601f1061143257805160ff1916838001178555611460565b82800160010185558215611460579182015b8281111561145f578251825591602001919060010190611444565b5b50905061146d9190611471565b5090565b61149391905b8082111561148f576000816000905550600101611477565b5090565b905600a165627a7a72305820e6b631f2f7dcbe41faaa833786c0fd72101999b66bd7245d5418b7e81a9cc8a10029",
  "source": "pragma solidity ^0.4.19;\n\ncontract MarketPlace {\n\n  struct user{\n    uint[] article_sold;\n    uint[] article_buyed;\n  }\n\n\n  // Custom types\n  struct Article {\n    uint id;//0\n    address seller;//1\n    string photo;//2\n    string name;//3\n    string description;//4\n    uint price;//5\n    uint number;//6\n    uint categories;//7\n  }\n\n  struct NameKey {\n    uint[] keys;\n  }\n  struct TypeKey {\n    uint[] keys;\n  }\n  // State variables\n  mapping(address => user) private users;\n  mapping(uint => Article) public articles;\n  mapping(string => NameKey) private nameToKeys;\n  mapping(uint => TypeKey) private typeToKeys;\n  uint articleCounter;\n\n\n  address owner;\n  //Events\n  event sellArticleEvent(\n    uint indexed _id,\n    address indexed _seller,\n    string _photo,\n    string _name,\n    uint _price,\n    uint _number,\n    uint _categories\n  );\n\n  event buyArticleEvent(\n    uint indexed _id,\n    address indexed _seller,\n    address indexed _buyer,\n    string _photo,\n    string _name,\n    uint _price,\n    uint _number,\n    uint _createAt\n  );\n\n  //modifiers\n  modifier onlyOwner() {\n    require(msg.sender == owner);\n    _;\n  }\n\n  modifier objectInRange(uint objID) {\n    if (objID >= articleCounter)\n      throw;\n    _;\n  }\n\n  //sell an article\n  function sellArticle(string _photo, string _name, string _description, uint _price, uint _number, uint _categories) public {\n    // a new article\n    articleCounter++;\n    nameToKeys[_name].keys.push(articleCounter);\n    typeToKeys[_categories].keys.push(articleCounter);\n    //store this article\n    articles[articleCounter] = Article(\n      articleCounter,\n      msg.sender,\n      _photo,\n      _name,\n      _description,\n      _price,\n      _number,\n      _categories\n    );\n    users[msg.sender].article_sold.push(articleCounter);\n    // trigger the event\n    sellArticleEvent(articleCounter, msg.sender, _photo, _name, _price, _number, _categories);\n  }\n\n  // fetch the number of articles in the contract\n  function getNumberOfArticles() public constant returns (uint) {\n    return articleCounter;\n  }\n\n  // buy an article\n  function buyArticle(uint _id, uint number) payable public {\n    // we check whether there is at least one article\n    require(articleCounter > 0);\n\n    // we check whether the article exists\n    require(_id > 0 && _id <= articleCounter);\n\n    // we retrieve the article\n    Article storage article = articles[_id];\n\n    // we don't allow the seller to buy his/her own article\n    require(article.seller != msg.sender);\n\n    require(article.number >= number);\n\n    // the buyer can buy the article\n    article.seller.transfer(msg.value);\n\n    article.number-=number;\n\n    users[msg.sender].article_buyed.push(article.id);\n    // trigger the event\n    buyArticleEvent(_id, article.seller, msg.sender, article.photo, article.name, article.price, number, now);\n  }\n\n  function modifyArticle(uint _id, string _name, string _description, uint _price, uint _number, uint _categories) public {\n    articles[_id].name = _name;\n    articles[_id].price = _price;\n    articles[_id].number = _number;\n    articles[_id].categories = _categories;\n    articles[_id].description = _description;\n  }\n\n  function deleteArticle(uint _id, uint _number){\n    articles[_id].number = _number;\n  }\n\n  //kill the smart contract\n  function kill() onlyOwner {\n    selfdestruct(owner);\n  }\n\n  // constructor\n  function Owned(){\n    owner = msg.sender;\n  }\n\n  function findByNames(string name) constant returns (uint[]){\n    return nameToKeys[name].keys;\n  }\n\n  function findByType(uint categories) constant returns (uint[]){\n    return typeToKeys[categories].keys;\n  }\n\n  function getUserSold(address user) constant returns (uint[]){\n    return users[user].article_sold;\n  }\n\n  function getUserBought(address user) constant returns (uint[]){\n    return users[user].article_buyed;\n  }\n}\n",
  "sourcePath": "/Users/steveniiv/Test/Market-DApp/contracts/MarketPlace.sol",
  "compiler": {
    "name": "solc",
    "version": "0.4.19+commit.c4cbbb05.Emscripten.clang"
  },
  "schemaVersion": "3.0.19",
  "updatedAt": "2020-03-05T14:06:09.143Z",
  "networkType": "ethereum",
  "devdoc": {
    "methods": {}
  },
  "userdoc": {
    "methods": {}
  }
}