{
  "contractName": "MarketPlace",
  "abi": [
    {
      "constant": true,
      "inputs": [
        {
          "name": "",
          "type": "uint256"
        }
      ],
      "name": "articles",
      "outputs": [
        {
          "name": "id",
          "type": "uint256"
        },
        {
          "name": "seller",
          "type": "address"
        },
        {
          "name": "buyer",
          "type": "address"
        },
        {
          "name": "photo",
          "type": "string"
        },
        {
          "name": "name",
          "type": "string"
        },
        {
          "name": "description",
          "type": "string"
        },
        {
          "name": "price",
          "type": "uint256"
        }
      ],
      "payable": false,
      "stateMutability": "view",
      "type": "function"
    },
    {
      "anonymous": false,
      "inputs": [
        {
          "indexed": true,
          "name": "_id",
          "type": "uint256"
        },
        {
          "indexed": true,
          "name": "_seller",
          "type": "address"
        },
        {
          "indexed": false,
          "name": "_photo",
          "type": "string"
        },
        {
          "indexed": false,
          "name": "_name",
          "type": "string"
        },
        {
          "indexed": false,
          "name": "_price",
          "type": "uint256"
        }
      ],
      "name": "sellArticleEvent",
      "type": "event"
    },
    {
      "anonymous": false,
      "inputs": [
        {
          "indexed": true,
          "name": "_id",
          "type": "uint256"
        },
        {
          "indexed": true,
          "name": "_seller",
          "type": "address"
        },
        {
          "indexed": true,
          "name": "_buyer",
          "type": "address"
        },
        {
          "indexed": false,
          "name": "_photo",
          "type": "string"
        },
        {
          "indexed": false,
          "name": "_name",
          "type": "string"
        },
        {
          "indexed": false,
          "name": "_price",
          "type": "uint256"
        }
      ],
      "name": "buyArticleEvent",
      "type": "event"
    },
    {
      "constant": false,
      "inputs": [
        {
          "name": "_photo",
          "type": "string"
        },
        {
          "name": "_name",
          "type": "string"
        },
        {
          "name": "_description",
          "type": "string"
        },
        {
          "name": "_price",
          "type": "uint256"
        }
      ],
      "name": "sellArticle",
      "outputs": [],
      "payable": false,
      "stateMutability": "nonpayable",
      "type": "function"
    },
    {
      "constant": true,
      "inputs": [],
      "name": "getNumberOfArticles",
      "outputs": [
        {
          "name": "",
          "type": "uint256"
        }
      ],
      "payable": false,
      "stateMutability": "view",
      "type": "function"
    },
    {
      "constant": true,
      "inputs": [],
      "name": "getArticlesForSale",
      "outputs": [
        {
          "name": "",
          "type": "uint256[]"
        }
      ],
      "payable": false,
      "stateMutability": "view",
      "type": "function"
    },
    {
      "constant": false,
      "inputs": [
        {
          "name": "_id",
          "type": "uint256"
        }
      ],
      "name": "buyArticle",
      "outputs": [],
      "payable": true,
      "stateMutability": "payable",
      "type": "function"
    },
    {
      "constant": false,
      "inputs": [],
      "name": "kill",
      "outputs": [],
      "payable": false,
      "stateMutability": "nonpayable",
      "type": "function"
    },
    {
      "constant": false,
      "inputs": [],
      "name": "Owned",
      "outputs": [],
      "payable": false,
      "stateMutability": "nonpayable",
      "type": "function"
    }
  ],
  "bytecode": "0x6060604052341561000f57600080fd5b610e968061001e6000396000f300606060405260043610610083576000357c0100000000000000000000000000000000000000000000000000000000900463ffffffff1680631cc4baa81461008857806341c0e1b5146100a05780637f6be3da146100b557806389da85d31461011f578063b303dcbd14610148578063b841d93e1461015d578063edcfafe614610249575b600080fd5b61009e6004808035906020019091905050610488565b005b34156100ab57600080fd5b6100b36107fc565b005b34156100c057600080fd5b6100c8610893565b6040518080602001828103825283818151815260200191508051906020019060200280838360005b8381101561010b5780820151818401526020810190506100f0565b505050509050019250505060405180910390f35b341561012a57600080fd5b610132610a2f565b6040518082815260200191505060405180910390f35b341561015357600080fd5b61015b610a39565b005b341561016857600080fd5b610247600480803590602001908201803590602001908080601f0160208091040260200160405190810160405280939291908181526020018383808284378201915050505050509190803590602001908201803590602001908080601f0160208091040260200160405190810160405280939291908181526020018383808284378201915050505050509190803590602001908201803590602001908080601f01602080910402602001604051908101604052809392919081815260200183838082843782019150505050505091908035906020019091905050610a7c565b005b341561025457600080fd5b61026a6004808035906020019091905050610d32565b604051808881526020018773ffffffffffffffffffffffffffffffffffffffff1673ffffffffffffffffffffffffffffffffffffffff1681526020018673ffffffffffffffffffffffffffffffffffffffff1673ffffffffffffffffffffffffffffffffffffffff16815260200180602001806020018060200185815260200184810384528881815460018160011615610100020316600290048152602001915080546001816001161561010002031660029004801561036b5780601f106103405761010080835404028352916020019161036b565b820191906000526020600020905b81548152906001019060200180831161034e57829003601f168201915b50508481038352878181546001816001161561010002031660029004815260200191508054600181600116156101000203166002900480156103ee5780601f106103c3576101008083540402835291602001916103ee565b820191906000526020600020905b8154815290600101906020018083116103d157829003601f168201915b50508481038252868181546001816001161561010002031660029004815260200191508054600181600116156101000203166002900480156104715780601f1061044657610100808354040283529160200191610471565b820191906000526020600020905b81548152906001019060200180831161045457829003601f168201915b50509a505050505050505050505060405180910390f35b60008060015411151561049a57600080fd5b6000821180156104ac57506001548211155b15156104b757600080fd5b600080838152602001908152602001600020905060008160020160009054906101000a900473ffffffffffffffffffffffffffffffffffffffff1673ffffffffffffffffffffffffffffffffffffffff1614151561051457600080fd5b3373ffffffffffffffffffffffffffffffffffffffff168160010160009054906101000a900473ffffffffffffffffffffffffffffffffffffffff1673ffffffffffffffffffffffffffffffffffffffff161415151561057357600080fd5b34816006015414151561058557600080fd5b338160020160006101000a81548173ffffffffffffffffffffffffffffffffffffffff021916908373ffffffffffffffffffffffffffffffffffffffff1602179055508060010160009054906101000a900473ffffffffffffffffffffffffffffffffffffffff1673ffffffffffffffffffffffffffffffffffffffff166108fc349081150290604051600060405180830381858888f19350505050151561062c57600080fd5b8060020160009054906101000a900473ffffffffffffffffffffffffffffffffffffffff1673ffffffffffffffffffffffffffffffffffffffff168160010160009054906101000a900473ffffffffffffffffffffffffffffffffffffffff1673ffffffffffffffffffffffffffffffffffffffff16837fc1b493930616d29d24ed9ed0f6971594693adbddb0056a9979c268007d1f2171846003018560040186600601546040518080602001806020018481526020018381038352868181546001816001161561010002031660029004815260200191508054600181600116156101000203166002900480156107645780601f1061073957610100808354040283529160200191610764565b820191906000526020600020905b81548152906001019060200180831161074757829003601f168201915b50508381038252858181546001816001161561010002031660029004815260200191508054600181600116156101000203166002900480156107e75780601f106107bc576101008083540402835291602001916107e7565b820191906000526020600020905b8154815290600101906020018083116107ca57829003601f168201915b50509550505050505060405180910390a45050565b600260009054906101000a900473ffffffffffffffffffffffffffffffffffffffff1673ffffffffffffffffffffffffffffffffffffffff163373ffffffffffffffffffffffffffffffffffffffff1614151561085857600080fd5b600260009054906101000a900473ffffffffffffffffffffffffffffffffffffffff1673ffffffffffffffffffffffffffffffffffffffff16ff5b61089b610db1565b6108a3610db1565b6000806108ae610db1565b60008060015414156108e15760006040518059106108c95750595b90808252806020026020018201604052509550610a27565b6001546040518059106108f15750595b9080825280602002602001820160405250945060009350600192505b600154831115156109b457600080600085815260200190815260200160002060020160009054906101000a900473ffffffffffffffffffffffffffffffffffffffff1673ffffffffffffffffffffffffffffffffffffffff1614156109a75760008084815260200190815260200160002060000154858581518110151561099057fe5b906020019060200201818152505083806001019450505b828060010193505061090d565b836040518059106109c25750595b90808252806020026020018201604052509150600090505b83811015610a235784818151811015156109f057fe5b906020019060200201518282815181101515610a0857fe5b906020019060200201818152505080806001019150506109da565b8195505b505050505090565b6000600154905090565b33600260006101000a81548173ffffffffffffffffffffffffffffffffffffffff021916908373ffffffffffffffffffffffffffffffffffffffff160217905550565b60016000815480929190600101919050555060e06040519081016040528060015481526020013373ffffffffffffffffffffffffffffffffffffffff168152602001600073ffffffffffffffffffffffffffffffffffffffff1681526020018581526020018481526020018381526020018281525060008060015481526020019081526020016000206000820151816000015560208201518160010160006101000a81548173ffffffffffffffffffffffffffffffffffffffff021916908373ffffffffffffffffffffffffffffffffffffffff16021790555060408201518160020160006101000a81548173ffffffffffffffffffffffffffffffffffffffff021916908373ffffffffffffffffffffffffffffffffffffffff1602179055506060820151816003019080519060200190610bb9929190610dc5565b506080820151816004019080519060200190610bd6929190610dc5565b5060a0820151816005019080519060200190610bf3929190610dc5565b5060c082015181600601559050503373ffffffffffffffffffffffffffffffffffffffff166001547f4722c056ee28632ccc9f3ede00991a69b7f290e067ba51a5d9abbdd233e736bf868685604051808060200180602001848152602001838103835286818151815260200191508051906020019080838360005b83811015610c89578082015181840152602081019050610c6e565b50505050905090810190601f168015610cb65780820380516001836020036101000a031916815260200191505b50838103825285818151815260200191508051906020019080838360005b83811015610cef578082015181840152602081019050610cd4565b50505050905090810190601f168015610d1c5780820380516001836020036101000a031916815260200191505b509550505050505060405180910390a350505050565b60006020528060005260406000206000915090508060000154908060010160009054906101000a900473ffffffffffffffffffffffffffffffffffffffff16908060020160009054906101000a900473ffffffffffffffffffffffffffffffffffffffff16908060030190806004019080600501908060060154905087565b602060405190810160405280600081525090565b828054600181600116156101000203166002900490600052602060002090601f016020900481019282601f10610e0657805160ff1916838001178555610e34565b82800160010185558215610e34579182015b82811115610e33578251825591602001919060010190610e18565b5b509050610e419190610e45565b5090565b610e6791905b80821115610e63576000816000905550600101610e4b565b5090565b905600a165627a7a72305820f91a2a9eb42726587a539a61caf1a4864ddf7299b9cf52064db5b54a307a80e30029",
  "source": "pragma solidity ^0.4.19;\n\n\ncontract MarketPlace {\n\n  // Custom types\n  struct Article {\n    uint id;\n    address seller;\n    address buyer;\n    string photo;\n    string name;\n    string description;\n    uint256 price;\n  }\n\n  // State variables\n  mapping(uint => Article) public articles;\n  uint articleCounter;\n  address owner;\n  //Events\n  event sellArticleEvent(\n    uint indexed _id,\n    address indexed _seller,\n    string _photo,\n    string _name,\n    uint256 _price);\n\n  event buyArticleEvent(\n    uint indexed _id,\n    address indexed _seller,\n    address indexed _buyer,\n    string _photo,\n    string _name,\n    uint256 _price);\n\n\n  //sell an article\n  function sellArticle(string _photo, string _name, string _description, uint256 _price) public {\n    // a new article\n    articleCounter++;\n\n    //store this article\n    articles[articleCounter] = Article(\n      articleCounter,\n      msg.sender,\n      0x0,\n      _photo,\n      _name,\n      _description,\n      _price\n    );\n\n    // trigger the event\n    sellArticleEvent(articleCounter, msg.sender, _photo, _name, _price);\n  }\n\n  // fetch the number of articles in the contract\n  function getNumberOfArticles() public constant returns (uint) {\n    return articleCounter;\n  }\n\n  // fetch and returns all article IDs available for sale\n  function getArticlesForSale() public constant returns (uint[]) {\n    // we check whether there is at least one article\n    if(articleCounter == 0) {\n      return new uint[](0);\n    }\n\n    // prepare intermediary array\n    uint[] memory articleIds = new uint[](articleCounter);\n\n    uint numberOfArticlesForSale = 0;\n    // iterate over articles\n    for (uint i = 1; i <= articleCounter; i++) {\n      // keep only the ID of articles not sold yet\n      if (articles[i].buyer == 0x0) {\n        articleIds[numberOfArticlesForSale] = articles[i].id;\n        numberOfArticlesForSale++;\n      }\n    }\n\n    // copy the articleIds array into the smaller forSale array\n    uint[] memory forSale = new uint[](numberOfArticlesForSale);\n    for (uint j = 0; j < numberOfArticlesForSale; j++) {\n      forSale[j] = articleIds[j];\n    }\n    return (forSale);\n  }\n\n  // buy an article\n  function buyArticle(uint _id) payable public {\n    // we check whether there is at least one article\n    require(articleCounter > 0);\n\n    // we check whether the article exists\n    require(_id > 0 && _id <= articleCounter);\n\n    // we retrieve the article\n    Article storage article = articles[_id];\n\n    // we check whether the article has not already been sold\n    require(article.buyer == 0x0);\n\n    // we don't allow the seller to buy his/her own article\n    require(article.seller != msg.sender);\n\n    // we check whether the value sent corresponds to the article price\n    require(article.price == msg.value);\n\n    // keep buyer's information\n    article.buyer = msg.sender;\n\n    // the buyer can buy the article\n    article.seller.transfer(msg.value);\n\n    // trigger the event\n    buyArticleEvent(_id, article.seller, article.buyer, article.photo, article.name, article.price);\n  }\n\n  //kill the smart contract\n  function kill() onlyOwner {\n    selfdestruct(owner);\n  }\n\n  //modifiers\n  modifier onlyOwner() {\n    require(msg.sender == owner);\n    _;\n  }\n\n  // constructor\n  function Owned(){\n    owner = msg.sender;\n  }\n}\n",
  "sourcePath": "/Users/steveniiv/Test/ShareApp/contracts/MarketPlace.sol",
  "compiler": {
    "name": "solc",
    "version": "0.4.19+commit.c4cbbb05.Emscripten.clang"
  },
  "schemaVersion": "3.0.19",
  "updatedAt": "2020-02-17T07:05:57.270Z",
  "networkType": "ethereum",
  "devdoc": {
    "methods": {}
  },
  "userdoc": {
    "methods": {}
  }
}