{
  "contractName": "ShareApp",
  "abi": [
    {
      "constant": true,
      "inputs": [],
      "name": "numObjects",
      "outputs": [
        {
          "name": "",
          "type": "uint256"
        }
      ],
      "payable": false,
      "stateMutability": "view",
      "type": "function"
    },
    {
      "constant": true,
      "inputs": [],
      "name": "owner",
      "outputs": [
        {
          "name": "",
          "type": "address"
        }
      ],
      "payable": false,
      "stateMutability": "view",
      "type": "function"
    },
    {
      "inputs": [],
      "payable": false,
      "stateMutability": "nonpayable",
      "type": "constructor"
    },
    {
      "anonymous": false,
      "inputs": [
        {
          "indexed": false,
          "name": "_objID",
          "type": "uint256"
        },
        {
          "indexed": false,
          "name": "_creator",
          "type": "address"
        },
        {
          "indexed": false,
          "name": "_photo",
          "type": "string"
        },
        {
          "indexed": false,
          "name": "_name",
          "type": "string"
        },
        {
          "indexed": false,
          "name": "_priceDaily",
          "type": "uint256"
        },
        {
          "indexed": false,
          "name": "_deposit",
          "type": "uint256"
        },
        {
          "indexed": false,
          "name": "categories",
          "type": "uint256"
        },
        {
          "indexed": false,
          "name": "_rented",
          "type": "bool"
        }
      ],
      "name": "NewObject",
      "type": "event"
    },
    {
      "anonymous": false,
      "inputs": [
        {
          "indexed": false,
          "name": "_objID",
          "type": "uint256"
        },
        {
          "indexed": false,
          "name": "_creator",
          "type": "address"
        },
        {
          "indexed": false,
          "name": "_renter",
          "type": "address"
        },
        {
          "indexed": false,
          "name": "_photo",
          "type": "string"
        },
        {
          "indexed": false,
          "name": "_name",
          "type": "string"
        },
        {
          "indexed": false,
          "name": "_priceDaily",
          "type": "uint256"
        },
        {
          "indexed": false,
          "name": "_deposit",
          "type": "uint256"
        },
        {
          "indexed": false,
          "name": "_rented",
          "type": "bool"
        },
        {
          "indexed": false,
          "name": "_createAt",
          "type": "uint256"
        }
      ],
      "name": "NewRent",
      "type": "event"
    },
    {
      "anonymous": false,
      "inputs": [
        {
          "indexed": false,
          "name": "_objID",
          "type": "uint256"
        },
        {
          "indexed": false,
          "name": "_renter",
          "type": "address"
        },
        {
          "indexed": false,
          "name": "_rented",
          "type": "bool"
        },
        {
          "indexed": false,
          "name": "_createAt",
          "type": "uint256"
        }
      ],
      "name": "NewReturn",
      "type": "event"
    },
    {
      "constant": false,
      "inputs": [
        {
          "name": "objID",
          "type": "uint256"
        }
      ],
      "name": "objectIsRented",
      "outputs": [
        {
          "name": "",
          "type": "bool"
        }
      ],
      "payable": false,
      "stateMutability": "nonpayable",
      "type": "function"
    },
    {
      "constant": false,
      "inputs": [
        {
          "name": "photo",
          "type": "string"
        },
        {
          "name": "name",
          "type": "string"
        },
        {
          "name": "priceDaily",
          "type": "uint256"
        },
        {
          "name": "deposit",
          "type": "uint256"
        },
        {
          "name": "detail",
          "type": "string"
        },
        {
          "name": "categories",
          "type": "uint256"
        }
      ],
      "name": "createObj",
      "outputs": [],
      "payable": false,
      "stateMutability": "nonpayable",
      "type": "function"
    },
    {
      "constant": true,
      "inputs": [
        {
          "name": "objID",
          "type": "uint256"
        }
      ],
      "name": "getObj",
      "outputs": [
        {
          "name": "creator",
          "type": "address"
        },
        {
          "name": "photo",
          "type": "string"
        },
        {
          "name": "name",
          "type": "string"
        },
        {
          "name": "priceDaily",
          "type": "uint256"
        },
        {
          "name": "deposit",
          "type": "uint256"
        },
        {
          "name": "renterAddress",
          "type": "address"
        },
        {
          "name": "renterSince",
          "type": "uint256"
        },
        {
          "name": "rented",
          "type": "bool"
        },
        {
          "name": "detail",
          "type": "string"
        },
        {
          "name": "categories",
          "type": "uint256"
        },
        {
          "name": "isDelete",
          "type": "bool"
        },
        {
          "name": "createAt",
          "type": "uint256"
        }
      ],
      "payable": false,
      "stateMutability": "view",
      "type": "function"
    },
    {
      "constant": false,
      "inputs": [
        {
          "name": "objID",
          "type": "uint256"
        }
      ],
      "name": "rentObj",
      "outputs": [
        {
          "name": "",
          "type": "bool"
        }
      ],
      "payable": true,
      "stateMutability": "payable",
      "type": "function"
    },
    {
      "constant": false,
      "inputs": [
        {
          "name": "objID",
          "type": "uint256"
        }
      ],
      "name": "returnObj",
      "outputs": [
        {
          "name": "",
          "type": "bool"
        }
      ],
      "payable": true,
      "stateMutability": "payable",
      "type": "function"
    },
    {
      "constant": false,
      "inputs": [
        {
          "name": "objID",
          "type": "uint256"
        },
        {
          "name": "name",
          "type": "string"
        },
        {
          "name": "priceDaily",
          "type": "uint256"
        },
        {
          "name": "deposit",
          "type": "uint256"
        },
        {
          "name": "detail",
          "type": "string"
        },
        {
          "name": "categories",
          "type": "uint256"
        }
      ],
      "name": "modifyObject",
      "outputs": [],
      "payable": false,
      "stateMutability": "nonpayable",
      "type": "function"
    },
    {
      "constant": false,
      "inputs": [
        {
          "name": "objID",
          "type": "uint256"
        }
      ],
      "name": "deleteObject",
      "outputs": [],
      "payable": false,
      "stateMutability": "nonpayable",
      "type": "function"
    },
    {
      "constant": true,
      "inputs": [
        {
          "name": "user",
          "type": "address"
        }
      ],
      "name": "getUserRent",
      "outputs": [
        {
          "name": "",
          "type": "uint256[]"
        }
      ],
      "payable": false,
      "stateMutability": "view",
      "type": "function"
    },
    {
      "constant": true,
      "inputs": [
        {
          "name": "user",
          "type": "address"
        }
      ],
      "name": "getUserRented",
      "outputs": [
        {
          "name": "",
          "type": "uint256[]"
        }
      ],
      "payable": false,
      "stateMutability": "view",
      "type": "function"
    },
    {
      "constant": true,
      "inputs": [
        {
          "name": "user",
          "type": "address"
        }
      ],
      "name": "getUserRentedTime",
      "outputs": [
        {
          "name": "",
          "type": "uint256[]"
        }
      ],
      "payable": false,
      "stateMutability": "view",
      "type": "function"
    },
    {
      "constant": true,
      "inputs": [
        {
          "name": "name",
          "type": "string"
        }
      ],
      "name": "findNames",
      "outputs": [
        {
          "name": "",
          "type": "uint256[]"
        }
      ],
      "payable": false,
      "stateMutability": "view",
      "type": "function"
    },
    {
      "constant": true,
      "inputs": [
        {
          "name": "categories",
          "type": "uint256"
        }
      ],
      "name": "findTypes",
      "outputs": [
        {
          "name": "",
          "type": "uint256[]"
        }
      ],
      "payable": false,
      "stateMutability": "view",
      "type": "function"
    },
    {
      "constant": true,
      "inputs": [],
      "name": "getNumObjects",
      "outputs": [
        {
          "name": "",
          "type": "uint256"
        }
      ],
      "payable": false,
      "stateMutability": "view",
      "type": "function"
    },
    {
      "constant": true,
      "inputs": [],
      "name": "getObjectIds",
      "outputs": [
        {
          "name": "",
          "type": "uint256[]"
        }
      ],
      "payable": false,
      "stateMutability": "view",
      "type": "function"
    },
    {
      "constant": false,
      "inputs": [
        {
          "name": "objID",
          "type": "uint256"
        }
      ],
      "name": "getObjectIsDelete",
      "outputs": [
        {
          "name": "",
          "type": "bool"
        }
      ],
      "payable": false,
      "stateMutability": "nonpayable",
      "type": "function"
    },
    {
      "constant": false,
      "inputs": [
        {
          "name": "objID",
          "type": "uint256"
        }
      ],
      "name": "getObjectName",
      "outputs": [
        {
          "name": "objName",
          "type": "string"
        }
      ],
      "payable": false,
      "stateMutability": "nonpayable",
      "type": "function"
    },
    {
      "constant": false,
      "inputs": [
        {
          "name": "objID",
          "type": "uint256"
        }
      ],
      "name": "getObjectPhoto",
      "outputs": [
        {
          "name": "",
          "type": "string"
        }
      ],
      "payable": false,
      "stateMutability": "nonpayable",
      "type": "function"
    },
    {
      "constant": true,
      "inputs": [
        {
          "name": "objID",
          "type": "uint256"
        }
      ],
      "name": "getObjectCreator",
      "outputs": [
        {
          "name": "",
          "type": "address"
        }
      ],
      "payable": false,
      "stateMutability": "view",
      "type": "function"
    },
    {
      "constant": true,
      "inputs": [
        {
          "name": "objID",
          "type": "uint256"
        }
      ],
      "name": "getObjectPriceDaily",
      "outputs": [
        {
          "name": "",
          "type": "uint256"
        }
      ],
      "payable": false,
      "stateMutability": "view",
      "type": "function"
    },
    {
      "constant": true,
      "inputs": [
        {
          "name": "objID",
          "type": "uint256"
        }
      ],
      "name": "getObjectDeposit",
      "outputs": [
        {
          "name": "",
          "type": "uint256"
        }
      ],
      "payable": false,
      "stateMutability": "view",
      "type": "function"
    },
    {
      "constant": true,
      "inputs": [
        {
          "name": "objID",
          "type": "uint256"
        }
      ],
      "name": "getObjectRenterAddress",
      "outputs": [
        {
          "name": "",
          "type": "address"
        }
      ],
      "payable": false,
      "stateMutability": "view",
      "type": "function"
    },
    {
      "constant": true,
      "inputs": [
        {
          "name": "objID",
          "type": "uint256"
        }
      ],
      "name": "getObjectRenterSince",
      "outputs": [
        {
          "name": "",
          "type": "uint256"
        }
      ],
      "payable": false,
      "stateMutability": "view",
      "type": "function"
    },
    {
      "constant": true,
      "inputs": [
        {
          "name": "objID",
          "type": "uint256"
        }
      ],
      "name": "getObjectDetail",
      "outputs": [
        {
          "name": "",
          "type": "string"
        }
      ],
      "payable": false,
      "stateMutability": "view",
      "type": "function"
    },
    {
      "constant": true,
      "inputs": [
        {
          "name": "objID",
          "type": "uint256"
        }
      ],
      "name": "getObjectCategories",
      "outputs": [
        {
          "name": "",
          "type": "uint256"
        }
      ],
      "payable": false,
      "stateMutability": "view",
      "type": "function"
    },
    {
      "constant": false,
      "inputs": [],
      "name": "remove",
      "outputs": [],
      "payable": false,
      "stateMutability": "nonpayable",
      "type": "function"
    }
  ],
  "bytecode": "0x6060604052341561000f57600080fd5b33600660006101000a81548173ffffffffffffffffffffffffffffffffffffffff021916908373ffffffffffffffffffffffffffffffffffffffff16021790555061295b8061005f6000396000f30060606040526004361061015f576000357c0100000000000000000000000000000000000000000000000000000000900463ffffffff16806304c381151461016457806309691b1a1461018d57806318f84799146101c8578063202c90941461022b578063302bfb91146102c7578063322db2971461035557806334b05db91461037e57806339856060146103ae5780634780c366146103e95780634816a490146104ad5780634bcc08211461055f578063673e86fe1461059657806371236b1a146106005780637ea0c8bd146106235780638da5cb5b146106bf5780638e73a47e14610714578063a7f4377914610812578063ab5c9bb314610827578063ace716ff14610a3a578063b4d356ae14610a71578063bd2b4ea514610b0d578063c774e16c14610b85578063c88ae76314610be8578063dce37ddb14610c76578063ddbffef414610cad578063e6adf19714610ce4578063fbd6902614610d14575b600080fd5b341561016f57600080fd5b610177610da2565b6040518082815260200191505060405180910390f35b341561019857600080fd5b6101ae6004808035906020019091905050610da8565b604051808215151515815260200191505060405180910390f35b34156101d357600080fd5b6101e96004808035906020019091905050610de7565b604051808273ffffffffffffffffffffffffffffffffffffffff1673ffffffffffffffffffffffffffffffffffffffff16815260200191505060405180910390f35b341561023657600080fd5b61024c6004808035906020019091905050610e3c565b6040518080602001828103825283818151815260200191508051906020019080838360005b8381101561028c578082015181840152602081019050610271565b50505050905090810190601f1680156102b95780820380516001836020036101000a031916815260200191505b509250505060405180910390f35b34156102d257600080fd5b6102fe600480803573ffffffffffffffffffffffffffffffffffffffff16906020019091905050610f12565b6040518080602001828103825283818151815260200191508051906020019060200280838360005b83811015610341578082015181840152602081019050610326565b505050509050019250505060405180910390f35b341561036057600080fd5b610368610fb2565b6040518082815260200191505060405180910390f35b6103946004808035906020019091905050610fbc565b604051808215151515815260200191505060405180910390f35b34156103b957600080fd5b6103cf6004808035906020019091905050611541565b604051808215151515815260200191505060405180910390f35b34156103f457600080fd5b6104ab600480803590602001909190803590602001908201803590602001908080601f0160208091040260200160405190810160405280939291908181526020018383808284378201915050505050509190803590602001909190803590602001909190803590602001908201803590602001908080601f01602080910402602001604051908101604052809392919081815260200183838082843782019150505050505091908035906020019091905050611580565b005b34156104b857600080fd5b610508600480803590602001908201803590602001908080601f0160208091040260200160405190810160405280939291908181526020018383808284378201915050505050509190505061169f565b6040518080602001828103825283818151815260200191508051906020019060200280838360005b8381101561054b578082015181840152602081019050610530565b505050509050019250505060405180910390f35b341561056a57600080fd5b610580600480803590602001909190505061176b565b6040518082815260200191505060405180910390f35b34156105a157600080fd5b6105a961179d565b6040518080602001828103825283818151815260200191508051906020019060200280838360005b838110156105ec5780820151818401526020810190506105d1565b505050509050019250505060405180910390f35b341561060b57600080fd5b61062160048080359060200190919050506117fb565b005b341561062e57600080fd5b610644600480803590602001909190505061189d565b6040518080602001828103825283818151815260200191508051906020019080838360005b83811015610684578082015181840152602081019050610669565b50505050905090810190601f1680156106b15780820380516001836020036101000a031916815260200191505b509250505060405180910390f35b34156106ca57600080fd5b6106d261196d565b604051808273ffffffffffffffffffffffffffffffffffffffff1673ffffffffffffffffffffffffffffffffffffffff16815260200191505060405180910390f35b341561071f57600080fd5b610810600480803590602001908201803590602001908080601f0160208091040260200160405190810160405280939291908181526020018383808284378201915050505050509190803590602001908201803590602001908080601f0160208091040260200160405190810160405280939291908181526020018383808284378201915050505050509190803590602001909190803590602001909190803590602001908201803590602001908080601f01602080910402602001604051908101604052809392919081815260200183838082843782019150505050505091908035906020019091905050611993565b005b341561081d57600080fd5b610825611d8b565b005b341561083257600080fd5b6108486004808035906020019091905050611e22565b604051808d73ffffffffffffffffffffffffffffffffffffffff1673ffffffffffffffffffffffffffffffffffffffff16815260200180602001806020018c81526020018b81526020018a73ffffffffffffffffffffffffffffffffffffffff1673ffffffffffffffffffffffffffffffffffffffff16815260200189815260200188151515158152602001806020018781526020018615151515815260200185815260200184810384528f818151815260200191508051906020019080838360005b8381101561092657808201518184015260208101905061090b565b50505050905090810190601f1680156109535780820380516001836020036101000a031916815260200191505b5084810383528e818151815260200191508051906020019080838360005b8381101561098c578082015181840152602081019050610971565b50505050905090810190601f1680156109b95780820380516001836020036101000a031916815260200191505b50848103825288818151815260200191508051906020019080838360005b838110156109f25780820151818401526020810190506109d7565b50505050905090810190601f168015610a1f5780820380516001836020036101000a031916815260200191505b509f5050505050505050505050505050505060405180910390f35b3415610a4557600080fd5b610a5b60048080359060200190919050506121be565b6040518082815260200191505060405180910390f35b3415610a7c57600080fd5b610a9260048080359060200190919050506121f3565b6040518080602001828103825283818151815260200191508051906020019080838360005b83811015610ad2578082015181840152602081019050610ab7565b50505050905090810190601f168015610aff5780820380516001836020036101000a031916815260200191505b509250505060405180910390f35b3415610b1857600080fd5b610b2e60048080359060200190919050506122c3565b6040518080602001828103825283818151815260200191508051906020019060200280838360005b83811015610b71578082015181840152602081019050610b56565b505050509050019250505060405180910390f35b3415610b9057600080fd5b610ba66004808035906020019091905050612337565b604051808273ffffffffffffffffffffffffffffffffffffffff1673ffffffffffffffffffffffffffffffffffffffff16815260200191505060405180910390f35b3415610bf357600080fd5b610c1f600480803573ffffffffffffffffffffffffffffffffffffffff16906020019091905050612389565b6040518080602001828103825283818151815260200191508051906020019060200280838360005b83811015610c62578082015181840152602081019050610c47565b505050509050019250505060405180910390f35b3415610c8157600080fd5b610c976004808035906020019091905050612429565b6040518082815260200191505060405180910390f35b3415610cb857600080fd5b610cce600480803590602001909190505061245b565b6040518082815260200191505060405180910390f35b610cfa600480803590602001909190505061248d565b604051808215151515815260200191505060405180910390f35b3415610d1f57600080fd5b610d4b600480803573ffffffffffffffffffffffffffffffffffffffff16906020019091905050612796565b6040518080602001828103825283818151815260200191508051906020019060200280838360005b83811015610d8e578082015181840152602081019050610d73565b505050509050019250505060405180910390f35b60015481565b60008160015481101515610dbb57600080fd5b60026000848152602001908152602001600020600a0160009054906101000a900460ff16915050919050565b60008160015481101515610dfa57600080fd5b6002600084815260200190815260200160002060050160000160009054906101000a900473ffffffffffffffffffffffffffffffffffffffff16915050919050565b610e44612836565b60008260015481101515610e5757600080fd5b600260008581526020019081526020016000209150816002018054600181600116156101000203166002900480601f016020809104026020016040519081016040528092919081815260200182805460018160011615610100020316600290048015610f045780601f10610ed957610100808354040283529160200191610f04565b820191906000526020600020905b815481529060010190602001808311610ee757829003601f168201915b505050505092505050919050565b610f1a61284a565b600360008373ffffffffffffffffffffffffffffffffffffffff1673ffffffffffffffffffffffffffffffffffffffff168152602001908152602001600020600001805480602002602001604051908101604052809291908181526020018280548015610fa657602002820191906000526020600020905b815481526020019060010190808311610f92575b50505050509050919050565b6000600154905090565b6000808260015481101515610fd057600080fd5b610fd984611541565b80610ff95750600260008581526020019081526020016000206004015434105b8061106557506002600085815260200190815260200160002060000160009054906101000a900473ffffffffffffffffffffffffffffffffffffffff1673ffffffffffffffffffffffffffffffffffffffff163373ffffffffffffffffffffffffffffffffffffffff16145b1561106f57600080fd5b60408051908101604052803373ffffffffffffffffffffffffffffffffffffffff168152602001428152506002600086815260200190815260200160002060050160008201518160000160006101000a81548173ffffffffffffffffffffffffffffffffffffffff021916908373ffffffffffffffffffffffffffffffffffffffff160217905550602082015181600101559050506002600085815260200190815260200160002060040154340391506002600085815260200190815260200160002060050160000160009054906101000a900473ffffffffffffffffffffffffffffffffffffffff1673ffffffffffffffffffffffffffffffffffffffff166108fc839081150290604051600060405180830381858888f19350505050151561119857600080fd5b60016002600086815260200190815260200160002060070160006101000a81548160ff021916908315150217905550600360003373ffffffffffffffffffffffffffffffffffffffff1673ffffffffffffffffffffffffffffffffffffffff168152602001908152602001600020600101805480600101828161121b919061285e565b916000526020600020900160008690919091505550600360003373ffffffffffffffffffffffffffffffffffffffff1673ffffffffffffffffffffffffffffffffffffffff1681526020019081526020016000206002018054806001018281611284919061285e565b9160005260206000209001600042909190915055507fce344edbd316937aa99334d1687ff2f4dbcfd5b9141fb70caef20b469196dd2f846002600087815260200190815260200160002060000160009054906101000a900473ffffffffffffffffffffffffffffffffffffffff166002600088815260200190815260200160002060050160000160009054906101000a900473ffffffffffffffffffffffffffffffffffffffff1660026000898152602001908152602001600020600101600260008a8152602001908152602001600020600201600260008b815260200190815260200160002060030154600260008c815260200190815260200160002060040154600142604051808a81526020018973ffffffffffffffffffffffffffffffffffffffff1673ffffffffffffffffffffffffffffffffffffffff1681526020018873ffffffffffffffffffffffffffffffffffffffff1673ffffffffffffffffffffffffffffffffffffffff16815260200180602001806020018781526020018681526020018515151515815260200184815260200183810383528981815460018160011615610100020316600290048152602001915080546001816001161561010002031660029004801561149c5780601f106114715761010080835404028352916020019161149c565b820191906000526020600020905b81548152906001019060200180831161147f57829003601f168201915b505083810382528881815460018160011615610100020316600290048152602001915080546001816001161561010002031660029004801561151f5780601f106114f45761010080835404028352916020019161151f565b820191906000526020600020905b81548152906001019060200180831161150257829003601f168201915b50509b50505050505050505050505060405180910390a1600192505050919050565b6000816001548110151561155457600080fd5b6002600084815260200190815260200160002060070160009054906101000a900460ff16915050919050565b3373ffffffffffffffffffffffffffffffffffffffff166002600088815260200190815260200160002060000160009054906101000a900473ffffffffffffffffffffffffffffffffffffffff1673ffffffffffffffffffffffffffffffffffffffff161415156115f057600080fd5b8460026000888152602001908152602001600020600201908051906020019061161a92919061288a565b508360026000888152602001908152602001600020600301819055508260026000888152602001908152602001600020600401819055508160026000888152602001908152602001600020600801908051906020019061167b92919061288a565b50806002600088815260200190815260200160002060090181905550505050505050565b6116a761284a565b6004826040518082805190602001908083835b6020831015156116df57805182526020820191506020810190506020830392506116ba565b6001836020036101000a038019825116818451168082178552505050505050905001915050908152602001604051809103902060000180548060200260200160405190810160405280929190818152602001828054801561175f57602002820191906000526020600020905b81548152602001906001019080831161174b575b50505050509050919050565b6000816001548110151561177e57600080fd5b6002600084815260200190815260200160002060090154915050919050565b6117a561284a565b60008054806020026020016040519081016040528092919081815260200182805480156117f157602002820191906000526020600020905b8154815260200190600101908083116117dd575b5050505050905090565b3373ffffffffffffffffffffffffffffffffffffffff166002600083815260200190815260200160002060000160009054906101000a900473ffffffffffffffffffffffffffffffffffffffff1673ffffffffffffffffffffffffffffffffffffffff1614151561186b57600080fd5b600160026000838152602001908152602001600020600a0160006101000a81548160ff02191690831515021790555050565b6118a5612836565b81600154811015156118b657600080fd5b600260008481526020019081526020016000206008018054600181600116156101000203166002900480601f0160208091040260200160405190810160405280929190818152602001828054600181600116156101000203166002900480156119605780601f1061193557610100808354040283529160200191611960565b820191906000526020600020905b81548152906001019060200180831161194357829003601f168201915b5050505050915050919050565b600660009054906101000a900473ffffffffffffffffffffffffffffffffffffffff1681565b600060026000600154815260200190815260200160002090506004866040518082805190602001908083835b6020831015156119e457805182526020820191506020810190506020830392506119bf565b6001836020036101000a03801982511681845116808217855250505050505090500191505090815260200160405180910390206000018054806001018281611a2c919061285e565b9160005260206000209001600060015490919091505550600560008381526020019081526020016000206000018054806001018281611a6b919061285e565b9160005260206000209001600060015490919091505550338160000160006101000a81548173ffffffffffffffffffffffffffffffffffffffff021916908373ffffffffffffffffffffffffffffffffffffffff16021790555086816001019080519060200190611add92919061288a565b5085816002019080519060200190611af692919061288a565b5084816003018190555083816004018190555060008160070160006101000a81548160ff02191690831515021790555082816008019080519060200190611b3e92919061288a565b50818160090181905550600081600a0160006101000a81548160ff0219169083151502179055504281600b0181905550600360003373ffffffffffffffffffffffffffffffffffffffff1673ffffffffffffffffffffffffffffffffffffffff1681526020019081526020016000206000018054806001018281611bc2919061285e565b91600052602060002090016000600154909190915055507fc22ed5329be821c9670587c04896e4c053d6cc17f47c65192ad707b818c63c606001543389898989886000604051808981526020018873ffffffffffffffffffffffffffffffffffffffff1673ffffffffffffffffffffffffffffffffffffffff168152602001806020018060200187815260200186815260200185815260200184151515158152602001838103835289818151815260200191508051906020019080838360005b83811015611c9d578082015181840152602081019050611c82565b50505050905090810190601f168015611cca5780820380516001836020036101000a031916815260200191505b50838103825288818151815260200191508051906020019080838360005b83811015611d03578082015181840152602081019050611ce8565b50505050905090810190601f168015611d305780820380516001836020036101000a031916815260200191505b509a505050505050505050505060405180910390a160008054806001018281611d59919061285e565b916000526020600020900160006001549091909150555060016000815480929190600101919050555050505050505050565b600660009054906101000a900473ffffffffffffffffffffffffffffffffffffffff1673ffffffffffffffffffffffffffffffffffffffff163373ffffffffffffffffffffffffffffffffffffffff16141515611de757600080fd5b600660009054906101000a900473ffffffffffffffffffffffffffffffffffffffff1673ffffffffffffffffffffffffffffffffffffffff16ff5b6000611e2c612836565b611e34612836565b6000806000806000611e44612836565b60008060008c60015481101515611e5a57600080fd5b600260008f815260200190815260200160002060000160009054906101000a900473ffffffffffffffffffffffffffffffffffffffff169c50600260008f81526020019081526020016000206001018054600181600116156101000203166002900480601f016020809104026020016040519081016040528092919081815260200182805460018160011615610100020316600290048015611f3d5780601f10611f1257610100808354040283529160200191611f3d565b820191906000526020600020905b815481529060010190602001808311611f2057829003601f168201915b50505050509b50600260008f81526020019081526020016000206002018054600181600116156101000203166002900480601f016020809104026020016040519081016040528092919081815260200182805460018160011615610100020316600290048015611fee5780601f10611fc357610100808354040283529160200191611fee565b820191906000526020600020905b815481529060010190602001808311611fd157829003601f168201915b50505050509a50600260008f8152602001908152602001600020600301549950600260008f8152602001908152602001600020600401549850600260008f815260200190815260200160002060050160000160009054906101000a900473ffffffffffffffffffffffffffffffffffffffff169750600260008f8152602001908152602001600020600501600101549650600260008f815260200190815260200160002060070160009054906101000a900460ff169550600260008f81526020019081526020016000206008018054600181600116156101000203166002900480601f01602080910402602001604051908101604052809291908181526020018280546001816001161561010002031660029004801561214f5780601f106121245761010080835404028352916020019161214f565b820191906000526020600020905b81548152906001019060200180831161213257829003601f168201915b50505050509450600260008f8152602001908152602001600020600901549350600260008f8152602001908152602001600020600a0160009054906101000a900460ff169250600260008f8152602001908152602001600020600b015491505091939597999b5091939597999b565b600081600154811015156121d157600080fd5b6002600084815260200190815260200160002060050160010154915050919050565b6121fb612836565b816001548110151561220c57600080fd5b600260008481526020019081526020016000206001018054600181600116156101000203166002900480601f0160208091040260200160405190810160405280929190818152602001828054600181600116156101000203166002900480156122b65780601f1061228b576101008083540402835291602001916122b6565b820191906000526020600020905b81548152906001019060200180831161229957829003601f168201915b5050505050915050919050565b6122cb61284a565b6005600083815260200190815260200160002060000180548060200260200160405190810160405280929190818152602001828054801561232b57602002820191906000526020600020905b815481526020019060010190808311612317575b50505050509050919050565b6000816001548110151561234a57600080fd5b6002600084815260200190815260200160002060000160009054906101000a900473ffffffffffffffffffffffffffffffffffffffff16915050919050565b61239161284a565b600360008373ffffffffffffffffffffffffffffffffffffffff1673ffffffffffffffffffffffffffffffffffffffff16815260200190815260200160002060020180548060200260200160405190810160405280929190818152602001828054801561241d57602002820191906000526020600020905b815481526020019060010190808311612409575b50505050509050919050565b6000816001548110151561243c57600080fd5b6002600084815260200190815260200160002060040154915050919050565b6000816001548110151561246e57600080fd5b6002600084815260200190815260200160002060030154915050919050565b600080600083600154811015156124a357600080fd5b6002600086815260200190815260200160002060070160009054906101000a900460ff1615156124d257600080fd5b3373ffffffffffffffffffffffffffffffffffffffff166002600087815260200190815260200160002060050160000160009054906101000a900473ffffffffffffffffffffffffffffffffffffffff1673ffffffffffffffffffffffffffffffffffffffff1614151561254557600080fd5b620151806002600087815260200190815260200160002060050160010154420381151561256e57fe5b0492506002600086815260200190815260200160002060030154830291506002600086815260200190815260200160002060000160009054906101000a900473ffffffffffffffffffffffffffffffffffffffff1673ffffffffffffffffffffffffffffffffffffffff166108fc839081150290604051600060405180830381858888f19350505050151561260257600080fd5b6002600086815260200190815260200160002060050160000160009054906101000a900473ffffffffffffffffffffffffffffffffffffffff1673ffffffffffffffffffffffffffffffffffffffff166108fc836002600089815260200190815260200160002060040154039081150290604051600060405180830381858888f19350505050151561269357600080fd5b60026000868152602001908152602001600020600501600080820160006101000a81549073ffffffffffffffffffffffffffffffffffffffff02191690556001820160009055505060006002600087815260200190815260200160002060070160006101000a81548160ff0219169083151502179055507f0a3d7493603aa7b085d6b77670c5b85cbc0367742d203f31155351564948c0868533600042604051808581526020018473ffffffffffffffffffffffffffffffffffffffff1673ffffffffffffffffffffffffffffffffffffffff1681526020018315151515815260200182815260200194505050505060405180910390a160019350505050919050565b61279e61284a565b600360008373ffffffffffffffffffffffffffffffffffffffff1673ffffffffffffffffffffffffffffffffffffffff16815260200190815260200160002060010180548060200260200160405190810160405280929190818152602001828054801561282a57602002820191906000526020600020905b815481526020019060010190808311612816575b50505050509050919050565b602060405190810160405280600081525090565b602060405190810160405280600081525090565b81548183558181151161288557818360005260206000209182019101612884919061290a565b5b505050565b828054600181600116156101000203166002900490600052602060002090601f016020900481019282601f106128cb57805160ff19168380011785556128f9565b828001600101855582156128f9579182015b828111156128f85782518255916020019190600101906128dd565b5b509050612906919061290a565b5090565b61292c91905b80821115612928576000816000905550600101612910565b5090565b905600a165627a7a72305820b932c3444383bd500e785d2342e95852a5b2ae452adc967db4e23945ed13e1750029",
  "source": "pragma solidity ^0.4.19;\n\ncontract ShareApp{\n\n\tstruct user{\n\t\tuint[] object_rent;\n\t\tuint[] object_rented;\n\t\tuint[] object_rentedTime;\n\t}\n\n\tstruct Renter{\n\t\taddress addr;\n\t\tuint since;\n\t}\n\n\tstruct Object{\n\t\taddress creator; // +\n\t\tstring photo;\n\t\tstring name;\n\t\tuint priceDaily;\n\t\tuint deposit;\n\t\tRenter renter;\n\t\tbool rented;  //rented ?\n\t\tstring detail;\n\t\tuint categories;\n\t\tbool isDelete;\n\t\tuint createAt;\n\t}\n\n\tstruct NameKey{ // storage the name's keys\n\t\tuint[] keys;\n\t}\n\n\tstruct TypeKey{\n\t\tuint[] keys;\n\t}\n\n\t//List of objects\n\tuint[] private ids;  //Use it to return the ids of Objects\n\tuint public numObjects;\n\tmapping(uint => Object) private objects;\n\tmapping(address => user) private users;\n\tmapping(string => NameKey) private nameToKeys;\n\tmapping(uint => TypeKey) private typeToKeys;\n\t// mapping(address => uint) public balances;\n\n\taddress public owner;\n\n\t//Events\n\tevent NewObject(uint _objID, address _creator, string _photo, string _name, uint _priceDaily, uint _deposit, uint categories, bool _rented);\n\tevent NewRent(uint _objID, address _creator, address _renter, string _photo, string _name, uint _priceDaily, uint _deposit, bool _rented, uint _createAt);\n\tevent NewReturn(uint _objID, address _renter, bool _rented, uint _createAt);\n\n\tmodifier objectInRange(uint objID) {\n\t\tif (objID >= numObjects)\n\t\t\tthrow;\n\t\t_;\n\t}\n\n\tmodifier onlyOwner(){\n\t\tif(msg.sender != owner){\n\t\t\tthrow;\n\t\t}\n\t\t_;\n\t}\n\n\t/*\n\t* Functions\n\t*/\n\tfunction ShareApp(){\n\t\towner = msg.sender;\n\t}\n\n\tfunction objectIsRented(uint objID) objectInRange(objID) returns (bool){\n\t\treturn objects[objID].rented;\n\t}\n\n\tfunction createObj(string photo, string name,uint priceDaily,uint deposit,string detail, uint categories){\n\t\t// +\n\t\t//owner = msg.sender;\n\t\t// Object newObject = objects[numObjects];\n\t\tObject  newObject = objects[numObjects];\n\t\tnameToKeys[name].keys.push(numObjects); //add the key to the name's keys\n\t\ttypeToKeys[categories].keys.push(numObjects);\n\t\tnewObject.creator = msg.sender;\n\t\tnewObject.photo = photo;\n\t\tnewObject.name = name;\n\t\tnewObject.priceDaily = priceDaily;\n\t\tnewObject.deposit = deposit;\n\t\tnewObject.rented = false;\n\t\tnewObject.detail = detail;\n\t\tnewObject.categories = categories;\n\t\tnewObject.isDelete = false;\n\t\tnewObject.createAt = now;\n\t\tusers[msg.sender].object_rent.push(numObjects);\n\t\t// objects[numObjects] = newObject;\n\t\tNewObject(numObjects, msg.sender, photo, name, priceDaily, deposit, categories, false);\n\t\tids.push(numObjects);\n\t\tnumObjects++;\n\t}\n\n\tfunction getObj(uint objID) constant objectInRange(objID)\n\treturns(\n\t\taddress creator,//0\n\t\tstring photo,//1\n\t\tstring name,//2\n\t\tuint priceDaily,//3\n\t\tuint deposit,//4\n\t\taddress renterAddress,//5\n\t\tuint renterSince,//6\n\t\tbool rented,//7\n\t\tstring detail,//8\n\t\tuint categories,//9\n\t\tbool isDelete,//10\n\t\tuint createAt//11\n\t)\n\t{\n\t\tcreator = objects[objID].creator;\n\t\tphoto = objects[objID].photo;\n\t\tname = objects[objID].name;\n\t\tpriceDaily = objects[objID].priceDaily;\n\t\tdeposit = objects[objID].deposit;\n\t\trenterAddress = objects[objID].renter.addr;\n\t\trenterSince = objects[objID].renter.since;\n\t\trented = objects[objID].rented;\n\t\tdetail = objects[objID].detail;\n\t\tcategories = objects[objID].categories;\n\t\tisDelete = objects[objID].isDelete;\n\t\tcreateAt = objects[objID].createAt;\n\t}\n\n\t// function getObject(uint objID) constant objectInRange(objID)\n\t// \treturns(Object object)\n\t// {\n\t// \tobject = objects[objID];\n\t// }\n\n\tfunction rentObj(uint objID) payable objectInRange(objID) returns(bool){\n\t\tif(objectIsRented(objID) || msg.value < objects[objID].deposit || msg.sender == objects[objID].creator){\n\t\t\tthrow;\n\t\t}\n\t\tobjects[objID].renter = Renter({addr:msg.sender, since:now});  //record the info of the renter\n\t\tuint rest = msg.value - objects[objID].deposit;  //deposit\n\t\tif(!objects[objID].renter.addr.send(rest)){   // return the rest balance\n\t\t\tthrow;\n\t\t}\n\t\tobjects[objID].rented = true;\n\t\tusers[msg.sender].object_rented.push(objID);\n\t\tusers[msg.sender].object_rentedTime.push(now);\n\t\tNewRent(objID, objects[objID].creator, objects[objID].renter.addr, objects[objID].photo, objects[objID].name, objects[objID].priceDaily, objects[objID].deposit, true, now);\n\t\treturn true;\n\t}\n\n\tfunction returnObj(uint objID) payable objectInRange(objID) returns (bool){\n\t\tif(!objects[objID].rented){\n\t\t\tthrow;\n\t\t}\n\t\tif(objects[objID].renter.addr != msg.sender){\n\t\t\tthrow;\n\t\t}\n\t\tuint duration = (now - objects[objID].renter.since) / (24*60*60*1.0);\n\t\tuint charge = duration * objects[objID].priceDaily;\n\t\t// uint days = (duration / (24*60*60*1.0));\n\t\t// uint charge = days * objects[objID].priceDaily;\n\t\tif(!objects[objID].creator.send(charge)){\n\t\t\tthrow;\n\t\t}\n\t\tif(!objects[objID].renter.addr.send(objects[objID].deposit - charge)){\n\t\t\tthrow;\n\t\t}\n\t\tdelete objects[objID].renter;\n\t\tobjects[objID].rented = false;\n\t\tNewReturn(objID, msg.sender, false, now);\n\t\treturn true;\n\t}\n\n\tfunction modifyObject(uint objID,string name,uint priceDaily,uint deposit,string detail, uint categories) public{\n\t\trequire(objects[objID].creator == msg.sender);\n\t\tobjects[objID].name = name;\n\t\tobjects[objID].priceDaily = priceDaily;\n\t\tobjects[objID].deposit = deposit;\n\t\tobjects[objID].detail = detail;\n\t\tobjects[objID].categories = categories;\n\t}\n\n\tfunction deleteObject(uint objID) public{\n\t\trequire(objects[objID].creator == msg.sender);\n\t\tobjects[objID].isDelete = true;\n\t}\n\n\tfunction getUserRent(address user) constant returns(uint[]){\n\t\treturn users[user].object_rent;\n\t}\n\n\tfunction getUserRented(address user) constant returns(uint[]){\n\t\treturn users[user].object_rented;\n\t}\n\n\tfunction getUserRentedTime(address user) constant returns(uint[]){\n\t\treturn users[user].object_rentedTime;\n\t}\n\n\tfunction findNames(string name) constant returns(uint[]){\n\t\treturn nameToKeys[name].keys;\n\t}\n\n\tfunction findTypes(uint categories) constant returns(uint[]) {\n\t\treturn typeToKeys[categories].keys;\n\t}\n\n\tfunction getNumObjects() constant returns(uint){\n\t\treturn numObjects;\n\t}\n\n\tfunction getObjectIds() constant returns(uint[]){\n\t\treturn ids;\n\t}\n\n\tfunction getObjectIsDelete(uint objID) objectInRange(objID) returns(bool){\n\t\treturn objects[objID].isDelete;\n\t}\n\n\tfunction getObjectName(uint objID) objectInRange(objID) returns(string objName){\n\t\tvar obj = objects[objID];\n\t\tobjName = obj.name;\n\t}\n\n\tfunction getObjectPhoto(uint objID) objectInRange(objID) returns(string){\n\t\treturn objects[objID].photo;\n\t}\n\n\tfunction getObjectCreator(uint objID) constant objectInRange(objID) returns(address){\n\t\treturn objects[objID].creator;\n\t}\n\n\tfunction getObjectPriceDaily(uint objID) constant objectInRange(objID) returns(uint){\n\t\treturn objects[objID].priceDaily;\n\t}\n\n\tfunction getObjectDeposit(uint objID) constant objectInRange(objID) returns(uint){\n\t\treturn objects[objID].deposit;\n\t}\n\n\tfunction getObjectRenterAddress(uint objID) constant objectInRange(objID) returns(address){\n\t\treturn objects[objID].renter.addr;\n\t}\n\n\tfunction getObjectRenterSince(uint objID) constant objectInRange(objID) returns(uint){\n\t\treturn objects[objID].renter.since;\n\t}\n\n\tfunction getObjectDetail(uint objID) constant objectInRange(objID) returns(string){\n\t\treturn objects[objID].detail;\n\t}\n\n\tfunction getObjectCategories(uint objID) constant objectInRange(objID) returns(uint){\n\t\treturn objects[objID].categories;\n\t}\n\n\tfunction remove() onlyOwner {\n\t\tselfdestruct(owner);\n\t\t// suicide(owner);\n\t}\n}\n",
  "sourcePath": "/Users/steveniiv/Test/Market-DApp/contracts/ShareApp.sol",
  "compiler": {
    "name": "solc",
    "version": "0.4.19+commit.c4cbbb05.Emscripten.clang"
  },
  "schemaVersion": "3.0.19",
  "updatedAt": "2020-03-06T05:15:37.546Z",
  "networkType": "ethereum",
  "devdoc": {
    "methods": {}
  },
  "userdoc": {
    "methods": {}
  }
}