{
  "contractName": "ShareApp",
  "abi": [
    {
      "constant": true,
      "inputs": [],
      "name": "numObjects",
      "outputs": [
        {
          "name": "",
          "type": "uint256"
        }
      ],
      "payable": false,
      "stateMutability": "view",
      "type": "function"
    },
    {
      "constant": true,
      "inputs": [],
      "name": "owner",
      "outputs": [
        {
          "name": "",
          "type": "address"
        }
      ],
      "payable": false,
      "stateMutability": "view",
      "type": "function"
    },
    {
      "inputs": [],
      "payable": false,
      "stateMutability": "nonpayable",
      "type": "constructor"
    },
    {
      "anonymous": false,
      "inputs": [
        {
          "indexed": false,
          "name": "objID",
          "type": "uint256"
        },
        {
          "indexed": false,
          "name": "creator",
          "type": "address"
        }
      ],
      "name": "NewObject",
      "type": "event"
    },
    {
      "constant": false,
      "inputs": [
        {
          "name": "objID",
          "type": "uint256"
        }
      ],
      "name": "objectIsRented",
      "outputs": [
        {
          "name": "",
          "type": "bool"
        }
      ],
      "payable": false,
      "stateMutability": "nonpayable",
      "type": "function"
    },
    {
      "constant": false,
      "inputs": [
        {
          "name": "photo",
          "type": "string"
        },
        {
          "name": "name",
          "type": "string"
        },
        {
          "name": "priceDaily",
          "type": "uint256"
        },
        {
          "name": "deposit",
          "type": "uint256"
        },
        {
          "name": "detail",
          "type": "string"
        }
      ],
      "name": "createObj",
      "outputs": [],
      "payable": false,
      "stateMutability": "nonpayable",
      "type": "function"
    },
    {
      "constant": true,
      "inputs": [
        {
          "name": "objID",
          "type": "uint256"
        }
      ],
      "name": "getObj",
      "outputs": [
        {
          "name": "creator",
          "type": "address"
        },
        {
          "name": "photo",
          "type": "string"
        },
        {
          "name": "name",
          "type": "string"
        },
        {
          "name": "priceDaily",
          "type": "uint256"
        },
        {
          "name": "deposit",
          "type": "uint256"
        },
        {
          "name": "renterAddress",
          "type": "address"
        },
        {
          "name": "renterSince",
          "type": "uint256"
        },
        {
          "name": "rented",
          "type": "bool"
        },
        {
          "name": "detail",
          "type": "string"
        }
      ],
      "payable": false,
      "stateMutability": "view",
      "type": "function"
    },
    {
      "constant": false,
      "inputs": [
        {
          "name": "objID",
          "type": "uint256"
        }
      ],
      "name": "rentObj",
      "outputs": [
        {
          "name": "",
          "type": "bool"
        }
      ],
      "payable": true,
      "stateMutability": "payable",
      "type": "function"
    },
    {
      "constant": false,
      "inputs": [
        {
          "name": "objID",
          "type": "uint256"
        }
      ],
      "name": "returnObj",
      "outputs": [
        {
          "name": "",
          "type": "bool"
        }
      ],
      "payable": true,
      "stateMutability": "payable",
      "type": "function"
    },
    {
      "constant": true,
      "inputs": [
        {
          "name": "name",
          "type": "string"
        }
      ],
      "name": "findNames",
      "outputs": [
        {
          "name": "",
          "type": "uint256[]"
        }
      ],
      "payable": false,
      "stateMutability": "view",
      "type": "function"
    },
    {
      "constant": true,
      "inputs": [],
      "name": "getNumObjects",
      "outputs": [
        {
          "name": "",
          "type": "uint256"
        }
      ],
      "payable": false,
      "stateMutability": "view",
      "type": "function"
    },
    {
      "constant": true,
      "inputs": [],
      "name": "getObjectIds",
      "outputs": [
        {
          "name": "",
          "type": "uint256[]"
        }
      ],
      "payable": false,
      "stateMutability": "view",
      "type": "function"
    },
    {
      "constant": false,
      "inputs": [
        {
          "name": "objID",
          "type": "uint256"
        }
      ],
      "name": "getObjectName",
      "outputs": [
        {
          "name": "objName",
          "type": "string"
        }
      ],
      "payable": false,
      "stateMutability": "nonpayable",
      "type": "function"
    },
    {
      "constant": false,
      "inputs": [
        {
          "name": "objID",
          "type": "uint256"
        }
      ],
      "name": "getObjectPhoto",
      "outputs": [
        {
          "name": "",
          "type": "string"
        }
      ],
      "payable": false,
      "stateMutability": "nonpayable",
      "type": "function"
    },
    {
      "constant": true,
      "inputs": [
        {
          "name": "objID",
          "type": "uint256"
        }
      ],
      "name": "getObjectCreator",
      "outputs": [
        {
          "name": "",
          "type": "address"
        }
      ],
      "payable": false,
      "stateMutability": "view",
      "type": "function"
    },
    {
      "constant": true,
      "inputs": [
        {
          "name": "objID",
          "type": "uint256"
        }
      ],
      "name": "getObjectPriceDaily",
      "outputs": [
        {
          "name": "",
          "type": "uint256"
        }
      ],
      "payable": false,
      "stateMutability": "view",
      "type": "function"
    },
    {
      "constant": true,
      "inputs": [
        {
          "name": "objID",
          "type": "uint256"
        }
      ],
      "name": "getObjectDeposit",
      "outputs": [
        {
          "name": "",
          "type": "uint256"
        }
      ],
      "payable": false,
      "stateMutability": "view",
      "type": "function"
    },
    {
      "constant": true,
      "inputs": [
        {
          "name": "objID",
          "type": "uint256"
        }
      ],
      "name": "getObjectRenterAddress",
      "outputs": [
        {
          "name": "",
          "type": "address"
        }
      ],
      "payable": false,
      "stateMutability": "view",
      "type": "function"
    },
    {
      "constant": true,
      "inputs": [
        {
          "name": "objID",
          "type": "uint256"
        }
      ],
      "name": "getObjectRenterSince",
      "outputs": [
        {
          "name": "",
          "type": "uint256"
        }
      ],
      "payable": false,
      "stateMutability": "view",
      "type": "function"
    },
    {
      "constant": true,
      "inputs": [
        {
          "name": "objID",
          "type": "uint256"
        }
      ],
      "name": "getObjectDetail",
      "outputs": [
        {
          "name": "",
          "type": "string"
        }
      ],
      "payable": false,
      "stateMutability": "view",
      "type": "function"
    },
    {
      "constant": false,
      "inputs": [],
      "name": "remove",
      "outputs": [],
      "payable": false,
      "stateMutability": "nonpayable",
      "type": "function"
    }
  ],
  "bytecode": "0x6060604052341561000f57600080fd5b33600460006101000a81548173ffffffffffffffffffffffffffffffffffffffff021916908373ffffffffffffffffffffffffffffffffffffffff160217905550611ab98061005f6000396000f300606060405260043610610107576000357c0100000000000000000000000000000000000000000000000000000000900463ffffffff16806304c381151461010c57806318f8479914610135578063202c909414610198578063322db2971461023457806334b05db91461025d578063398560601461028d5780634816a490146102c8578063673e86fe1461037a5780637ea0c8bd146103e45780638da5cb5b14610480578063a7206374146104d5578063a7f43779146105ca578063ab5c9bb3146105df578063ace716ff146107d9578063b4d356ae14610810578063c774e16c146108ac578063dce37ddb1461090f578063ddbffef414610946578063e6adf1971461097d575b600080fd5b341561011757600080fd5b61011f6109ad565b6040518082815260200191505060405180910390f35b341561014057600080fd5b61015660048080359060200190919050506109b3565b604051808273ffffffffffffffffffffffffffffffffffffffff1673ffffffffffffffffffffffffffffffffffffffff16815260200191505060405180910390f35b34156101a357600080fd5b6101b96004808035906020019091905050610a08565b6040518080602001828103825283818151815260200191508051906020019080838360005b838110156101f95780820151818401526020810190506101de565b50505050905090810190601f1680156102265780820380516001836020036101000a031916815260200191505b509250505060405180910390f35b341561023f57600080fd5b610247610ade565b6040518082815260200191505060405180910390f35b6102736004808035906020019091905050610ae8565b604051808215151515815260200191505060405180910390f35b341561029857600080fd5b6102ae6004808035906020019091905050610cfe565b604051808215151515815260200191505060405180910390f35b34156102d357600080fd5b610323600480803590602001908201803590602001908080601f01602080910402602001604051908101604052809392919081815260200183838082843782019150505050505091905050610d3d565b6040518080602001828103825283818151815260200191508051906020019060200280838360005b8381101561036657808201518184015260208101905061034b565b505050509050019250505060405180910390f35b341561038557600080fd5b61038d610e09565b6040518080602001828103825283818151815260200191508051906020019060200280838360005b838110156103d05780820151818401526020810190506103b5565b505050509050019250505060405180910390f35b34156103ef57600080fd5b6104056004808035906020019091905050610e67565b6040518080602001828103825283818151815260200191508051906020019080838360005b8381101561044557808201518184015260208101905061042a565b50505050905090810190601f1680156104725780820380516001836020036101000a031916815260200191505b509250505060405180910390f35b341561048b57600080fd5b610493610f37565b604051808273ffffffffffffffffffffffffffffffffffffffff1673ffffffffffffffffffffffffffffffffffffffff16815260200191505060405180910390f35b34156104e057600080fd5b6105c8600480803590602001908201803590602001908080601f0160208091040260200160405190810160405280939291908181526020018383808284378201915050505050509190803590602001908201803590602001908080601f0160208091040260200160405190810160405280939291908181526020018383808284378201915050505050509190803590602001909190803590602001909190803590602001908201803590602001908080601f01602080910402602001604051908101604052809392919081815260200183838082843782019150505050505091905050610f5d565b005b34156105d557600080fd5b6105dd61117c565b005b34156105ea57600080fd5b6106006004808035906020019091905050611213565b604051808a73ffffffffffffffffffffffffffffffffffffffff1673ffffffffffffffffffffffffffffffffffffffff16815260200180602001806020018981526020018881526020018773ffffffffffffffffffffffffffffffffffffffff1673ffffffffffffffffffffffffffffffffffffffff168152602001868152602001851515151581526020018060200184810384528c818151815260200191508051906020019080838360005b838110156106c85780820151818401526020810190506106ad565b50505050905090810190601f1680156106f55780820380516001836020036101000a031916815260200191505b5084810383528b818151815260200191508051906020019080838360005b8381101561072e578082015181840152602081019050610713565b50505050905090810190601f16801561075b5780820380516001836020036101000a031916815260200191505b50848103825285818151815260200191508051906020019080838360005b83811015610794578082015181840152602081019050610779565b50505050905090810190601f1680156107c15780820380516001836020036101000a031916815260200191505b509c5050505050505050505050505060405180910390f35b34156107e457600080fd5b6107fa6004808035906020019091905050611550565b6040518082815260200191505060405180910390f35b341561081b57600080fd5b6108316004808035906020019091905050611585565b6040518080602001828103825283818151815260200191508051906020019080838360005b83811015610871578082015181840152602081019050610856565b50505050905090810190601f16801561089e5780820380516001836020036101000a031916815260200191505b509250505060405180910390f35b34156108b757600080fd5b6108cd6004808035906020019091905050611655565b604051808273ffffffffffffffffffffffffffffffffffffffff1673ffffffffffffffffffffffffffffffffffffffff16815260200191505060405180910390f35b341561091a57600080fd5b61093060048080359060200190919050506116a7565b6040518082815260200191505060405180910390f35b341561095157600080fd5b61096760048080359060200190919050506116d9565b6040518082815260200191505060405180910390f35b610993600480803590602001909190505061170b565b604051808215151515815260200191505060405180910390f35b60015481565b600081600154811015156109c657600080fd5b6002600084815260200190815260200160002060050160000160009054906101000a900473ffffffffffffffffffffffffffffffffffffffff16915050919050565b610a10611994565b60008260015481101515610a2357600080fd5b600260008581526020019081526020016000209150816002018054600181600116156101000203166002900480601f016020809104026020016040519081016040528092919081815260200182805460018160011615610100020316600290048015610ad05780601f10610aa557610100808354040283529160200191610ad0565b820191906000526020600020905b815481529060010190602001808311610ab357829003601f168201915b505050505092505050919050565b6000600154905090565b6000808260015481101515610afc57600080fd5b610b0584610cfe565b80610b255750600260008581526020019081526020016000206004015434105b80610b9157506002600085815260200190815260200160002060000160009054906101000a900473ffffffffffffffffffffffffffffffffffffffff1673ffffffffffffffffffffffffffffffffffffffff163373ffffffffffffffffffffffffffffffffffffffff16145b15610b9b57600080fd5b60408051908101604052803373ffffffffffffffffffffffffffffffffffffffff168152602001428152506002600086815260200190815260200160002060050160008201518160000160006101000a81548173ffffffffffffffffffffffffffffffffffffffff021916908373ffffffffffffffffffffffffffffffffffffffff160217905550602082015181600101559050506002600085815260200190815260200160002060040154340391506002600085815260200190815260200160002060050160000160009054906101000a900473ffffffffffffffffffffffffffffffffffffffff1673ffffffffffffffffffffffffffffffffffffffff166108fc839081150290604051600060405180830381858888f193505050501515610cc457600080fd5b60016002600086815260200190815260200160002060070160006101000a81548160ff021916908315150217905550600192505050919050565b60008160015481101515610d1157600080fd5b6002600084815260200190815260200160002060070160009054906101000a900460ff16915050919050565b610d456119a8565b6003826040518082805190602001908083835b602083101515610d7d5780518252602082019150602081019050602083039250610d58565b6001836020036101000a0380198251168184511680821785525050505050509050019150509081526020016040518091039020600001805480602002602001604051908101604052809291908181526020018280548015610dfd57602002820191906000526020600020905b815481526020019060010190808311610de9575b50505050509050919050565b610e116119a8565b6000805480602002602001604051908101604052809291908181526020018280548015610e5d57602002820191906000526020600020905b815481526020019060010190808311610e49575b5050505050905090565b610e6f611994565b8160015481101515610e8057600080fd5b600260008481526020019081526020016000206008018054600181600116156101000203166002900480601f016020809104026020016040519081016040528092919081815260200182805460018160011615610100020316600290048015610f2a5780601f10610eff57610100808354040283529160200191610f2a565b820191906000526020600020905b815481529060010190602001808311610f0d57829003601f168201915b5050505050915050919050565b600460009054906101000a900473ffffffffffffffffffffffffffffffffffffffff1681565b600060026000600154815260200190815260200160002090506003856040518082805190602001908083835b602083101515610fae5780518252602082019150602081019050602083039250610f89565b6001836020036101000a03801982511681845116808217855250505050505090500191505090815260200160405180910390206000018054806001018281610ff691906119bc565b9160005260206000209001600060015490919091505550338160000160006101000a81548173ffffffffffffffffffffffffffffffffffffffff021916908373ffffffffffffffffffffffffffffffffffffffff160217905550858160010190805190602001906110689291906119e8565b50848160020190805190602001906110819291906119e8565b5083816003018190555082816004018190555060008160070160006101000a81548160ff021916908315150217905550818160080190805190602001906110c99291906119e8565b507f34ed2f26f2ce17e86e267fe3e5e005eb9e9f078e4514c7c473e985fa83a04d1d60015433604051808381526020018273ffffffffffffffffffffffffffffffffffffffff1673ffffffffffffffffffffffffffffffffffffffff1681526020019250505060405180910390a16000805480600101828161114b91906119bc565b9160005260206000209001600060015490919091505550600160008154809291906001019190505550505050505050565b600460009054906101000a900473ffffffffffffffffffffffffffffffffffffffff1673ffffffffffffffffffffffffffffffffffffffff163373ffffffffffffffffffffffffffffffffffffffff161415156111d857600080fd5b600460009054906101000a900473ffffffffffffffffffffffffffffffffffffffff1673ffffffffffffffffffffffffffffffffffffffff16ff5b600061121d611994565b611225611994565b6000806000806000611235611994565b896001548110151561124657600080fd5b600260008c815260200190815260200160002060000160009054906101000a900473ffffffffffffffffffffffffffffffffffffffff169950600260008c81526020019081526020016000206001018054600181600116156101000203166002900480601f0160208091040260200160405190810160405280929190818152602001828054600181600116156101000203166002900480156113295780601f106112fe57610100808354040283529160200191611329565b820191906000526020600020905b81548152906001019060200180831161130c57829003601f168201915b50505050509850600260008c81526020019081526020016000206002018054600181600116156101000203166002900480601f0160208091040260200160405190810160405280929190818152602001828054600181600116156101000203166002900480156113da5780601f106113af576101008083540402835291602001916113da565b820191906000526020600020905b8154815290600101906020018083116113bd57829003601f168201915b50505050509750600260008c8152602001908152602001600020600301549650600260008c8152602001908152602001600020600401549550600260008c815260200190815260200160002060050160000160009054906101000a900473ffffffffffffffffffffffffffffffffffffffff169450600260008c8152602001908152602001600020600501600101549350600260008c815260200190815260200160002060070160009054906101000a900460ff169250600260008c81526020019081526020016000206008018054600181600116156101000203166002900480601f01602080910402602001604051908101604052809291908181526020018280546001816001161561010002031660029004801561153b5780601f106115105761010080835404028352916020019161153b565b820191906000526020600020905b81548152906001019060200180831161151e57829003601f168201915b50505050509150509193959799909294969850565b6000816001548110151561156357600080fd5b6002600084815260200190815260200160002060050160010154915050919050565b61158d611994565b816001548110151561159e57600080fd5b600260008481526020019081526020016000206001018054600181600116156101000203166002900480601f0160208091040260200160405190810160405280929190818152602001828054600181600116156101000203166002900480156116485780601f1061161d57610100808354040283529160200191611648565b820191906000526020600020905b81548152906001019060200180831161162b57829003601f168201915b5050505050915050919050565b6000816001548110151561166857600080fd5b6002600084815260200190815260200160002060000160009054906101000a900473ffffffffffffffffffffffffffffffffffffffff16915050919050565b600081600154811015156116ba57600080fd5b6002600084815260200190815260200160002060040154915050919050565b600081600154811015156116ec57600080fd5b6002600084815260200190815260200160002060030154915050919050565b6000806000836001548110151561172157600080fd5b6002600086815260200190815260200160002060070160009054906101000a900460ff16151561175057600080fd5b3373ffffffffffffffffffffffffffffffffffffffff166002600087815260200190815260200160002060050160000160009054906101000a900473ffffffffffffffffffffffffffffffffffffffff1673ffffffffffffffffffffffffffffffffffffffff161415156117c357600080fd5b62015180600260008781526020019081526020016000206005016001015442038115156117ec57fe5b0492506002600086815260200190815260200160002060030154830291506002600086815260200190815260200160002060000160009054906101000a900473ffffffffffffffffffffffffffffffffffffffff1673ffffffffffffffffffffffffffffffffffffffff166108fc839081150290604051600060405180830381858888f19350505050151561188057600080fd5b6002600086815260200190815260200160002060050160000160009054906101000a900473ffffffffffffffffffffffffffffffffffffffff1673ffffffffffffffffffffffffffffffffffffffff166108fc836002600089815260200190815260200160002060040154039081150290604051600060405180830381858888f19350505050151561191157600080fd5b60026000868152602001908152602001600020600501600080820160006101000a81549073ffffffffffffffffffffffffffffffffffffffff02191690556001820160009055505060006002600087815260200190815260200160002060070160006101000a81548160ff02191690831515021790555060019350505050919050565b602060405190810160405280600081525090565b602060405190810160405280600081525090565b8154818355818115116119e3578183600052602060002091820191016119e29190611a68565b5b505050565b828054600181600116156101000203166002900490600052602060002090601f016020900481019282601f10611a2957805160ff1916838001178555611a57565b82800160010185558215611a57579182015b82811115611a56578251825591602001919060010190611a3b565b5b509050611a649190611a68565b5090565b611a8a91905b80821115611a86576000816000905550600101611a6e565b5090565b905600a165627a7a72305820a03c8452b7ea5fcbf5b351971600fc363c1c32b4eaeb443d8bce45b5c81695100029",
  "source": "pragma solidity ^0.4.19;\n\ncontract ShareApp{\n\n\tstruct Renter{\n\t\taddress addr;\n\t\tuint since;\n\t}\n\n\tstruct Object{\n\t\taddress creator; // +\n\t\tstring photo;\n\t\tstring name;\n\t\tuint priceDaily;\n\t\tuint deposit;\n\t\tRenter renter;\n\t\tbool rented;  //rented ?\n\t\tstring detail;\n\t}\n\n\tstruct NameKey{ // storage the name's keys\n\t\tuint[] keys;\n\t}\n\n\t//List of objects\n\tuint[] private ids;  //Use it to return the ids of Objects\n\tuint public numObjects;\n\tmapping(uint => Object) private objects;\n\tmapping(string => NameKey) private nameToKeys;\n\t// mapping(address => uint) public balances;\n\n\taddress public owner;\n\n\t//Events\n\tevent NewObject(uint objID, address creator);\n\t// event NewObject(uint indexed objID, address creator);\n\n\tmodifier objectInRange(uint objID) {\n\t\tif (objID >= numObjects)\n\t\t\tthrow;\n\t\t_;\n\t}\n\n\tmodifier onlyOwner(){\n\t\tif(msg.sender != owner){\n\t\t\tthrow;\n\t\t}\n\t\t_;\n\t}\n\n\t/*\n\t* Functions\n\t*/\n\tfunction ShareApp(){\n\t\towner = msg.sender;\n\t}\n\n\tfunction objectIsRented(uint objID) objectInRange(objID) returns (bool){\n\t\treturn objects[objID].rented;\n\t}\n\n\tfunction createObj(string photo, string name,uint priceDaily,uint deposit,string detail){\n\t\t// +\n\t\t//owner = msg.sender;\n\t\t// Object newObject = objects[numObjects];\n\t\tObject  newObject = objects[numObjects];\n\t\tnameToKeys[name].keys.push(numObjects); //add the key to the name's keys\n\n\t\tnewObject.creator = msg.sender;\n\t\tnewObject.photo = photo;\n\t\tnewObject.name = name;\n\t\tnewObject.priceDaily = priceDaily;\n\t\tnewObject.deposit = deposit;\n\t\tnewObject.rented = false;\n\t\tnewObject.detail = detail;\n\n\t\t// objects[numObjects] = newObject;\n\t\tNewObject(numObjects,msg.sender);\n\t\tids.push(numObjects);\n\t\tnumObjects++;\n\t}\n\n\tfunction getObj(uint objID) constant objectInRange(objID)\n\treturns(\n\t\taddress creator,\n\t\tstring photo,\n\t\tstring name,\n\t\tuint priceDaily,\n\t\tuint deposit,\n\t\taddress renterAddress,\n\t\tuint renterSince,\n\t\tbool rented,\n\t\tstring detail\n\t)\n\t{\n\t\tcreator = objects[objID].creator;\n\t\tphoto = objects[objID].photo;\n\t\tname = objects[objID].name;\n\t\tpriceDaily = objects[objID].priceDaily;\n\t\tdeposit = objects[objID].deposit;\n\t\trenterAddress = objects[objID].renter.addr;\n\t\trenterSince = objects[objID].renter.since;\n\t\trented = objects[objID].rented;\n\t\tdetail = objects[objID].detail;\n\t}\n\n\t// function getObject(uint objID) constant objectInRange(objID)\n\t// \treturns(Object object)\n\t// {\n\t// \tobject = objects[objID];\n\t// }\n\n\tfunction rentObj(uint objID) payable objectInRange(objID) returns(bool){\n\t\tif(objectIsRented(objID) || msg.value < objects[objID].deposit || msg.sender == objects[objID].creator){\n\t\t\tthrow;\n\t\t}\n\t\tobjects[objID].renter = Renter({addr:msg.sender, since:now});  //record the info of the renter\n\t\tuint rest = msg.value - objects[objID].deposit;\n\t\tif(!objects[objID].renter.addr.send(rest)){   // return the rest balance\n\t\t\tthrow;\n\t\t}\n\t\tobjects[objID].rented = true;\n\t\treturn true;\n\t}\n\n\tfunction returnObj(uint objID) payable objectInRange(objID) returns (bool){\n\t\tif(!objects[objID].rented){\n\t\t\tthrow;\n\t\t}\n\t\tif(objects[objID].renter.addr != msg.sender){\n\t\t\tthrow;\n\t\t}\n\t\tuint duration = (now - objects[objID].renter.since) / (24*60*60*1.0);\n\t\tuint charge = duration * objects[objID].priceDaily;\n\t\t// uint days = (duration / (24*60*60*1.0));\n\t\t// uint charge = days * objects[objID].priceDaily;\n\t\tif(!objects[objID].creator.send(charge)){\n\t\t\tthrow;\n\t\t}\n\t\tif(!objects[objID].renter.addr.send(objects[objID].deposit - charge)){\n\t\t\tthrow;\n\t\t}\n\t\tdelete objects[objID].renter;\n\t\tobjects[objID].rented = false;\n\t\treturn true;\n\t}\n\n\t// function withdraw() {\n\t// \tvar amount = balances[msg.sender];\n\t// \tbalances[msg.sender] = 0;\n\t// \tmsg.sender.transfer(amount);\n\t// }\n\n\tfunction findNames(string name) constant returns(uint[]){\n\t\treturn nameToKeys[name].keys;\n\t}\n\n\tfunction getNumObjects() constant returns(uint){\n\t\treturn numObjects;\n\t}\n\n\tfunction getObjectIds() constant returns(uint[]){\n\t\treturn ids;\n\t}\n\n\tfunction getObjectName(uint objID) objectInRange(objID) returns(string objName){\n\t\tvar obj = objects[objID];\n\t\tobjName = obj.name;\n\t}\n\n\tfunction getObjectPhoto(uint objID) objectInRange(objID) returns(string){\n\t\treturn objects[objID].photo;\n\t}\n\n\tfunction getObjectCreator(uint objID) constant objectInRange(objID) returns(address){\n\t\treturn objects[objID].creator;\n\t}\n\n\tfunction getObjectPriceDaily(uint objID) constant objectInRange(objID) returns(uint){\n\t\treturn objects[objID].priceDaily;\n\t}\n\n\tfunction getObjectDeposit(uint objID) constant objectInRange(objID) returns(uint){\n\t\treturn objects[objID].deposit;\n\t}\n\n\tfunction getObjectRenterAddress(uint objID) constant objectInRange(objID) returns(address){\n\t\treturn objects[objID].renter.addr;\n\t}\n\n\tfunction getObjectRenterSince(uint objID) constant objectInRange(objID) returns(uint){\n\t\treturn objects[objID].renter.since;\n\t}\n\n\tfunction getObjectDetail(uint objID) constant objectInRange(objID) returns(string){\n\t\treturn objects[objID].detail;\n\t}\n\n\tfunction remove() onlyOwner {\n\t\tselfdestruct(owner);\n\t\t// suicide(owner);\n\t}\n}\n",
  "sourcePath": "/Users/steveniiv/Test/ShareApp/contracts/ShareApp.sol",
  "compiler": {
    "name": "solc",
    "version": "0.4.19+commit.c4cbbb05.Emscripten.clang"
  },
  "schemaVersion": "3.0.19",
  "updatedAt": "2020-02-15T15:13:11.958Z",
  "devdoc": {
    "methods": {}
  },
  "userdoc": {
    "methods": {}
  }
}