{
  "contractName": "ShareApp",
  "abi": [
    {
      "constant": true,
      "inputs": [],
      "name": "numObjects",
      "outputs": [
        {
          "name": "",
          "type": "uint256"
        }
      ],
      "payable": false,
      "stateMutability": "view",
      "type": "function"
    },
    {
      "constant": true,
      "inputs": [],
      "name": "owner",
      "outputs": [
        {
          "name": "",
          "type": "address"
        }
      ],
      "payable": false,
      "stateMutability": "view",
      "type": "function"
    },
    {
      "inputs": [],
      "payable": false,
      "stateMutability": "nonpayable",
      "type": "constructor"
    },
    {
      "anonymous": false,
      "inputs": [
        {
          "indexed": false,
          "name": "_objID",
          "type": "uint256"
        },
        {
          "indexed": false,
          "name": "_creator",
          "type": "address"
        },
        {
          "indexed": false,
          "name": "_photo",
          "type": "string"
        },
        {
          "indexed": false,
          "name": "_name",
          "type": "string"
        },
        {
          "indexed": false,
          "name": "_priceDaily",
          "type": "uint256"
        },
        {
          "indexed": false,
          "name": "_deposit",
          "type": "uint256"
        },
        {
          "indexed": false,
          "name": "categories",
          "type": "uint256"
        },
        {
          "indexed": false,
          "name": "_rented",
          "type": "bool"
        }
      ],
      "name": "NewObject",
      "type": "event"
    },
    {
      "anonymous": false,
      "inputs": [
        {
          "indexed": false,
          "name": "_objID",
          "type": "uint256"
        },
        {
          "indexed": false,
          "name": "_creator",
          "type": "address"
        },
        {
          "indexed": false,
          "name": "_renter",
          "type": "address"
        },
        {
          "indexed": false,
          "name": "_photo",
          "type": "string"
        },
        {
          "indexed": false,
          "name": "_name",
          "type": "string"
        },
        {
          "indexed": false,
          "name": "_priceDaily",
          "type": "uint256"
        },
        {
          "indexed": false,
          "name": "_deposit",
          "type": "uint256"
        },
        {
          "indexed": false,
          "name": "_rented",
          "type": "bool"
        },
        {
          "indexed": false,
          "name": "_createAt",
          "type": "uint256"
        }
      ],
      "name": "NewRent",
      "type": "event"
    },
    {
      "anonymous": false,
      "inputs": [
        {
          "indexed": false,
          "name": "_objID",
          "type": "uint256"
        },
        {
          "indexed": false,
          "name": "_renter",
          "type": "address"
        },
        {
          "indexed": false,
          "name": "_rented",
          "type": "bool"
        },
        {
          "indexed": false,
          "name": "_createAt",
          "type": "uint256"
        }
      ],
      "name": "NewReturn",
      "type": "event"
    },
    {
      "constant": false,
      "inputs": [
        {
          "name": "objID",
          "type": "uint256"
        }
      ],
      "name": "objectIsRented",
      "outputs": [
        {
          "name": "",
          "type": "bool"
        }
      ],
      "payable": false,
      "stateMutability": "nonpayable",
      "type": "function"
    },
    {
      "constant": false,
      "inputs": [
        {
          "name": "photo",
          "type": "string"
        },
        {
          "name": "name",
          "type": "string"
        },
        {
          "name": "priceDaily",
          "type": "uint256"
        },
        {
          "name": "deposit",
          "type": "uint256"
        },
        {
          "name": "detail",
          "type": "string"
        },
        {
          "name": "categories",
          "type": "uint256"
        }
      ],
      "name": "createObj",
      "outputs": [],
      "payable": false,
      "stateMutability": "nonpayable",
      "type": "function"
    },
    {
      "constant": true,
      "inputs": [
        {
          "name": "objID",
          "type": "uint256"
        }
      ],
      "name": "getObj",
      "outputs": [
        {
          "name": "creator",
          "type": "address"
        },
        {
          "name": "photo",
          "type": "string"
        },
        {
          "name": "name",
          "type": "string"
        },
        {
          "name": "priceDaily",
          "type": "uint256"
        },
        {
          "name": "deposit",
          "type": "uint256"
        },
        {
          "name": "renterAddress",
          "type": "address"
        },
        {
          "name": "renterSince",
          "type": "uint256"
        },
        {
          "name": "rented",
          "type": "bool"
        },
        {
          "name": "detail",
          "type": "string"
        },
        {
          "name": "categories",
          "type": "uint256"
        },
        {
          "name": "isDelete",
          "type": "bool"
        }
      ],
      "payable": false,
      "stateMutability": "view",
      "type": "function"
    },
    {
      "constant": false,
      "inputs": [
        {
          "name": "objID",
          "type": "uint256"
        }
      ],
      "name": "rentObj",
      "outputs": [
        {
          "name": "",
          "type": "bool"
        }
      ],
      "payable": true,
      "stateMutability": "payable",
      "type": "function"
    },
    {
      "constant": false,
      "inputs": [
        {
          "name": "objID",
          "type": "uint256"
        }
      ],
      "name": "returnObj",
      "outputs": [
        {
          "name": "",
          "type": "bool"
        }
      ],
      "payable": true,
      "stateMutability": "payable",
      "type": "function"
    },
    {
      "constant": false,
      "inputs": [
        {
          "name": "objID",
          "type": "uint256"
        },
        {
          "name": "name",
          "type": "string"
        },
        {
          "name": "priceDaily",
          "type": "uint256"
        },
        {
          "name": "deposit",
          "type": "uint256"
        },
        {
          "name": "detail",
          "type": "string"
        },
        {
          "name": "categories",
          "type": "uint256"
        }
      ],
      "name": "modifyObject",
      "outputs": [],
      "payable": false,
      "stateMutability": "nonpayable",
      "type": "function"
    },
    {
      "constant": false,
      "inputs": [
        {
          "name": "objID",
          "type": "uint256"
        }
      ],
      "name": "deleteObject",
      "outputs": [],
      "payable": false,
      "stateMutability": "nonpayable",
      "type": "function"
    },
    {
      "constant": true,
      "inputs": [
        {
          "name": "user",
          "type": "address"
        }
      ],
      "name": "getUserRent",
      "outputs": [
        {
          "name": "",
          "type": "uint256[]"
        }
      ],
      "payable": false,
      "stateMutability": "view",
      "type": "function"
    },
    {
      "constant": true,
      "inputs": [
        {
          "name": "user",
          "type": "address"
        }
      ],
      "name": "getUserRented",
      "outputs": [
        {
          "name": "",
          "type": "uint256[]"
        }
      ],
      "payable": false,
      "stateMutability": "view",
      "type": "function"
    },
    {
      "constant": true,
      "inputs": [
        {
          "name": "user",
          "type": "address"
        }
      ],
      "name": "getUserRentedTime",
      "outputs": [
        {
          "name": "",
          "type": "uint256[]"
        }
      ],
      "payable": false,
      "stateMutability": "view",
      "type": "function"
    },
    {
      "constant": true,
      "inputs": [
        {
          "name": "name",
          "type": "string"
        }
      ],
      "name": "findNames",
      "outputs": [
        {
          "name": "",
          "type": "uint256[]"
        }
      ],
      "payable": false,
      "stateMutability": "view",
      "type": "function"
    },
    {
      "constant": true,
      "inputs": [
        {
          "name": "categories",
          "type": "uint256"
        }
      ],
      "name": "findTypes",
      "outputs": [
        {
          "name": "",
          "type": "uint256[]"
        }
      ],
      "payable": false,
      "stateMutability": "view",
      "type": "function"
    },
    {
      "constant": true,
      "inputs": [],
      "name": "getNumObjects",
      "outputs": [
        {
          "name": "",
          "type": "uint256"
        }
      ],
      "payable": false,
      "stateMutability": "view",
      "type": "function"
    },
    {
      "constant": true,
      "inputs": [],
      "name": "getObjectIds",
      "outputs": [
        {
          "name": "",
          "type": "uint256[]"
        }
      ],
      "payable": false,
      "stateMutability": "view",
      "type": "function"
    },
    {
      "constant": false,
      "inputs": [
        {
          "name": "objID",
          "type": "uint256"
        }
      ],
      "name": "getObjectIsDelete",
      "outputs": [
        {
          "name": "",
          "type": "bool"
        }
      ],
      "payable": false,
      "stateMutability": "nonpayable",
      "type": "function"
    },
    {
      "constant": false,
      "inputs": [
        {
          "name": "objID",
          "type": "uint256"
        }
      ],
      "name": "getObjectName",
      "outputs": [
        {
          "name": "objName",
          "type": "string"
        }
      ],
      "payable": false,
      "stateMutability": "nonpayable",
      "type": "function"
    },
    {
      "constant": false,
      "inputs": [
        {
          "name": "objID",
          "type": "uint256"
        }
      ],
      "name": "getObjectPhoto",
      "outputs": [
        {
          "name": "",
          "type": "string"
        }
      ],
      "payable": false,
      "stateMutability": "nonpayable",
      "type": "function"
    },
    {
      "constant": true,
      "inputs": [
        {
          "name": "objID",
          "type": "uint256"
        }
      ],
      "name": "getObjectCreator",
      "outputs": [
        {
          "name": "",
          "type": "address"
        }
      ],
      "payable": false,
      "stateMutability": "view",
      "type": "function"
    },
    {
      "constant": true,
      "inputs": [
        {
          "name": "objID",
          "type": "uint256"
        }
      ],
      "name": "getObjectPriceDaily",
      "outputs": [
        {
          "name": "",
          "type": "uint256"
        }
      ],
      "payable": false,
      "stateMutability": "view",
      "type": "function"
    },
    {
      "constant": true,
      "inputs": [
        {
          "name": "objID",
          "type": "uint256"
        }
      ],
      "name": "getObjectDeposit",
      "outputs": [
        {
          "name": "",
          "type": "uint256"
        }
      ],
      "payable": false,
      "stateMutability": "view",
      "type": "function"
    },
    {
      "constant": true,
      "inputs": [
        {
          "name": "objID",
          "type": "uint256"
        }
      ],
      "name": "getObjectRenterAddress",
      "outputs": [
        {
          "name": "",
          "type": "address"
        }
      ],
      "payable": false,
      "stateMutability": "view",
      "type": "function"
    },
    {
      "constant": true,
      "inputs": [
        {
          "name": "objID",
          "type": "uint256"
        }
      ],
      "name": "getObjectRenterSince",
      "outputs": [
        {
          "name": "",
          "type": "uint256"
        }
      ],
      "payable": false,
      "stateMutability": "view",
      "type": "function"
    },
    {
      "constant": true,
      "inputs": [
        {
          "name": "objID",
          "type": "uint256"
        }
      ],
      "name": "getObjectDetail",
      "outputs": [
        {
          "name": "",
          "type": "string"
        }
      ],
      "payable": false,
      "stateMutability": "view",
      "type": "function"
    },
    {
      "constant": true,
      "inputs": [
        {
          "name": "objID",
          "type": "uint256"
        }
      ],
      "name": "getObjectCategories",
      "outputs": [
        {
          "name": "",
          "type": "uint256"
        }
      ],
      "payable": false,
      "stateMutability": "view",
      "type": "function"
    },
    {
      "constant": false,
      "inputs": [],
      "name": "remove",
      "outputs": [],
      "payable": false,
      "stateMutability": "nonpayable",
      "type": "function"
    }
  ],
  "bytecode": "0x6060604052341561000f57600080fd5b33600660006101000a81548173ffffffffffffffffffffffffffffffffffffffff021916908373ffffffffffffffffffffffffffffffffffffffff1602179055506129308061005f6000396000f30060606040526004361061015f576000357c0100000000000000000000000000000000000000000000000000000000900463ffffffff16806304c381151461016457806309691b1a1461018d57806318f84799146101c8578063202c90941461022b578063302bfb91146102c7578063322db2971461035557806334b05db91461037e57806339856060146103ae5780634780c366146103e95780634816a490146104ad5780634bcc08211461055f578063673e86fe1461059657806371236b1a146106005780637ea0c8bd146106235780638da5cb5b146106bf5780638e73a47e14610714578063a7f4377914610812578063ab5c9bb314610827578063ace716ff14610a33578063b4d356ae14610a6a578063bd2b4ea514610b06578063c774e16c14610b7e578063c88ae76314610be1578063dce37ddb14610c6f578063ddbffef414610ca6578063e6adf19714610cdd578063fbd6902614610d0d575b600080fd5b341561016f57600080fd5b610177610d9b565b6040518082815260200191505060405180910390f35b341561019857600080fd5b6101ae6004808035906020019091905050610da1565b604051808215151515815260200191505060405180910390f35b34156101d357600080fd5b6101e96004808035906020019091905050610de0565b604051808273ffffffffffffffffffffffffffffffffffffffff1673ffffffffffffffffffffffffffffffffffffffff16815260200191505060405180910390f35b341561023657600080fd5b61024c6004808035906020019091905050610e35565b6040518080602001828103825283818151815260200191508051906020019080838360005b8381101561028c578082015181840152602081019050610271565b50505050905090810190601f1680156102b95780820380516001836020036101000a031916815260200191505b509250505060405180910390f35b34156102d257600080fd5b6102fe600480803573ffffffffffffffffffffffffffffffffffffffff16906020019091905050610f0b565b6040518080602001828103825283818151815260200191508051906020019060200280838360005b83811015610341578082015181840152602081019050610326565b505050509050019250505060405180910390f35b341561036057600080fd5b610368610fab565b6040518082815260200191505060405180910390f35b6103946004808035906020019091905050610fb5565b604051808215151515815260200191505060405180910390f35b34156103b957600080fd5b6103cf600480803590602001909190505061153a565b604051808215151515815260200191505060405180910390f35b34156103f457600080fd5b6104ab600480803590602001909190803590602001908201803590602001908080601f0160208091040260200160405190810160405280939291908181526020018383808284378201915050505050509190803590602001909190803590602001909190803590602001908201803590602001908080601f01602080910402602001604051908101604052809392919081815260200183838082843782019150505050505091908035906020019091905050611579565b005b34156104b857600080fd5b610508600480803590602001908201803590602001908080601f01602080910402602001604051908101604052809392919081815260200183838082843782019150505050505091905050611698565b6040518080602001828103825283818151815260200191508051906020019060200280838360005b8381101561054b578082015181840152602081019050610530565b505050509050019250505060405180910390f35b341561056a57600080fd5b6105806004808035906020019091905050611764565b6040518082815260200191505060405180910390f35b34156105a157600080fd5b6105a9611796565b6040518080602001828103825283818151815260200191508051906020019060200280838360005b838110156105ec5780820151818401526020810190506105d1565b505050509050019250505060405180910390f35b341561060b57600080fd5b61062160048080359060200190919050506117f4565b005b341561062e57600080fd5b6106446004808035906020019091905050611896565b6040518080602001828103825283818151815260200191508051906020019080838360005b83811015610684578082015181840152602081019050610669565b50505050905090810190601f1680156106b15780820380516001836020036101000a031916815260200191505b509250505060405180910390f35b34156106ca57600080fd5b6106d2611966565b604051808273ffffffffffffffffffffffffffffffffffffffff1673ffffffffffffffffffffffffffffffffffffffff16815260200191505060405180910390f35b341561071f57600080fd5b610810600480803590602001908201803590602001908080601f0160208091040260200160405190810160405280939291908181526020018383808284378201915050505050509190803590602001908201803590602001908080601f0160208091040260200160405190810160405280939291908181526020018383808284378201915050505050509190803590602001909190803590602001909190803590602001908201803590602001908080601f0160208091040260200160405190810160405280939291908181526020018383808284378201915050505050509190803590602001909190505061198c565b005b341561081d57600080fd5b610825611d7b565b005b341561083257600080fd5b6108486004808035906020019091905050611e12565b604051808c73ffffffffffffffffffffffffffffffffffffffff1673ffffffffffffffffffffffffffffffffffffffff16815260200180602001806020018b81526020018a81526020018973ffffffffffffffffffffffffffffffffffffffff1673ffffffffffffffffffffffffffffffffffffffff16815260200188815260200187151515158152602001806020018681526020018515151515815260200184810384528e818151815260200191508051906020019080838360005b83811015610920578082015181840152602081019050610905565b50505050905090810190601f16801561094d5780820380516001836020036101000a031916815260200191505b5084810383528d818151815260200191508051906020019080838360005b8381101561098657808201518184015260208101905061096b565b50505050905090810190601f1680156109b35780820380516001836020036101000a031916815260200191505b50848103825287818151815260200191508051906020019080838360005b838110156109ec5780820151818401526020810190506109d1565b50505050905090810190601f168015610a195780820380516001836020036101000a031916815260200191505b509e50505050505050505050505050505060405180910390f35b3415610a3e57600080fd5b610a546004808035906020019091905050612193565b6040518082815260200191505060405180910390f35b3415610a7557600080fd5b610a8b60048080359060200190919050506121c8565b6040518080602001828103825283818151815260200191508051906020019080838360005b83811015610acb578082015181840152602081019050610ab0565b50505050905090810190601f168015610af85780820380516001836020036101000a031916815260200191505b509250505060405180910390f35b3415610b1157600080fd5b610b276004808035906020019091905050612298565b6040518080602001828103825283818151815260200191508051906020019060200280838360005b83811015610b6a578082015181840152602081019050610b4f565b505050509050019250505060405180910390f35b3415610b8957600080fd5b610b9f600480803590602001909190505061230c565b604051808273ffffffffffffffffffffffffffffffffffffffff1673ffffffffffffffffffffffffffffffffffffffff16815260200191505060405180910390f35b3415610bec57600080fd5b610c18600480803573ffffffffffffffffffffffffffffffffffffffff1690602001909190505061235e565b6040518080602001828103825283818151815260200191508051906020019060200280838360005b83811015610c5b578082015181840152602081019050610c40565b505050509050019250505060405180910390f35b3415610c7a57600080fd5b610c9060048080359060200190919050506123fe565b6040518082815260200191505060405180910390f35b3415610cb157600080fd5b610cc76004808035906020019091905050612430565b6040518082815260200191505060405180910390f35b610cf36004808035906020019091905050612462565b604051808215151515815260200191505060405180910390f35b3415610d1857600080fd5b610d44600480803573ffffffffffffffffffffffffffffffffffffffff1690602001909190505061276b565b6040518080602001828103825283818151815260200191508051906020019060200280838360005b83811015610d87578082015181840152602081019050610d6c565b505050509050019250505060405180910390f35b60015481565b60008160015481101515610db457600080fd5b60026000848152602001908152602001600020600a0160009054906101000a900460ff16915050919050565b60008160015481101515610df357600080fd5b6002600084815260200190815260200160002060050160000160009054906101000a900473ffffffffffffffffffffffffffffffffffffffff16915050919050565b610e3d61280b565b60008260015481101515610e5057600080fd5b600260008581526020019081526020016000209150816002018054600181600116156101000203166002900480601f016020809104026020016040519081016040528092919081815260200182805460018160011615610100020316600290048015610efd5780601f10610ed257610100808354040283529160200191610efd565b820191906000526020600020905b815481529060010190602001808311610ee057829003601f168201915b505050505092505050919050565b610f1361281f565b600360008373ffffffffffffffffffffffffffffffffffffffff1673ffffffffffffffffffffffffffffffffffffffff168152602001908152602001600020600001805480602002602001604051908101604052809291908181526020018280548015610f9f57602002820191906000526020600020905b815481526020019060010190808311610f8b575b50505050509050919050565b6000600154905090565b6000808260015481101515610fc957600080fd5b610fd28461153a565b80610ff25750600260008581526020019081526020016000206004015434105b8061105e57506002600085815260200190815260200160002060000160009054906101000a900473ffffffffffffffffffffffffffffffffffffffff1673ffffffffffffffffffffffffffffffffffffffff163373ffffffffffffffffffffffffffffffffffffffff16145b1561106857600080fd5b60408051908101604052803373ffffffffffffffffffffffffffffffffffffffff168152602001428152506002600086815260200190815260200160002060050160008201518160000160006101000a81548173ffffffffffffffffffffffffffffffffffffffff021916908373ffffffffffffffffffffffffffffffffffffffff160217905550602082015181600101559050506002600085815260200190815260200160002060040154340391506002600085815260200190815260200160002060050160000160009054906101000a900473ffffffffffffffffffffffffffffffffffffffff1673ffffffffffffffffffffffffffffffffffffffff166108fc839081150290604051600060405180830381858888f19350505050151561119157600080fd5b60016002600086815260200190815260200160002060070160006101000a81548160ff021916908315150217905550600360003373ffffffffffffffffffffffffffffffffffffffff1673ffffffffffffffffffffffffffffffffffffffff16815260200190815260200160002060010180548060010182816112149190612833565b916000526020600020900160008690919091505550600360003373ffffffffffffffffffffffffffffffffffffffff1673ffffffffffffffffffffffffffffffffffffffff168152602001908152602001600020600201805480600101828161127d9190612833565b9160005260206000209001600042909190915055507fce344edbd316937aa99334d1687ff2f4dbcfd5b9141fb70caef20b469196dd2f846002600087815260200190815260200160002060000160009054906101000a900473ffffffffffffffffffffffffffffffffffffffff166002600088815260200190815260200160002060050160000160009054906101000a900473ffffffffffffffffffffffffffffffffffffffff1660026000898152602001908152602001600020600101600260008a8152602001908152602001600020600201600260008b815260200190815260200160002060030154600260008c815260200190815260200160002060040154600142604051808a81526020018973ffffffffffffffffffffffffffffffffffffffff1673ffffffffffffffffffffffffffffffffffffffff1681526020018873ffffffffffffffffffffffffffffffffffffffff1673ffffffffffffffffffffffffffffffffffffffff1681526020018060200180602001878152602001868152602001851515151581526020018481526020018381038352898181546001816001161561010002031660029004815260200191508054600181600116156101000203166002900480156114955780601f1061146a57610100808354040283529160200191611495565b820191906000526020600020905b81548152906001019060200180831161147857829003601f168201915b50508381038252888181546001816001161561010002031660029004815260200191508054600181600116156101000203166002900480156115185780601f106114ed57610100808354040283529160200191611518565b820191906000526020600020905b8154815290600101906020018083116114fb57829003601f168201915b50509b50505050505050505050505060405180910390a1600192505050919050565b6000816001548110151561154d57600080fd5b6002600084815260200190815260200160002060070160009054906101000a900460ff16915050919050565b3373ffffffffffffffffffffffffffffffffffffffff166002600088815260200190815260200160002060000160009054906101000a900473ffffffffffffffffffffffffffffffffffffffff1673ffffffffffffffffffffffffffffffffffffffff161415156115e957600080fd5b8460026000888152602001908152602001600020600201908051906020019061161392919061285f565b508360026000888152602001908152602001600020600301819055508260026000888152602001908152602001600020600401819055508160026000888152602001908152602001600020600801908051906020019061167492919061285f565b50806002600088815260200190815260200160002060090181905550505050505050565b6116a061281f565b6004826040518082805190602001908083835b6020831015156116d857805182526020820191506020810190506020830392506116b3565b6001836020036101000a038019825116818451168082178552505050505050905001915050908152602001604051809103902060000180548060200260200160405190810160405280929190818152602001828054801561175857602002820191906000526020600020905b815481526020019060010190808311611744575b50505050509050919050565b6000816001548110151561177757600080fd5b6002600084815260200190815260200160002060090154915050919050565b61179e61281f565b60008054806020026020016040519081016040528092919081815260200182805480156117ea57602002820191906000526020600020905b8154815260200190600101908083116117d6575b5050505050905090565b3373ffffffffffffffffffffffffffffffffffffffff166002600083815260200190815260200160002060000160009054906101000a900473ffffffffffffffffffffffffffffffffffffffff1673ffffffffffffffffffffffffffffffffffffffff1614151561186457600080fd5b600160026000838152602001908152602001600020600a0160006101000a81548160ff02191690831515021790555050565b61189e61280b565b81600154811015156118af57600080fd5b600260008481526020019081526020016000206008018054600181600116156101000203166002900480601f0160208091040260200160405190810160405280929190818152602001828054600181600116156101000203166002900480156119595780601f1061192e57610100808354040283529160200191611959565b820191906000526020600020905b81548152906001019060200180831161193c57829003601f168201915b5050505050915050919050565b600660009054906101000a900473ffffffffffffffffffffffffffffffffffffffff1681565b600060026000600154815260200190815260200160002090506004866040518082805190602001908083835b6020831015156119dd57805182526020820191506020810190506020830392506119b8565b6001836020036101000a03801982511681845116808217855250505050505090500191505090815260200160405180910390206000018054806001018281611a259190612833565b9160005260206000209001600060015490919091505550600560008381526020019081526020016000206000018054806001018281611a649190612833565b9160005260206000209001600060015490919091505550338160000160006101000a81548173ffffffffffffffffffffffffffffffffffffffff021916908373ffffffffffffffffffffffffffffffffffffffff16021790555086816001019080519060200190611ad692919061285f565b5085816002019080519060200190611aef92919061285f565b5084816003018190555083816004018190555060008160070160006101000a81548160ff02191690831515021790555082816008019080519060200190611b3792919061285f565b50818160090181905550600081600a0160006101000a81548160ff021916908315150217905550600360003373ffffffffffffffffffffffffffffffffffffffff1673ffffffffffffffffffffffffffffffffffffffff1681526020019081526020016000206000018054806001018281611bb29190612833565b91600052602060002090016000600154909190915055507fc22ed5329be821c9670587c04896e4c053d6cc17f47c65192ad707b818c63c606001543389898989886000604051808981526020018873ffffffffffffffffffffffffffffffffffffffff1673ffffffffffffffffffffffffffffffffffffffff168152602001806020018060200187815260200186815260200185815260200184151515158152602001838103835289818151815260200191508051906020019080838360005b83811015611c8d578082015181840152602081019050611c72565b50505050905090810190601f168015611cba5780820380516001836020036101000a031916815260200191505b50838103825288818151815260200191508051906020019080838360005b83811015611cf3578082015181840152602081019050611cd8565b50505050905090810190601f168015611d205780820380516001836020036101000a031916815260200191505b509a505050505050505050505060405180910390a160008054806001018281611d499190612833565b916000526020600020900160006001549091909150555060016000815480929190600101919050555050505050505050565b600660009054906101000a900473ffffffffffffffffffffffffffffffffffffffff1673ffffffffffffffffffffffffffffffffffffffff163373ffffffffffffffffffffffffffffffffffffffff16141515611dd757600080fd5b600660009054906101000a900473ffffffffffffffffffffffffffffffffffffffff1673ffffffffffffffffffffffffffffffffffffffff16ff5b6000611e1c61280b565b611e2461280b565b6000806000806000611e3461280b565b6000808b60015481101515611e4857600080fd5b600260008e815260200190815260200160002060000160009054906101000a900473ffffffffffffffffffffffffffffffffffffffff169b50600260008e81526020019081526020016000206001018054600181600116156101000203166002900480601f016020809104026020016040519081016040528092919081815260200182805460018160011615610100020316600290048015611f2b5780601f10611f0057610100808354040283529160200191611f2b565b820191906000526020600020905b815481529060010190602001808311611f0e57829003601f168201915b50505050509a50600260008e81526020019081526020016000206002018054600181600116156101000203166002900480601f016020809104026020016040519081016040528092919081815260200182805460018160011615610100020316600290048015611fdc5780601f10611fb157610100808354040283529160200191611fdc565b820191906000526020600020905b815481529060010190602001808311611fbf57829003601f168201915b50505050509950600260008e8152602001908152602001600020600301549850600260008e8152602001908152602001600020600401549750600260008e815260200190815260200160002060050160000160009054906101000a900473ffffffffffffffffffffffffffffffffffffffff169650600260008e8152602001908152602001600020600501600101549550600260008e815260200190815260200160002060070160009054906101000a900460ff169450600260008e81526020019081526020016000206008018054600181600116156101000203166002900480601f01602080910402602001604051908101604052809291908181526020018280546001816001161561010002031660029004801561213d5780601f106121125761010080835404028352916020019161213d565b820191906000526020600020905b81548152906001019060200180831161212057829003601f168201915b50505050509350600260008e8152602001908152602001600020600901549250600260008e8152602001908152602001600020600a0160009054906101000a900460ff1691505091939597999b90929496989a50565b600081600154811015156121a657600080fd5b6002600084815260200190815260200160002060050160010154915050919050565b6121d061280b565b81600154811015156121e157600080fd5b600260008481526020019081526020016000206001018054600181600116156101000203166002900480601f01602080910402602001604051908101604052809291908181526020018280546001816001161561010002031660029004801561228b5780601f106122605761010080835404028352916020019161228b565b820191906000526020600020905b81548152906001019060200180831161226e57829003601f168201915b5050505050915050919050565b6122a061281f565b6005600083815260200190815260200160002060000180548060200260200160405190810160405280929190818152602001828054801561230057602002820191906000526020600020905b8154815260200190600101908083116122ec575b50505050509050919050565b6000816001548110151561231f57600080fd5b6002600084815260200190815260200160002060000160009054906101000a900473ffffffffffffffffffffffffffffffffffffffff16915050919050565b61236661281f565b600360008373ffffffffffffffffffffffffffffffffffffffff1673ffffffffffffffffffffffffffffffffffffffff1681526020019081526020016000206002018054806020026020016040519081016040528092919081815260200182805480156123f257602002820191906000526020600020905b8154815260200190600101908083116123de575b50505050509050919050565b6000816001548110151561241157600080fd5b6002600084815260200190815260200160002060040154915050919050565b6000816001548110151561244357600080fd5b6002600084815260200190815260200160002060030154915050919050565b6000806000836001548110151561247857600080fd5b6002600086815260200190815260200160002060070160009054906101000a900460ff1615156124a757600080fd5b3373ffffffffffffffffffffffffffffffffffffffff166002600087815260200190815260200160002060050160000160009054906101000a900473ffffffffffffffffffffffffffffffffffffffff1673ffffffffffffffffffffffffffffffffffffffff1614151561251a57600080fd5b620151806002600087815260200190815260200160002060050160010154420381151561254357fe5b0492506002600086815260200190815260200160002060030154830291506002600086815260200190815260200160002060000160009054906101000a900473ffffffffffffffffffffffffffffffffffffffff1673ffffffffffffffffffffffffffffffffffffffff166108fc839081150290604051600060405180830381858888f1935050505015156125d757600080fd5b6002600086815260200190815260200160002060050160000160009054906101000a900473ffffffffffffffffffffffffffffffffffffffff1673ffffffffffffffffffffffffffffffffffffffff166108fc836002600089815260200190815260200160002060040154039081150290604051600060405180830381858888f19350505050151561266857600080fd5b60026000868152602001908152602001600020600501600080820160006101000a81549073ffffffffffffffffffffffffffffffffffffffff02191690556001820160009055505060006002600087815260200190815260200160002060070160006101000a81548160ff0219169083151502179055507f0a3d7493603aa7b085d6b77670c5b85cbc0367742d203f31155351564948c0868533600042604051808581526020018473ffffffffffffffffffffffffffffffffffffffff1673ffffffffffffffffffffffffffffffffffffffff1681526020018315151515815260200182815260200194505050505060405180910390a160019350505050919050565b61277361281f565b600360008373ffffffffffffffffffffffffffffffffffffffff1673ffffffffffffffffffffffffffffffffffffffff1681526020019081526020016000206001018054806020026020016040519081016040528092919081815260200182805480156127ff57602002820191906000526020600020905b8154815260200190600101908083116127eb575b50505050509050919050565b602060405190810160405280600081525090565b602060405190810160405280600081525090565b81548183558181151161285a5781836000526020600020918201910161285991906128df565b5b505050565b828054600181600116156101000203166002900490600052602060002090601f016020900481019282601f106128a057805160ff19168380011785556128ce565b828001600101855582156128ce579182015b828111156128cd5782518255916020019190600101906128b2565b5b5090506128db91906128df565b5090565b61290191905b808211156128fd5760008160009055506001016128e5565b5090565b905600a165627a7a723058205a1db3106baa28cb8cb083ca01219f612d585c90319eedfe1e00f51693857c250029",
  "source": "pragma solidity ^0.4.19;\n\ncontract ShareApp{\n\n\tstruct user{\n\t\tuint[] object_rent;\n\t\tuint[] object_rented;\n\t\tuint[] object_rentedTime;\n\t}\n\n\tstruct Renter{\n\t\taddress addr;\n\t\tuint since;\n\t}\n\n\tstruct Object{\n\t\taddress creator; // +\n\t\tstring photo;\n\t\tstring name;\n\t\tuint priceDaily;\n\t\tuint deposit;\n\t\tRenter renter;\n\t\tbool rented;  //rented ?\n\t\tstring detail;\n\t\tuint categories;\n\t\tbool isDelete;\n\t}\n\n\tstruct NameKey{ // storage the name's keys\n\t\tuint[] keys;\n\t}\n\n\tstruct TypeKey{\n\t\tuint[] keys;\n\t}\n\n\t//List of objects\n\tuint[] private ids;  //Use it to return the ids of Objects\n\tuint public numObjects;\n\tmapping(uint => Object) private objects;\n\tmapping(address => user) private users;\n\tmapping(string => NameKey) private nameToKeys;\n\tmapping(uint => TypeKey) private typeToKeys;\n\t// mapping(address => uint) public balances;\n\n\taddress public owner;\n\n\t//Events\n\tevent NewObject(uint _objID, address _creator, string _photo, string _name, uint _priceDaily, uint _deposit, uint categories, bool _rented);\n\tevent NewRent(uint _objID, address _creator, address _renter, string _photo, string _name, uint _priceDaily, uint _deposit, bool _rented, uint _createAt);\n\tevent NewReturn(uint _objID, address _renter, bool _rented, uint _createAt);\n\n\tmodifier objectInRange(uint objID) {\n\t\tif (objID >= numObjects)\n\t\t\tthrow;\n\t\t_;\n\t}\n\n\tmodifier onlyOwner(){\n\t\tif(msg.sender != owner){\n\t\t\tthrow;\n\t\t}\n\t\t_;\n\t}\n\n\t/*\n\t* Functions\n\t*/\n\tfunction ShareApp(){\n\t\towner = msg.sender;\n\t}\n\n\tfunction objectIsRented(uint objID) objectInRange(objID) returns (bool){\n\t\treturn objects[objID].rented;\n\t}\n\n\tfunction createObj(string photo, string name,uint priceDaily,uint deposit,string detail, uint categories){\n\t\t// +\n\t\t//owner = msg.sender;\n\t\t// Object newObject = objects[numObjects];\n\t\tObject  newObject = objects[numObjects];\n\t\tnameToKeys[name].keys.push(numObjects); //add the key to the name's keys\n\t\ttypeToKeys[categories].keys.push(numObjects);\n\t\tnewObject.creator = msg.sender;\n\t\tnewObject.photo = photo;\n\t\tnewObject.name = name;\n\t\tnewObject.priceDaily = priceDaily;\n\t\tnewObject.deposit = deposit;\n\t\tnewObject.rented = false;\n\t\tnewObject.detail = detail;\n\t\tnewObject.categories = categories;\n\t\tnewObject.isDelete = false;\n\t\tusers[msg.sender].object_rent.push(numObjects);\n\t\t// objects[numObjects] = newObject;\n\t\tNewObject(numObjects, msg.sender, photo, name, priceDaily, deposit, categories, false);\n\t\tids.push(numObjects);\n\t\tnumObjects++;\n\t}\n\n\tfunction getObj(uint objID) constant objectInRange(objID)\n\treturns(\n\t\taddress creator,//0\n\t\tstring photo,//1\n\t\tstring name,//2\n\t\tuint priceDaily,//3\n\t\tuint deposit,//4\n\t\taddress renterAddress,//5\n\t\tuint renterSince,//6\n\t\tbool rented,//7\n\t\tstring detail,//8\n\t\tuint categories,//9\n\t\tbool isDelete\n\t)\n\t{\n\t\tcreator = objects[objID].creator;\n\t\tphoto = objects[objID].photo;\n\t\tname = objects[objID].name;\n\t\tpriceDaily = objects[objID].priceDaily;\n\t\tdeposit = objects[objID].deposit;\n\t\trenterAddress = objects[objID].renter.addr;\n\t\trenterSince = objects[objID].renter.since;\n\t\trented = objects[objID].rented;\n\t\tdetail = objects[objID].detail;\n\t\tcategories = objects[objID].categories;\n\t\tisDelete = objects[objID].isDelete;\n\t}\n\n\t// function getObject(uint objID) constant objectInRange(objID)\n\t// \treturns(Object object)\n\t// {\n\t// \tobject = objects[objID];\n\t// }\n\n\tfunction rentObj(uint objID) payable objectInRange(objID) returns(bool){\n\t\tif(objectIsRented(objID) || msg.value < objects[objID].deposit || msg.sender == objects[objID].creator){\n\t\t\tthrow;\n\t\t}\n\t\tobjects[objID].renter = Renter({addr:msg.sender, since:now});  //record the info of the renter\n\t\tuint rest = msg.value - objects[objID].deposit;  //deposit\n\t\tif(!objects[objID].renter.addr.send(rest)){   // return the rest balance\n\t\t\tthrow;\n\t\t}\n\t\tobjects[objID].rented = true;\n\t\tusers[msg.sender].object_rented.push(objID);\n\t\tusers[msg.sender].object_rentedTime.push(now);\n\t\tNewRent(objID, objects[objID].creator, objects[objID].renter.addr, objects[objID].photo, objects[objID].name, objects[objID].priceDaily, objects[objID].deposit, true, now);\n\t\treturn true;\n\t}\n\n\tfunction returnObj(uint objID) payable objectInRange(objID) returns (bool){\n\t\tif(!objects[objID].rented){\n\t\t\tthrow;\n\t\t}\n\t\tif(objects[objID].renter.addr != msg.sender){\n\t\t\tthrow;\n\t\t}\n\t\tuint duration = (now - objects[objID].renter.since) / (24*60*60*1.0);\n\t\tuint charge = duration * objects[objID].priceDaily;\n\t\t// uint days = (duration / (24*60*60*1.0));\n\t\t// uint charge = days * objects[objID].priceDaily;\n\t\tif(!objects[objID].creator.send(charge)){\n\t\t\tthrow;\n\t\t}\n\t\tif(!objects[objID].renter.addr.send(objects[objID].deposit - charge)){\n\t\t\tthrow;\n\t\t}\n\t\tdelete objects[objID].renter;\n\t\tobjects[objID].rented = false;\n\t\tNewReturn(objID, msg.sender, false, now);\n\t\treturn true;\n\t}\n\n\tfunction modifyObject(uint objID,string name,uint priceDaily,uint deposit,string detail, uint categories) public{\n\t\trequire(objects[objID].creator == msg.sender);\n\t\tobjects[objID].name = name;\n\t\tobjects[objID].priceDaily = priceDaily;\n\t\tobjects[objID].deposit = deposit;\n\t\tobjects[objID].detail = detail;\n\t\tobjects[objID].categories = categories;\n\t}\n\n\tfunction deleteObject(uint objID) public{\n\t\trequire(objects[objID].creator == msg.sender);\n\t\tobjects[objID].isDelete = true;\n\t}\n\n\tfunction getUserRent(address user) constant returns(uint[]){\n\t\treturn users[user].object_rent;\n\t}\n\n\tfunction getUserRented(address user) constant returns(uint[]){\n\t\treturn users[user].object_rented;\n\t}\n\n\tfunction getUserRentedTime(address user) constant returns(uint[]){\n\t\treturn users[user].object_rentedTime;\n\t}\n\n\tfunction findNames(string name) constant returns(uint[]){\n\t\treturn nameToKeys[name].keys;\n\t}\n\n\tfunction findTypes(uint categories) constant returns(uint[]) {\n\t\treturn typeToKeys[categories].keys;\n\t}\n\n\tfunction getNumObjects() constant returns(uint){\n\t\treturn numObjects;\n\t}\n\n\tfunction getObjectIds() constant returns(uint[]){\n\t\treturn ids;\n\t}\n\n\tfunction getObjectIsDelete(uint objID) objectInRange(objID) returns(bool){\n\t\treturn objects[objID].isDelete;\n\t}\n\n\tfunction getObjectName(uint objID) objectInRange(objID) returns(string objName){\n\t\tvar obj = objects[objID];\n\t\tobjName = obj.name;\n\t}\n\n\tfunction getObjectPhoto(uint objID) objectInRange(objID) returns(string){\n\t\treturn objects[objID].photo;\n\t}\n\n\tfunction getObjectCreator(uint objID) constant objectInRange(objID) returns(address){\n\t\treturn objects[objID].creator;\n\t}\n\n\tfunction getObjectPriceDaily(uint objID) constant objectInRange(objID) returns(uint){\n\t\treturn objects[objID].priceDaily;\n\t}\n\n\tfunction getObjectDeposit(uint objID) constant objectInRange(objID) returns(uint){\n\t\treturn objects[objID].deposit;\n\t}\n\n\tfunction getObjectRenterAddress(uint objID) constant objectInRange(objID) returns(address){\n\t\treturn objects[objID].renter.addr;\n\t}\n\n\tfunction getObjectRenterSince(uint objID) constant objectInRange(objID) returns(uint){\n\t\treturn objects[objID].renter.since;\n\t}\n\n\tfunction getObjectDetail(uint objID) constant objectInRange(objID) returns(string){\n\t\treturn objects[objID].detail;\n\t}\n\n\tfunction getObjectCategories(uint objID) constant objectInRange(objID) returns(uint){\n\t\treturn objects[objID].categories;\n\t}\n\n\tfunction remove() onlyOwner {\n\t\tselfdestruct(owner);\n\t\t// suicide(owner);\n\t}\n}\n",
  "sourcePath": "/Users/steveniiv/Test/Market-DApp/contracts/ShareApp.sol",
  "compiler": {
    "name": "solc",
    "version": "0.4.19+commit.c4cbbb05.Emscripten.clang"
  },
  "schemaVersion": "3.0.19",
  "updatedAt": "2020-03-05T16:32:29.928Z",
  "networkType": "ethereum",
  "devdoc": {
    "methods": {}
  },
  "userdoc": {
    "methods": {}
  }
}