{
  "contractName": "ShareApp",
  "abi": [
    {
      "constant": true,
      "inputs": [],
      "name": "numObjects",
      "outputs": [
        {
          "name": "",
          "type": "uint256"
        }
      ],
      "payable": false,
      "stateMutability": "view",
      "type": "function"
    },
    {
      "constant": true,
      "inputs": [],
      "name": "owner",
      "outputs": [
        {
          "name": "",
          "type": "address"
        }
      ],
      "payable": false,
      "stateMutability": "view",
      "type": "function"
    },
    {
      "inputs": [],
      "payable": false,
      "stateMutability": "nonpayable",
      "type": "constructor"
    },
    {
      "anonymous": false,
      "inputs": [
        {
          "indexed": false,
          "name": "_objID",
          "type": "uint256"
        },
        {
          "indexed": false,
          "name": "_creator",
          "type": "address"
        },
        {
          "indexed": false,
          "name": "_photo",
          "type": "string"
        },
        {
          "indexed": false,
          "name": "_name",
          "type": "string"
        },
        {
          "indexed": false,
          "name": "_priceDaily",
          "type": "uint256"
        },
        {
          "indexed": false,
          "name": "_deposit",
          "type": "uint256"
        },
        {
          "indexed": false,
          "name": "categories",
          "type": "uint256"
        },
        {
          "indexed": false,
          "name": "_rented",
          "type": "bool"
        }
      ],
      "name": "NewObject",
      "type": "event"
    },
    {
      "anonymous": false,
      "inputs": [
        {
          "indexed": false,
          "name": "_objID",
          "type": "uint256"
        },
        {
          "indexed": false,
          "name": "_creator",
          "type": "address"
        },
        {
          "indexed": false,
          "name": "_renter",
          "type": "address"
        },
        {
          "indexed": false,
          "name": "_photo",
          "type": "string"
        },
        {
          "indexed": false,
          "name": "_name",
          "type": "string"
        },
        {
          "indexed": false,
          "name": "_priceDaily",
          "type": "uint256"
        },
        {
          "indexed": false,
          "name": "_deposit",
          "type": "uint256"
        },
        {
          "indexed": false,
          "name": "_rented",
          "type": "bool"
        },
        {
          "indexed": false,
          "name": "_createAt",
          "type": "uint256"
        }
      ],
      "name": "NewRent",
      "type": "event"
    },
    {
      "anonymous": false,
      "inputs": [
        {
          "indexed": false,
          "name": "_objID",
          "type": "uint256"
        },
        {
          "indexed": false,
          "name": "_renter",
          "type": "address"
        },
        {
          "indexed": false,
          "name": "_rented",
          "type": "bool"
        },
        {
          "indexed": false,
          "name": "_createAt",
          "type": "uint256"
        }
      ],
      "name": "NewReturn",
      "type": "event"
    },
    {
      "constant": false,
      "inputs": [
        {
          "name": "objID",
          "type": "uint256"
        }
      ],
      "name": "objectIsRented",
      "outputs": [
        {
          "name": "",
          "type": "bool"
        }
      ],
      "payable": false,
      "stateMutability": "nonpayable",
      "type": "function"
    },
    {
      "constant": false,
      "inputs": [
        {
          "name": "photo",
          "type": "string"
        },
        {
          "name": "name",
          "type": "string"
        },
        {
          "name": "priceDaily",
          "type": "uint256"
        },
        {
          "name": "deposit",
          "type": "uint256"
        },
        {
          "name": "detail",
          "type": "string"
        },
        {
          "name": "categories",
          "type": "uint256"
        }
      ],
      "name": "createObj",
      "outputs": [],
      "payable": false,
      "stateMutability": "nonpayable",
      "type": "function"
    },
    {
      "constant": true,
      "inputs": [
        {
          "name": "objID",
          "type": "uint256"
        }
      ],
      "name": "getObj",
      "outputs": [
        {
          "name": "creator",
          "type": "address"
        },
        {
          "name": "photo",
          "type": "string"
        },
        {
          "name": "name",
          "type": "string"
        },
        {
          "name": "priceDaily",
          "type": "uint256"
        },
        {
          "name": "deposit",
          "type": "uint256"
        },
        {
          "name": "renterAddress",
          "type": "address"
        },
        {
          "name": "renterSince",
          "type": "uint256"
        },
        {
          "name": "rented",
          "type": "bool"
        },
        {
          "name": "detail",
          "type": "string"
        },
        {
          "name": "categories",
          "type": "uint256"
        }
      ],
      "payable": false,
      "stateMutability": "view",
      "type": "function"
    },
    {
      "constant": false,
      "inputs": [
        {
          "name": "objID",
          "type": "uint256"
        }
      ],
      "name": "rentObj",
      "outputs": [
        {
          "name": "",
          "type": "bool"
        }
      ],
      "payable": true,
      "stateMutability": "payable",
      "type": "function"
    },
    {
      "constant": false,
      "inputs": [
        {
          "name": "objID",
          "type": "uint256"
        }
      ],
      "name": "returnObj",
      "outputs": [
        {
          "name": "",
          "type": "bool"
        }
      ],
      "payable": true,
      "stateMutability": "payable",
      "type": "function"
    },
    {
      "constant": true,
      "inputs": [
        {
          "name": "user",
          "type": "address"
        }
      ],
      "name": "getUserRent",
      "outputs": [
        {
          "name": "",
          "type": "uint256[]"
        }
      ],
      "payable": false,
      "stateMutability": "view",
      "type": "function"
    },
    {
      "constant": true,
      "inputs": [
        {
          "name": "user",
          "type": "address"
        }
      ],
      "name": "getUserRented",
      "outputs": [
        {
          "name": "",
          "type": "uint256[]"
        }
      ],
      "payable": false,
      "stateMutability": "view",
      "type": "function"
    },
    {
      "constant": true,
      "inputs": [
        {
          "name": "name",
          "type": "string"
        }
      ],
      "name": "findNames",
      "outputs": [
        {
          "name": "",
          "type": "uint256[]"
        }
      ],
      "payable": false,
      "stateMutability": "view",
      "type": "function"
    },
    {
      "constant": true,
      "inputs": [
        {
          "name": "categories",
          "type": "uint256"
        }
      ],
      "name": "findTypes",
      "outputs": [
        {
          "name": "",
          "type": "uint256[]"
        }
      ],
      "payable": false,
      "stateMutability": "view",
      "type": "function"
    },
    {
      "constant": true,
      "inputs": [],
      "name": "getNumObjects",
      "outputs": [
        {
          "name": "",
          "type": "uint256"
        }
      ],
      "payable": false,
      "stateMutability": "view",
      "type": "function"
    },
    {
      "constant": true,
      "inputs": [],
      "name": "getObjectIds",
      "outputs": [
        {
          "name": "",
          "type": "uint256[]"
        }
      ],
      "payable": false,
      "stateMutability": "view",
      "type": "function"
    },
    {
      "constant": false,
      "inputs": [
        {
          "name": "objID",
          "type": "uint256"
        }
      ],
      "name": "getObjectName",
      "outputs": [
        {
          "name": "objName",
          "type": "string"
        }
      ],
      "payable": false,
      "stateMutability": "nonpayable",
      "type": "function"
    },
    {
      "constant": false,
      "inputs": [
        {
          "name": "objID",
          "type": "uint256"
        }
      ],
      "name": "getObjectPhoto",
      "outputs": [
        {
          "name": "",
          "type": "string"
        }
      ],
      "payable": false,
      "stateMutability": "nonpayable",
      "type": "function"
    },
    {
      "constant": true,
      "inputs": [
        {
          "name": "objID",
          "type": "uint256"
        }
      ],
      "name": "getObjectCreator",
      "outputs": [
        {
          "name": "",
          "type": "address"
        }
      ],
      "payable": false,
      "stateMutability": "view",
      "type": "function"
    },
    {
      "constant": true,
      "inputs": [
        {
          "name": "objID",
          "type": "uint256"
        }
      ],
      "name": "getObjectPriceDaily",
      "outputs": [
        {
          "name": "",
          "type": "uint256"
        }
      ],
      "payable": false,
      "stateMutability": "view",
      "type": "function"
    },
    {
      "constant": true,
      "inputs": [
        {
          "name": "objID",
          "type": "uint256"
        }
      ],
      "name": "getObjectDeposit",
      "outputs": [
        {
          "name": "",
          "type": "uint256"
        }
      ],
      "payable": false,
      "stateMutability": "view",
      "type": "function"
    },
    {
      "constant": true,
      "inputs": [
        {
          "name": "objID",
          "type": "uint256"
        }
      ],
      "name": "getObjectRenterAddress",
      "outputs": [
        {
          "name": "",
          "type": "address"
        }
      ],
      "payable": false,
      "stateMutability": "view",
      "type": "function"
    },
    {
      "constant": true,
      "inputs": [
        {
          "name": "objID",
          "type": "uint256"
        }
      ],
      "name": "getObjectRenterSince",
      "outputs": [
        {
          "name": "",
          "type": "uint256"
        }
      ],
      "payable": false,
      "stateMutability": "view",
      "type": "function"
    },
    {
      "constant": true,
      "inputs": [
        {
          "name": "objID",
          "type": "uint256"
        }
      ],
      "name": "getObjectDetail",
      "outputs": [
        {
          "name": "",
          "type": "string"
        }
      ],
      "payable": false,
      "stateMutability": "view",
      "type": "function"
    },
    {
      "constant": true,
      "inputs": [
        {
          "name": "objID",
          "type": "uint256"
        }
      ],
      "name": "getObjectCategories",
      "outputs": [
        {
          "name": "",
          "type": "uint256"
        }
      ],
      "payable": false,
      "stateMutability": "view",
      "type": "function"
    },
    {
      "constant": false,
      "inputs": [],
      "name": "remove",
      "outputs": [],
      "payable": false,
      "stateMutability": "nonpayable",
      "type": "function"
    }
  ],
  "bytecode": "0x6060604052341561000f57600080fd5b33600660006101000a81548173ffffffffffffffffffffffffffffffffffffffff021916908373ffffffffffffffffffffffffffffffffffffffff1602179055506123fa8061005f6000396000f300606060405260043610610133576000357c0100000000000000000000000000000000000000000000000000000000900463ffffffff16806304c381151461013857806318f8479914610161578063202c9094146101c4578063302bfb9114610260578063322db297146102ee57806334b05db91461031757806339856060146103475780634816a490146103825780634bcc082114610434578063673e86fe1461046b5780637ea0c8bd146104d55780638da5cb5b146105715780638e73a47e146105c6578063a7f43779146106c4578063ab5c9bb3146106d9578063ace716ff146108da578063b4d356ae14610911578063bd2b4ea5146109ad578063c774e16c14610a25578063dce37ddb14610a88578063ddbffef414610abf578063e6adf19714610af6578063fbd6902614610b26575b600080fd5b341561014357600080fd5b61014b610bb4565b6040518082815260200191505060405180910390f35b341561016c57600080fd5b6101826004808035906020019091905050610bba565b604051808273ffffffffffffffffffffffffffffffffffffffff1673ffffffffffffffffffffffffffffffffffffffff16815260200191505060405180910390f35b34156101cf57600080fd5b6101e56004808035906020019091905050610c0f565b6040518080602001828103825283818151815260200191508051906020019080838360005b8381101561022557808201518184015260208101905061020a565b50505050905090810190601f1680156102525780820380516001836020036101000a031916815260200191505b509250505060405180910390f35b341561026b57600080fd5b610297600480803573ffffffffffffffffffffffffffffffffffffffff16906020019091905050610ce5565b6040518080602001828103825283818151815260200191508051906020019060200280838360005b838110156102da5780820151818401526020810190506102bf565b505050509050019250505060405180910390f35b34156102f957600080fd5b610301610d85565b6040518082815260200191505060405180910390f35b61032d6004808035906020019091905050610d8f565b604051808215151515815260200191505060405180910390f35b341561035257600080fd5b61036860048080359060200190919050506112ab565b604051808215151515815260200191505060405180910390f35b341561038d57600080fd5b6103dd600480803590602001908201803590602001908080601f016020809104026020016040519081016040528093929190818152602001838380828437820191505050505050919050506112ea565b6040518080602001828103825283818151815260200191508051906020019060200280838360005b83811015610420578082015181840152602081019050610405565b505050509050019250505060405180910390f35b341561043f57600080fd5b61045560048080359060200190919050506113b6565b6040518082815260200191505060405180910390f35b341561047657600080fd5b61047e6113e8565b6040518080602001828103825283818151815260200191508051906020019060200280838360005b838110156104c15780820151818401526020810190506104a6565b505050509050019250505060405180910390f35b34156104e057600080fd5b6104f66004808035906020019091905050611446565b6040518080602001828103825283818151815260200191508051906020019080838360005b8381101561053657808201518184015260208101905061051b565b50505050905090810190601f1680156105635780820380516001836020036101000a031916815260200191505b509250505060405180910390f35b341561057c57600080fd5b610584611516565b604051808273ffffffffffffffffffffffffffffffffffffffff1673ffffffffffffffffffffffffffffffffffffffff16815260200191505060405180910390f35b34156105d157600080fd5b6106c2600480803590602001908201803590602001908080601f0160208091040260200160405190810160405280939291908181526020018383808284378201915050505050509190803590602001908201803590602001908080601f0160208091040260200160405190810160405280939291908181526020018383808284378201915050505050509190803590602001909190803590602001909190803590602001908201803590602001908080601f0160208091040260200160405190810160405280939291908181526020018383808284378201915050505050509190803590602001909190505061153c565b005b34156106cf57600080fd5b6106d761190e565b005b34156106e457600080fd5b6106fa60048080359060200190919050506119a5565b604051808b73ffffffffffffffffffffffffffffffffffffffff1673ffffffffffffffffffffffffffffffffffffffff16815260200180602001806020018a81526020018981526020018873ffffffffffffffffffffffffffffffffffffffff1673ffffffffffffffffffffffffffffffffffffffff168152602001878152602001861515151581526020018060200185815260200184810384528d818151815260200191508051906020019080838360005b838110156107c85780820151818401526020810190506107ad565b50505050905090810190601f1680156107f55780820380516001836020036101000a031916815260200191505b5084810383528c818151815260200191508051906020019080838360005b8381101561082e578082015181840152602081019050610813565b50505050905090810190601f16801561085b5780820380516001836020036101000a031916815260200191505b50848103825286818151815260200191508051906020019080838360005b83811015610894578082015181840152602081019050610879565b50505050905090810190601f1680156108c15780820380516001836020036101000a031916815260200191505b509d505050505050505050505050505060405180910390f35b34156108e557600080fd5b6108fb6004808035906020019091905050611cfd565b6040518082815260200191505060405180910390f35b341561091c57600080fd5b6109326004808035906020019091905050611d32565b6040518080602001828103825283818151815260200191508051906020019080838360005b83811015610972578082015181840152602081019050610957565b50505050905090810190601f16801561099f5780820380516001836020036101000a031916815260200191505b509250505060405180910390f35b34156109b857600080fd5b6109ce6004808035906020019091905050611e02565b6040518080602001828103825283818151815260200191508051906020019060200280838360005b83811015610a115780820151818401526020810190506109f6565b505050509050019250505060405180910390f35b3415610a3057600080fd5b610a466004808035906020019091905050611e76565b604051808273ffffffffffffffffffffffffffffffffffffffff1673ffffffffffffffffffffffffffffffffffffffff16815260200191505060405180910390f35b3415610a9357600080fd5b610aa96004808035906020019091905050611ec8565b6040518082815260200191505060405180910390f35b3415610aca57600080fd5b610ae06004808035906020019091905050611efa565b6040518082815260200191505060405180910390f35b610b0c6004808035906020019091905050611f2c565b604051808215151515815260200191505060405180910390f35b3415610b3157600080fd5b610b5d600480803573ffffffffffffffffffffffffffffffffffffffff16906020019091905050612235565b6040518080602001828103825283818151815260200191508051906020019060200280838360005b83811015610ba0578082015181840152602081019050610b85565b505050509050019250505060405180910390f35b60015481565b60008160015481101515610bcd57600080fd5b6002600084815260200190815260200160002060050160000160009054906101000a900473ffffffffffffffffffffffffffffffffffffffff16915050919050565b610c176122d5565b60008260015481101515610c2a57600080fd5b600260008581526020019081526020016000209150816002018054600181600116156101000203166002900480601f016020809104026020016040519081016040528092919081815260200182805460018160011615610100020316600290048015610cd75780601f10610cac57610100808354040283529160200191610cd7565b820191906000526020600020905b815481529060010190602001808311610cba57829003601f168201915b505050505092505050919050565b610ced6122e9565b600360008373ffffffffffffffffffffffffffffffffffffffff1673ffffffffffffffffffffffffffffffffffffffff168152602001908152602001600020600001805480602002602001604051908101604052809291908181526020018280548015610d7957602002820191906000526020600020905b815481526020019060010190808311610d65575b50505050509050919050565b6000600154905090565b6000808260015481101515610da357600080fd5b610dac846112ab565b80610dcc5750600260008581526020019081526020016000206004015434105b80610e3857506002600085815260200190815260200160002060000160009054906101000a900473ffffffffffffffffffffffffffffffffffffffff1673ffffffffffffffffffffffffffffffffffffffff163373ffffffffffffffffffffffffffffffffffffffff16145b15610e4257600080fd5b60408051908101604052803373ffffffffffffffffffffffffffffffffffffffff168152602001428152506002600086815260200190815260200160002060050160008201518160000160006101000a81548173ffffffffffffffffffffffffffffffffffffffff021916908373ffffffffffffffffffffffffffffffffffffffff160217905550602082015181600101559050506002600085815260200190815260200160002060040154340391506002600085815260200190815260200160002060050160000160009054906101000a900473ffffffffffffffffffffffffffffffffffffffff1673ffffffffffffffffffffffffffffffffffffffff166108fc839081150290604051600060405180830381858888f193505050501515610f6b57600080fd5b60016002600086815260200190815260200160002060070160006101000a81548160ff021916908315150217905550600360003373ffffffffffffffffffffffffffffffffffffffff1673ffffffffffffffffffffffffffffffffffffffff1681526020019081526020016000206001018054806001018281610fee91906122fd565b9160005260206000209001600086909190915055507fce344edbd316937aa99334d1687ff2f4dbcfd5b9141fb70caef20b469196dd2f846002600087815260200190815260200160002060000160009054906101000a900473ffffffffffffffffffffffffffffffffffffffff166002600088815260200190815260200160002060050160000160009054906101000a900473ffffffffffffffffffffffffffffffffffffffff1660026000898152602001908152602001600020600101600260008a8152602001908152602001600020600201600260008b815260200190815260200160002060030154600260008c815260200190815260200160002060040154600142604051808a81526020018973ffffffffffffffffffffffffffffffffffffffff1673ffffffffffffffffffffffffffffffffffffffff1681526020018873ffffffffffffffffffffffffffffffffffffffff1673ffffffffffffffffffffffffffffffffffffffff1681526020018060200180602001878152602001868152602001851515151581526020018481526020018381038352898181546001816001161561010002031660029004815260200191508054600181600116156101000203166002900480156112065780601f106111db57610100808354040283529160200191611206565b820191906000526020600020905b8154815290600101906020018083116111e957829003601f168201915b50508381038252888181546001816001161561010002031660029004815260200191508054600181600116156101000203166002900480156112895780601f1061125e57610100808354040283529160200191611289565b820191906000526020600020905b81548152906001019060200180831161126c57829003601f168201915b50509b50505050505050505050505060405180910390a1600192505050919050565b600081600154811015156112be57600080fd5b6002600084815260200190815260200160002060070160009054906101000a900460ff16915050919050565b6112f26122e9565b6004826040518082805190602001908083835b60208310151561132a5780518252602082019150602081019050602083039250611305565b6001836020036101000a03801982511681845116808217855250505050505090500191505090815260200160405180910390206000018054806020026020016040519081016040528092919081815260200182805480156113aa57602002820191906000526020600020905b815481526020019060010190808311611396575b50505050509050919050565b600081600154811015156113c957600080fd5b6002600084815260200190815260200160002060090154915050919050565b6113f06122e9565b600080548060200260200160405190810160405280929190818152602001828054801561143c57602002820191906000526020600020905b815481526020019060010190808311611428575b5050505050905090565b61144e6122d5565b816001548110151561145f57600080fd5b600260008481526020019081526020016000206008018054600181600116156101000203166002900480601f0160208091040260200160405190810160405280929190818152602001828054600181600116156101000203166002900480156115095780601f106114de57610100808354040283529160200191611509565b820191906000526020600020905b8154815290600101906020018083116114ec57829003601f168201915b5050505050915050919050565b600660009054906101000a900473ffffffffffffffffffffffffffffffffffffffff1681565b600060026000600154815260200190815260200160002090506004866040518082805190602001908083835b60208310151561158d5780518252602082019150602081019050602083039250611568565b6001836020036101000a038019825116818451168082178552505050505050905001915050908152602001604051809103902060000180548060010182816115d591906122fd565b916000526020600020900160006001549091909150555060056000838152602001908152602001600020600001805480600101828161161491906122fd565b9160005260206000209001600060015490919091505550338160000160006101000a81548173ffffffffffffffffffffffffffffffffffffffff021916908373ffffffffffffffffffffffffffffffffffffffff16021790555086816001019080519060200190611686929190612329565b508581600201908051906020019061169f929190612329565b5084816003018190555083816004018190555060008160070160006101000a81548160ff021916908315150217905550828160080190805190602001906116e7929190612329565b50818160090181905550600360003373ffffffffffffffffffffffffffffffffffffffff1673ffffffffffffffffffffffffffffffffffffffff168152602001908152602001600020600001805480600101828161174591906122fd565b91600052602060002090016000600154909190915055507fc22ed5329be821c9670587c04896e4c053d6cc17f47c65192ad707b818c63c606001543389898989886000604051808981526020018873ffffffffffffffffffffffffffffffffffffffff1673ffffffffffffffffffffffffffffffffffffffff168152602001806020018060200187815260200186815260200185815260200184151515158152602001838103835289818151815260200191508051906020019080838360005b83811015611820578082015181840152602081019050611805565b50505050905090810190601f16801561184d5780820380516001836020036101000a031916815260200191505b50838103825288818151815260200191508051906020019080838360005b8381101561188657808201518184015260208101905061186b565b50505050905090810190601f1680156118b35780820380516001836020036101000a031916815260200191505b509a505050505050505050505060405180910390a1600080548060010182816118dc91906122fd565b916000526020600020900160006001549091909150555060016000815480929190600101919050555050505050505050565b600660009054906101000a900473ffffffffffffffffffffffffffffffffffffffff1673ffffffffffffffffffffffffffffffffffffffff163373ffffffffffffffffffffffffffffffffffffffff1614151561196a57600080fd5b600660009054906101000a900473ffffffffffffffffffffffffffffffffffffffff1673ffffffffffffffffffffffffffffffffffffffff16ff5b60006119af6122d5565b6119b76122d5565b60008060008060006119c76122d5565b60008a600154811015156119da57600080fd5b600260008d815260200190815260200160002060000160009054906101000a900473ffffffffffffffffffffffffffffffffffffffff169a50600260008d81526020019081526020016000206001018054600181600116156101000203166002900480601f016020809104026020016040519081016040528092919081815260200182805460018160011615610100020316600290048015611abd5780601f10611a9257610100808354040283529160200191611abd565b820191906000526020600020905b815481529060010190602001808311611aa057829003601f168201915b50505050509950600260008d81526020019081526020016000206002018054600181600116156101000203166002900480601f016020809104026020016040519081016040528092919081815260200182805460018160011615610100020316600290048015611b6e5780601f10611b4357610100808354040283529160200191611b6e565b820191906000526020600020905b815481529060010190602001808311611b5157829003601f168201915b50505050509850600260008d8152602001908152602001600020600301549750600260008d8152602001908152602001600020600401549650600260008d815260200190815260200160002060050160000160009054906101000a900473ffffffffffffffffffffffffffffffffffffffff169550600260008d8152602001908152602001600020600501600101549450600260008d815260200190815260200160002060070160009054906101000a900460ff169350600260008d81526020019081526020016000206008018054600181600116156101000203166002900480601f016020809104026020016040519081016040528092919081815260200182805460018160011615610100020316600290048015611ccf5780601f10611ca457610100808354040283529160200191611ccf565b820191906000526020600020905b815481529060010190602001808311611cb257829003601f168201915b50505050509250600260008d8152602001908152602001600020600901549150509193959799509193959799565b60008160015481101515611d1057600080fd5b6002600084815260200190815260200160002060050160010154915050919050565b611d3a6122d5565b8160015481101515611d4b57600080fd5b600260008481526020019081526020016000206001018054600181600116156101000203166002900480601f016020809104026020016040519081016040528092919081815260200182805460018160011615610100020316600290048015611df55780601f10611dca57610100808354040283529160200191611df5565b820191906000526020600020905b815481529060010190602001808311611dd857829003601f168201915b5050505050915050919050565b611e0a6122e9565b60056000838152602001908152602001600020600001805480602002602001604051908101604052809291908181526020018280548015611e6a57602002820191906000526020600020905b815481526020019060010190808311611e56575b50505050509050919050565b60008160015481101515611e8957600080fd5b6002600084815260200190815260200160002060000160009054906101000a900473ffffffffffffffffffffffffffffffffffffffff16915050919050565b60008160015481101515611edb57600080fd5b6002600084815260200190815260200160002060040154915050919050565b60008160015481101515611f0d57600080fd5b6002600084815260200190815260200160002060030154915050919050565b60008060008360015481101515611f4257600080fd5b6002600086815260200190815260200160002060070160009054906101000a900460ff161515611f7157600080fd5b3373ffffffffffffffffffffffffffffffffffffffff166002600087815260200190815260200160002060050160000160009054906101000a900473ffffffffffffffffffffffffffffffffffffffff1673ffffffffffffffffffffffffffffffffffffffff16141515611fe457600080fd5b620151806002600087815260200190815260200160002060050160010154420381151561200d57fe5b0492506002600086815260200190815260200160002060030154830291506002600086815260200190815260200160002060000160009054906101000a900473ffffffffffffffffffffffffffffffffffffffff1673ffffffffffffffffffffffffffffffffffffffff166108fc839081150290604051600060405180830381858888f1935050505015156120a157600080fd5b6002600086815260200190815260200160002060050160000160009054906101000a900473ffffffffffffffffffffffffffffffffffffffff1673ffffffffffffffffffffffffffffffffffffffff166108fc836002600089815260200190815260200160002060040154039081150290604051600060405180830381858888f19350505050151561213257600080fd5b60026000868152602001908152602001600020600501600080820160006101000a81549073ffffffffffffffffffffffffffffffffffffffff02191690556001820160009055505060006002600087815260200190815260200160002060070160006101000a81548160ff0219169083151502179055507f0a3d7493603aa7b085d6b77670c5b85cbc0367742d203f31155351564948c0868533600042604051808581526020018473ffffffffffffffffffffffffffffffffffffffff1673ffffffffffffffffffffffffffffffffffffffff1681526020018315151515815260200182815260200194505050505060405180910390a160019350505050919050565b61223d6122e9565b600360008373ffffffffffffffffffffffffffffffffffffffff1673ffffffffffffffffffffffffffffffffffffffff1681526020019081526020016000206001018054806020026020016040519081016040528092919081815260200182805480156122c957602002820191906000526020600020905b8154815260200190600101908083116122b5575b50505050509050919050565b602060405190810160405280600081525090565b602060405190810160405280600081525090565b8154818355818115116123245781836000526020600020918201910161232391906123a9565b5b505050565b828054600181600116156101000203166002900490600052602060002090601f016020900481019282601f1061236a57805160ff1916838001178555612398565b82800160010185558215612398579182015b8281111561239757825182559160200191906001019061237c565b5b5090506123a591906123a9565b5090565b6123cb91905b808211156123c75760008160009055506001016123af565b5090565b905600a165627a7a72305820a9d8e3e570f19b0fde82d09989455cf816da7d82caa23444a4fc9c7ee6b0c2ab0029",
  "source": "pragma solidity ^0.4.19;\n\ncontract ShareApp{\n\n\tstruct user{\n\t\tuint[] object_rent;\n\t\tuint[] object_rented;\n\t}\n\n\tstruct Renter{\n\t\taddress addr;\n\t\tuint since;\n\t}\n\n\tstruct Object{\n\t\taddress creator; // +\n\t\tstring photo;\n\t\tstring name;\n\t\tuint priceDaily;\n\t\tuint deposit;\n\t\tRenter renter;\n\t\tbool rented;  //rented ?\n\t\tstring detail;\n\t\tuint categories;\n\t}\n\n\tstruct NameKey{ // storage the name's keys\n\t\tuint[] keys;\n\t}\n\n\tstruct TypeKey{\n\t\tuint[] keys;\n\t}\n\n\t//List of objects\n\tuint[] private ids;  //Use it to return the ids of Objects\n\tuint public numObjects;\n\tmapping(uint => Object) private objects;\n\tmapping(address => user) private users;\n\tmapping(string => NameKey) private nameToKeys;\n\tmapping(uint => TypeKey) private typeToKeys;\n\t// mapping(address => uint) public balances;\n\n\taddress public owner;\n\n\t//Events\n\tevent NewObject(uint _objID, address _creator, string _photo, string _name, uint _priceDaily, uint _deposit, uint categories, bool _rented);\n\tevent NewRent(uint _objID, address _creator, address _renter, string _photo, string _name, uint _priceDaily, uint _deposit, bool _rented, uint _createAt);\n\tevent NewReturn(uint _objID, address _renter, bool _rented, uint _createAt);\n\n\tmodifier objectInRange(uint objID) {\n\t\tif (objID >= numObjects)\n\t\t\tthrow;\n\t\t_;\n\t}\n\n\tmodifier onlyOwner(){\n\t\tif(msg.sender != owner){\n\t\t\tthrow;\n\t\t}\n\t\t_;\n\t}\n\n\t/*\n\t* Functions\n\t*/\n\tfunction ShareApp(){\n\t\towner = msg.sender;\n\t}\n\n\tfunction objectIsRented(uint objID) objectInRange(objID) returns (bool){\n\t\treturn objects[objID].rented;\n\t}\n\n\tfunction createObj(string photo, string name,uint priceDaily,uint deposit,string detail, uint categories){\n\t\t// +\n\t\t//owner = msg.sender;\n\t\t// Object newObject = objects[numObjects];\n\t\tObject  newObject = objects[numObjects];\n\t\tnameToKeys[name].keys.push(numObjects); //add the key to the name's keys\n\t\ttypeToKeys[categories].keys.push(numObjects);\n\t\tnewObject.creator = msg.sender;\n\t\tnewObject.photo = photo;\n\t\tnewObject.name = name;\n\t\tnewObject.priceDaily = priceDaily;\n\t\tnewObject.deposit = deposit;\n\t\tnewObject.rented = false;\n\t\tnewObject.detail = detail;\n\t\tnewObject.categories = categories;\n\t\tusers[msg.sender].object_rent.push(numObjects);\n\t\t// objects[numObjects] = newObject;\n\t\tNewObject(numObjects, msg.sender, photo, name, priceDaily, deposit, categories, false);\n\t\tids.push(numObjects);\n\t\tnumObjects++;\n\t}\n\n\tfunction getObj(uint objID) constant objectInRange(objID)\n\treturns(\n\t\taddress creator,//0\n\t\tstring photo,//1\n\t\tstring name,//2\n\t\tuint priceDaily,//3\n\t\tuint deposit,//4\n\t\taddress renterAddress,//5\n\t\tuint renterSince,//6\n\t\tbool rented,//7\n\t\tstring detail,//8\n\t\tuint categories//9\n\t)\n\t{\n\t\tcreator = objects[objID].creator;\n\t\tphoto = objects[objID].photo;\n\t\tname = objects[objID].name;\n\t\tpriceDaily = objects[objID].priceDaily;\n\t\tdeposit = objects[objID].deposit;\n\t\trenterAddress = objects[objID].renter.addr;\n\t\trenterSince = objects[objID].renter.since;\n\t\trented = objects[objID].rented;\n\t\tdetail = objects[objID].detail;\n\t\tcategories = objects[objID].categories;\n\t}\n\n\t// function getObject(uint objID) constant objectInRange(objID)\n\t// \treturns(Object object)\n\t// {\n\t// \tobject = objects[objID];\n\t// }\n\n\tfunction rentObj(uint objID) payable objectInRange(objID) returns(bool){\n\t\tif(objectIsRented(objID) || msg.value < objects[objID].deposit || msg.sender == objects[objID].creator){\n\t\t\tthrow;\n\t\t}\n\t\tobjects[objID].renter = Renter({addr:msg.sender, since:now});  //record the info of the renter\n\t\tuint rest = msg.value - objects[objID].deposit;\n\t\tif(!objects[objID].renter.addr.send(rest)){   // return the rest balance\n\t\t\tthrow;\n\t\t}\n\t\tobjects[objID].rented = true;\n\t\tusers[msg.sender].object_rented.push(objID);\n\t\tNewRent(objID, objects[objID].creator, objects[objID].renter.addr, objects[objID].photo, objects[objID].name, objects[objID].priceDaily, objects[objID].deposit, true, now);\n\t\treturn true;\n\t}\n\n\tfunction returnObj(uint objID) payable objectInRange(objID) returns (bool){\n\t\tif(!objects[objID].rented){\n\t\t\tthrow;\n\t\t}\n\t\tif(objects[objID].renter.addr != msg.sender){\n\t\t\tthrow;\n\t\t}\n\t\tuint duration = (now - objects[objID].renter.since) / (24*60*60*1.0);\n\t\tuint charge = duration * objects[objID].priceDaily;\n\t\t// uint days = (duration / (24*60*60*1.0));\n\t\t// uint charge = days * objects[objID].priceDaily;\n\t\tif(!objects[objID].creator.send(charge)){\n\t\t\tthrow;\n\t\t}\n\t\tif(!objects[objID].renter.addr.send(objects[objID].deposit - charge)){\n\t\t\tthrow;\n\t\t}\n\t\tdelete objects[objID].renter;\n\t\tobjects[objID].rented = false;\n\t\tNewReturn(objID, msg.sender, false, now);\n\t\treturn true;\n\t}\n\n\t// function withdraw() {\n\t// \tvar amount = balances[msg.sender];\n\t// \tbalances[msg.sender] = 0;\n\t// \tmsg.sender.transfer(amount);\n\t// }\n\n\tfunction getUserRent(address user) constant returns(uint[]){\n\t\treturn users[user].object_rent;\n\t}\n\n\tfunction getUserRented(address user) constant returns(uint[]){\n\t\treturn users[user].object_rented;\n\t}\n\n\tfunction findNames(string name) constant returns(uint[]){\n\t\treturn nameToKeys[name].keys;\n\t}\n\n\tfunction findTypes(uint categories) constant returns(uint[]) {\n\t\treturn typeToKeys[categories].keys;\n\t}\n\n\tfunction getNumObjects() constant returns(uint){\n\t\treturn numObjects;\n\t}\n\n\tfunction getObjectIds() constant returns(uint[]){\n\t\treturn ids;\n\t}\n\n\tfunction getObjectName(uint objID) objectInRange(objID) returns(string objName){\n\t\tvar obj = objects[objID];\n\t\tobjName = obj.name;\n\t}\n\n\tfunction getObjectPhoto(uint objID) objectInRange(objID) returns(string){\n\t\treturn objects[objID].photo;\n\t}\n\n\tfunction getObjectCreator(uint objID) constant objectInRange(objID) returns(address){\n\t\treturn objects[objID].creator;\n\t}\n\n\tfunction getObjectPriceDaily(uint objID) constant objectInRange(objID) returns(uint){\n\t\treturn objects[objID].priceDaily;\n\t}\n\n\tfunction getObjectDeposit(uint objID) constant objectInRange(objID) returns(uint){\n\t\treturn objects[objID].deposit;\n\t}\n\n\tfunction getObjectRenterAddress(uint objID) constant objectInRange(objID) returns(address){\n\t\treturn objects[objID].renter.addr;\n\t}\n\n\tfunction getObjectRenterSince(uint objID) constant objectInRange(objID) returns(uint){\n\t\treturn objects[objID].renter.since;\n\t}\n\n\tfunction getObjectDetail(uint objID) constant objectInRange(objID) returns(string){\n\t\treturn objects[objID].detail;\n\t}\n\n\tfunction getObjectCategories(uint objID) constant objectInRange(objID) returns(uint){\n\t\treturn objects[objID].categories;\n\t}\n\n\tfunction remove() onlyOwner {\n\t\tselfdestruct(owner);\n\t\t// suicide(owner);\n\t}\n}\n",
  "sourcePath": "/Users/steveniiv/Test/Market-DApp/contracts/ShareApp.sol",
  "compiler": {
    "name": "solc",
    "version": "0.4.19+commit.c4cbbb05.Emscripten.clang"
  },
  "schemaVersion": "3.0.19",
  "updatedAt": "2020-03-04T07:40:38.725Z",
  "networkType": "ethereum",
  "devdoc": {
    "methods": {}
  },
  "userdoc": {
    "methods": {}
  }
}