{
  "contractName": "ShareApp",
  "abi": [
    {
      "constant": true,
      "inputs": [],
      "name": "numObjects",
      "outputs": [
        {
          "name": "",
          "type": "uint256"
        }
      ],
      "payable": false,
      "stateMutability": "view",
      "type": "function"
    },
    {
      "constant": true,
      "inputs": [],
      "name": "owner",
      "outputs": [
        {
          "name": "",
          "type": "address"
        }
      ],
      "payable": false,
      "stateMutability": "view",
      "type": "function"
    },
    {
      "inputs": [],
      "payable": false,
      "stateMutability": "nonpayable",
      "type": "constructor"
    },
    {
      "anonymous": false,
      "inputs": [
        {
          "indexed": false,
          "name": "_objID",
          "type": "uint256"
        },
        {
          "indexed": false,
          "name": "_creator",
          "type": "address"
        },
        {
          "indexed": false,
          "name": "_photo",
          "type": "string"
        },
        {
          "indexed": false,
          "name": "_name",
          "type": "string"
        },
        {
          "indexed": false,
          "name": "_priceDaily",
          "type": "uint256"
        },
        {
          "indexed": false,
          "name": "_deposit",
          "type": "uint256"
        },
        {
          "indexed": false,
          "name": "categories",
          "type": "uint256"
        },
        {
          "indexed": false,
          "name": "_rented",
          "type": "bool"
        }
      ],
      "name": "NewObject",
      "type": "event"
    },
    {
      "anonymous": false,
      "inputs": [
        {
          "indexed": false,
          "name": "_objID",
          "type": "uint256"
        },
        {
          "indexed": false,
          "name": "_creator",
          "type": "address"
        },
        {
          "indexed": false,
          "name": "_renter",
          "type": "address"
        },
        {
          "indexed": false,
          "name": "_photo",
          "type": "string"
        },
        {
          "indexed": false,
          "name": "_name",
          "type": "string"
        },
        {
          "indexed": false,
          "name": "_priceDaily",
          "type": "uint256"
        },
        {
          "indexed": false,
          "name": "_deposit",
          "type": "uint256"
        },
        {
          "indexed": false,
          "name": "_rented",
          "type": "bool"
        },
        {
          "indexed": false,
          "name": "_createAt",
          "type": "uint256"
        }
      ],
      "name": "NewRent",
      "type": "event"
    },
    {
      "anonymous": false,
      "inputs": [
        {
          "indexed": false,
          "name": "_objID",
          "type": "uint256"
        },
        {
          "indexed": false,
          "name": "_renter",
          "type": "address"
        },
        {
          "indexed": false,
          "name": "_rented",
          "type": "bool"
        },
        {
          "indexed": false,
          "name": "_createAt",
          "type": "uint256"
        }
      ],
      "name": "NewReturn",
      "type": "event"
    },
    {
      "constant": false,
      "inputs": [
        {
          "name": "objID",
          "type": "uint256"
        }
      ],
      "name": "objectIsRented",
      "outputs": [
        {
          "name": "",
          "type": "bool"
        }
      ],
      "payable": false,
      "stateMutability": "nonpayable",
      "type": "function"
    },
    {
      "constant": false,
      "inputs": [
        {
          "name": "photo",
          "type": "string"
        },
        {
          "name": "name",
          "type": "string"
        },
        {
          "name": "priceDaily",
          "type": "uint256"
        },
        {
          "name": "deposit",
          "type": "uint256"
        },
        {
          "name": "detail",
          "type": "string"
        },
        {
          "name": "categories",
          "type": "uint256"
        }
      ],
      "name": "createObj",
      "outputs": [],
      "payable": false,
      "stateMutability": "nonpayable",
      "type": "function"
    },
    {
      "constant": true,
      "inputs": [
        {
          "name": "objID",
          "type": "uint256"
        }
      ],
      "name": "getObj",
      "outputs": [
        {
          "name": "creator",
          "type": "address"
        },
        {
          "name": "photo",
          "type": "string"
        },
        {
          "name": "name",
          "type": "string"
        },
        {
          "name": "priceDaily",
          "type": "uint256"
        },
        {
          "name": "deposit",
          "type": "uint256"
        },
        {
          "name": "renterAddress",
          "type": "address"
        },
        {
          "name": "renterSince",
          "type": "uint256"
        },
        {
          "name": "rented",
          "type": "bool"
        },
        {
          "name": "detail",
          "type": "string"
        },
        {
          "name": "categories",
          "type": "uint256"
        },
        {
          "name": "isDelete",
          "type": "bool"
        },
        {
          "name": "createAt",
          "type": "uint256"
        }
      ],
      "payable": false,
      "stateMutability": "view",
      "type": "function"
    },
    {
      "constant": false,
      "inputs": [
        {
          "name": "objID",
          "type": "uint256"
        }
      ],
      "name": "rentObj",
      "outputs": [
        {
          "name": "",
          "type": "bool"
        }
      ],
      "payable": true,
      "stateMutability": "payable",
      "type": "function"
    },
    {
      "constant": false,
      "inputs": [
        {
          "name": "objID",
          "type": "uint256"
        }
      ],
      "name": "returnObj",
      "outputs": [
        {
          "name": "",
          "type": "bool"
        }
      ],
      "payable": true,
      "stateMutability": "payable",
      "type": "function"
    },
    {
      "constant": false,
      "inputs": [
        {
          "name": "objID",
          "type": "uint256"
        },
        {
          "name": "name",
          "type": "string"
        },
        {
          "name": "priceDaily",
          "type": "uint256"
        },
        {
          "name": "deposit",
          "type": "uint256"
        },
        {
          "name": "detail",
          "type": "string"
        },
        {
          "name": "categories",
          "type": "uint256"
        }
      ],
      "name": "modifyObject",
      "outputs": [],
      "payable": false,
      "stateMutability": "nonpayable",
      "type": "function"
    },
    {
      "constant": false,
      "inputs": [
        {
          "name": "objID",
          "type": "uint256"
        }
      ],
      "name": "deleteObject",
      "outputs": [],
      "payable": false,
      "stateMutability": "nonpayable",
      "type": "function"
    },
    {
      "constant": true,
      "inputs": [
        {
          "name": "user",
          "type": "address"
        }
      ],
      "name": "getUserRent",
      "outputs": [
        {
          "name": "",
          "type": "uint256[]"
        }
      ],
      "payable": false,
      "stateMutability": "view",
      "type": "function"
    },
    {
      "constant": true,
      "inputs": [
        {
          "name": "user",
          "type": "address"
        }
      ],
      "name": "getUserRented",
      "outputs": [
        {
          "name": "",
          "type": "uint256[]"
        }
      ],
      "payable": false,
      "stateMutability": "view",
      "type": "function"
    },
    {
      "constant": true,
      "inputs": [
        {
          "name": "user",
          "type": "address"
        }
      ],
      "name": "getUserRentedTime",
      "outputs": [
        {
          "name": "",
          "type": "uint256[]"
        }
      ],
      "payable": false,
      "stateMutability": "view",
      "type": "function"
    },
    {
      "constant": true,
      "inputs": [
        {
          "name": "name",
          "type": "string"
        }
      ],
      "name": "findNames",
      "outputs": [
        {
          "name": "",
          "type": "uint256[]"
        }
      ],
      "payable": false,
      "stateMutability": "view",
      "type": "function"
    },
    {
      "constant": true,
      "inputs": [
        {
          "name": "categories",
          "type": "uint256"
        }
      ],
      "name": "findTypes",
      "outputs": [
        {
          "name": "",
          "type": "uint256[]"
        }
      ],
      "payable": false,
      "stateMutability": "view",
      "type": "function"
    },
    {
      "constant": true,
      "inputs": [],
      "name": "getNumObjects",
      "outputs": [
        {
          "name": "",
          "type": "uint256"
        }
      ],
      "payable": false,
      "stateMutability": "view",
      "type": "function"
    },
    {
      "constant": true,
      "inputs": [],
      "name": "getObjectIds",
      "outputs": [
        {
          "name": "",
          "type": "uint256[]"
        }
      ],
      "payable": false,
      "stateMutability": "view",
      "type": "function"
    },
    {
      "constant": false,
      "inputs": [
        {
          "name": "objID",
          "type": "uint256"
        }
      ],
      "name": "getObjectIsDelete",
      "outputs": [
        {
          "name": "",
          "type": "bool"
        }
      ],
      "payable": false,
      "stateMutability": "nonpayable",
      "type": "function"
    },
    {
      "constant": false,
      "inputs": [
        {
          "name": "objID",
          "type": "uint256"
        }
      ],
      "name": "getObjectName",
      "outputs": [
        {
          "name": "objName",
          "type": "string"
        }
      ],
      "payable": false,
      "stateMutability": "nonpayable",
      "type": "function"
    },
    {
      "constant": false,
      "inputs": [
        {
          "name": "objID",
          "type": "uint256"
        }
      ],
      "name": "getObjectPhoto",
      "outputs": [
        {
          "name": "",
          "type": "string"
        }
      ],
      "payable": false,
      "stateMutability": "nonpayable",
      "type": "function"
    },
    {
      "constant": true,
      "inputs": [
        {
          "name": "objID",
          "type": "uint256"
        }
      ],
      "name": "getObjectCreator",
      "outputs": [
        {
          "name": "",
          "type": "address"
        }
      ],
      "payable": false,
      "stateMutability": "view",
      "type": "function"
    },
    {
      "constant": true,
      "inputs": [
        {
          "name": "objID",
          "type": "uint256"
        }
      ],
      "name": "getObjectPriceDaily",
      "outputs": [
        {
          "name": "",
          "type": "uint256"
        }
      ],
      "payable": false,
      "stateMutability": "view",
      "type": "function"
    },
    {
      "constant": true,
      "inputs": [
        {
          "name": "objID",
          "type": "uint256"
        }
      ],
      "name": "getObjectDeposit",
      "outputs": [
        {
          "name": "",
          "type": "uint256"
        }
      ],
      "payable": false,
      "stateMutability": "view",
      "type": "function"
    },
    {
      "constant": true,
      "inputs": [
        {
          "name": "objID",
          "type": "uint256"
        }
      ],
      "name": "getObjectRenterAddress",
      "outputs": [
        {
          "name": "",
          "type": "address"
        }
      ],
      "payable": false,
      "stateMutability": "view",
      "type": "function"
    },
    {
      "constant": true,
      "inputs": [
        {
          "name": "objID",
          "type": "uint256"
        }
      ],
      "name": "getObjectRenterSince",
      "outputs": [
        {
          "name": "",
          "type": "uint256"
        }
      ],
      "payable": false,
      "stateMutability": "view",
      "type": "function"
    },
    {
      "constant": true,
      "inputs": [
        {
          "name": "objID",
          "type": "uint256"
        }
      ],
      "name": "getObjectDetail",
      "outputs": [
        {
          "name": "",
          "type": "string"
        }
      ],
      "payable": false,
      "stateMutability": "view",
      "type": "function"
    },
    {
      "constant": true,
      "inputs": [
        {
          "name": "objID",
          "type": "uint256"
        }
      ],
      "name": "getObjectCategories",
      "outputs": [
        {
          "name": "",
          "type": "uint256"
        }
      ],
      "payable": false,
      "stateMutability": "view",
      "type": "function"
    }
  ],
  "bytecode": "0x6060604052341561000f57600080fd5b33600660006101000a81548173ffffffffffffffffffffffffffffffffffffffff021916908373ffffffffffffffffffffffffffffffffffffffff1602179055506128a48061005f6000396000f300606060405260043610610154576000357c0100000000000000000000000000000000000000000000000000000000900463ffffffff16806304c381151461015957806309691b1a1461018257806318f84799146101bd578063202c909414610220578063302bfb91146102bc578063322db2971461034a57806334b05db91461037357806339856060146103a35780634780c366146103de5780634816a490146104a25780634bcc082114610554578063673e86fe1461058b57806371236b1a146105f55780637ea0c8bd146106185780638da5cb5b146106b45780638e73a47e14610709578063ab5c9bb314610807578063ace716ff14610a1a578063b4d356ae14610a51578063bd2b4ea514610aed578063c774e16c14610b65578063c88ae76314610bc8578063dce37ddb14610c56578063ddbffef414610c8d578063e6adf19714610cc4578063fbd6902614610cf4575b600080fd5b341561016457600080fd5b61016c610d82565b6040518082815260200191505060405180910390f35b341561018d57600080fd5b6101a36004808035906020019091905050610d88565b604051808215151515815260200191505060405180910390f35b34156101c857600080fd5b6101de6004808035906020019091905050610dc7565b604051808273ffffffffffffffffffffffffffffffffffffffff1673ffffffffffffffffffffffffffffffffffffffff16815260200191505060405180910390f35b341561022b57600080fd5b6102416004808035906020019091905050610e1c565b6040518080602001828103825283818151815260200191508051906020019080838360005b83811015610281578082015181840152602081019050610266565b50505050905090810190601f1680156102ae5780820380516001836020036101000a031916815260200191505b509250505060405180910390f35b34156102c757600080fd5b6102f3600480803573ffffffffffffffffffffffffffffffffffffffff16906020019091905050610ef2565b6040518080602001828103825283818151815260200191508051906020019060200280838360005b8381101561033657808201518184015260208101905061031b565b505050509050019250505060405180910390f35b341561035557600080fd5b61035d610f92565b6040518082815260200191505060405180910390f35b6103896004808035906020019091905050610f9c565b604051808215151515815260200191505060405180910390f35b34156103ae57600080fd5b6103c46004808035906020019091905050611521565b604051808215151515815260200191505060405180910390f35b34156103e957600080fd5b6104a0600480803590602001909190803590602001908201803590602001908080601f0160208091040260200160405190810160405280939291908181526020018383808284378201915050505050509190803590602001909190803590602001909190803590602001908201803590602001908080601f01602080910402602001604051908101604052809392919081815260200183838082843782019150505050505091908035906020019091905050611560565b005b34156104ad57600080fd5b6104fd600480803590602001908201803590602001908080601f0160208091040260200160405190810160405280939291908181526020018383808284378201915050505050509190505061167f565b6040518080602001828103825283818151815260200191508051906020019060200280838360005b83811015610540578082015181840152602081019050610525565b505050509050019250505060405180910390f35b341561055f57600080fd5b610575600480803590602001909190505061174b565b6040518082815260200191505060405180910390f35b341561059657600080fd5b61059e61177d565b6040518080602001828103825283818151815260200191508051906020019060200280838360005b838110156105e15780820151818401526020810190506105c6565b505050509050019250505060405180910390f35b341561060057600080fd5b61061660048080359060200190919050506117db565b005b341561062357600080fd5b610639600480803590602001909190505061187d565b6040518080602001828103825283818151815260200191508051906020019080838360005b8381101561067957808201518184015260208101905061065e565b50505050905090810190601f1680156106a65780820380516001836020036101000a031916815260200191505b509250505060405180910390f35b34156106bf57600080fd5b6106c761194d565b604051808273ffffffffffffffffffffffffffffffffffffffff1673ffffffffffffffffffffffffffffffffffffffff16815260200191505060405180910390f35b341561071457600080fd5b610805600480803590602001908201803590602001908080601f0160208091040260200160405190810160405280939291908181526020018383808284378201915050505050509190803590602001908201803590602001908080601f0160208091040260200160405190810160405280939291908181526020018383808284378201915050505050509190803590602001909190803590602001909190803590602001908201803590602001908080601f01602080910402602001604051908101604052809392919081815260200183838082843782019150505050505091908035906020019091905050611973565b005b341561081257600080fd5b6108286004808035906020019091905050611d6b565b604051808d73ffffffffffffffffffffffffffffffffffffffff1673ffffffffffffffffffffffffffffffffffffffff16815260200180602001806020018c81526020018b81526020018a73ffffffffffffffffffffffffffffffffffffffff1673ffffffffffffffffffffffffffffffffffffffff16815260200189815260200188151515158152602001806020018781526020018615151515815260200185815260200184810384528f818151815260200191508051906020019080838360005b838110156109065780820151818401526020810190506108eb565b50505050905090810190601f1680156109335780820380516001836020036101000a031916815260200191505b5084810383528e818151815260200191508051906020019080838360005b8381101561096c578082015181840152602081019050610951565b50505050905090810190601f1680156109995780820380516001836020036101000a031916815260200191505b50848103825288818151815260200191508051906020019080838360005b838110156109d25780820151818401526020810190506109b7565b50505050905090810190601f1680156109ff5780820380516001836020036101000a031916815260200191505b509f5050505050505050505050505050505060405180910390f35b3415610a2557600080fd5b610a3b6004808035906020019091905050612107565b6040518082815260200191505060405180910390f35b3415610a5c57600080fd5b610a72600480803590602001909190505061213c565b6040518080602001828103825283818151815260200191508051906020019080838360005b83811015610ab2578082015181840152602081019050610a97565b50505050905090810190601f168015610adf5780820380516001836020036101000a031916815260200191505b509250505060405180910390f35b3415610af857600080fd5b610b0e600480803590602001909190505061220c565b6040518080602001828103825283818151815260200191508051906020019060200280838360005b83811015610b51578082015181840152602081019050610b36565b505050509050019250505060405180910390f35b3415610b7057600080fd5b610b866004808035906020019091905050612280565b604051808273ffffffffffffffffffffffffffffffffffffffff1673ffffffffffffffffffffffffffffffffffffffff16815260200191505060405180910390f35b3415610bd357600080fd5b610bff600480803573ffffffffffffffffffffffffffffffffffffffff169060200190919050506122d2565b6040518080602001828103825283818151815260200191508051906020019060200280838360005b83811015610c42578082015181840152602081019050610c27565b505050509050019250505060405180910390f35b3415610c6157600080fd5b610c776004808035906020019091905050612372565b6040518082815260200191505060405180910390f35b3415610c9857600080fd5b610cae60048080359060200190919050506123a4565b6040518082815260200191505060405180910390f35b610cda60048080359060200190919050506123d6565b604051808215151515815260200191505060405180910390f35b3415610cff57600080fd5b610d2b600480803573ffffffffffffffffffffffffffffffffffffffff169060200190919050506126df565b6040518080602001828103825283818151815260200191508051906020019060200280838360005b83811015610d6e578082015181840152602081019050610d53565b505050509050019250505060405180910390f35b60015481565b60008160015481101515610d9b57600080fd5b60026000848152602001908152602001600020600a0160009054906101000a900460ff16915050919050565b60008160015481101515610dda57600080fd5b6002600084815260200190815260200160002060050160000160009054906101000a900473ffffffffffffffffffffffffffffffffffffffff16915050919050565b610e2461277f565b60008260015481101515610e3757600080fd5b600260008581526020019081526020016000209150816002018054600181600116156101000203166002900480601f016020809104026020016040519081016040528092919081815260200182805460018160011615610100020316600290048015610ee45780601f10610eb957610100808354040283529160200191610ee4565b820191906000526020600020905b815481529060010190602001808311610ec757829003601f168201915b505050505092505050919050565b610efa612793565b600360008373ffffffffffffffffffffffffffffffffffffffff1673ffffffffffffffffffffffffffffffffffffffff168152602001908152602001600020600001805480602002602001604051908101604052809291908181526020018280548015610f8657602002820191906000526020600020905b815481526020019060010190808311610f72575b50505050509050919050565b6000600154905090565b6000808260015481101515610fb057600080fd5b610fb984611521565b80610fd95750600260008581526020019081526020016000206004015434105b8061104557506002600085815260200190815260200160002060000160009054906101000a900473ffffffffffffffffffffffffffffffffffffffff1673ffffffffffffffffffffffffffffffffffffffff163373ffffffffffffffffffffffffffffffffffffffff16145b1561104f57600080fd5b60408051908101604052803373ffffffffffffffffffffffffffffffffffffffff168152602001428152506002600086815260200190815260200160002060050160008201518160000160006101000a81548173ffffffffffffffffffffffffffffffffffffffff021916908373ffffffffffffffffffffffffffffffffffffffff160217905550602082015181600101559050506002600085815260200190815260200160002060040154340391506002600085815260200190815260200160002060050160000160009054906101000a900473ffffffffffffffffffffffffffffffffffffffff1673ffffffffffffffffffffffffffffffffffffffff166108fc839081150290604051600060405180830381858888f19350505050151561117857600080fd5b60016002600086815260200190815260200160002060070160006101000a81548160ff021916908315150217905550600360003373ffffffffffffffffffffffffffffffffffffffff1673ffffffffffffffffffffffffffffffffffffffff16815260200190815260200160002060010180548060010182816111fb91906127a7565b916000526020600020900160008690919091505550600360003373ffffffffffffffffffffffffffffffffffffffff1673ffffffffffffffffffffffffffffffffffffffff168152602001908152602001600020600201805480600101828161126491906127a7565b9160005260206000209001600042909190915055507fce344edbd316937aa99334d1687ff2f4dbcfd5b9141fb70caef20b469196dd2f846002600087815260200190815260200160002060000160009054906101000a900473ffffffffffffffffffffffffffffffffffffffff166002600088815260200190815260200160002060050160000160009054906101000a900473ffffffffffffffffffffffffffffffffffffffff1660026000898152602001908152602001600020600101600260008a8152602001908152602001600020600201600260008b815260200190815260200160002060030154600260008c815260200190815260200160002060040154600142604051808a81526020018973ffffffffffffffffffffffffffffffffffffffff1673ffffffffffffffffffffffffffffffffffffffff1681526020018873ffffffffffffffffffffffffffffffffffffffff1673ffffffffffffffffffffffffffffffffffffffff16815260200180602001806020018781526020018681526020018515151515815260200184815260200183810383528981815460018160011615610100020316600290048152602001915080546001816001161561010002031660029004801561147c5780601f106114515761010080835404028352916020019161147c565b820191906000526020600020905b81548152906001019060200180831161145f57829003601f168201915b50508381038252888181546001816001161561010002031660029004815260200191508054600181600116156101000203166002900480156114ff5780601f106114d4576101008083540402835291602001916114ff565b820191906000526020600020905b8154815290600101906020018083116114e257829003601f168201915b50509b50505050505050505050505060405180910390a1600192505050919050565b6000816001548110151561153457600080fd5b6002600084815260200190815260200160002060070160009054906101000a900460ff16915050919050565b3373ffffffffffffffffffffffffffffffffffffffff166002600088815260200190815260200160002060000160009054906101000a900473ffffffffffffffffffffffffffffffffffffffff1673ffffffffffffffffffffffffffffffffffffffff161415156115d057600080fd5b846002600088815260200190815260200160002060020190805190602001906115fa9291906127d3565b508360026000888152602001908152602001600020600301819055508260026000888152602001908152602001600020600401819055508160026000888152602001908152602001600020600801908051906020019061165b9291906127d3565b50806002600088815260200190815260200160002060090181905550505050505050565b611687612793565b6004826040518082805190602001908083835b6020831015156116bf578051825260208201915060208101905060208303925061169a565b6001836020036101000a038019825116818451168082178552505050505050905001915050908152602001604051809103902060000180548060200260200160405190810160405280929190818152602001828054801561173f57602002820191906000526020600020905b81548152602001906001019080831161172b575b50505050509050919050565b6000816001548110151561175e57600080fd5b6002600084815260200190815260200160002060090154915050919050565b611785612793565b60008054806020026020016040519081016040528092919081815260200182805480156117d157602002820191906000526020600020905b8154815260200190600101908083116117bd575b5050505050905090565b3373ffffffffffffffffffffffffffffffffffffffff166002600083815260200190815260200160002060000160009054906101000a900473ffffffffffffffffffffffffffffffffffffffff1673ffffffffffffffffffffffffffffffffffffffff1614151561184b57600080fd5b600160026000838152602001908152602001600020600a0160006101000a81548160ff02191690831515021790555050565b61188561277f565b816001548110151561189657600080fd5b600260008481526020019081526020016000206008018054600181600116156101000203166002900480601f0160208091040260200160405190810160405280929190818152602001828054600181600116156101000203166002900480156119405780601f1061191557610100808354040283529160200191611940565b820191906000526020600020905b81548152906001019060200180831161192357829003601f168201915b5050505050915050919050565b600660009054906101000a900473ffffffffffffffffffffffffffffffffffffffff1681565b600060026000600154815260200190815260200160002090506004866040518082805190602001908083835b6020831015156119c4578051825260208201915060208101905060208303925061199f565b6001836020036101000a03801982511681845116808217855250505050505090500191505090815260200160405180910390206000018054806001018281611a0c91906127a7565b9160005260206000209001600060015490919091505550600560008381526020019081526020016000206000018054806001018281611a4b91906127a7565b9160005260206000209001600060015490919091505550338160000160006101000a81548173ffffffffffffffffffffffffffffffffffffffff021916908373ffffffffffffffffffffffffffffffffffffffff16021790555086816001019080519060200190611abd9291906127d3565b5085816002019080519060200190611ad69291906127d3565b5084816003018190555083816004018190555060008160070160006101000a81548160ff02191690831515021790555082816008019080519060200190611b1e9291906127d3565b50818160090181905550600081600a0160006101000a81548160ff0219169083151502179055504281600b0181905550600360003373ffffffffffffffffffffffffffffffffffffffff1673ffffffffffffffffffffffffffffffffffffffff1681526020019081526020016000206000018054806001018281611ba291906127a7565b91600052602060002090016000600154909190915055507fc22ed5329be821c9670587c04896e4c053d6cc17f47c65192ad707b818c63c606001543389898989886000604051808981526020018873ffffffffffffffffffffffffffffffffffffffff1673ffffffffffffffffffffffffffffffffffffffff168152602001806020018060200187815260200186815260200185815260200184151515158152602001838103835289818151815260200191508051906020019080838360005b83811015611c7d578082015181840152602081019050611c62565b50505050905090810190601f168015611caa5780820380516001836020036101000a031916815260200191505b50838103825288818151815260200191508051906020019080838360005b83811015611ce3578082015181840152602081019050611cc8565b50505050905090810190601f168015611d105780820380516001836020036101000a031916815260200191505b509a505050505050505050505060405180910390a160008054806001018281611d3991906127a7565b916000526020600020900160006001549091909150555060016000815480929190600101919050555050505050505050565b6000611d7561277f565b611d7d61277f565b6000806000806000611d8d61277f565b60008060008c60015481101515611da357600080fd5b600260008f815260200190815260200160002060000160009054906101000a900473ffffffffffffffffffffffffffffffffffffffff169c50600260008f81526020019081526020016000206001018054600181600116156101000203166002900480601f016020809104026020016040519081016040528092919081815260200182805460018160011615610100020316600290048015611e865780601f10611e5b57610100808354040283529160200191611e86565b820191906000526020600020905b815481529060010190602001808311611e6957829003601f168201915b50505050509b50600260008f81526020019081526020016000206002018054600181600116156101000203166002900480601f016020809104026020016040519081016040528092919081815260200182805460018160011615610100020316600290048015611f375780601f10611f0c57610100808354040283529160200191611f37565b820191906000526020600020905b815481529060010190602001808311611f1a57829003601f168201915b50505050509a50600260008f8152602001908152602001600020600301549950600260008f8152602001908152602001600020600401549850600260008f815260200190815260200160002060050160000160009054906101000a900473ffffffffffffffffffffffffffffffffffffffff169750600260008f8152602001908152602001600020600501600101549650600260008f815260200190815260200160002060070160009054906101000a900460ff169550600260008f81526020019081526020016000206008018054600181600116156101000203166002900480601f0160208091040260200160405190810160405280929190818152602001828054600181600116156101000203166002900480156120985780601f1061206d57610100808354040283529160200191612098565b820191906000526020600020905b81548152906001019060200180831161207b57829003601f168201915b50505050509450600260008f8152602001908152602001600020600901549350600260008f8152602001908152602001600020600a0160009054906101000a900460ff169250600260008f8152602001908152602001600020600b015491505091939597999b5091939597999b565b6000816001548110151561211a57600080fd5b6002600084815260200190815260200160002060050160010154915050919050565b61214461277f565b816001548110151561215557600080fd5b600260008481526020019081526020016000206001018054600181600116156101000203166002900480601f0160208091040260200160405190810160405280929190818152602001828054600181600116156101000203166002900480156121ff5780601f106121d4576101008083540402835291602001916121ff565b820191906000526020600020905b8154815290600101906020018083116121e257829003601f168201915b5050505050915050919050565b612214612793565b6005600083815260200190815260200160002060000180548060200260200160405190810160405280929190818152602001828054801561227457602002820191906000526020600020905b815481526020019060010190808311612260575b50505050509050919050565b6000816001548110151561229357600080fd5b6002600084815260200190815260200160002060000160009054906101000a900473ffffffffffffffffffffffffffffffffffffffff16915050919050565b6122da612793565b600360008373ffffffffffffffffffffffffffffffffffffffff1673ffffffffffffffffffffffffffffffffffffffff16815260200190815260200160002060020180548060200260200160405190810160405280929190818152602001828054801561236657602002820191906000526020600020905b815481526020019060010190808311612352575b50505050509050919050565b6000816001548110151561238557600080fd5b6002600084815260200190815260200160002060040154915050919050565b600081600154811015156123b757600080fd5b6002600084815260200190815260200160002060030154915050919050565b600080600083600154811015156123ec57600080fd5b6002600086815260200190815260200160002060070160009054906101000a900460ff16151561241b57600080fd5b3373ffffffffffffffffffffffffffffffffffffffff166002600087815260200190815260200160002060050160000160009054906101000a900473ffffffffffffffffffffffffffffffffffffffff1673ffffffffffffffffffffffffffffffffffffffff1614151561248e57600080fd5b62015180600260008781526020019081526020016000206005016001015442038115156124b757fe5b0492506002600086815260200190815260200160002060030154830291506002600086815260200190815260200160002060000160009054906101000a900473ffffffffffffffffffffffffffffffffffffffff1673ffffffffffffffffffffffffffffffffffffffff166108fc839081150290604051600060405180830381858888f19350505050151561254b57600080fd5b6002600086815260200190815260200160002060050160000160009054906101000a900473ffffffffffffffffffffffffffffffffffffffff1673ffffffffffffffffffffffffffffffffffffffff166108fc836002600089815260200190815260200160002060040154039081150290604051600060405180830381858888f1935050505015156125dc57600080fd5b60026000868152602001908152602001600020600501600080820160006101000a81549073ffffffffffffffffffffffffffffffffffffffff02191690556001820160009055505060006002600087815260200190815260200160002060070160006101000a81548160ff0219169083151502179055507f0a3d7493603aa7b085d6b77670c5b85cbc0367742d203f31155351564948c0868533600042604051808581526020018473ffffffffffffffffffffffffffffffffffffffff1673ffffffffffffffffffffffffffffffffffffffff1681526020018315151515815260200182815260200194505050505060405180910390a160019350505050919050565b6126e7612793565b600360008373ffffffffffffffffffffffffffffffffffffffff1673ffffffffffffffffffffffffffffffffffffffff16815260200190815260200160002060010180548060200260200160405190810160405280929190818152602001828054801561277357602002820191906000526020600020905b81548152602001906001019080831161275f575b50505050509050919050565b602060405190810160405280600081525090565b602060405190810160405280600081525090565b8154818355818115116127ce578183600052602060002091820191016127cd9190612853565b5b505050565b828054600181600116156101000203166002900490600052602060002090601f016020900481019282601f1061281457805160ff1916838001178555612842565b82800160010185558215612842579182015b82811115612841578251825591602001919060010190612826565b5b50905061284f9190612853565b5090565b61287591905b80821115612871576000816000905550600101612859565b5090565b905600a165627a7a7230582032d9f88c6edcb675e08841b709084703633e039a3e8d0bf29346659b73708d8b0029",
  "source": "pragma solidity ^0.4.19;\n\ncontract ShareApp{\n\n\tstruct user{\n\t\tuint[] object_rent;\n\t\tuint[] object_rented;\n\t\tuint[] object_rentedTime;\n\t}\n\n\tstruct Renter{\n\t\taddress addr;\n\t\tuint since;\n\t}\n\n\tstruct Object{\n\t\taddress creator; // +\n\t\tstring photo;\n\t\tstring name;\n\t\tuint priceDaily;\n\t\tuint deposit;\n\t\tRenter renter;\n\t\tbool rented;  //rented ?\n\t\tstring detail;\n\t\tuint categories;\n\t\tbool isDelete;\n\t\tuint createAt;\n\t}\n\n\tstruct NameKey{ // storage the name's keys\n\t\tuint[] keys;\n\t}\n\n\tstruct TypeKey{\n\t\tuint[] keys;\n\t}\n\n\t//List of objects\n\tuint[] private ids;  //Use it to return the ids of Objects\n\tuint public numObjects;\n\tmapping(uint => Object) private objects;\n\tmapping(address => user) private users;\n\tmapping(string => NameKey) private nameToKeys;\n\tmapping(uint => TypeKey) private typeToKeys;\n\t// mapping(address => uint) public balances;\n\n\taddress public owner;\n\n\t//Events\n\tevent NewObject(uint _objID, address _creator, string _photo, string _name, uint _priceDaily, uint _deposit, uint categories, bool _rented);\n\tevent NewRent(uint _objID, address _creator, address _renter, string _photo, string _name, uint _priceDaily, uint _deposit, bool _rented, uint _createAt);\n\tevent NewReturn(uint _objID, address _renter, bool _rented, uint _createAt);\n\n\tmodifier objectInRange(uint objID) {\n\t\tif (objID >= numObjects)\n\t\t\tthrow;\n\t\t_;\n\t}\n\n\tmodifier onlyOwner(){\n\t\tif(msg.sender != owner){\n\t\t\tthrow;\n\t\t}\n\t\t_;\n\t}\n\n\tfunction ShareApp(){\n\t\towner = msg.sender;\n\t}\n\n\tfunction objectIsRented(uint objID) objectInRange(objID) returns (bool){\n\t\treturn objects[objID].rented;\n\t}\n\n\tfunction createObj(string photo, string name,uint priceDaily,uint deposit,string detail, uint categories){\n\t\t// +\n\t\t//owner = msg.sender;\n\t\t// Object newObject = objects[numObjects];\n\t\tObject  newObject = objects[numObjects];\n\t\tnameToKeys[name].keys.push(numObjects); //add the key to the name's keys\n\t\ttypeToKeys[categories].keys.push(numObjects);\n\t\tnewObject.creator = msg.sender;\n\t\tnewObject.photo = photo;\n\t\tnewObject.name = name;\n\t\tnewObject.priceDaily = priceDaily;\n\t\tnewObject.deposit = deposit;\n\t\tnewObject.rented = false;\n\t\tnewObject.detail = detail;\n\t\tnewObject.categories = categories;\n\t\tnewObject.isDelete = false;\n\t\tnewObject.createAt = now;\n\t\tusers[msg.sender].object_rent.push(numObjects);\n\t\t// objects[numObjects] = newObject;\n\t\tNewObject(numObjects, msg.sender, photo, name, priceDaily, deposit, categories, false);\n\t\tids.push(numObjects);\n\t\tnumObjects++;\n\t}\n\n\tfunction getObj(uint objID) constant objectInRange(objID)\n\treturns(\n\t\taddress creator,//0\n\t\tstring photo,//1\n\t\tstring name,//2\n\t\tuint priceDaily,//3\n\t\tuint deposit,//4\n\t\taddress renterAddress,//5\n\t\tuint renterSince,//6\n\t\tbool rented,//7\n\t\tstring detail,//8\n\t\tuint categories,//9\n\t\tbool isDelete,//10\n\t\tuint createAt//11\n\t)\n\t{\n\t\tcreator = objects[objID].creator;\n\t\tphoto = objects[objID].photo;\n\t\tname = objects[objID].name;\n\t\tpriceDaily = objects[objID].priceDaily;\n\t\tdeposit = objects[objID].deposit;\n\t\trenterAddress = objects[objID].renter.addr;\n\t\trenterSince = objects[objID].renter.since;\n\t\trented = objects[objID].rented;\n\t\tdetail = objects[objID].detail;\n\t\tcategories = objects[objID].categories;\n\t\tisDelete = objects[objID].isDelete;\n\t\tcreateAt = objects[objID].createAt;\n\t}\n\n\n\tfunction rentObj(uint objID) payable objectInRange(objID) returns(bool){\n\t\tif(objectIsRented(objID) || msg.value < objects[objID].deposit || msg.sender == objects[objID].creator){\n\t\t\tthrow;\n\t\t}\n\t\tobjects[objID].renter = Renter({addr:msg.sender, since:now});  //record the info of the renter\n\t\tuint rest = msg.value - objects[objID].deposit;  //deposit\n\t\tif(!objects[objID].renter.addr.send(rest)){   // return the rest balance\n\t\t\tthrow;\n\t\t}\n\t\tobjects[objID].rented = true;\n\t\tusers[msg.sender].object_rented.push(objID);\n\t\tusers[msg.sender].object_rentedTime.push(now);\n\t\tNewRent(objID, objects[objID].creator, objects[objID].renter.addr, objects[objID].photo, objects[objID].name, objects[objID].priceDaily, objects[objID].deposit, true, now);\n\t\treturn true;\n\t}\n\n\tfunction returnObj(uint objID) payable objectInRange(objID) returns (bool){\n\t\tif(!objects[objID].rented){\n\t\t\tthrow;\n\t\t}\n\t\tif(objects[objID].renter.addr != msg.sender){\n\t\t\tthrow;\n\t\t}\n\t\tuint duration = (now - objects[objID].renter.since) / (24*60*60*1.0);\n\t\tuint charge = duration * objects[objID].priceDaily;\n\t\t// uint days = (duration / (24*60*60*1.0));\n\t\t// uint charge = days * objects[objID].priceDaily;\n\t\tif(!objects[objID].creator.send(charge)){\n\t\t\tthrow;\n\t\t}\n\t\tif(!objects[objID].renter.addr.send(objects[objID].deposit - charge)){\n\t\t\tthrow;\n\t\t}\n\t\tdelete objects[objID].renter;\n\t\tobjects[objID].rented = false;\n\t\tNewReturn(objID, msg.sender, false, now);\n\t\treturn true;\n\t}\n\n\tfunction modifyObject(uint objID,string name,uint priceDaily,uint deposit,string detail, uint categories) public{\n\t\trequire(objects[objID].creator == msg.sender);\n\t\tobjects[objID].name = name;\n\t\tobjects[objID].priceDaily = priceDaily;\n\t\tobjects[objID].deposit = deposit;\n\t\tobjects[objID].detail = detail;\n\t\tobjects[objID].categories = categories;\n\t}\n\n\tfunction deleteObject(uint objID) public{\n\t\trequire(objects[objID].creator == msg.sender);\n\t\tobjects[objID].isDelete = true;\n\t}\n\n\tfunction getUserRent(address user) constant returns(uint[]){\n\t\treturn users[user].object_rent;\n\t}\n\n\tfunction getUserRented(address user) constant returns(uint[]){\n\t\treturn users[user].object_rented;\n\t}\n\n\tfunction getUserRentedTime(address user) constant returns(uint[]){\n\t\treturn users[user].object_rentedTime;\n\t}\n\n\tfunction findNames(string name) constant returns(uint[]){\n\t\treturn nameToKeys[name].keys;\n\t}\n\n\tfunction findTypes(uint categories) constant returns(uint[]) {\n\t\treturn typeToKeys[categories].keys;\n\t}\n\n\tfunction getNumObjects() constant returns(uint){\n\t\treturn numObjects;\n\t}\n\n\tfunction getObjectIds() constant returns(uint[]){\n\t\treturn ids;\n\t}\n\n\tfunction getObjectIsDelete(uint objID) objectInRange(objID) returns(bool){\n\t\treturn objects[objID].isDelete;\n\t}\n\n\tfunction getObjectName(uint objID) objectInRange(objID) returns(string objName){\n\t\tvar obj = objects[objID];\n\t\tobjName = obj.name;\n\t}\n\n\tfunction getObjectPhoto(uint objID) objectInRange(objID) returns(string){\n\t\treturn objects[objID].photo;\n\t}\n\n\tfunction getObjectCreator(uint objID) constant objectInRange(objID) returns(address){\n\t\treturn objects[objID].creator;\n\t}\n\n\tfunction getObjectPriceDaily(uint objID) constant objectInRange(objID) returns(uint){\n\t\treturn objects[objID].priceDaily;\n\t}\n\n\tfunction getObjectDeposit(uint objID) constant objectInRange(objID) returns(uint){\n\t\treturn objects[objID].deposit;\n\t}\n\n\tfunction getObjectRenterAddress(uint objID) constant objectInRange(objID) returns(address){\n\t\treturn objects[objID].renter.addr;\n\t}\n\n\tfunction getObjectRenterSince(uint objID) constant objectInRange(objID) returns(uint){\n\t\treturn objects[objID].renter.since;\n\t}\n\n\tfunction getObjectDetail(uint objID) constant objectInRange(objID) returns(string){\n\t\treturn objects[objID].detail;\n\t}\n\n\tfunction getObjectCategories(uint objID) constant objectInRange(objID) returns(uint){\n\t\treturn objects[objID].categories;\n\t}\n}\n",
  "sourcePath": "/Users/steveniiv/Test/Market-DApp/contracts/ShareApp.sol",
  "compiler": {
    "name": "solc",
    "version": "0.4.19+commit.c4cbbb05.Emscripten.clang"
  },
  "schemaVersion": "3.0.19",
  "updatedAt": "2020-03-14T06:51:25.995Z",
  "networkType": "ethereum",
  "devdoc": {
    "methods": {}
  },
  "userdoc": {
    "methods": {}
  }
}