{
  "contractName": "ShareApp",
  "abi": [
    {
      "constant": true,
      "inputs": [],
      "name": "numObjects",
      "outputs": [
        {
          "name": "",
          "type": "uint256"
        }
      ],
      "payable": false,
      "stateMutability": "view",
      "type": "function"
    },
    {
      "constant": true,
      "inputs": [],
      "name": "owner",
      "outputs": [
        {
          "name": "",
          "type": "address"
        }
      ],
      "payable": false,
      "stateMutability": "view",
      "type": "function"
    },
    {
      "inputs": [],
      "payable": false,
      "stateMutability": "nonpayable",
      "type": "constructor"
    },
    {
      "anonymous": false,
      "inputs": [
        {
          "indexed": false,
          "name": "_objID",
          "type": "uint256"
        },
        {
          "indexed": false,
          "name": "_creator",
          "type": "address"
        },
        {
          "indexed": false,
          "name": "_photo",
          "type": "string"
        },
        {
          "indexed": false,
          "name": "_name",
          "type": "string"
        },
        {
          "indexed": false,
          "name": "_priceDaily",
          "type": "uint256"
        },
        {
          "indexed": false,
          "name": "_deposit",
          "type": "uint256"
        },
        {
          "indexed": false,
          "name": "categories",
          "type": "uint256"
        },
        {
          "indexed": false,
          "name": "_rented",
          "type": "bool"
        }
      ],
      "name": "NewObject",
      "type": "event"
    },
    {
      "anonymous": false,
      "inputs": [
        {
          "indexed": false,
          "name": "_objID",
          "type": "uint256"
        },
        {
          "indexed": false,
          "name": "_creator",
          "type": "address"
        },
        {
          "indexed": false,
          "name": "_renter",
          "type": "address"
        },
        {
          "indexed": false,
          "name": "_photo",
          "type": "string"
        },
        {
          "indexed": false,
          "name": "_name",
          "type": "string"
        },
        {
          "indexed": false,
          "name": "_priceDaily",
          "type": "uint256"
        },
        {
          "indexed": false,
          "name": "_deposit",
          "type": "uint256"
        },
        {
          "indexed": false,
          "name": "_rented",
          "type": "bool"
        },
        {
          "indexed": false,
          "name": "_createAt",
          "type": "uint256"
        }
      ],
      "name": "NewRent",
      "type": "event"
    },
    {
      "anonymous": false,
      "inputs": [
        {
          "indexed": false,
          "name": "_objID",
          "type": "uint256"
        },
        {
          "indexed": false,
          "name": "_renter",
          "type": "address"
        },
        {
          "indexed": false,
          "name": "_rented",
          "type": "bool"
        },
        {
          "indexed": false,
          "name": "_createAt",
          "type": "uint256"
        }
      ],
      "name": "NewReturn",
      "type": "event"
    },
    {
      "constant": false,
      "inputs": [
        {
          "name": "objID",
          "type": "uint256"
        }
      ],
      "name": "objectIsRented",
      "outputs": [
        {
          "name": "",
          "type": "bool"
        }
      ],
      "payable": false,
      "stateMutability": "nonpayable",
      "type": "function"
    },
    {
      "constant": false,
      "inputs": [
        {
          "name": "photo",
          "type": "string"
        },
        {
          "name": "name",
          "type": "string"
        },
        {
          "name": "priceDaily",
          "type": "uint256"
        },
        {
          "name": "deposit",
          "type": "uint256"
        },
        {
          "name": "detail",
          "type": "string"
        },
        {
          "name": "categories",
          "type": "uint256"
        }
      ],
      "name": "createObj",
      "outputs": [],
      "payable": false,
      "stateMutability": "nonpayable",
      "type": "function"
    },
    {
      "constant": false,
      "inputs": [
        {
          "name": "objID",
          "type": "uint256"
        }
      ],
      "name": "rentObj",
      "outputs": [
        {
          "name": "",
          "type": "bool"
        }
      ],
      "payable": true,
      "stateMutability": "payable",
      "type": "function"
    },
    {
      "constant": false,
      "inputs": [
        {
          "name": "objID",
          "type": "uint256"
        }
      ],
      "name": "returnObj",
      "outputs": [
        {
          "name": "",
          "type": "bool"
        }
      ],
      "payable": true,
      "stateMutability": "payable",
      "type": "function"
    },
    {
      "constant": true,
      "inputs": [
        {
          "name": "name",
          "type": "string"
        }
      ],
      "name": "findNames",
      "outputs": [
        {
          "name": "",
          "type": "uint256[]"
        }
      ],
      "payable": false,
      "stateMutability": "view",
      "type": "function"
    },
    {
      "constant": true,
      "inputs": [
        {
          "name": "categories",
          "type": "uint256"
        }
      ],
      "name": "findTypes",
      "outputs": [
        {
          "name": "",
          "type": "uint256[]"
        }
      ],
      "payable": false,
      "stateMutability": "view",
      "type": "function"
    },
    {
      "constant": true,
      "inputs": [],
      "name": "getNumObjects",
      "outputs": [
        {
          "name": "",
          "type": "uint256"
        }
      ],
      "payable": false,
      "stateMutability": "view",
      "type": "function"
    },
    {
      "constant": true,
      "inputs": [],
      "name": "getObjectIds",
      "outputs": [
        {
          "name": "",
          "type": "uint256[]"
        }
      ],
      "payable": false,
      "stateMutability": "view",
      "type": "function"
    },
    {
      "constant": false,
      "inputs": [
        {
          "name": "objID",
          "type": "uint256"
        }
      ],
      "name": "getObjectName",
      "outputs": [
        {
          "name": "objName",
          "type": "string"
        }
      ],
      "payable": false,
      "stateMutability": "nonpayable",
      "type": "function"
    },
    {
      "constant": false,
      "inputs": [
        {
          "name": "objID",
          "type": "uint256"
        }
      ],
      "name": "getObjectPhoto",
      "outputs": [
        {
          "name": "",
          "type": "string"
        }
      ],
      "payable": false,
      "stateMutability": "nonpayable",
      "type": "function"
    },
    {
      "constant": true,
      "inputs": [
        {
          "name": "objID",
          "type": "uint256"
        }
      ],
      "name": "getObjectCreator",
      "outputs": [
        {
          "name": "",
          "type": "address"
        }
      ],
      "payable": false,
      "stateMutability": "view",
      "type": "function"
    },
    {
      "constant": true,
      "inputs": [
        {
          "name": "objID",
          "type": "uint256"
        }
      ],
      "name": "getObjectPriceDaily",
      "outputs": [
        {
          "name": "",
          "type": "uint256"
        }
      ],
      "payable": false,
      "stateMutability": "view",
      "type": "function"
    },
    {
      "constant": true,
      "inputs": [
        {
          "name": "objID",
          "type": "uint256"
        }
      ],
      "name": "getObjectDeposit",
      "outputs": [
        {
          "name": "",
          "type": "uint256"
        }
      ],
      "payable": false,
      "stateMutability": "view",
      "type": "function"
    },
    {
      "constant": true,
      "inputs": [
        {
          "name": "objID",
          "type": "uint256"
        }
      ],
      "name": "getObjectRenterAddress",
      "outputs": [
        {
          "name": "",
          "type": "address"
        }
      ],
      "payable": false,
      "stateMutability": "view",
      "type": "function"
    },
    {
      "constant": true,
      "inputs": [
        {
          "name": "objID",
          "type": "uint256"
        }
      ],
      "name": "getObjectRenterSince",
      "outputs": [
        {
          "name": "",
          "type": "uint256"
        }
      ],
      "payable": false,
      "stateMutability": "view",
      "type": "function"
    },
    {
      "constant": true,
      "inputs": [
        {
          "name": "objID",
          "type": "uint256"
        }
      ],
      "name": "getObjectDetail",
      "outputs": [
        {
          "name": "",
          "type": "string"
        }
      ],
      "payable": false,
      "stateMutability": "view",
      "type": "function"
    },
    {
      "constant": true,
      "inputs": [
        {
          "name": "objID",
          "type": "uint256"
        }
      ],
      "name": "getObjectCategories",
      "outputs": [
        {
          "name": "",
          "type": "uint256"
        }
      ],
      "payable": false,
      "stateMutability": "view",
      "type": "function"
    },
    {
      "constant": false,
      "inputs": [],
      "name": "remove",
      "outputs": [],
      "payable": false,
      "stateMutability": "nonpayable",
      "type": "function"
    }
  ],
  "bytecode": "0x6060604052341561000f57600080fd5b33600560006101000a81548173ffffffffffffffffffffffffffffffffffffffff021916908373ffffffffffffffffffffffffffffffffffffffff160217905550611b118061005f6000396000f300606060405260043610610112576000357c0100000000000000000000000000000000000000000000000000000000900463ffffffff16806304c381151461011757806318f8479914610140578063202c9094146101a3578063322db2971461023f57806334b05db91461026857806339856060146102985780634816a490146102d35780634bcc082114610385578063673e86fe146103bc5780637ea0c8bd146104265780638da5cb5b146104c25780638e73a47e14610517578063a7f4377914610615578063ace716ff1461062a578063b4d356ae14610661578063bd2b4ea5146106fd578063c774e16c14610775578063dce37ddb146107d8578063ddbffef41461080f578063e6adf19714610846575b600080fd5b341561012257600080fd5b61012a610876565b6040518082815260200191505060405180910390f35b341561014b57600080fd5b610161600480803590602001909190505061087c565b604051808273ffffffffffffffffffffffffffffffffffffffff1673ffffffffffffffffffffffffffffffffffffffff16815260200191505060405180910390f35b34156101ae57600080fd5b6101c460048080359060200190919050506108d1565b6040518080602001828103825283818151815260200191508051906020019080838360005b838110156102045780820151818401526020810190506101e9565b50505050905090810190601f1680156102315780820380516001836020036101000a031916815260200191505b509250505060405180910390f35b341561024a57600080fd5b6102526109a7565b6040518082815260200191505060405180910390f35b61027e60048080359060200190919050506109b1565b604051808215151515815260200191505060405180910390f35b34156102a357600080fd5b6102b96004808035906020019091905050610e64565b604051808215151515815260200191505060405180910390f35b34156102de57600080fd5b61032e600480803590602001908201803590602001908080601f01602080910402602001604051908101604052809392919081815260200183838082843782019150505050505091905050610ea3565b6040518080602001828103825283818151815260200191508051906020019060200280838360005b83811015610371578082015181840152602081019050610356565b505050509050019250505060405180910390f35b341561039057600080fd5b6103a66004808035906020019091905050610f6f565b6040518082815260200191505060405180910390f35b34156103c757600080fd5b6103cf610fa1565b6040518080602001828103825283818151815260200191508051906020019060200280838360005b838110156104125780820151818401526020810190506103f7565b505050509050019250505060405180910390f35b341561043157600080fd5b6104476004808035906020019091905050610fff565b6040518080602001828103825283818151815260200191508051906020019080838360005b8381101561048757808201518184015260208101905061046c565b50505050905090810190601f1680156104b45780820380516001836020036101000a031916815260200191505b509250505060405180910390f35b34156104cd57600080fd5b6104d56110cf565b604051808273ffffffffffffffffffffffffffffffffffffffff1673ffffffffffffffffffffffffffffffffffffffff16815260200191505060405180910390f35b341561052257600080fd5b610613600480803590602001908201803590602001908080601f0160208091040260200160405190810160405280939291908181526020018383808284378201915050505050509190803590602001908201803590602001908080601f0160208091040260200160405190810160405280939291908181526020018383808284378201915050505050509190803590602001909190803590602001909190803590602001908201803590602001908080601f016020809104026020016040519081016040528093929190818152602001838380828437820191505050505050919080359060200190919050506110f5565b005b341561062057600080fd5b61062861141d565b005b341561063557600080fd5b61064b60048080359060200190919050506114b4565b6040518082815260200191505060405180910390f35b341561066c57600080fd5b61068260048080359060200190919050506114e9565b6040518080602001828103825283818151815260200191508051906020019080838360005b838110156106c25780820151818401526020810190506106a7565b50505050905090810190601f1680156106ef5780820380516001836020036101000a031916815260200191505b509250505060405180910390f35b341561070857600080fd5b61071e60048080359060200190919050506115b9565b6040518080602001828103825283818151815260200191508051906020019060200280838360005b83811015610761578082015181840152602081019050610746565b505050509050019250505060405180910390f35b341561078057600080fd5b610796600480803590602001909190505061162d565b604051808273ffffffffffffffffffffffffffffffffffffffff1673ffffffffffffffffffffffffffffffffffffffff16815260200191505060405180910390f35b34156107e357600080fd5b6107f9600480803590602001909190505061167f565b6040518082815260200191505060405180910390f35b341561081a57600080fd5b61083060048080359060200190919050506116b1565b6040518082815260200191505060405180910390f35b61085c60048080359060200190919050506116e3565b604051808215151515815260200191505060405180910390f35b60015481565b6000816001548110151561088f57600080fd5b6002600084815260200190815260200160002060050160000160009054906101000a900473ffffffffffffffffffffffffffffffffffffffff16915050919050565b6108d96119ec565b600082600154811015156108ec57600080fd5b600260008581526020019081526020016000209150816002018054600181600116156101000203166002900480601f0160208091040260200160405190810160405280929190818152602001828054600181600116156101000203166002900480156109995780601f1061096e57610100808354040283529160200191610999565b820191906000526020600020905b81548152906001019060200180831161097c57829003601f168201915b505050505092505050919050565b6000600154905090565b60008082600154811015156109c557600080fd5b6109ce84610e64565b806109ee5750600260008581526020019081526020016000206004015434105b80610a5a57506002600085815260200190815260200160002060000160009054906101000a900473ffffffffffffffffffffffffffffffffffffffff1673ffffffffffffffffffffffffffffffffffffffff163373ffffffffffffffffffffffffffffffffffffffff16145b15610a6457600080fd5b60408051908101604052803373ffffffffffffffffffffffffffffffffffffffff168152602001428152506002600086815260200190815260200160002060050160008201518160000160006101000a81548173ffffffffffffffffffffffffffffffffffffffff021916908373ffffffffffffffffffffffffffffffffffffffff160217905550602082015181600101559050506002600085815260200190815260200160002060040154340391506002600085815260200190815260200160002060050160000160009054906101000a900473ffffffffffffffffffffffffffffffffffffffff1673ffffffffffffffffffffffffffffffffffffffff166108fc839081150290604051600060405180830381858888f193505050501515610b8d57600080fd5b60016002600086815260200190815260200160002060070160006101000a81548160ff0219169083151502179055507fce344edbd316937aa99334d1687ff2f4dbcfd5b9141fb70caef20b469196dd2f846002600087815260200190815260200160002060000160009054906101000a900473ffffffffffffffffffffffffffffffffffffffff166002600088815260200190815260200160002060050160000160009054906101000a900473ffffffffffffffffffffffffffffffffffffffff1660026000898152602001908152602001600020600101600260008a8152602001908152602001600020600201600260008b815260200190815260200160002060030154600260008c815260200190815260200160002060040154600142604051808a81526020018973ffffffffffffffffffffffffffffffffffffffff1673ffffffffffffffffffffffffffffffffffffffff1681526020018873ffffffffffffffffffffffffffffffffffffffff1673ffffffffffffffffffffffffffffffffffffffff168152602001806020018060200187815260200186815260200185151515158152602001848152602001838103835289818154600181600116156101000203166002900481526020019150805460018160011615610100020316600290048015610dbf5780601f10610d9457610100808354040283529160200191610dbf565b820191906000526020600020905b815481529060010190602001808311610da257829003601f168201915b5050838103825288818154600181600116156101000203166002900481526020019150805460018160011615610100020316600290048015610e425780601f10610e1757610100808354040283529160200191610e42565b820191906000526020600020905b815481529060010190602001808311610e2557829003601f168201915b50509b50505050505050505050505060405180910390a1600192505050919050565b60008160015481101515610e7757600080fd5b6002600084815260200190815260200160002060070160009054906101000a900460ff16915050919050565b610eab611a00565b6003826040518082805190602001908083835b602083101515610ee35780518252602082019150602081019050602083039250610ebe565b6001836020036101000a0380198251168184511680821785525050505050509050019150509081526020016040518091039020600001805480602002602001604051908101604052809291908181526020018280548015610f6357602002820191906000526020600020905b815481526020019060010190808311610f4f575b50505050509050919050565b60008160015481101515610f8257600080fd5b6002600084815260200190815260200160002060090154915050919050565b610fa9611a00565b6000805480602002602001604051908101604052809291908181526020018280548015610ff557602002820191906000526020600020905b815481526020019060010190808311610fe1575b5050505050905090565b6110076119ec565b816001548110151561101857600080fd5b600260008481526020019081526020016000206008018054600181600116156101000203166002900480601f0160208091040260200160405190810160405280929190818152602001828054600181600116156101000203166002900480156110c25780601f10611097576101008083540402835291602001916110c2565b820191906000526020600020905b8154815290600101906020018083116110a557829003601f168201915b5050505050915050919050565b600560009054906101000a900473ffffffffffffffffffffffffffffffffffffffff1681565b600060026000600154815260200190815260200160002090506003866040518082805190602001908083835b6020831015156111465780518252602082019150602081019050602083039250611121565b6001836020036101000a0380198251168184511680821785525050505050509050019150509081526020016040518091039020600001805480600101828161118e9190611a14565b9160005260206000209001600060015490919091505550338160000160006101000a81548173ffffffffffffffffffffffffffffffffffffffff021916908373ffffffffffffffffffffffffffffffffffffffff16021790555086816001019080519060200190611200929190611a40565b5085816002019080519060200190611219929190611a40565b5084816003018190555083816004018190555060008160070160006101000a81548160ff02191690831515021790555082816008019080519060200190611261929190611a40565b508181600901819055507fc22ed5329be821c9670587c04896e4c053d6cc17f47c65192ad707b818c63c606001543389898989886000604051808981526020018873ffffffffffffffffffffffffffffffffffffffff1673ffffffffffffffffffffffffffffffffffffffff168152602001806020018060200187815260200186815260200185815260200184151515158152602001838103835289818151815260200191508051906020019080838360005b8381101561132f578082015181840152602081019050611314565b50505050905090810190601f16801561135c5780820380516001836020036101000a031916815260200191505b50838103825288818151815260200191508051906020019080838360005b8381101561139557808201518184015260208101905061137a565b50505050905090810190601f1680156113c25780820380516001836020036101000a031916815260200191505b509a505050505050505050505060405180910390a1600080548060010182816113eb9190611a14565b916000526020600020900160006001549091909150555060016000815480929190600101919050555050505050505050565b600560009054906101000a900473ffffffffffffffffffffffffffffffffffffffff1673ffffffffffffffffffffffffffffffffffffffff163373ffffffffffffffffffffffffffffffffffffffff1614151561147957600080fd5b600560009054906101000a900473ffffffffffffffffffffffffffffffffffffffff1673ffffffffffffffffffffffffffffffffffffffff16ff5b600081600154811015156114c757600080fd5b6002600084815260200190815260200160002060050160010154915050919050565b6114f16119ec565b816001548110151561150257600080fd5b600260008481526020019081526020016000206001018054600181600116156101000203166002900480601f0160208091040260200160405190810160405280929190818152602001828054600181600116156101000203166002900480156115ac5780601f10611581576101008083540402835291602001916115ac565b820191906000526020600020905b81548152906001019060200180831161158f57829003601f168201915b5050505050915050919050565b6115c1611a00565b6004600083815260200190815260200160002060000180548060200260200160405190810160405280929190818152602001828054801561162157602002820191906000526020600020905b81548152602001906001019080831161160d575b50505050509050919050565b6000816001548110151561164057600080fd5b6002600084815260200190815260200160002060000160009054906101000a900473ffffffffffffffffffffffffffffffffffffffff16915050919050565b6000816001548110151561169257600080fd5b6002600084815260200190815260200160002060040154915050919050565b600081600154811015156116c457600080fd5b6002600084815260200190815260200160002060030154915050919050565b600080600083600154811015156116f957600080fd5b6002600086815260200190815260200160002060070160009054906101000a900460ff16151561172857600080fd5b3373ffffffffffffffffffffffffffffffffffffffff166002600087815260200190815260200160002060050160000160009054906101000a900473ffffffffffffffffffffffffffffffffffffffff1673ffffffffffffffffffffffffffffffffffffffff1614151561179b57600080fd5b62015180600260008781526020019081526020016000206005016001015442038115156117c457fe5b0492506002600086815260200190815260200160002060030154830291506002600086815260200190815260200160002060000160009054906101000a900473ffffffffffffffffffffffffffffffffffffffff1673ffffffffffffffffffffffffffffffffffffffff166108fc839081150290604051600060405180830381858888f19350505050151561185857600080fd5b6002600086815260200190815260200160002060050160000160009054906101000a900473ffffffffffffffffffffffffffffffffffffffff1673ffffffffffffffffffffffffffffffffffffffff166108fc836002600089815260200190815260200160002060040154039081150290604051600060405180830381858888f1935050505015156118e957600080fd5b60026000868152602001908152602001600020600501600080820160006101000a81549073ffffffffffffffffffffffffffffffffffffffff02191690556001820160009055505060006002600087815260200190815260200160002060070160006101000a81548160ff0219169083151502179055507f0a3d7493603aa7b085d6b77670c5b85cbc0367742d203f31155351564948c0868533600042604051808581526020018473ffffffffffffffffffffffffffffffffffffffff1673ffffffffffffffffffffffffffffffffffffffff1681526020018315151515815260200182815260200194505050505060405180910390a160019350505050919050565b602060405190810160405280600081525090565b602060405190810160405280600081525090565b815481835581811511611a3b57818360005260206000209182019101611a3a9190611ac0565b5b505050565b828054600181600116156101000203166002900490600052602060002090601f016020900481019282601f10611a8157805160ff1916838001178555611aaf565b82800160010185558215611aaf579182015b82811115611aae578251825591602001919060010190611a93565b5b509050611abc9190611ac0565b5090565b611ae291905b80821115611ade576000816000905550600101611ac6565b5090565b905600a165627a7a72305820f5f0be51cbad26578eab633a58d541402d3e49b295e2520e22df5d30a32309ac0029",
  "source": "pragma solidity ^0.4.19;\n\ncontract ShareApp{\n\n\tstruct Renter{\n\t\taddress addr;\n\t\tuint since;\n\t}\n\n\tstruct Object{\n\t\taddress creator; // +\n\t\tstring photo;\n\t\tstring name;\n\t\tuint priceDaily;\n\t\tuint deposit;\n\t\tRenter renter;\n\t\tbool rented;  //rented ?\n\t\tstring detail;\n\t\tuint categories;\n\t}\n\n\tstruct NameKey{ // storage the name's keys\n\t\tuint[] keys;\n\t}\n\n\tstruct TypeKey{\n\t\tuint[] keys;\n\t}\n\n\t//List of objects\n\tuint[] private ids;  //Use it to return the ids of Objects\n\tuint public numObjects;\n\tmapping(uint => Object) private objects;\n\tmapping(string => NameKey) private nameToKeys;\n\tmapping(uint => TypeKey) private typeToKeys;\n\t// mapping(address => uint) public balances;\n\n\taddress public owner;\n\n\t//Events\n\tevent NewObject(uint _objID, address _creator, string _photo, string _name, uint _priceDaily, uint _deposit, uint categories, bool _rented);\n\tevent NewRent(uint _objID, address _creator, address _renter, string _photo, string _name, uint _priceDaily, uint _deposit, bool _rented, uint _createAt);\n\tevent NewReturn(uint _objID, address _renter, bool _rented, uint _createAt);\n\n\tmodifier objectInRange(uint objID) {\n\t\tif (objID >= numObjects)\n\t\t\tthrow;\n\t\t_;\n\t}\n\n\tmodifier onlyOwner(){\n\t\tif(msg.sender != owner){\n\t\t\tthrow;\n\t\t}\n\t\t_;\n\t}\n\n\t/*\n\t* Functions\n\t*/\n\tfunction ShareApp(){\n\t\towner = msg.sender;\n\t}\n\n\tfunction objectIsRented(uint objID) objectInRange(objID) returns (bool){\n\t\treturn objects[objID].rented;\n\t}\n\n\tfunction createObj(string photo, string name,uint priceDaily,uint deposit,string detail, uint categories){\n\t\t// +\n\t\t//owner = msg.sender;\n\t\t// Object newObject = objects[numObjects];\n\t\tObject  newObject = objects[numObjects];\n\t\tnameToKeys[name].keys.push(numObjects); //add the key to the name's keys\n\n\t\tnewObject.creator = msg.sender;\n\t\tnewObject.photo = photo;\n\t\tnewObject.name = name;\n\t\tnewObject.priceDaily = priceDaily;\n\t\tnewObject.deposit = deposit;\n\t\tnewObject.rented = false;\n\t\tnewObject.detail = detail;\n\t\tnewObject.categories = categories;\n\n\t\t// objects[numObjects] = newObject;\n\t\tNewObject(numObjects, msg.sender, photo, name, priceDaily, deposit, categories, false);\n\t\tids.push(numObjects);\n\t\tnumObjects++;\n\t}\n\n\t//\tfunction getObj(uint objID) constant objectInRange(objID)\n\t//\treturns(\n\t//\t\taddress creator,\n\t//\t\tstring photo,\n\t//\t\tstring name,\n\t//\t\tuint priceDaily,\n\t//\t\tuint deposit,\n\t//\t\taddress renterAddress,\n\t//\t\tuint renterSince,\n\t//\t\tbool rented,\n\t//\t\tstring detail\n\t//\t)\n\t//\t{\n\t//\t\tcreator = objects[objID].creator;\n\t//\t\tphoto = objects[objID].photo;\n\t//\t\tname = objects[objID].name;\n\t//\t\tpriceDaily = objects[objID].priceDaily;\n\t//\t\tdeposit = objects[objID].deposit;\n\t//\t\trenterAddress = objects[objID].renter.addr;\n\t//\t\trenterSince = objects[objID].renter.since;\n\t//\t\trented = objects[objID].rented;\n\t//\t\tdetail = objects[objID].detail;\n\t//\t}\n\n\t// function getObject(uint objID) constant objectInRange(objID)\n\t// \treturns(Object object)\n\t// {\n\t// \tobject = objects[objID];\n\t// }\n\n\tfunction rentObj(uint objID) payable objectInRange(objID) returns(bool){\n\t\tif(objectIsRented(objID) || msg.value < objects[objID].deposit || msg.sender == objects[objID].creator){\n\t\t\tthrow;\n\t\t}\n\t\tobjects[objID].renter = Renter({addr:msg.sender, since:now});  //record the info of the renter\n\t\tuint rest = msg.value - objects[objID].deposit;\n\t\tif(!objects[objID].renter.addr.send(rest)){   // return the rest balance\n\t\t\tthrow;\n\t\t}\n\t\tobjects[objID].rented = true;\n\t\tNewRent(objID, objects[objID].creator, objects[objID].renter.addr, objects[objID].photo, objects[objID].name, objects[objID].priceDaily, objects[objID].deposit, true, now);\n\t\treturn true;\n\t}\n\n\tfunction returnObj(uint objID) payable objectInRange(objID) returns (bool){\n\t\tif(!objects[objID].rented){\n\t\t\tthrow;\n\t\t}\n\t\tif(objects[objID].renter.addr != msg.sender){\n\t\t\tthrow;\n\t\t}\n\t\tuint duration = (now - objects[objID].renter.since) / (24*60*60*1.0);\n\t\tuint charge = duration * objects[objID].priceDaily;\n\t\t// uint days = (duration / (24*60*60*1.0));\n\t\t// uint charge = days * objects[objID].priceDaily;\n\t\tif(!objects[objID].creator.send(charge)){\n\t\t\tthrow;\n\t\t}\n\t\tif(!objects[objID].renter.addr.send(objects[objID].deposit - charge)){\n\t\t\tthrow;\n\t\t}\n\t\tdelete objects[objID].renter;\n\t\tobjects[objID].rented = false;\n\t\tNewReturn(objID, msg.sender, false, now);\n\t\treturn true;\n\t}\n\n\t// function withdraw() {\n\t// \tvar amount = balances[msg.sender];\n\t// \tbalances[msg.sender] = 0;\n\t// \tmsg.sender.transfer(amount);\n\t// }\n\n\tfunction findNames(string name) constant returns(uint[]){\n\t\treturn nameToKeys[name].keys;\n\t}\n\n\tfunction findTypes(uint categories) constant returns(uint[]) {\n\t\treturn typeToKeys[categories].keys;\n\t}\n\n\tfunction getNumObjects() constant returns(uint){\n\t\treturn numObjects;\n\t}\n\n\tfunction getObjectIds() constant returns(uint[]){\n\t\treturn ids;\n\t}\n\n\tfunction getObjectName(uint objID) objectInRange(objID) returns(string objName){\n\t\tvar obj = objects[objID];\n\t\tobjName = obj.name;\n\t}\n\n\tfunction getObjectPhoto(uint objID) objectInRange(objID) returns(string){\n\t\treturn objects[objID].photo;\n\t}\n\n\tfunction getObjectCreator(uint objID) constant objectInRange(objID) returns(address){\n\t\treturn objects[objID].creator;\n\t}\n\n\tfunction getObjectPriceDaily(uint objID) constant objectInRange(objID) returns(uint){\n\t\treturn objects[objID].priceDaily;\n\t}\n\n\tfunction getObjectDeposit(uint objID) constant objectInRange(objID) returns(uint){\n\t\treturn objects[objID].deposit;\n\t}\n\n\tfunction getObjectRenterAddress(uint objID) constant objectInRange(objID) returns(address){\n\t\treturn objects[objID].renter.addr;\n\t}\n\n\tfunction getObjectRenterSince(uint objID) constant objectInRange(objID) returns(uint){\n\t\treturn objects[objID].renter.since;\n\t}\n\n\tfunction getObjectDetail(uint objID) constant objectInRange(objID) returns(string){\n\t\treturn objects[objID].detail;\n\t}\n\n\tfunction getObjectCategories(uint objID) constant objectInRange(objID) returns(uint){\n\t\treturn objects[objID].categories;\n\t}\n\n\tfunction remove() onlyOwner {\n\t\tselfdestruct(owner);\n\t\t// suicide(owner);\n\t}\n}\n",
  "sourcePath": "/Users/steveniiv/Test/Market-DApp/contracts/ShareApp.sol",
  "compiler": {
    "name": "solc",
    "version": "0.4.19+commit.c4cbbb05.Emscripten.clang"
  },
  "schemaVersion": "3.0.19",
  "updatedAt": "2020-03-01T09:28:21.584Z",
  "devdoc": {
    "methods": {}
  },
  "userdoc": {
    "methods": {}
  }
}