{
  "contractName": "ShareApp",
  "abi": [
    {
      "constant": true,
      "inputs": [],
      "name": "numObjects",
      "outputs": [
        {
          "name": "",
          "type": "uint256"
        }
      ],
      "payable": false,
      "stateMutability": "view",
      "type": "function"
    },
    {
      "constant": true,
      "inputs": [],
      "name": "owner",
      "outputs": [
        {
          "name": "",
          "type": "address"
        }
      ],
      "payable": false,
      "stateMutability": "view",
      "type": "function"
    },
    {
      "inputs": [],
      "payable": false,
      "stateMutability": "nonpayable",
      "type": "constructor"
    },
    {
      "anonymous": false,
      "inputs": [
        {
          "indexed": false,
          "name": "objID",
          "type": "uint256"
        },
        {
          "indexed": false,
          "name": "creator",
          "type": "address"
        }
      ],
      "name": "NewObject",
      "type": "event"
    },
    {
      "constant": false,
      "inputs": [
        {
          "name": "objID",
          "type": "uint256"
        }
      ],
      "name": "objectIsRented",
      "outputs": [
        {
          "name": "",
          "type": "bool"
        }
      ],
      "payable": false,
      "stateMutability": "nonpayable",
      "type": "function"
    },
    {
      "constant": false,
      "inputs": [
        {
          "name": "name",
          "type": "string"
        },
        {
          "name": "priceDaily",
          "type": "uint256"
        },
        {
          "name": "deposit",
          "type": "uint256"
        },
        {
          "name": "detail",
          "type": "string"
        }
      ],
      "name": "createObj",
      "outputs": [],
      "payable": false,
      "stateMutability": "nonpayable",
      "type": "function"
    },
    {
      "constant": false,
      "inputs": [
        {
          "name": "objID",
          "type": "uint256"
        }
      ],
      "name": "rentObj",
      "outputs": [
        {
          "name": "",
          "type": "bool"
        }
      ],
      "payable": true,
      "stateMutability": "payable",
      "type": "function"
    },
    {
      "constant": false,
      "inputs": [
        {
          "name": "objID",
          "type": "uint256"
        }
      ],
      "name": "returnObj",
      "outputs": [
        {
          "name": "",
          "type": "bool"
        }
      ],
      "payable": true,
      "stateMutability": "payable",
      "type": "function"
    },
    {
      "constant": true,
      "inputs": [
        {
          "name": "name",
          "type": "string"
        }
      ],
      "name": "findNames",
      "outputs": [
        {
          "name": "",
          "type": "uint256[]"
        }
      ],
      "payable": false,
      "stateMutability": "view",
      "type": "function"
    },
    {
      "constant": true,
      "inputs": [],
      "name": "getNumObjects",
      "outputs": [
        {
          "name": "",
          "type": "uint256"
        }
      ],
      "payable": false,
      "stateMutability": "view",
      "type": "function"
    },
    {
      "constant": true,
      "inputs": [],
      "name": "getObjectIds",
      "outputs": [
        {
          "name": "",
          "type": "uint256[]"
        }
      ],
      "payable": false,
      "stateMutability": "view",
      "type": "function"
    },
    {
      "constant": false,
      "inputs": [
        {
          "name": "objID",
          "type": "uint256"
        }
      ],
      "name": "getObjectName",
      "outputs": [
        {
          "name": "objName",
          "type": "string"
        }
      ],
      "payable": false,
      "stateMutability": "nonpayable",
      "type": "function"
    },
    {
      "constant": true,
      "inputs": [
        {
          "name": "objID",
          "type": "uint256"
        }
      ],
      "name": "getObjectCreator",
      "outputs": [
        {
          "name": "",
          "type": "address"
        }
      ],
      "payable": false,
      "stateMutability": "view",
      "type": "function"
    },
    {
      "constant": true,
      "inputs": [
        {
          "name": "objID",
          "type": "uint256"
        }
      ],
      "name": "getObjectPriceDaily",
      "outputs": [
        {
          "name": "",
          "type": "uint256"
        }
      ],
      "payable": false,
      "stateMutability": "view",
      "type": "function"
    },
    {
      "constant": true,
      "inputs": [
        {
          "name": "objID",
          "type": "uint256"
        }
      ],
      "name": "getObjectDeposit",
      "outputs": [
        {
          "name": "",
          "type": "uint256"
        }
      ],
      "payable": false,
      "stateMutability": "view",
      "type": "function"
    },
    {
      "constant": true,
      "inputs": [
        {
          "name": "objID",
          "type": "uint256"
        }
      ],
      "name": "getObjectRenterAddress",
      "outputs": [
        {
          "name": "",
          "type": "address"
        }
      ],
      "payable": false,
      "stateMutability": "view",
      "type": "function"
    },
    {
      "constant": true,
      "inputs": [
        {
          "name": "objID",
          "type": "uint256"
        }
      ],
      "name": "getObjectRenterSince",
      "outputs": [
        {
          "name": "",
          "type": "uint256"
        }
      ],
      "payable": false,
      "stateMutability": "view",
      "type": "function"
    },
    {
      "constant": true,
      "inputs": [
        {
          "name": "objID",
          "type": "uint256"
        }
      ],
      "name": "getObjectDetail",
      "outputs": [
        {
          "name": "",
          "type": "string"
        }
      ],
      "payable": false,
      "stateMutability": "view",
      "type": "function"
    },
    {
      "constant": false,
      "inputs": [],
      "name": "remove",
      "outputs": [],
      "payable": false,
      "stateMutability": "nonpayable",
      "type": "function"
    }
  ],
  "bytecode": "0x6060604052341561000f57600080fd5b33600460006101000a81548173ffffffffffffffffffffffffffffffffffffffff021916908373ffffffffffffffffffffffffffffffffffffffff16021790555061139f8061005f6000396000f3006060604052600436106100f1576000357c0100000000000000000000000000000000000000000000000000000000900463ffffffff16806304c38115146100f657806318f847991461011f578063202c909414610182578063322db2971461021e57806334b05db91461024757806339856060146102775780634816a490146102b2578063673e86fe146103645780637ea0c8bd146103ce5780638da5cb5b1461046a578063a7f43779146104bf578063ace716ff146104d4578063c774e16c1461050b578063dce37ddb1461056e578063ddbffef4146105a5578063e6adf197146105dc578063e9f123831461060c575b600080fd5b341561010157600080fd5b6101096106be565b6040518082815260200191505060405180910390f35b341561012a57600080fd5b61014060048080359060200190919050506106c4565b604051808273ffffffffffffffffffffffffffffffffffffffff1673ffffffffffffffffffffffffffffffffffffffff16815260200191505060405180910390f35b341561018d57600080fd5b6101a36004808035906020019091905050610719565b6040518080602001828103825283818151815260200191508051906020019080838360005b838110156101e35780820151818401526020810190506101c8565b50505050905090810190601f1680156102105780820380516001836020036101000a031916815260200191505b509250505060405180910390f35b341561022957600080fd5b6102316107ef565b6040518082815260200191505060405180910390f35b61025d60048080359060200190919050506107f9565b604051808215151515815260200191505060405180910390f35b341561028257600080fd5b6102986004808035906020019091905050610a0f565b604051808215151515815260200191505060405180910390f35b34156102bd57600080fd5b61030d600480803590602001908201803590602001908080601f01602080910402602001604051908101604052809392919081815260200183838082843782019150505050505091905050610a4e565b6040518080602001828103825283818151815260200191508051906020019060200280838360005b83811015610350578082015181840152602081019050610335565b505050509050019250505060405180910390f35b341561036f57600080fd5b610377610b1a565b6040518080602001828103825283818151815260200191508051906020019060200280838360005b838110156103ba57808201518184015260208101905061039f565b505050509050019250505060405180910390f35b34156103d957600080fd5b6103ef6004808035906020019091905050610b78565b6040518080602001828103825283818151815260200191508051906020019080838360005b8381101561042f578082015181840152602081019050610414565b50505050905090810190601f16801561045c5780820380516001836020036101000a031916815260200191505b509250505060405180910390f35b341561047557600080fd5b61047d610c48565b604051808273ffffffffffffffffffffffffffffffffffffffff1673ffffffffffffffffffffffffffffffffffffffff16815260200191505060405180910390f35b34156104ca57600080fd5b6104d2610c6e565b005b34156104df57600080fd5b6104f56004808035906020019091905050610d05565b6040518082815260200191505060405180910390f35b341561051657600080fd5b61052c6004808035906020019091905050610d3a565b604051808273ffffffffffffffffffffffffffffffffffffffff1673ffffffffffffffffffffffffffffffffffffffff16815260200191505060405180910390f35b341561057957600080fd5b61058f6004808035906020019091905050610d8c565b6040518082815260200191505060405180910390f35b34156105b057600080fd5b6105c66004808035906020019091905050610dbe565b6040518082815260200191505060405180910390f35b6105f26004808035906020019091905050610df0565b604051808215151515815260200191505060405180910390f35b341561061757600080fd5b6106bc600480803590602001908201803590602001908080601f0160208091040260200160405190810160405280939291908181526020018383808284378201915050505050509190803590602001909190803590602001909190803590602001908201803590602001908080601f01602080910402602001604051908101604052809392919081815260200183838082843782019150505050505091905050611075565b005b60015481565b600081600154811015156106d757600080fd5b6002600084815260200190815260200160002060040160000160009054906101000a900473ffffffffffffffffffffffffffffffffffffffff16915050919050565b61072161127a565b6000826001548110151561073457600080fd5b600260008581526020019081526020016000209150816001018054600181600116156101000203166002900480601f0160208091040260200160405190810160405280929190818152602001828054600181600116156101000203166002900480156107e15780601f106107b6576101008083540402835291602001916107e1565b820191906000526020600020905b8154815290600101906020018083116107c457829003601f168201915b505050505092505050919050565b6000600154905090565b600080826001548110151561080d57600080fd5b61081684610a0f565b806108365750600260008581526020019081526020016000206003015434105b806108a257506002600085815260200190815260200160002060000160009054906101000a900473ffffffffffffffffffffffffffffffffffffffff1673ffffffffffffffffffffffffffffffffffffffff163373ffffffffffffffffffffffffffffffffffffffff16145b156108ac57600080fd5b60408051908101604052803373ffffffffffffffffffffffffffffffffffffffff168152602001428152506002600086815260200190815260200160002060040160008201518160000160006101000a81548173ffffffffffffffffffffffffffffffffffffffff021916908373ffffffffffffffffffffffffffffffffffffffff160217905550602082015181600101559050506002600085815260200190815260200160002060030154340391506002600085815260200190815260200160002060040160000160009054906101000a900473ffffffffffffffffffffffffffffffffffffffff1673ffffffffffffffffffffffffffffffffffffffff166108fc839081150290604051600060405180830381858888f1935050505015156109d557600080fd5b60016002600086815260200190815260200160002060060160006101000a81548160ff021916908315150217905550600192505050919050565b60008160015481101515610a2257600080fd5b6002600084815260200190815260200160002060060160009054906101000a900460ff16915050919050565b610a5661128e565b6003826040518082805190602001908083835b602083101515610a8e5780518252602082019150602081019050602083039250610a69565b6001836020036101000a0380198251168184511680821785525050505050509050019150509081526020016040518091039020600001805480602002602001604051908101604052809291908181526020018280548015610b0e57602002820191906000526020600020905b815481526020019060010190808311610afa575b50505050509050919050565b610b2261128e565b6000805480602002602001604051908101604052809291908181526020018280548015610b6e57602002820191906000526020600020905b815481526020019060010190808311610b5a575b5050505050905090565b610b8061127a565b8160015481101515610b9157600080fd5b600260008481526020019081526020016000206007018054600181600116156101000203166002900480601f016020809104026020016040519081016040528092919081815260200182805460018160011615610100020316600290048015610c3b5780601f10610c1057610100808354040283529160200191610c3b565b820191906000526020600020905b815481529060010190602001808311610c1e57829003601f168201915b5050505050915050919050565b600460009054906101000a900473ffffffffffffffffffffffffffffffffffffffff1681565b600460009054906101000a900473ffffffffffffffffffffffffffffffffffffffff1673ffffffffffffffffffffffffffffffffffffffff163373ffffffffffffffffffffffffffffffffffffffff16141515610cca57600080fd5b600460009054906101000a900473ffffffffffffffffffffffffffffffffffffffff1673ffffffffffffffffffffffffffffffffffffffff16ff5b60008160015481101515610d1857600080fd5b6002600084815260200190815260200160002060040160010154915050919050565b60008160015481101515610d4d57600080fd5b6002600084815260200190815260200160002060000160009054906101000a900473ffffffffffffffffffffffffffffffffffffffff16915050919050565b60008160015481101515610d9f57600080fd5b6002600084815260200190815260200160002060030154915050919050565b60008160015481101515610dd157600080fd5b6002600084815260200190815260200160002060020154915050919050565b60008060008360015481101515610e0657600080fd5b6002600086815260200190815260200160002060060160009054906101000a900460ff161515610e3557600080fd5b3373ffffffffffffffffffffffffffffffffffffffff166002600087815260200190815260200160002060040160000160009054906101000a900473ffffffffffffffffffffffffffffffffffffffff1673ffffffffffffffffffffffffffffffffffffffff16141515610ea857600080fd5b6201518060026000878152602001908152602001600020600401600101544203811515610ed157fe5b0492506002600086815260200190815260200160002060020154830291506002600086815260200190815260200160002060000160009054906101000a900473ffffffffffffffffffffffffffffffffffffffff1673ffffffffffffffffffffffffffffffffffffffff166108fc839081150290604051600060405180830381858888f193505050501515610f6557600080fd5b6002600086815260200190815260200160002060040160000160009054906101000a900473ffffffffffffffffffffffffffffffffffffffff1673ffffffffffffffffffffffffffffffffffffffff166108fc836002600089815260200190815260200160002060030154039081150290604051600060405180830381858888f193505050501515610ff657600080fd5b60026000868152602001908152602001600020600401600080820160006101000a81549073ffffffffffffffffffffffffffffffffffffffff02191690556001820160009055505060006002600087815260200190815260200160002060060160006101000a81548160ff021916908315150217905550505050919050565b600060026000600154815260200190815260200160002090506003856040518082805190602001908083835b6020831015156110c657805182526020820191506020810190506020830392506110a1565b6001836020036101000a0380198251168184511680821785525050505050509050019150509081526020016040518091039020600001805480600101828161110e91906112a2565b9160005260206000209001600060015490919091505550338160000160006101000a81548173ffffffffffffffffffffffffffffffffffffffff021916908373ffffffffffffffffffffffffffffffffffffffff160217905550848160010190805190602001906111809291906112ce565b5083816002018190555082816003018190555060008160060160006101000a81548160ff021916908315150217905550818160070190805190602001906111c89291906112ce565b507f34ed2f26f2ce17e86e267fe3e5e005eb9e9f078e4514c7c473e985fa83a04d1d60015433604051808381526020018273ffffffffffffffffffffffffffffffffffffffff1673ffffffffffffffffffffffffffffffffffffffff1681526020019250505060405180910390a16000805480600101828161124a91906112a2565b91600052602060002090016000600154909190915055506001600081548092919060010191905055505050505050565b602060405190810160405280600081525090565b602060405190810160405280600081525090565b8154818355818115116112c9578183600052602060002091820191016112c8919061134e565b5b505050565b828054600181600116156101000203166002900490600052602060002090601f016020900481019282601f1061130f57805160ff191683800117855561133d565b8280016001018555821561133d579182015b8281111561133c578251825591602001919060010190611321565b5b50905061134a919061134e565b5090565b61137091905b8082111561136c576000816000905550600101611354565b5090565b905600a165627a7a72305820b2227954e481b90d91fe36f862bc7a782216ddc47229dc8b5e624201ee17b1b90029",
  "source": "pragma solidity ^0.4.19;\n\ncontract ShareApp{\n\n\tstruct Renter{\n\t\taddress addr;\n\t\tuint since;\n\t}\n\n\tstruct Object{\n\t\taddress creator; // +\n\t\tstring name;\n\t\tuint priceDaily;\n\t\tuint deposit;\n\t\tRenter renter;\n\t\tbool rented;  //rented ?\n\t\tstring detail;\n\t}\n\n\tstruct NameKey{ // storage the name's keys\n\t\tuint[] keys;\n\t}\n\n\t//List of objects\n\tuint[] private ids;  //Use it to return the ids of Objects\n\tuint public numObjects;\n\tmapping(uint => Object) private objects;\n\tmapping(string => NameKey) private nameToKeys;\n\t// mapping(address => uint) public balances;\n\n\taddress public owner;\n\n\t//Events\n\tevent NewObject(uint objID, address creator);\n\t// event NewObject(uint indexed objID, address creator);\n\n\tmodifier objectInRange(uint objID) {\n        if (objID >= numObjects)\n            throw;\n        _;\n    }\n\n    modifier onlyOwner(){\n    \tif(msg.sender != owner){\n    \t\tthrow;\n    \t}\n    \t_;\n    }\n\n\t/*\n\t* Functions\n\t*/\n\tfunction ShareApp(){\n\t\towner = msg.sender;\n\t}\n\n\tfunction objectIsRented(uint objID) objectInRange(objID) returns (bool){\n\t\treturn objects[objID].rented;\n\t}\n\n\tfunction createObj(string name,uint priceDaily,uint deposit,string detail){\n\t\t// +\n\t\t//owner = msg.sender;\n\t\t// Object newObject = objects[numObjects];\n\t\tObject  newObject = objects[numObjects];\n\t\tnameToKeys[name].keys.push(numObjects); //add the key to the name's keys\n\n\t\tnewObject.creator = msg.sender;\n\t\tnewObject.name = name;\n\t\tnewObject.priceDaily = priceDaily;\n\t\tnewObject.deposit = deposit;\n\t\tnewObject.rented = false;\n\t\tnewObject.detail = detail;\n\n\t\t// objects[numObjects] = newObject;\n\t\tNewObject(numObjects,msg.sender);\n\t\tids.push(numObjects);\n\t\tnumObjects++;\n\t}\n\n\t// function getObj(uint objID) constant objectInRange(objID)\n\t// \treturns(\n\t// \t\taddress creator,\n\t// \t\tstring name,\n\t// \t\tuint priceDaily,\n\t// \t\tuint deposit,\n\t// \t\taddress renterAddress,\n\t// \t\tuint renterSince,\n\t// \t\tbool rented,\n\t// \t\tstring detail\n\t// \t)\n\t// {\n\t// \tcreator = objects[objID].creator;\n\t// \tname = objects[objID].name;\n\t// \tpriceDaily = objects[objID].priceDaily;\n\t// \tdeposit = objects[objID].deposit;\n\t// \trenterAddress = objects[objID].renter.addr;\n\t// \trenterSince = objects[objID].renter.since;\n\t// \trented = objects[objID].rented;\n\t// \tdetail = objects[objID].detail;\n\t// }\n\n\t// function getObject(uint objID) constant objectInRange(objID)\n\t// \treturns(Object object)\n\t// {\n\t// \tobject = objects[objID];\n\t// }\n\n\tfunction rentObj(uint objID) payable objectInRange(objID) returns(bool){\n\t\tif(objectIsRented(objID) || msg.value < objects[objID].deposit || msg.sender == objects[objID].creator){\n\t\t\tthrow;\n\t\t}\n\t\tobjects[objID].renter = Renter({addr:msg.sender, since:now});  //record the info of the renter\n\t\tuint rest = msg.value - objects[objID].deposit;\n\t\tif(!objects[objID].renter.addr.send(rest)){   // return the rest balance扣自己钱存入合约余额中\n\t\t\tthrow;\n\t\t}\n\t\tobjects[objID].rented = true;\n\t\treturn true;\n\t}\n\n\tfunction returnObj(uint objID) payable objectInRange(objID) returns (bool){\n\t\tif(!objects[objID].rented){\n\t\t\tthrow;\n\t\t}\n\t\tif(objects[objID].renter.addr != msg.sender){\n\t\t\tthrow;\n\t\t}\n\t\tuint duration = (now - objects[objID].renter.since) / (24*60*60*1.0);\n\t\tuint charge = duration * objects[objID].priceDaily;\n\t\t// uint days = (duration / (24*60*60*1.0));\n\t\t// uint charge = days * objects[objID].priceDaily;\n\t\tif(!objects[objID].creator.send(charge)){\n\t\t\tthrow;\n\t\t}\n\t\tif(!objects[objID].renter.addr.send(objects[objID].deposit - charge)){\n\t\t\tthrow;\n\t\t}\n\t\tdelete objects[objID].renter;\n\t\tobjects[objID].rented = false;\n\t}\n\n\t// function withdraw() {\n\t// \tvar amount = balances[msg.sender];\n\t// \tbalances[msg.sender] = 0;\n\t// \tmsg.sender.transfer(amount);\n\t// }\n\n\tfunction findNames(string name) constant returns(uint[]){\n\t\treturn nameToKeys[name].keys;\n\t}\n\n\tfunction getNumObjects() constant returns(uint){\n\t\treturn numObjects;\n\t}\n\n\tfunction getObjectIds() constant returns(uint[]){\n\t\treturn ids;\n\t}\n\n\tfunction getObjectName(uint objID) objectInRange(objID) returns(string objName){\n\t\tvar obj = objects[objID];\n\t\tobjName = obj.name;\n\t}\n\n\tfunction getObjectCreator(uint objID) constant objectInRange(objID) returns(address){\n\t\treturn objects[objID].creator;\n\t}\n\n\tfunction getObjectPriceDaily(uint objID) constant objectInRange(objID) returns(uint){\n\t\treturn objects[objID].priceDaily;\n\t}\n\n\tfunction getObjectDeposit(uint objID) constant objectInRange(objID) returns(uint){\n\t\treturn objects[objID].deposit;\n\t}\n\n\tfunction getObjectRenterAddress(uint objID) constant objectInRange(objID) returns(address){\n\t\treturn objects[objID].renter.addr;\n\t}\n\n\tfunction getObjectRenterSince(uint objID) constant objectInRange(objID) returns(uint){\n\t\treturn objects[objID].renter.since;\n\t}\n\n\tfunction getObjectDetail(uint objID) constant objectInRange(objID) returns(string){\n\t\treturn objects[objID].detail;\n\t}\n\n\tfunction remove() onlyOwner {\n\t\t\tselfdestruct(owner);\n\t\t\t// suicide(owner);\n\t}\n}\n",
  "sourcePath": "/Users/steveniiv/Test/ShareApp/contracts/ShareApp.sol",
  "compiler": {
    "name": "solc",
    "version": "0.4.19+commit.c4cbbb05.Emscripten.clang"
  },
  "schemaVersion": "3.0.19",
  "updatedAt": "2020-02-13T07:56:06.814Z",
  "networkType": "ethereum",
  "devdoc": {
    "methods": {}
  },
  "userdoc": {
    "methods": {}
  }
}