{
  "contractName": "UserApp",
  "abi": [
    {
      "constant": true,
      "inputs": [
        {
          "name": "userAddress",
          "type": "address"
        }
      ],
      "name": "isUser",
      "outputs": [
        {
          "name": "isIndeed",
          "type": "bool"
        }
      ],
      "payable": false,
      "stateMutability": "view",
      "type": "function"
    },
    {
      "constant": false,
      "inputs": [
        {
          "name": "userName",
          "type": "string"
        },
        {
          "name": "photo",
          "type": "string"
        },
        {
          "name": "passWord",
          "type": "string"
        },
        {
          "name": "email",
          "type": "string"
        },
        {
          "name": "age",
          "type": "uint256"
        },
        {
          "name": "userAddress",
          "type": "address"
        },
        {
          "name": "sex",
          "type": "string"
        },
        {
          "name": "description",
          "type": "string"
        }
      ],
      "name": "addNewUser",
      "outputs": [
        {
          "name": "success",
          "type": "bool"
        }
      ],
      "payable": false,
      "stateMutability": "nonpayable",
      "type": "function"
    },
    {
      "constant": true,
      "inputs": [
        {
          "name": "_userAddress",
          "type": "address"
        }
      ],
      "name": "getUser",
      "outputs": [
        {
          "name": "userName",
          "type": "string"
        },
        {
          "name": "photo",
          "type": "string"
        },
        {
          "name": "passWord",
          "type": "string"
        },
        {
          "name": "email",
          "type": "string"
        },
        {
          "name": "age",
          "type": "uint256"
        },
        {
          "name": "sex",
          "type": "string"
        },
        {
          "name": "description",
          "type": "string"
        }
      ],
      "payable": false,
      "stateMutability": "view",
      "type": "function"
    },
    {
      "constant": false,
      "inputs": [
        {
          "name": "userAddress",
          "type": "address"
        },
        {
          "name": "passWord",
          "type": "string"
        }
      ],
      "name": "checkUser",
      "outputs": [
        {
          "name": "success",
          "type": "bool"
        }
      ],
      "payable": false,
      "stateMutability": "nonpayable",
      "type": "function"
    },
    {
      "constant": false,
      "inputs": [
        {
          "name": "userName",
          "type": "string"
        },
        {
          "name": "passWord",
          "type": "string"
        },
        {
          "name": "email",
          "type": "string"
        },
        {
          "name": "age",
          "type": "uint256"
        },
        {
          "name": "userAddress",
          "type": "address"
        },
        {
          "name": "sex",
          "type": "string"
        },
        {
          "name": "description",
          "type": "string"
        }
      ],
      "name": "modifyUser",
      "outputs": [
        {
          "name": "success",
          "type": "bool"
        }
      ],
      "payable": false,
      "stateMutability": "nonpayable",
      "type": "function"
    }
  ],
  "bytecode": "0x6060604052341561000f57600080fd5b6115738061001e6000396000f30060606040526004361061006d576000357c0100000000000000000000000000000000000000000000000000000000900463ffffffff1680630165ba0b146100725780633607d9ed1461021b5780634209fff11461040757806353ee88f5146104585780636f77926b146104ec575b600080fd5b341561007d57600080fd5b610201600480803590602001908201803590602001908080601f0160208091040260200160405190810160405280939291908181526020018383808284378201915050505050509190803590602001908201803590602001908080601f0160208091040260200160405190810160405280939291908181526020018383808284378201915050505050509190803590602001908201803590602001908080601f0160208091040260200160405190810160405280939291908181526020018383808284378201915050505050509190803590602001909190803573ffffffffffffffffffffffffffffffffffffffff1690602001909190803590602001908201803590602001908080601f0160208091040260200160405190810160405280939291908181526020018383808284378201915050505050509190803590602001908201803590602001908080601f016020809104026020016040519081016040528093929190818152602001838380828437820191505050505050919050506107c1565b604051808215151515815260200191505060405180910390f35b341561022657600080fd5b6103ed600480803590602001908201803590602001908080601f0160208091040260200160405190810160405280939291908181526020018383808284378201915050505050509190803590602001908201803590602001908080601f0160208091040260200160405190810160405280939291908181526020018383808284378201915050505050509190803590602001908201803590602001908080601f0160208091040260200160405190810160405280939291908181526020018383808284378201915050505050509190803590602001908201803590602001908080601f0160208091040260200160405190810160405280939291908181526020018383808284378201915050505050509190803590602001909190803573ffffffffffffffffffffffffffffffffffffffff1690602001909190803590602001908201803590602001908080601f0160208091040260200160405190810160405280939291908181526020018383808284378201915050505050509190803590602001908201803590602001908080601f016020809104026020016040519081016040528093929190818152602001838380828437820191505050505050919050506109c2565b604051808215151515815260200191505060405180910390f35b341561041257600080fd5b61043e600480803573ffffffffffffffffffffffffffffffffffffffff16906020019091905050610cc7565b604051808215151515815260200191505060405180910390f35b341561046357600080fd5b6104d2600480803573ffffffffffffffffffffffffffffffffffffffff1690602001909190803590602001908201803590602001908080601f01602080910402602001604051908101604052809392919081815260200183838082843782019150505050505091905050610d25565b604051808215151515815260200191505060405180910390f35b34156104f757600080fd5b610523600480803573ffffffffffffffffffffffffffffffffffffffff16906020019091905050610ea7565b6040518080602001806020018060200180602001888152602001806020018060200187810387528e818151815260200191508051906020019080838360005b8381101561057d578082015181840152602081019050610562565b50505050905090810190601f1680156105aa5780820380516001836020036101000a031916815260200191505b5087810386528d818151815260200191508051906020019080838360005b838110156105e35780820151818401526020810190506105c8565b50505050905090810190601f1680156106105780820380516001836020036101000a031916815260200191505b5087810385528c818151815260200191508051906020019080838360005b8381101561064957808201518184015260208101905061062e565b50505050905090810190601f1680156106765780820380516001836020036101000a031916815260200191505b5087810384528b818151815260200191508051906020019080838360005b838110156106af578082015181840152602081019050610694565b50505050905090810190601f1680156106dc5780820380516001836020036101000a031916815260200191505b50878103835289818151815260200191508051906020019080838360005b838110156107155780820151818401526020810190506106fa565b50505050905090810190601f1680156107425780820380516001836020036101000a031916815260200191505b50878103825288818151815260200191508051906020019080838360005b8381101561077b578082015181840152602081019050610760565b50505050905090810190601f1680156107a85780820380516001836020036101000a031916815260200191505b509d505050505050505050505050505060405180910390f35b6000876000808673ffffffffffffffffffffffffffffffffffffffff1673ffffffffffffffffffffffffffffffffffffffff1681526020019081526020016000206002019080519060200190610818929190611462565b50866000808673ffffffffffffffffffffffffffffffffffffffff1673ffffffffffffffffffffffffffffffffffffffff168152602001908152602001600020600301908051906020019061086e929190611462565b50856000808673ffffffffffffffffffffffffffffffffffffffff1673ffffffffffffffffffffffffffffffffffffffff16815260200190815260200160002060040190805190602001906108c4929190611462565b50846000808673ffffffffffffffffffffffffffffffffffffffff1673ffffffffffffffffffffffffffffffffffffffff16815260200190815260200160002060050181905550826000808673ffffffffffffffffffffffffffffffffffffffff1673ffffffffffffffffffffffffffffffffffffffff1681526020019081526020016000206006019080519060200190610960929190611462565b50816000808673ffffffffffffffffffffffffffffffffffffffff1673ffffffffffffffffffffffffffffffffffffffff16815260200190815260200160002060070190805190602001906109b6929190611462565b50979650505050505050565b6000876000808673ffffffffffffffffffffffffffffffffffffffff1673ffffffffffffffffffffffffffffffffffffffff1681526020019081526020016000206001019080519060200190610a19929190611462565b50886000808673ffffffffffffffffffffffffffffffffffffffff1673ffffffffffffffffffffffffffffffffffffffff1681526020019081526020016000206002019080519060200190610a6f929190611462565b50866000808673ffffffffffffffffffffffffffffffffffffffff1673ffffffffffffffffffffffffffffffffffffffff1681526020019081526020016000206003019080519060200190610ac5929190611462565b50856000808673ffffffffffffffffffffffffffffffffffffffff1673ffffffffffffffffffffffffffffffffffffffff1681526020019081526020016000206004019080519060200190610b1b929190611462565b50846000808673ffffffffffffffffffffffffffffffffffffffff1673ffffffffffffffffffffffffffffffffffffffff16815260200190815260200160002060050181905550826000808673ffffffffffffffffffffffffffffffffffffffff1673ffffffffffffffffffffffffffffffffffffffff1681526020019081526020016000206006019080519060200190610bb7929190611462565b50816000808673ffffffffffffffffffffffffffffffffffffffff1673ffffffffffffffffffffffffffffffffffffffff1681526020019081526020016000206007019080519060200190610c0d929190611462565b506001808054806001018281610c2391906114e2565b9160005260206000209001600087909190916101000a81548173ffffffffffffffffffffffffffffffffffffffff021916908373ffffffffffffffffffffffffffffffffffffffff160217905550036000808673ffffffffffffffffffffffffffffffffffffffff1673ffffffffffffffffffffffffffffffffffffffff168152602001908152602001600020600001819055506001905098975050505050505050565b6000806000808473ffffffffffffffffffffffffffffffffffffffff1673ffffffffffffffffffffffffffffffffffffffff168152602001908152602001600020600001541115610d1b5760019050610d20565b600090505b919050565b6000806000808573ffffffffffffffffffffffffffffffffffffffff1673ffffffffffffffffffffffffffffffffffffffff168152602001908152602001600020600001541115610e9c57816040518082805190602001908083835b602083101515610da65780518252602082019150602081019050602083039250610d81565b6001836020036101000a0380198251168184511680821785525050505050509050019150506040518091039020600019166000808573ffffffffffffffffffffffffffffffffffffffff1673ffffffffffffffffffffffffffffffffffffffff1681526020019081526020016000206003016040518082805460018160011615610100020316600290048015610e735780601f10610e51576101008083540402835291820191610e73565b820191906000526020600020905b815481529060010190602001808311610e5f575b50509150506040518091039020600019161415610e935760019050610ea1565b60009050610ea1565b600090505b92915050565b610eaf61150e565b610eb761150e565b610ebf61150e565b610ec761150e565b6000610ed161150e565b610ed961150e565b6000808973ffffffffffffffffffffffffffffffffffffffff1673ffffffffffffffffffffffffffffffffffffffff1681526020019081526020016000206002016000808a73ffffffffffffffffffffffffffffffffffffffff1673ffffffffffffffffffffffffffffffffffffffff1681526020019081526020016000206001016000808b73ffffffffffffffffffffffffffffffffffffffff1673ffffffffffffffffffffffffffffffffffffffff1681526020019081526020016000206003016000808c73ffffffffffffffffffffffffffffffffffffffff1673ffffffffffffffffffffffffffffffffffffffff1681526020019081526020016000206004016000808d73ffffffffffffffffffffffffffffffffffffffff1673ffffffffffffffffffffffffffffffffffffffff168152602001908152602001600020600501546000808e73ffffffffffffffffffffffffffffffffffffffff1673ffffffffffffffffffffffffffffffffffffffff1681526020019081526020016000206006016000808f73ffffffffffffffffffffffffffffffffffffffff1673ffffffffffffffffffffffffffffffffffffffff168152602001908152602001600020600701868054600181600116156101000203166002900480601f0160208091040260200160405190810160405280929190818152602001828054600181600116156101000203166002900480156111365780601f1061110b57610100808354040283529160200191611136565b820191906000526020600020905b81548152906001019060200180831161111957829003601f168201915b50505050509650858054600181600116156101000203166002900480601f0160208091040260200160405190810160405280929190818152602001828054600181600116156101000203166002900480156111d25780601f106111a7576101008083540402835291602001916111d2565b820191906000526020600020905b8154815290600101906020018083116111b557829003601f168201915b50505050509550848054600181600116156101000203166002900480601f01602080910402602001604051908101604052809291908181526020018280546001816001161561010002031660029004801561126e5780601f106112435761010080835404028352916020019161126e565b820191906000526020600020905b81548152906001019060200180831161125157829003601f168201915b50505050509450838054600181600116156101000203166002900480601f01602080910402602001604051908101604052809291908181526020018280546001816001161561010002031660029004801561130a5780601f106112df5761010080835404028352916020019161130a565b820191906000526020600020905b8154815290600101906020018083116112ed57829003601f168201915b50505050509350818054600181600116156101000203166002900480601f0160208091040260200160405190810160405280929190818152602001828054600181600116156101000203166002900480156113a65780601f1061137b576101008083540402835291602001916113a6565b820191906000526020600020905b81548152906001019060200180831161138957829003601f168201915b50505050509150808054600181600116156101000203166002900480601f0160208091040260200160405190810160405280929190818152602001828054600181600116156101000203166002900480156114425780601f1061141757610100808354040283529160200191611442565b820191906000526020600020905b81548152906001019060200180831161142557829003601f168201915b505050505090509650965096509650965096509650919395979092949650565b828054600181600116156101000203166002900490600052602060002090601f016020900481019282601f106114a357805160ff19168380011785556114d1565b828001600101855582156114d1579182015b828111156114d05782518255916020019190600101906114b5565b5b5090506114de9190611522565b5090565b815481835581811511611509578183600052602060002091820191016115089190611522565b5b505050565b602060405190810160405280600081525090565b61154491905b80821115611540576000816000905550600101611528565b5090565b905600a165627a7a723058201fdcb3af83b2de866f796e8006055898b60dc7abb1a8a95141049fe064cd74be0029",
  "source": "pragma solidity ^0.4.19;\n\ncontract UserApp {\n    struct UserStruct {\n        uint index;\n        string photo;\n        string userName;\n        string passWord;\n        string email;\n        uint age;\n        string sex;\n        string description;\n    }\n\n    // make these private because they're related\n    mapping(address => UserStruct) private userStructs;\n    address[] private userIndex;\n\n\n    function isUser(address userAddress) public constant returns(bool isIndeed) {\n        if(userStructs[userAddress].index > 0) {\n            return true;\n        } else {\n            return false;\n        }\n    }\n\n    function addNewUser(string userName, string photo, string passWord, string email, uint age, address userAddress, string sex, string description) public returns (bool success) {\n        userStructs[userAddress].photo = photo;\n        userStructs[userAddress].userName = userName;\n        userStructs[userAddress].passWord = passWord;\n        userStructs[userAddress].email = email;\n        userStructs[userAddress].age = age;\n        userStructs[userAddress].sex = sex;\n        userStructs[userAddress].description = description;\n        userStructs[userAddress].index = userIndex.push(userAddress)-1;\n        return true;\n    }\n\n    function getUser(address _userAddress) public constant returns(string userName,string photo, string passWord, string email, uint age, string sex, string description) {\n        return(\n        userStructs[_userAddress].userName,\n        userStructs[_userAddress].photo,\n        userStructs[_userAddress].passWord,\n        userStructs[_userAddress].email,\n        userStructs[_userAddress].age,\n        userStructs[_userAddress].sex,\n        userStructs[_userAddress].description\n        );\n    }\n\n    function checkUser(address userAddress, string passWord) public returns (bool success) {\n        if (userStructs[userAddress].index > 0) {\n            if (keccak256(userStructs[userAddress].passWord) == keccak256(passWord)) {\n                return true;\n            } else{\n                return false;\n            }\n        } else {\n            return false;\n        }\n    }\n\n    function modifyUser(string userName, string passWord, string email, uint age, address userAddress, string sex, string description) public returns (bool success) {\n        userStructs[userAddress].userName = userName;\n        userStructs[userAddress].passWord = passWord;\n        userStructs[userAddress].email = email;\n        userStructs[userAddress].age = age;\n        userStructs[userAddress].sex = sex;\n        userStructs[userAddress].description = description;\n    }\n}",
  "sourcePath": "/Users/steveniiv/Test/Market-DApp/contracts/UserApp.sol",
  "compiler": {
    "name": "solc",
    "version": "0.4.19+commit.c4cbbb05.Emscripten.clang"
  },
  "schemaVersion": "3.0.19",
  "updatedAt": "2020-03-04T07:40:38.751Z",
  "networkType": "ethereum",
  "devdoc": {
    "methods": {}
  },
  "userdoc": {
    "methods": {}
  }
}