{
  "contractName": "UserApp",
  "abi": [
    {
      "constant": true,
      "inputs": [
        {
          "name": "userAddress",
          "type": "address"
        }
      ],
      "name": "isUser",
      "outputs": [
        {
          "name": "isIndeed",
          "type": "bool"
        }
      ],
      "payable": false,
      "stateMutability": "view",
      "type": "function"
    },
    {
      "constant": false,
      "inputs": [
        {
          "name": "userName",
          "type": "string"
        },
        {
          "name": "passWord",
          "type": "string"
        },
        {
          "name": "email",
          "type": "string"
        },
        {
          "name": "age",
          "type": "uint256"
        },
        {
          "name": "userAddress",
          "type": "address"
        },
        {
          "name": "sex",
          "type": "string"
        },
        {
          "name": "description",
          "type": "string"
        }
      ],
      "name": "addNewUser",
      "outputs": [
        {
          "name": "success",
          "type": "bool"
        }
      ],
      "payable": false,
      "stateMutability": "nonpayable",
      "type": "function"
    },
    {
      "constant": true,
      "inputs": [
        {
          "name": "_userAddress",
          "type": "address"
        }
      ],
      "name": "getUser",
      "outputs": [
        {
          "name": "userName",
          "type": "string"
        },
        {
          "name": "passWord",
          "type": "string"
        },
        {
          "name": "email",
          "type": "string"
        },
        {
          "name": "age",
          "type": "uint256"
        },
        {
          "name": "userAddress",
          "type": "address"
        },
        {
          "name": "sex",
          "type": "string"
        },
        {
          "name": "description",
          "type": "string"
        }
      ],
      "payable": false,
      "stateMutability": "view",
      "type": "function"
    },
    {
      "constant": false,
      "inputs": [
        {
          "name": "userAddress",
          "type": "address"
        },
        {
          "name": "passWord",
          "type": "string"
        }
      ],
      "name": "checkUser",
      "outputs": [
        {
          "name": "success",
          "type": "bool"
        }
      ],
      "payable": false,
      "stateMutability": "nonpayable",
      "type": "function"
    },
    {
      "constant": false,
      "inputs": [
        {
          "name": "userName",
          "type": "string"
        },
        {
          "name": "passWord",
          "type": "string"
        },
        {
          "name": "email",
          "type": "string"
        },
        {
          "name": "age",
          "type": "uint256"
        },
        {
          "name": "userAddress",
          "type": "address"
        },
        {
          "name": "sex",
          "type": "string"
        },
        {
          "name": "description",
          "type": "string"
        }
      ],
      "name": "modifyUser",
      "outputs": [
        {
          "name": "success",
          "type": "bool"
        }
      ],
      "payable": false,
      "stateMutability": "nonpayable",
      "type": "function"
    }
  ],
  "bytecode": "0x6060604052341561000f57600080fd5b6115388061001e6000396000f30060606040526004361061006d576000357c0100000000000000000000000000000000000000000000000000000000900463ffffffff1680630165ba0b1461007257806338a1ea1f1461021b5780634209fff1146103c457806353ee88f5146104155780636f77926b146104a9575b600080fd5b341561007d57600080fd5b610201600480803590602001908201803590602001908080601f0160208091040260200160405190810160405280939291908181526020018383808284378201915050505050509190803590602001908201803590602001908080601f0160208091040260200160405190810160405280939291908181526020018383808284378201915050505050509190803590602001908201803590602001908080601f0160208091040260200160405190810160405280939291908181526020018383808284378201915050505050509190803590602001909190803573ffffffffffffffffffffffffffffffffffffffff1690602001909190803590602001908201803590602001908080601f0160208091040260200160405190810160405280939291908181526020018383808284378201915050505050509190803590602001908201803590602001908080601f01602080910402602001604051908101604052809392919081815260200183838082843782019150505050505091905050610745565b604051808215151515815260200191505060405180910390f35b341561022657600080fd5b6103aa600480803590602001908201803590602001908080601f0160208091040260200160405190810160405280939291908181526020018383808284378201915050505050509190803590602001908201803590602001908080601f0160208091040260200160405190810160405280939291908181526020018383808284378201915050505050509190803590602001908201803590602001908080601f0160208091040260200160405190810160405280939291908181526020018383808284378201915050505050509190803590602001909190803573ffffffffffffffffffffffffffffffffffffffff1690602001909190803590602001908201803590602001908080601f0160208091040260200160405190810160405280939291908181526020018383808284378201915050505050509190803590602001908201803590602001908080601f016020809104026020016040519081016040528093929190818152602001838380828437820191505050505050919050506109cd565b604051808215151515815260200191505060405180910390f35b34156103cf57600080fd5b6103fb600480803573ffffffffffffffffffffffffffffffffffffffff16906020019091905050610d04565b604051808215151515815260200191505060405180910390f35b341561042057600080fd5b61048f600480803573ffffffffffffffffffffffffffffffffffffffff1690602001909190803590602001908201803590602001908080601f01602080910402602001604051908101604052809392919081815260200183838082843782019150505050505091905050610d63565b604051808215151515815260200191505060405180910390f35b34156104b457600080fd5b6104e0600480803573ffffffffffffffffffffffffffffffffffffffff16906020019091905050610ee7565b604051808060200180602001806020018881526020018773ffffffffffffffffffffffffffffffffffffffff1673ffffffffffffffffffffffffffffffffffffffff168152602001806020018060200186810386528d818151815260200191508051906020019080838360005b8381101561056857808201518184015260208101905061054d565b50505050905090810190601f1680156105955780820380516001836020036101000a031916815260200191505b5086810385528c818151815260200191508051906020019080838360005b838110156105ce5780820151818401526020810190506105b3565b50505050905090810190601f1680156105fb5780820380516001836020036101000a031916815260200191505b5086810384528b818151815260200191508051906020019080838360005b83811015610634578082015181840152602081019050610619565b50505050905090810190601f1680156106615780820380516001836020036101000a031916815260200191505b50868103835288818151815260200191508051906020019080838360005b8381101561069a57808201518184015260208101905061067f565b50505050905090810190601f1680156106c75780820380516001836020036101000a031916815260200191505b50868103825287818151815260200191508051906020019080838360005b838110156107005780820151818401526020810190506106e5565b50505050905090810190601f16801561072d5780820380516001836020036101000a031916815260200191505b509c5050505050505050505050505060405180910390f35b600087600160008673ffffffffffffffffffffffffffffffffffffffff1673ffffffffffffffffffffffffffffffffffffffff168152602001908152602001600020600101908051906020019061079d929190611427565b5086600160008673ffffffffffffffffffffffffffffffffffffffff1673ffffffffffffffffffffffffffffffffffffffff16815260200190815260200160002060020190805190602001906107f4929190611427565b5085600160008673ffffffffffffffffffffffffffffffffffffffff1673ffffffffffffffffffffffffffffffffffffffff168152602001908152602001600020600301908051906020019061084b929190611427565b5084600160008673ffffffffffffffffffffffffffffffffffffffff1673ffffffffffffffffffffffffffffffffffffffff1681526020019081526020016000206004018190555083600160008673ffffffffffffffffffffffffffffffffffffffff1673ffffffffffffffffffffffffffffffffffffffff16815260200190815260200160002060050160006101000a81548173ffffffffffffffffffffffffffffffffffffffff021916908373ffffffffffffffffffffffffffffffffffffffff16021790555082600160008673ffffffffffffffffffffffffffffffffffffffff1673ffffffffffffffffffffffffffffffffffffffff168152602001908152602001600020600601908051906020019061096a929190611427565b5081600160008673ffffffffffffffffffffffffffffffffffffffff1673ffffffffffffffffffffffffffffffffffffffff16815260200190815260200160002060070190805190602001906109c1929190611427565b50979650505050505050565b600087600160008673ffffffffffffffffffffffffffffffffffffffff1673ffffffffffffffffffffffffffffffffffffffff1681526020019081526020016000206001019080519060200190610a25929190611427565b5086600160008673ffffffffffffffffffffffffffffffffffffffff1673ffffffffffffffffffffffffffffffffffffffff1681526020019081526020016000206002019080519060200190610a7c929190611427565b5085600160008673ffffffffffffffffffffffffffffffffffffffff1673ffffffffffffffffffffffffffffffffffffffff1681526020019081526020016000206003019080519060200190610ad3929190611427565b5084600160008673ffffffffffffffffffffffffffffffffffffffff1673ffffffffffffffffffffffffffffffffffffffff1681526020019081526020016000206004018190555083600160008673ffffffffffffffffffffffffffffffffffffffff1673ffffffffffffffffffffffffffffffffffffffff16815260200190815260200160002060050160006101000a81548173ffffffffffffffffffffffffffffffffffffffff021916908373ffffffffffffffffffffffffffffffffffffffff16021790555082600160008673ffffffffffffffffffffffffffffffffffffffff1673ffffffffffffffffffffffffffffffffffffffff1681526020019081526020016000206006019080519060200190610bf2929190611427565b5081600160008673ffffffffffffffffffffffffffffffffffffffff1673ffffffffffffffffffffffffffffffffffffffff1681526020019081526020016000206007019080519060200190610c49929190611427565b50600160028054806001018281610c6091906114a7565b9160005260206000209001600087909190916101000a81548173ffffffffffffffffffffffffffffffffffffffff021916908373ffffffffffffffffffffffffffffffffffffffff16021790555003600160008673ffffffffffffffffffffffffffffffffffffffff1673ffffffffffffffffffffffffffffffffffffffff1681526020019081526020016000206000018190555060019050979650505050505050565b600080600160008473ffffffffffffffffffffffffffffffffffffffff1673ffffffffffffffffffffffffffffffffffffffff168152602001908152602001600020600001541115610d595760019050610d5e565b600090505b919050565b600080600160008573ffffffffffffffffffffffffffffffffffffffff1673ffffffffffffffffffffffffffffffffffffffff168152602001908152602001600020600001541115610edc57816040518082805190602001908083835b602083101515610de55780518252602082019150602081019050602083039250610dc0565b6001836020036101000a038019825116818451168082178552505050505050905001915050604051809103902060001916600160008573ffffffffffffffffffffffffffffffffffffffff1673ffffffffffffffffffffffffffffffffffffffff1681526020019081526020016000206002016040518082805460018160011615610100020316600290048015610eb35780601f10610e91576101008083540402835291820191610eb3565b820191906000526020600020905b815481529060010190602001808311610e9f575b50509150506040518091039020600019161415610ed35760019050610ee1565b60009050610ee1565b600090505b92915050565b610eef6114d3565b610ef76114d3565b610eff6114d3565b600080610f0a6114d3565b610f126114d3565b600160008973ffffffffffffffffffffffffffffffffffffffff1673ffffffffffffffffffffffffffffffffffffffff168152602001908152602001600020600101600160008a73ffffffffffffffffffffffffffffffffffffffff1673ffffffffffffffffffffffffffffffffffffffff168152602001908152602001600020600201600160008b73ffffffffffffffffffffffffffffffffffffffff1673ffffffffffffffffffffffffffffffffffffffff168152602001908152602001600020600301600160008c73ffffffffffffffffffffffffffffffffffffffff1673ffffffffffffffffffffffffffffffffffffffff16815260200190815260200160002060040154600160008d73ffffffffffffffffffffffffffffffffffffffff1673ffffffffffffffffffffffffffffffffffffffff16815260200190815260200160002060050160009054906101000a900473ffffffffffffffffffffffffffffffffffffffff16600160008e73ffffffffffffffffffffffffffffffffffffffff1673ffffffffffffffffffffffffffffffffffffffff168152602001908152602001600020600601600160008f73ffffffffffffffffffffffffffffffffffffffff1673ffffffffffffffffffffffffffffffffffffffff168152602001908152602001600020600701868054600181600116156101000203166002900480601f0160208091040260200160405190810160405280929190818152602001828054600181600116156101000203166002900480156111975780601f1061116c57610100808354040283529160200191611197565b820191906000526020600020905b81548152906001019060200180831161117a57829003601f168201915b50505050509650858054600181600116156101000203166002900480601f0160208091040260200160405190810160405280929190818152602001828054600181600116156101000203166002900480156112335780601f1061120857610100808354040283529160200191611233565b820191906000526020600020905b81548152906001019060200180831161121657829003601f168201915b50505050509550848054600181600116156101000203166002900480601f0160208091040260200160405190810160405280929190818152602001828054600181600116156101000203166002900480156112cf5780601f106112a4576101008083540402835291602001916112cf565b820191906000526020600020905b8154815290600101906020018083116112b257829003601f168201915b50505050509450818054600181600116156101000203166002900480601f01602080910402602001604051908101604052809291908181526020018280546001816001161561010002031660029004801561136b5780601f106113405761010080835404028352916020019161136b565b820191906000526020600020905b81548152906001019060200180831161134e57829003601f168201915b50505050509150808054600181600116156101000203166002900480601f0160208091040260200160405190810160405280929190818152602001828054600181600116156101000203166002900480156114075780601f106113dc57610100808354040283529160200191611407565b820191906000526020600020905b8154815290600101906020018083116113ea57829003601f168201915b505050505090509650965096509650965096509650919395979092949650565b828054600181600116156101000203166002900490600052602060002090601f016020900481019282601f1061146857805160ff1916838001178555611496565b82800160010185558215611496579182015b8281111561149557825182559160200191906001019061147a565b5b5090506114a391906114e7565b5090565b8154818355818115116114ce578183600052602060002091820191016114cd91906114e7565b5b505050565b602060405190810160405280600081525090565b61150991905b808211156115055760008160009055506001016114ed565b5090565b905600a165627a7a72305820a8b9c87ffd08e992a0545b35be9c5e05f750720b52bba006e59677ed9e2703750029",
  "source": "pragma solidity ^0.4.19;\n\ncontract UserApp {\n    struct UserStruct {\n        uint index;\n        string userName;\n        string passWord;\n        string email;\n        uint age;\n        address userAddress;\n        string sex;\n        string description;\n    }\n\n    mapping (address => uint) userBalances;\n\n    // make these private because they're related\n    mapping(address => UserStruct) private userStructs;\n    address[] private userIndex;\n\n\n    function isUser(address userAddress) public constant returns(bool isIndeed) {\n        if(userStructs[userAddress].index > 0) {\n            return true;\n        } else {\n            return false;\n        }\n    }\n\n    function addNewUser(string userName, string passWord, string email, uint age, address userAddress, string sex, string description) public returns (bool success) {\n        userStructs[userAddress].userName = userName;\n        userStructs[userAddress].passWord = passWord;\n        userStructs[userAddress].email = email;\n        userStructs[userAddress].age = age;\n        userStructs[userAddress].userAddress = userAddress;\n        userStructs[userAddress].sex = sex;\n        userStructs[userAddress].description = description;\n        userStructs[userAddress].index = userIndex.push(userAddress)-1;\n        return true;\n    }\n\n    function getUser(address _userAddress) public constant returns(string userName, string passWord, string email, uint age, address userAddress, string sex, string description) {\n        return(\n        userStructs[_userAddress].userName,\n        userStructs[_userAddress].passWord,\n        userStructs[_userAddress].email,\n        userStructs[_userAddress].age,\n        userStructs[_userAddress].userAddress,\n        userStructs[_userAddress].sex,\n        userStructs[_userAddress].description\n        );\n    }\n\n    function checkUser(address userAddress, string passWord) public returns (bool success) {\n        if (userStructs[userAddress].index > 0) {\n            if (keccak256(userStructs[userAddress].passWord) == keccak256(passWord)) {\n                return true;\n            } else{\n                return false;\n            }\n        } else {\n            return false;\n        }\n    }\n\n    function modifyUser(string userName, string passWord, string email, uint age, address userAddress, string sex, string description) public returns (bool success) {\n        userStructs[userAddress].userName = userName;\n        userStructs[userAddress].passWord = passWord;\n        userStructs[userAddress].email = email;\n        userStructs[userAddress].age = age;\n        userStructs[userAddress].userAddress = userAddress;\n        userStructs[userAddress].sex = sex;\n        userStructs[userAddress].description = description;\n    }\n}",
  "sourcePath": "/Users/steveniiv/Test/Market-DApp/contracts/UserApp.sol",
  "compiler": {
    "name": "solc",
    "version": "0.4.19+commit.c4cbbb05.Emscripten.clang"
  },
  "schemaVersion": "3.0.19",
  "updatedAt": "2020-02-25T15:28:50.861Z",
  "devdoc": {
    "methods": {}
  },
  "userdoc": {
    "methods": {}
  }
}