{
  "contractName": "UserApp",
  "abi": [
    {
      "constant": true,
      "inputs": [
        {
          "name": "userAddress",
          "type": "address"
        }
      ],
      "name": "isUser",
      "outputs": [
        {
          "name": "isIndeed",
          "type": "bool"
        }
      ],
      "payable": false,
      "stateMutability": "view",
      "type": "function"
    },
    {
      "constant": false,
      "inputs": [
        {
          "name": "userName",
          "type": "string"
        },
        {
          "name": "photo",
          "type": "string"
        },
        {
          "name": "email",
          "type": "string"
        },
        {
          "name": "age",
          "type": "uint256"
        },
        {
          "name": "sex",
          "type": "string"
        }
      ],
      "name": "addNewUser",
      "outputs": [
        {
          "name": "success",
          "type": "bool"
        }
      ],
      "payable": false,
      "stateMutability": "nonpayable",
      "type": "function"
    },
    {
      "constant": true,
      "inputs": [],
      "name": "getUser",
      "outputs": [
        {
          "name": "",
          "type": "uint256"
        },
        {
          "name": "",
          "type": "string"
        },
        {
          "name": "",
          "type": "string"
        },
        {
          "name": "",
          "type": "string"
        },
        {
          "name": "",
          "type": "uint256"
        },
        {
          "name": "",
          "type": "string"
        },
        {
          "name": "",
          "type": "uint256"
        },
        {
          "name": "",
          "type": "uint256"
        },
        {
          "name": "",
          "type": "uint256"
        }
      ],
      "payable": false,
      "stateMutability": "view",
      "type": "function"
    },
    {
      "constant": false,
      "inputs": [
        {
          "name": "userName",
          "type": "string"
        },
        {
          "name": "email",
          "type": "string"
        },
        {
          "name": "age",
          "type": "uint256"
        },
        {
          "name": "sex",
          "type": "string"
        }
      ],
      "name": "modifyUser",
      "outputs": [
        {
          "name": "success",
          "type": "bool"
        }
      ],
      "payable": false,
      "stateMutability": "nonpayable",
      "type": "function"
    },
    {
      "constant": true,
      "inputs": [
        {
          "name": "sender",
          "type": "address"
        }
      ],
      "name": "getUserName",
      "outputs": [
        {
          "name": "",
          "type": "string"
        }
      ],
      "payable": false,
      "stateMutability": "view",
      "type": "function"
    },
    {
      "constant": false,
      "inputs": [
        {
          "name": "stars",
          "type": "uint256"
        }
      ],
      "name": "modifyUserCredit",
      "outputs": [],
      "payable": false,
      "stateMutability": "nonpayable",
      "type": "function"
    }
  ],
  "bytecode": "0x6060604052341561000f57600080fd5b61148a8061001e6000396000f300606060405260043610610078576000357c0100000000000000000000000000000000000000000000000000000000900463ffffffff1680630f8459d21461007d5780634209fff1146100a0578063603bfa87146100f1578063832880e7146101f5578063d84f55ee146103ea578063fcf48f5d1461049c575b600080fd5b341561008857600080fd5b61009e60048080359060200190919050506105e3565b005b34156100ab57600080fd5b6100d7600480803573ffffffffffffffffffffffffffffffffffffffff169060200190919050506107b3565b604051808215151515815260200191505060405180910390f35b34156100fc57600080fd5b6101db600480803590602001908201803590602001908080601f0160208091040260200160405190810160405280939291908181526020018383808284378201915050505050509190803590602001908201803590602001908080601f0160208091040260200160405190810160405280939291908181526020018383808284378201915050505050509190803590602001909190803590602001908201803590602001908080601f01602080910402602001604051908101604052809392919081815260200183838082843782019150505050505091905050610811565b604051808215151515815260200191505060405180910390f35b341561020057600080fd5b6102086109b8565b604051808a81526020018060200180602001806020018981526020018060200188815260200187815260200186815260200185810385528d818151815260200191508051906020019080838360005b83811015610272578082015181840152602081019050610257565b50505050905090810190601f16801561029f5780820380516001836020036101000a031916815260200191505b5085810384528c818151815260200191508051906020019080838360005b838110156102d85780820151818401526020810190506102bd565b50505050905090810190601f1680156103055780820380516001836020036101000a031916815260200191505b5085810383528b818151815260200191508051906020019080838360005b8381101561033e578082015181840152602081019050610323565b50505050905090810190601f16801561036b5780820380516001836020036101000a031916815260200191505b50858103825289818151815260200191508051906020019080838360005b838110156103a4578082015181840152602081019050610389565b50505050905090810190601f1680156103d15780820380516001836020036101000a031916815260200191505b509d505050505050505050505050505060405180910390f35b34156103f557600080fd5b610421600480803573ffffffffffffffffffffffffffffffffffffffff16906020019091905050610f11565b6040518080602001828103825283818151815260200191508051906020019080838360005b83811015610461578082015181840152602081019050610446565b50505050905090810190601f16801561048e5780820380516001836020036101000a031916815260200191505b509250505060405180910390f35b34156104a757600080fd5b6105c9600480803590602001908201803590602001908080601f0160208091040260200160405190810160405280939291908181526020018383808284378201915050505050509190803590602001908201803590602001908080601f0160208091040260200160405190810160405280939291908181526020018383808284378201915050505050509190803590602001908201803590602001908080601f0160208091040260200160405190810160405280939291908181526020018383808284378201915050505050509190803590602001909190803590602001908201803590602001908080601f0160208091040260200160405190810160405280939291908181526020018383808284378201915050505050509190505061104a565b604051808215151515815260200191505060405180910390f35b600080600033925060008060008573ffffffffffffffffffffffffffffffffffffffff1673ffffffffffffffffffffffffffffffffffffffff1681526020019081526020016000206006015411151561063b57600080fd5b6000808473ffffffffffffffffffffffffffffffffffffffff1673ffffffffffffffffffffffffffffffffffffffff168152602001908152602001600020600801546000808573ffffffffffffffffffffffffffffffffffffffff1673ffffffffffffffffffffffffffffffffffffffff1681526020019081526020016000206007015402915060016000808573ffffffffffffffffffffffffffffffffffffffff1673ffffffffffffffffffffffffffffffffffffffff168152602001908152602001600020600801540184830181151561071357fe5b049050806000808573ffffffffffffffffffffffffffffffffffffffff1673ffffffffffffffffffffffffffffffffffffffff168152602001908152602001600020600701819055506000808473ffffffffffffffffffffffffffffffffffffffff1673ffffffffffffffffffffffffffffffffffffffff1681526020019081526020016000206008016000815480929190600101919050555050505050565b6000806000808473ffffffffffffffffffffffffffffffffffffffff1673ffffffffffffffffffffffffffffffffffffffff168152602001908152602001600020600001541115610807576001905061080c565b600090505b919050565b60008033905060008060008373ffffffffffffffffffffffffffffffffffffffff1673ffffffffffffffffffffffffffffffffffffffff1681526020019081526020016000206006015411151561086757600080fd5b856000808373ffffffffffffffffffffffffffffffffffffffff1673ffffffffffffffffffffffffffffffffffffffff16815260200190815260200160002060020190805190602001906108bc929190611379565b50846000808373ffffffffffffffffffffffffffffffffffffffff1673ffffffffffffffffffffffffffffffffffffffff1681526020019081526020016000206003019080519060200190610912929190611379565b50836000808373ffffffffffffffffffffffffffffffffffffffff1673ffffffffffffffffffffffffffffffffffffffff16815260200190815260200160002060040181905550826000808373ffffffffffffffffffffffffffffffffffffffff1673ffffffffffffffffffffffffffffffffffffffff16815260200190815260200160002060050190805190602001906109ae929190611379565b5050949350505050565b60006109c26113f9565b6109ca6113f9565b6109d26113f9565b60006109dc6113f9565b60008060008033905060008060008373ffffffffffffffffffffffffffffffffffffffff1673ffffffffffffffffffffffffffffffffffffffff16815260200190815260200160002060060154111515610a3557600080fd5b6000808273ffffffffffffffffffffffffffffffffffffffff1673ffffffffffffffffffffffffffffffffffffffff168152602001908152602001600020600001546000808373ffffffffffffffffffffffffffffffffffffffff1673ffffffffffffffffffffffffffffffffffffffff1681526020019081526020016000206002016000808473ffffffffffffffffffffffffffffffffffffffff1673ffffffffffffffffffffffffffffffffffffffff1681526020019081526020016000206001016000808573ffffffffffffffffffffffffffffffffffffffff1673ffffffffffffffffffffffffffffffffffffffff1681526020019081526020016000206003016000808673ffffffffffffffffffffffffffffffffffffffff1673ffffffffffffffffffffffffffffffffffffffff168152602001908152602001600020600401546000808773ffffffffffffffffffffffffffffffffffffffff1673ffffffffffffffffffffffffffffffffffffffff1681526020019081526020016000206005016000808873ffffffffffffffffffffffffffffffffffffffff1673ffffffffffffffffffffffffffffffffffffffff168152602001908152602001600020600601546000808973ffffffffffffffffffffffffffffffffffffffff1673ffffffffffffffffffffffffffffffffffffffff168152602001908152602001600020600701546000808a73ffffffffffffffffffffffffffffffffffffffff1673ffffffffffffffffffffffffffffffffffffffff16815260200190815260200160002060080154878054600181600116156101000203166002900480601f016020809104026020016040519081016040528092919081815260200182805460018160011615610100020316600290048015610d185780601f10610ced57610100808354040283529160200191610d18565b820191906000526020600020905b815481529060010190602001808311610cfb57829003601f168201915b50505050509750868054600181600116156101000203166002900480601f016020809104026020016040519081016040528092919081815260200182805460018160011615610100020316600290048015610db45780601f10610d8957610100808354040283529160200191610db4565b820191906000526020600020905b815481529060010190602001808311610d9757829003601f168201915b50505050509650858054600181600116156101000203166002900480601f016020809104026020016040519081016040528092919081815260200182805460018160011615610100020316600290048015610e505780601f10610e2557610100808354040283529160200191610e50565b820191906000526020600020905b815481529060010190602001808311610e3357829003601f168201915b50505050509550838054600181600116156101000203166002900480601f016020809104026020016040519081016040528092919081815260200182805460018160011615610100020316600290048015610eec5780601f10610ec157610100808354040283529160200191610eec565b820191906000526020600020905b815481529060010190602001808311610ecf57829003601f168201915b5050505050935099509950995099509950995099509950995050909192939495969798565b610f196113f9565b60008060008473ffffffffffffffffffffffffffffffffffffffff1673ffffffffffffffffffffffffffffffffffffffff16815260200190815260200160002060060154111515610f6957600080fd5b6000808373ffffffffffffffffffffffffffffffffffffffff1673ffffffffffffffffffffffffffffffffffffffff1681526020019081526020016000206002018054600181600116156101000203166002900480601f01602080910402602001604051908101604052809291908181526020018280546001816001161561010002031660029004801561103e5780601f106110135761010080835404028352916020019161103e565b820191906000526020600020905b81548152906001019060200180831161102157829003601f168201915b50505050509050919050565b600080339050856000808373ffffffffffffffffffffffffffffffffffffffff1673ffffffffffffffffffffffffffffffffffffffff16815260200190815260200160002060010190805190602001906110a5929190611379565b50866000808373ffffffffffffffffffffffffffffffffffffffff1673ffffffffffffffffffffffffffffffffffffffff16815260200190815260200160002060020190805190602001906110fb929190611379565b50846000808373ffffffffffffffffffffffffffffffffffffffff1673ffffffffffffffffffffffffffffffffffffffff1681526020019081526020016000206003019080519060200190611151929190611379565b50836000808373ffffffffffffffffffffffffffffffffffffffff1673ffffffffffffffffffffffffffffffffffffffff16815260200190815260200160002060040181905550826000808373ffffffffffffffffffffffffffffffffffffffff1673ffffffffffffffffffffffffffffffffffffffff16815260200190815260200160002060050190805190602001906111ed929190611379565b50426000808373ffffffffffffffffffffffffffffffffffffffff1673ffffffffffffffffffffffffffffffffffffffff1681526020019081526020016000206006018190555060056000808373ffffffffffffffffffffffffffffffffffffffff1673ffffffffffffffffffffffffffffffffffffffff1681526020019081526020016000206007018190555060008060008373ffffffffffffffffffffffffffffffffffffffff1673ffffffffffffffffffffffffffffffffffffffff1681526020019081526020016000206008018190555060018080548060010182816112d7919061140d565b9160005260206000209001600084909190916101000a81548173ffffffffffffffffffffffffffffffffffffffff021916908373ffffffffffffffffffffffffffffffffffffffff160217905550036000808373ffffffffffffffffffffffffffffffffffffffff1673ffffffffffffffffffffffffffffffffffffffff16815260200190815260200160002060000181905550600191505095945050505050565b828054600181600116156101000203166002900490600052602060002090601f016020900481019282601f106113ba57805160ff19168380011785556113e8565b828001600101855582156113e8579182015b828111156113e75782518255916020019190600101906113cc565b5b5090506113f59190611439565b5090565b602060405190810160405280600081525090565b815481835581811511611434578183600052602060002091820191016114339190611439565b5b505050565b61145b91905b8082111561145757600081600090555060010161143f565b5090565b905600a165627a7a723058203e916e35d273423060bb72604e28232100fb35455255d70d5618fc7239f67d0d0029",
  "source": "pragma solidity ^0.4.19;\n\ncontract UserApp {\n    struct UserStruct {\n        uint index;\n        string photo;\n        string userName;\n        string email;\n        uint age;\n        string sex;\n        uint createAt;\n        uint credit;\n        uint soldNumber;\n    }\n\n    mapping(address => UserStruct) private userStructs;\n    address[] private userIndex;\n\n\n    function isUser(address userAddress) public constant returns(bool isIndeed) {\n        if(userStructs[userAddress].index > 0) {\n            return true;\n        } else {\n            return false;\n        }\n    }\n\n    function addNewUser(string userName, string photo, string email, uint age,string sex) public returns (bool success) {\n        address userAddress = msg.sender;\n        userStructs[userAddress].photo = photo;\n        userStructs[userAddress].userName = userName;\n        userStructs[userAddress].email = email;\n        userStructs[userAddress].age = age;\n        userStructs[userAddress].sex = sex;\n        userStructs[userAddress].createAt = now;\n        userStructs[userAddress].credit = 5;\n        userStructs[userAddress].soldNumber = 0;\n        userStructs[userAddress].index = userIndex.push(userAddress)-1;\n        return true;\n    }\n\n    function getUser() public constant returns(uint, string, string, string, uint, string, uint, uint, uint) {\n        address _userAddress = msg.sender;\n        require(userStructs[_userAddress].createAt > 0);\n        return(\n        userStructs[_userAddress].index,\n        userStructs[_userAddress].userName,\n        userStructs[_userAddress].photo,\n        userStructs[_userAddress].email,\n        userStructs[_userAddress].age,\n        userStructs[_userAddress].sex,\n        userStructs[_userAddress].createAt,\n        userStructs[_userAddress].credit,\n        userStructs[_userAddress].soldNumber\n        );\n    }\n\n    function modifyUser(string userName, string email, uint age, string sex) public returns (bool success) {\n        address userAddress = msg.sender;\n        require(userStructs[userAddress].createAt > 0);\n        userStructs[userAddress].userName = userName;\n        userStructs[userAddress].email = email;\n        userStructs[userAddress].age = age;\n        userStructs[userAddress].sex = sex;\n    }\n\n    function getUserName(address sender) constant returns(string){\n        require(userStructs[sender].createAt > 0);\n        return userStructs[sender].userName;\n    }\n\n    function modifyUserCredit(uint stars) public{\n        address userAddress = msg.sender;\n        require(userStructs[userAddress].createAt > 0);\n        uint oldCredit = userStructs[userAddress].credit * userStructs[userAddress].soldNumber;\n        uint newCredit = (oldCredit + stars) / (userStructs[userAddress].soldNumber + 1);\n        userStructs[userAddress].credit = newCredit;\n        userStructs[userAddress].soldNumber++;\n    }\n}",
  "sourcePath": "/Users/steveniiv/Test/Market-DApp/contracts/UserApp.sol",
  "compiler": {
    "name": "solc",
    "version": "0.4.19+commit.c4cbbb05.Emscripten.clang"
  },
  "schemaVersion": "3.0.19",
  "updatedAt": "2020-03-14T06:51:26.022Z",
  "networkType": "ethereum",
  "devdoc": {
    "methods": {}
  },
  "userdoc": {
    "methods": {}
  }
}